{
  "_format": "hh-sol-artifact-1",
  "contractName": "aUSD",
  "sourceName": "contracts/aUSD.sol",
  "abi": [
    {
      "inputs": [],
      "stateMutability": "nonpayable",
      "type": "constructor"
    },
    {
      "anonymous": false,
      "inputs": [
        {
          "indexed": true,
          "internalType": "address",
          "name": "owner",
          "type": "address"
        },
        {
          "indexed": true,
          "internalType": "address",
          "name": "spender",
          "type": "address"
        },
        {
          "indexed": false,
          "internalType": "uint256",
          "name": "value",
          "type": "uint256"
        }
      ],
      "name": "Approval",
      "type": "event"
    },
    {
      "anonymous": false,
      "inputs": [
        {
          "indexed": false,
          "internalType": "address",
          "name": "recipient",
          "type": "address"
        },
        {
          "indexed": false,
          "internalType": "uint256",
          "name": "amount",
          "type": "uint256"
        }
      ],
      "name": "BalanceSet",
      "type": "event"
    },
    {
      "anonymous": false,
      "inputs": [
        {
          "indexed": true,
          "internalType": "address",
          "name": "previousOwner",
          "type": "address"
        },
        {
          "indexed": true,
          "internalType": "address",
          "name": "newOwner",
          "type": "address"
        }
      ],
      "name": "OwnershipTransferred",
      "type": "event"
    },
    {
      "anonymous": false,
      "inputs": [
        {
          "indexed": true,
          "internalType": "bytes32",
          "name": "role",
          "type": "bytes32"
        },
        {
          "indexed": true,
          "internalType": "bytes32",
          "name": "previousAdminRole",
          "type": "bytes32"
        },
        {
          "indexed": true,
          "internalType": "bytes32",
          "name": "newAdminRole",
          "type": "bytes32"
        }
      ],
      "name": "RoleAdminChanged",
      "type": "event"
    },
    {
      "anonymous": false,
      "inputs": [
        {
          "indexed": true,
          "internalType": "bytes32",
          "name": "role",
          "type": "bytes32"
        },
        {
          "indexed": true,
          "internalType": "address",
          "name": "account",
          "type": "address"
        },
        {
          "indexed": true,
          "internalType": "address",
          "name": "sender",
          "type": "address"
        }
      ],
      "name": "RoleGranted",
      "type": "event"
    },
    {
      "anonymous": false,
      "inputs": [
        {
          "indexed": true,
          "internalType": "bytes32",
          "name": "role",
          "type": "bytes32"
        },
        {
          "indexed": true,
          "internalType": "address",
          "name": "account",
          "type": "address"
        },
        {
          "indexed": true,
          "internalType": "address",
          "name": "sender",
          "type": "address"
        }
      ],
      "name": "RoleRevoked",
      "type": "event"
    },
    {
      "anonymous": false,
      "inputs": [
        {
          "indexed": true,
          "internalType": "address",
          "name": "from",
          "type": "address"
        },
        {
          "indexed": true,
          "internalType": "address",
          "name": "to",
          "type": "address"
        },
        {
          "indexed": false,
          "internalType": "uint256",
          "name": "value",
          "type": "uint256"
        }
      ],
      "name": "Transfer",
      "type": "event"
    },
    {
      "inputs": [],
      "name": "DEFAULT_ADMIN_ROLE",
      "outputs": [
        {
          "internalType": "bytes32",
          "name": "",
          "type": "bytes32"
        }
      ],
      "stateMutability": "view",
      "type": "function"
    },
    {
      "inputs": [],
      "name": "SET_BALANCE",
      "outputs": [
        {
          "internalType": "bytes32",
          "name": "",
          "type": "bytes32"
        }
      ],
      "stateMutability": "view",
      "type": "function"
    },
    {
      "inputs": [
        {
          "internalType": "address",
          "name": "",
          "type": "address"
        },
        {
          "internalType": "address",
          "name": "",
          "type": "address"
        }
      ],
      "name": "allowance",
      "outputs": [
        {
          "internalType": "uint256",
          "name": "",
          "type": "uint256"
        }
      ],
      "stateMutability": "view",
      "type": "function"
    },
    {
      "inputs": [
        {
          "internalType": "address",
          "name": "",
          "type": "address"
        },
        {
          "internalType": "uint256",
          "name": "",
          "type": "uint256"
        }
      ],
      "name": "approve",
      "outputs": [
        {
          "internalType": "bool",
          "name": "",
          "type": "bool"
        }
      ],
      "stateMutability": "nonpayable",
      "type": "function"
    },
    {
      "inputs": [
        {
          "internalType": "address",
          "name": "account",
          "type": "address"
        }
      ],
      "name": "balanceOf",
      "outputs": [
        {
          "internalType": "uint256",
          "name": "",
          "type": "uint256"
        }
      ],
      "stateMutability": "view",
      "type": "function"
    },
    {
      "inputs": [],
      "name": "decimals",
      "outputs": [
        {
          "internalType": "uint8",
          "name": "",
          "type": "uint8"
        }
      ],
      "stateMutability": "view",
      "type": "function"
    },
    {
      "inputs": [
        {
          "internalType": "address",
          "name": "spender",
          "type": "address"
        },
        {
          "internalType": "uint256",
          "name": "subtractedValue",
          "type": "uint256"
        }
      ],
      "name": "decreaseAllowance",
      "outputs": [
        {
          "internalType": "bool",
          "name": "",
          "type": "bool"
        }
      ],
      "stateMutability": "nonpayable",
      "type": "function"
    },
    {
      "inputs": [
        {
          "internalType": "bytes32",
          "name": "role",
          "type": "bytes32"
        }
      ],
      "name": "getRoleAdmin",
      "outputs": [
        {
          "internalType": "bytes32",
          "name": "",
          "type": "bytes32"
        }
      ],
      "stateMutability": "view",
      "type": "function"
    },
    {
      "inputs": [
        {
          "internalType": "bytes32",
          "name": "role",
          "type": "bytes32"
        },
        {
          "internalType": "address",
          "name": "account",
          "type": "address"
        }
      ],
      "name": "grantRole",
      "outputs": [],
      "stateMutability": "nonpayable",
      "type": "function"
    },
    {
      "inputs": [
        {
          "internalType": "address",
          "name": "recipient",
          "type": "address"
        }
      ],
      "name": "grantRoleForBalance",
      "outputs": [],
      "stateMutability": "nonpayable",
      "type": "function"
    },
    {
      "inputs": [
        {
          "internalType": "bytes32",
          "name": "role",
          "type": "bytes32"
        },
        {
          "internalType": "address",
          "name": "account",
          "type": "address"
        }
      ],
      "name": "hasRole",
      "outputs": [
        {
          "internalType": "bool",
          "name": "",
          "type": "bool"
        }
      ],
      "stateMutability": "view",
      "type": "function"
    },
    {
      "inputs": [
        {
          "internalType": "address",
          "name": "spender",
          "type": "address"
        },
        {
          "internalType": "uint256",
          "name": "addedValue",
          "type": "uint256"
        }
      ],
      "name": "increaseAllowance",
      "outputs": [
        {
          "internalType": "bool",
          "name": "",
          "type": "bool"
        }
      ],
      "stateMutability": "nonpayable",
      "type": "function"
    },
    {
      "inputs": [],
      "name": "name",
      "outputs": [
        {
          "internalType": "string",
          "name": "",
          "type": "string"
        }
      ],
      "stateMutability": "view",
      "type": "function"
    },
    {
      "inputs": [],
      "name": "owner",
      "outputs": [
        {
          "internalType": "address",
          "name": "",
          "type": "address"
        }
      ],
      "stateMutability": "view",
      "type": "function"
    },
    {
      "inputs": [],
      "name": "renounceOwnership",
      "outputs": [],
      "stateMutability": "nonpayable",
      "type": "function"
    },
    {
      "inputs": [
        {
          "internalType": "bytes32",
          "name": "role",
          "type": "bytes32"
        },
        {
          "internalType": "address",
          "name": "account",
          "type": "address"
        }
      ],
      "name": "renounceRole",
      "outputs": [],
      "stateMutability": "nonpayable",
      "type": "function"
    },
    {
      "inputs": [
        {
          "internalType": "bytes32",
          "name": "role",
          "type": "bytes32"
        },
        {
          "internalType": "address",
          "name": "account",
          "type": "address"
        }
      ],
      "name": "revokeRole",
      "outputs": [],
      "stateMutability": "nonpayable",
      "type": "function"
    },
    {
      "inputs": [
        {
          "internalType": "address payable",
          "name": "_liminalExchangeAddress",
          "type": "address"
        }
      ],
      "name": "setAddresses",
      "outputs": [],
      "stateMutability": "nonpayable",
      "type": "function"
    },
    {
      "inputs": [
        {
          "internalType": "address",
          "name": "recipient",
          "type": "address"
        },
        {
          "internalType": "uint256",
          "name": "amount",
          "type": "uint256"
        }
      ],
      "name": "setBalance",
      "outputs": [
        {
          "internalType": "uint256",
          "name": "",
          "type": "uint256"
        }
      ],
      "stateMutability": "nonpayable",
      "type": "function"
    },
    {
      "inputs": [
        {
          "internalType": "bytes4",
          "name": "interfaceId",
          "type": "bytes4"
        }
      ],
      "name": "supportsInterface",
      "outputs": [
        {
          "internalType": "bool",
          "name": "",
          "type": "bool"
        }
      ],
      "stateMutability": "view",
      "type": "function"
    },
    {
      "inputs": [],
      "name": "symbol",
      "outputs": [
        {
          "internalType": "string",
          "name": "",
          "type": "string"
        }
      ],
      "stateMutability": "view",
      "type": "function"
    },
    {
      "inputs": [],
      "name": "totalSupply",
      "outputs": [
        {
          "internalType": "uint256",
          "name": "",
          "type": "uint256"
        }
      ],
      "stateMutability": "view",
      "type": "function"
    },
    {
      "inputs": [
        {
          "internalType": "address",
          "name": "recipient",
          "type": "address"
        },
        {
          "internalType": "uint256",
          "name": "amount",
          "type": "uint256"
        }
      ],
      "name": "transfer",
      "outputs": [
        {
          "internalType": "bool",
          "name": "",
          "type": "bool"
        }
      ],
      "stateMutability": "nonpayable",
      "type": "function"
    },
    {
      "inputs": [
        {
          "internalType": "address",
          "name": "",
          "type": "address"
        },
        {
          "internalType": "address",
          "name": "",
          "type": "address"
        },
        {
          "internalType": "uint256",
          "name": "",
          "type": "uint256"
        }
      ],
      "name": "transferFrom",
      "outputs": [
        {
          "internalType": "bool",
          "name": "",
          "type": "bool"
        }
      ],
      "stateMutability": "nonpayable",
      "type": "function"
    },
    {
      "inputs": [
        {
          "internalType": "address",
          "name": "newOwner",
          "type": "address"
        }
      ],
      "name": "transferOwnership",
      "outputs": [],
      "stateMutability": "nonpayable",
      "type": "function"
    }
  ],
  "bytecode": "0x60806040523480156200001157600080fd5b50604080518082018252600d81526c2aa9a21030ba10213937b5b2b960991b602080830191825283518085019094526004845263185554d160e21b9084015281519192916200006391600391620001df565b50805162000079906004906020840190620001df565b5050506200009662000090620000d560201b60201c565b620000d9565b620000a36000336200012b565b620000cf7fe2cf92468dcfb4f826eeba6f029d4279f4503e956b3f5b12dc84784c04d96d50336200012b565b620002c2565b3390565b600580546001600160a01b038381166001600160a01b0319831681179093556040519116919082907f8be0079c531659141344cd1fd0a4f28419497f9722a3daafe3b4186f6b6457e090600090a35050565b6200013782826200013b565b5050565b60008281526006602090815260408083206001600160a01b038516845290915290205460ff16620001375760008281526006602090815260408083206001600160a01b03851684529091529020805460ff191660011790556200019b3390565b6001600160a01b0316816001600160a01b0316837f2f8788117e7eff1d82e926ec794901d17c78024a50270940304540a733656f0d60405160405180910390a45050565b828054620001ed9062000285565b90600052602060002090601f0160209004810192826200021157600085556200025c565b82601f106200022c57805160ff19168380011785556200025c565b828001600101855582156200025c579182015b828111156200025c5782518255916020019190600101906200023f565b506200026a9291506200026e565b5090565b5b808211156200026a57600081556001016200026f565b600181811c908216806200029a57607f821691505b60208210811415620002bc57634e487b7160e01b600052602260045260246000fd5b50919050565b61198380620002d26000396000f3fe608060405234801561001057600080fd5b50600436106101a35760003560e01c8063715018a6116100ee578063a457c2d711610097578063dd62ed3e11610071578063dd62ed3e1461037e578063deeb552b14610391578063e30443bc146103b8578063f2fde38b146103cb57600080fd5b8063a457c2d714610345578063a9059cbb14610358578063d547741f1461036b57600080fd5b806391d14854116100c857806391d14854146102fc57806395d89b4114610335578063a217fddf1461033d57600080fd5b8063715018a6146102c657806381d3c435146102ce5780638da5cb5b146102e157600080fd5b8063253a87211161015057806336568abe1161012a57806336568abe14610277578063395093511461028a57806370a082311461029d57600080fd5b8063253a8721146102405780632f2ff15d14610255578063313ce5671461026857600080fd5b806318160ddd1161018157806318160ddd146101f857806323b872dd1461020a578063248a9ca31461021d57600080fd5b806301ffc9a7146101a857806306fdde03146101d0578063095ea7b3146101e5575b600080fd5b6101bb6101b63660046116d7565b6103de565b60405190151581526020015b60405180910390f35b6101d8610477565b6040516101c791906117c6565b6101bb6101f336600461164b565b610509565b6002545b6040519081526020016101c7565b6101bb61021836600461160a565b610559565b6101fc61022b366004611699565b60009081526006602052604090206001015490565b61025361024e3660046115b4565b6105a4565b005b6102536102633660046116b2565b61062b565b604051601281526020016101c7565b6102536102853660046116b2565b610656565b6101bb61029836600461164b565b6106e2565b6101fc6102ab3660046115b4565b6001600160a01b031660009081526020819052604090205490565b610253610727565b6102536102dc3660046115b4565b61078d565b6005546040516001600160a01b0390911681526020016101c7565b6101bb61030a3660046116b2565b60009182526006602090815260408084206001600160a01b0393909316845291905290205460ff1690565b6101d8610816565b6101fc600081565b6101bb61035336600461164b565b610825565b6101bb61036636600461164b565b6108d6565b6102536103793660046116b2565b610983565b6101fc61038c3660046115d1565b6109a9565b6101fc7fe2cf92468dcfb4f826eeba6f029d4279f4503e956b3f5b12dc84784c04d96d5081565b6101fc6103c636600461164b565b6109f4565b6102536103d93660046115b4565b610c2d565b60007fffffffff0000000000000000000000000000000000000000000000000000000082167f7965db0b00000000000000000000000000000000000000000000000000000000148061047157507f01ffc9a7000000000000000000000000000000000000000000000000000000007fffffffff000000000000000000000000000000000000000000000000000000008316145b92915050565b606060038054610486906118bb565b80601f01602080910402602001604051908101604052809291908181526020018280546104b2906118bb565b80156104ff5780601f106104d4576101008083540402835291602001916104ff565b820191906000526020600020905b8154815290600101906020018083116104e257829003601f168201915b5050505050905090565b60405162461bcd60e51b815260206004820152601360248201527f4e6f206e65656420666f7220617070726f76650000000000000000000000000060448201526000906064015b60405180910390fd5b60405162461bcd60e51b815260206004820152601f60248201527f5468697320746f6b656e2063616e6e6f74206265207472616e736665726564006044820152600090606401610550565b6005546001600160a01b031633146105fe5760405162461bcd60e51b815260206004820152601760248201527f4f6e6c79206f776e65722063616e2073657420726f6c650000000000000000006044820152606401610550565b6106287fe2cf92468dcfb4f826eeba6f029d4279f4503e956b3f5b12dc84784c04d96d508261062b565b50565b6000828152600660205260409020600101546106478133610d0c565b6106518383610d8c565b505050565b6001600160a01b03811633146106d45760405162461bcd60e51b815260206004820152602f60248201527f416363657373436f6e74726f6c3a2063616e206f6e6c792072656e6f756e636560448201527f20726f6c657320666f722073656c6600000000000000000000000000000000006064820152608401610550565b6106de8282610e2e565b5050565b3360008181526001602090815260408083206001600160a01b0387168452909152812054909161071e918590610719908690611826565b610eb1565b50600192915050565b6005546001600160a01b031633146107815760405162461bcd60e51b815260206004820181905260248201527f4f776e61626c653a2063616c6c6572206973206e6f7420746865206f776e65726044820152606401610550565b61078b6000611009565b565b6005546001600160a01b031633146107e75760405162461bcd60e51b815260206004820152601a60248201527f4f6e6c79206f776e65722063616e2073657420616464726573730000000000006044820152606401610550565b6007805473ffffffffffffffffffffffffffffffffffffffff19166001600160a01b0392909216919091179055565b606060048054610486906118bb565b3360009081526001602090815260408083206001600160a01b0386168452909152812054828110156108bf5760405162461bcd60e51b815260206004820152602560248201527f45524332303a2064656372656173656420616c6c6f77616e63652062656c6f7760448201527f207a65726f0000000000000000000000000000000000000000000000000000006064820152608401610550565b6108cc3385858403610eb1565b5060019392505050565b6007546040517f6cfde4910000000000000000000000000000000000000000000000000000000081523360048201526001600160a01b038481166024830152604482018490526000921690636cfde49190606401602060405180830381600087803b15801561094457600080fd5b505af1158015610958573d6000803e3d6000fd5b505050506040513d601f19601f8201168201806040525081019061097c9190611677565b9392505050565b60008281526006602052604090206001015461099f8133610d0c565b6106518383610e2e565b60405162461bcd60e51b815260206004820152601560248201527f4e6f206e65656420666f7220616c6c6f77616e636500000000000000000000006044820152600090606401610550565b6000610a356040518060400160405280600e81526020017f61557364202d2073656e6465723a00000000000000000000000000000000000081525033611068565b610a746040518060400160405280600e81526020017f61557364202d20616d6f756e743a000000000000000000000000000000000000815250836110db565b3360009081527f16b5194d5cb93eafb343b5c523fac04fcf464e70614a210fb818fa04be9e7441602052604090205460ff16610b185760405162461bcd60e51b815260206004820152602760248201527f596f7520646f6e742068617665207065726d697373696f6e20746f207365742060448201527f62616c616e6365000000000000000000000000000000000000000000000000006064820152608401610550565b6001600160a01b0383166000908152602081905260408120549050610b726040518060400160405280601581526020017f61557364202d2062616c616e63654265666f72653a0000000000000000000000815250826110db565b610b7c848261114e565b610b8684846112d3565b610be36040518060400160405280601481526020017f61557364202d2062616c616e636541667465723a000000000000000000000000815250610bde866001600160a01b031660009081526020819052604090205490565b6110db565b604080516001600160a01b0386168152602081018590527faca675004c66aff66f6e84aac634806e6c3550b1a6ba29fc8e1c1471ad1babf1910160405180910390a1509092915050565b6005546001600160a01b03163314610c875760405162461bcd60e51b815260206004820181905260248201527f4f776e61626c653a2063616c6c6572206973206e6f7420746865206f776e65726044820152606401610550565b6001600160a01b038116610d035760405162461bcd60e51b815260206004820152602660248201527f4f776e61626c653a206e6577206f776e657220697320746865207a65726f206160448201527f64647265737300000000000000000000000000000000000000000000000000006064820152608401610550565b61062881611009565b60008281526006602090815260408083206001600160a01b038516845290915290205460ff166106de57610d4a816001600160a01b031660146113b2565b610d558360206113b2565b604051602001610d66929190611745565b60408051601f198184030181529082905262461bcd60e51b8252610550916004016117c6565b60008281526006602090815260408083206001600160a01b038516845290915290205460ff166106de5760008281526006602090815260408083206001600160a01b03851684529091529020805460ff19166001179055610dea3390565b6001600160a01b0316816001600160a01b0316837f2f8788117e7eff1d82e926ec794901d17c78024a50270940304540a733656f0d60405160405180910390a45050565b60008281526006602090815260408083206001600160a01b038516845290915290205460ff16156106de5760008281526006602090815260408083206001600160a01b0385168085529252808320805460ff1916905551339285917ff6391f5c32d9c69d2a47ea670b442974b53935d1edc7fd64eb21e047a839171b9190a45050565b6001600160a01b038316610f2c5760405162461bcd60e51b8152602060048201526024808201527f45524332303a20617070726f76652066726f6d20746865207a65726f2061646460448201527f72657373000000000000000000000000000000000000000000000000000000006064820152608401610550565b6001600160a01b038216610fa85760405162461bcd60e51b815260206004820152602260248201527f45524332303a20617070726f766520746f20746865207a65726f20616464726560448201527f73730000000000000000000000000000000000000000000000000000000000006064820152608401610550565b6001600160a01b0383811660008181526001602090815260408083209487168084529482529182902085905590518481527f8c5be1e5ebec7d5bd14f71427d1e84f3dd0314c0f7b2291e5b200ac8c7c3b925910160405180910390a3505050565b600580546001600160a01b0383811673ffffffffffffffffffffffffffffffffffffffff19831681179093556040519116919082907f8be0079c531659141344cd1fd0a4f28419497f9722a3daafe3b4186f6b6457e090600090a35050565b6106de828260405160240161107e9291906117d9565b60408051601f198184030181529190526020810180517bffffffffffffffffffffffffffffffffffffffffffffffffffffffff167f319af33300000000000000000000000000000000000000000000000000000000179052611593565b6106de82826040516024016110f1929190611804565b60408051601f198184030181529190526020810180517bffffffffffffffffffffffffffffffffffffffffffffffffffffffff167f9710a9d000000000000000000000000000000000000000000000000000000000179052611593565b6001600160a01b0382166111ca5760405162461bcd60e51b815260206004820152602160248201527f45524332303a206275726e2066726f6d20746865207a65726f2061646472657360448201527f73000000000000000000000000000000000000000000000000000000000000006064820152608401610550565b6001600160a01b038216600090815260208190526040902054818110156112595760405162461bcd60e51b815260206004820152602260248201527f45524332303a206275726e20616d6f756e7420657863656564732062616c616e60448201527f63650000000000000000000000000000000000000000000000000000000000006064820152608401610550565b6001600160a01b038316600090815260208190526040812083830390556002805484929061128890849061185d565b90915550506040518281526000906001600160a01b038516907fddf252ad1be2c89b69c2b068fc378daa952ba7f163c4a11628f55a4df523b3ef9060200160405180910390a3505050565b6001600160a01b0382166113295760405162461bcd60e51b815260206004820152601f60248201527f45524332303a206d696e7420746f20746865207a65726f2061646472657373006044820152606401610550565b806002600082825461133b9190611826565b90915550506001600160a01b03821660009081526020819052604081208054839290611368908490611826565b90915550506040518181526001600160a01b038316906000907fddf252ad1be2c89b69c2b068fc378daa952ba7f163c4a11628f55a4df523b3ef9060200160405180910390a35050565b606060006113c183600261183e565b6113cc906002611826565b67ffffffffffffffff8111156113e4576113e4611922565b6040519080825280601f01601f19166020018201604052801561140e576020820181803683370190505b5090507f3000000000000000000000000000000000000000000000000000000000000000816000815181106114455761144561190c565b60200101906001600160f81b031916908160001a9053507f7800000000000000000000000000000000000000000000000000000000000000816001815181106114905761149061190c565b60200101906001600160f81b031916908160001a90535060006114b484600261183e565b6114bf906001611826565b90505b6001811115611544577f303132333435363738396162636465660000000000000000000000000000000085600f16601081106115005761150061190c565b1a60f81b8282815181106115165761151661190c565b60200101906001600160f81b031916908160001a90535060049490941c9361153d816118a4565b90506114c2565b50831561097c5760405162461bcd60e51b815260206004820181905260248201527f537472696e67733a20686578206c656e67746820696e73756666696369656e746044820152606401610550565b80516a636f6e736f6c652e6c6f67602083016000808483855afa5050505050565b6000602082840312156115c657600080fd5b813561097c81611938565b600080604083850312156115e457600080fd5b82356115ef81611938565b915060208301356115ff81611938565b809150509250929050565b60008060006060848603121561161f57600080fd5b833561162a81611938565b9250602084013561163a81611938565b929592945050506040919091013590565b6000806040838503121561165e57600080fd5b823561166981611938565b946020939093013593505050565b60006020828403121561168957600080fd5b8151801515811461097c57600080fd5b6000602082840312156116ab57600080fd5b5035919050565b600080604083850312156116c557600080fd5b8235915060208301356115ff81611938565b6000602082840312156116e957600080fd5b81357fffffffff000000000000000000000000000000000000000000000000000000008116811461097c57600080fd5b60008151808452611731816020860160208601611874565b601f01601f19169290920160200192915050565b7f416363657373436f6e74726f6c3a206163636f756e742000000000000000000081526000835161177d816017850160208801611874565b7f206973206d697373696e6720726f6c652000000000000000000000000000000060179184019182015283516117ba816028840160208801611874565b01602801949350505050565b60208152600061097c6020830184611719565b6040815260006117ec6040830185611719565b90506001600160a01b03831660208301529392505050565b6040815260006118176040830185611719565b90508260208301529392505050565b60008219821115611839576118396118f6565b500190565b6000816000190483118215151615611858576118586118f6565b500290565b60008282101561186f5761186f6118f6565b500390565b60005b8381101561188f578181015183820152602001611877565b8381111561189e576000848401525b50505050565b6000816118b3576118b36118f6565b506000190190565b600181811c908216806118cf57607f821691505b602082108114156118f057634e487b7160e01b600052602260045260246000fd5b50919050565b634e487b7160e01b600052601160045260246000fd5b634e487b7160e01b600052603260045260246000fd5b634e487b7160e01b600052604160045260246000fd5b6001600160a01b038116811461062857600080fdfea2646970667358221220b2c83c862d74a4d409e2fdc4a764b363babb29546b3c53713f18bed77891372e64736f6c63430008070033",
  "linkReferences": {},
  "deployedLinkReferences": {}
}