{
  "_format": "hh-sol-artifact-1",
  "contractName": "LiminalMarket",
  "sourceName": "contracts/LiminalMarket.sol",
  "abi": [
    {
      "inputs": [
        {
          "internalType": "contract aUSD",
          "name": "_aUsdContract",
          "type": "address"
        },
        {
          "internalType": "contract KYC",
          "name": "_kycContract",
          "type": "address"
        }
      ],
      "stateMutability": "nonpayable",
      "type": "constructor"
    },
    {
      "anonymous": false,
      "inputs": [
        {
          "indexed": false,
          "internalType": "string",
          "name": "symbol",
          "type": "string"
        },
        {
          "indexed": false,
          "internalType": "address",
          "name": "recipient",
          "type": "address"
        },
        {
          "indexed": false,
          "internalType": "uint256",
          "name": "amount",
          "type": "uint256"
        },
        {
          "indexed": false,
          "internalType": "uint256",
          "name": "filledAvgPrice",
          "type": "uint256"
        }
      ],
      "name": "BoughtSecurityToken",
      "type": "event"
    },
    {
      "anonymous": false,
      "inputs": [
        {
          "indexed": false,
          "internalType": "address",
          "name": "userAddress",
          "type": "address"
        },
        {
          "indexed": false,
          "internalType": "uint256",
          "name": "amount",
          "type": "uint256"
        },
        {
          "indexed": false,
          "internalType": "string",
          "name": "accountId",
          "type": "string"
        },
        {
          "indexed": false,
          "internalType": "string",
          "name": "symbol",
          "type": "string"
        },
        {
          "indexed": false,
          "internalType": "address",
          "name": "tokenAddress",
          "type": "address"
        }
      ],
      "name": "BuyWithAUsd",
      "type": "event"
    },
    {
      "anonymous": false,
      "inputs": [
        {
          "indexed": false,
          "internalType": "address",
          "name": "addr",
          "type": "address"
        },
        {
          "indexed": false,
          "internalType": "uint256",
          "name": "salt",
          "type": "uint256"
        }
      ],
      "name": "Deployed",
      "type": "event"
    },
    {
      "anonymous": false,
      "inputs": [
        {
          "indexed": true,
          "internalType": "address",
          "name": "previousOwner",
          "type": "address"
        },
        {
          "indexed": true,
          "internalType": "address",
          "name": "newOwner",
          "type": "address"
        }
      ],
      "name": "OwnershipTransferred",
      "type": "event"
    },
    {
      "anonymous": false,
      "inputs": [
        {
          "indexed": true,
          "internalType": "bytes32",
          "name": "role",
          "type": "bytes32"
        },
        {
          "indexed": true,
          "internalType": "bytes32",
          "name": "previousAdminRole",
          "type": "bytes32"
        },
        {
          "indexed": true,
          "internalType": "bytes32",
          "name": "newAdminRole",
          "type": "bytes32"
        }
      ],
      "name": "RoleAdminChanged",
      "type": "event"
    },
    {
      "anonymous": false,
      "inputs": [
        {
          "indexed": true,
          "internalType": "bytes32",
          "name": "role",
          "type": "bytes32"
        },
        {
          "indexed": true,
          "internalType": "address",
          "name": "account",
          "type": "address"
        },
        {
          "indexed": true,
          "internalType": "address",
          "name": "sender",
          "type": "address"
        }
      ],
      "name": "RoleGranted",
      "type": "event"
    },
    {
      "anonymous": false,
      "inputs": [
        {
          "indexed": true,
          "internalType": "bytes32",
          "name": "role",
          "type": "bytes32"
        },
        {
          "indexed": true,
          "internalType": "address",
          "name": "account",
          "type": "address"
        },
        {
          "indexed": true,
          "internalType": "address",
          "name": "sender",
          "type": "address"
        }
      ],
      "name": "RoleRevoked",
      "type": "event"
    },
    {
      "anonymous": false,
      "inputs": [
        {
          "indexed": false,
          "internalType": "string",
          "name": "accountId",
          "type": "string"
        },
        {
          "indexed": false,
          "internalType": "address",
          "name": "recipient",
          "type": "address"
        },
        {
          "indexed": false,
          "internalType": "address",
          "name": "sender",
          "type": "address"
        },
        {
          "indexed": false,
          "internalType": "string",
          "name": "symbol",
          "type": "string"
        },
        {
          "indexed": false,
          "internalType": "uint256",
          "name": "amount",
          "type": "uint256"
        }
      ],
      "name": "SellSecurityToken",
      "type": "event"
    },
    {
      "anonymous": false,
      "inputs": [
        {
          "indexed": false,
          "internalType": "string",
          "name": "symbol",
          "type": "string"
        },
        {
          "indexed": false,
          "internalType": "address",
          "name": "recipient",
          "type": "address"
        },
        {
          "indexed": false,
          "internalType": "uint256",
          "name": "amount",
          "type": "uint256"
        },
        {
          "indexed": false,
          "internalType": "uint256",
          "name": "filledAvgPrice",
          "type": "uint256"
        }
      ],
      "name": "SoldSecurityToken",
      "type": "event"
    },
    {
      "anonymous": false,
      "inputs": [
        {
          "indexed": false,
          "internalType": "address",
          "name": "tokenAddress",
          "type": "address"
        },
        {
          "indexed": false,
          "internalType": "string",
          "name": "symbol",
          "type": "string"
        }
      ],
      "name": "TokenCreated",
      "type": "event"
    },
    {
      "inputs": [],
      "name": "DEFAULT_ADMIN_ROLE",
      "outputs": [
        {
          "internalType": "bytes32",
          "name": "",
          "type": "bytes32"
        }
      ],
      "stateMutability": "view",
      "type": "function"
    },
    {
      "inputs": [],
      "name": "MINT_AND_BURN_ROLE",
      "outputs": [
        {
          "internalType": "bytes32",
          "name": "",
          "type": "bytes32"
        }
      ],
      "stateMutability": "view",
      "type": "function"
    },
    {
      "inputs": [],
      "name": "aUsdContract",
      "outputs": [
        {
          "internalType": "contract aUSD",
          "name": "",
          "type": "address"
        }
      ],
      "stateMutability": "view",
      "type": "function"
    },
    {
      "inputs": [
        {
          "internalType": "string",
          "name": "symbol",
          "type": "string"
        },
        {
          "internalType": "address",
          "name": "recipient",
          "type": "address"
        },
        {
          "internalType": "uint256",
          "name": "amount",
          "type": "uint256"
        },
        {
          "internalType": "uint256",
          "name": "filledAvgPrice",
          "type": "uint256"
        },
        {
          "internalType": "uint256",
          "name": "aUsdBalance",
          "type": "uint256"
        }
      ],
      "name": "burnSecurityTokenAndSetAUsdBalance",
      "outputs": [],
      "stateMutability": "nonpayable",
      "type": "function"
    },
    {
      "inputs": [
        {
          "internalType": "address",
          "name": "userAddress",
          "type": "address"
        },
        {
          "internalType": "address",
          "name": "tokenAddress",
          "type": "address"
        },
        {
          "internalType": "uint256",
          "name": "amount",
          "type": "uint256"
        }
      ],
      "name": "buyWithAUsd",
      "outputs": [
        {
          "internalType": "bool",
          "name": "",
          "type": "bool"
        }
      ],
      "stateMutability": "nonpayable",
      "type": "function"
    },
    {
      "inputs": [
        {
          "internalType": "string",
          "name": "symbol",
          "type": "string"
        }
      ],
      "name": "createToken",
      "outputs": [
        {
          "internalType": "address",
          "name": "",
          "type": "address"
        }
      ],
      "stateMutability": "payable",
      "type": "function"
    },
    {
      "inputs": [
        {
          "internalType": "bytes32",
          "name": "role",
          "type": "bytes32"
        }
      ],
      "name": "getRoleAdmin",
      "outputs": [
        {
          "internalType": "bytes32",
          "name": "",
          "type": "bytes32"
        }
      ],
      "stateMutability": "view",
      "type": "function"
    },
    {
      "inputs": [
        {
          "internalType": "string",
          "name": "symbol",
          "type": "string"
        }
      ],
      "name": "getSecurityToken",
      "outputs": [
        {
          "internalType": "address",
          "name": "",
          "type": "address"
        }
      ],
      "stateMutability": "view",
      "type": "function"
    },
    {
      "inputs": [
        {
          "internalType": "address",
          "name": "recipient",
          "type": "address"
        }
      ],
      "name": "grantMintAndBurnRole",
      "outputs": [],
      "stateMutability": "nonpayable",
      "type": "function"
    },
    {
      "inputs": [
        {
          "internalType": "bytes32",
          "name": "role",
          "type": "bytes32"
        },
        {
          "internalType": "address",
          "name": "account",
          "type": "address"
        }
      ],
      "name": "grantRole",
      "outputs": [],
      "stateMutability": "nonpayable",
      "type": "function"
    },
    {
      "inputs": [
        {
          "internalType": "bytes32",
          "name": "role",
          "type": "bytes32"
        },
        {
          "internalType": "address",
          "name": "account",
          "type": "address"
        }
      ],
      "name": "hasRole",
      "outputs": [
        {
          "internalType": "bool",
          "name": "",
          "type": "bool"
        }
      ],
      "stateMutability": "view",
      "type": "function"
    },
    {
      "inputs": [],
      "name": "kycContract",
      "outputs": [
        {
          "internalType": "contract KYC",
          "name": "",
          "type": "address"
        }
      ],
      "stateMutability": "view",
      "type": "function"
    },
    {
      "inputs": [
        {
          "internalType": "string",
          "name": "symbol",
          "type": "string"
        },
        {
          "internalType": "address",
          "name": "recipient",
          "type": "address"
        },
        {
          "internalType": "uint256",
          "name": "amount",
          "type": "uint256"
        },
        {
          "internalType": "uint256",
          "name": "filledAvgPrice",
          "type": "uint256"
        },
        {
          "internalType": "uint256",
          "name": "aUsdBalance",
          "type": "uint256"
        }
      ],
      "name": "mintSecurityTokenAndSetAUsdBalance",
      "outputs": [],
      "stateMutability": "nonpayable",
      "type": "function"
    },
    {
      "inputs": [],
      "name": "owner",
      "outputs": [
        {
          "internalType": "address",
          "name": "",
          "type": "address"
        }
      ],
      "stateMutability": "view",
      "type": "function"
    },
    {
      "inputs": [],
      "name": "renounceOwnership",
      "outputs": [],
      "stateMutability": "nonpayable",
      "type": "function"
    },
    {
      "inputs": [
        {
          "internalType": "bytes32",
          "name": "role",
          "type": "bytes32"
        },
        {
          "internalType": "address",
          "name": "account",
          "type": "address"
        }
      ],
      "name": "renounceRole",
      "outputs": [],
      "stateMutability": "nonpayable",
      "type": "function"
    },
    {
      "inputs": [
        {
          "internalType": "bytes32",
          "name": "role",
          "type": "bytes32"
        },
        {
          "internalType": "address",
          "name": "account",
          "type": "address"
        }
      ],
      "name": "revokeRole",
      "outputs": [],
      "stateMutability": "nonpayable",
      "type": "function"
    },
    {
      "inputs": [
        {
          "internalType": "string",
          "name": "",
          "type": "string"
        }
      ],
      "name": "securityTokens",
      "outputs": [
        {
          "internalType": "address",
          "name": "",
          "type": "address"
        }
      ],
      "stateMutability": "view",
      "type": "function"
    },
    {
      "inputs": [
        {
          "internalType": "address",
          "name": "recipient",
          "type": "address"
        },
        {
          "internalType": "address",
          "name": "sender",
          "type": "address"
        },
        {
          "internalType": "string",
          "name": "symbol",
          "type": "string"
        },
        {
          "internalType": "uint256",
          "name": "amount",
          "type": "uint256"
        }
      ],
      "name": "sellSecurityToken",
      "outputs": [],
      "stateMutability": "nonpayable",
      "type": "function"
    },
    {
      "inputs": [
        {
          "internalType": "bytes4",
          "name": "interfaceId",
          "type": "bytes4"
        }
      ],
      "name": "supportsInterface",
      "outputs": [
        {
          "internalType": "bool",
          "name": "",
          "type": "bool"
        }
      ],
      "stateMutability": "view",
      "type": "function"
    },
    {
      "inputs": [
        {
          "internalType": "address",
          "name": "newOwner",
          "type": "address"
        }
      ],
      "name": "transferOwnership",
      "outputs": [],
      "stateMutability": "nonpayable",
      "type": "function"
    }
  ],
  "bytecode": "0x60806040523480156200001157600080fd5b506040516200384238038062003842833981016040819052620000349162000198565b6200003f33620000b0565b600280546001600160a01b038085166001600160a01b03199283161790925560038054928416929091169190911790556200007c60003362000100565b620000a87f04c6a47ae7910ef8b295215a97e8495a9eaf57b7b05bfd8bf951edb3fd4a16a33362000100565b5050620001f0565b600080546001600160a01b038381166001600160a01b0319831681178455604051919092169283917f8be0079c531659141344cd1fd0a4f28419497f9722a3daafe3b4186f6b6457e09190a35050565b6200010c828262000110565b5050565b60008281526001602090815260408083206001600160a01b038516845290915290205460ff166200010c5760008281526001602081815260408084206001600160a01b0386168086529252808420805460ff19169093179092559051339285917f2f8788117e7eff1d82e926ec794901d17c78024a50270940304540a733656f0d9190a45050565b60008060408385031215620001ac57600080fd5b8251620001b981620001d7565b6020840151909250620001cc81620001d7565b809150509250929050565b6001600160a01b0381168114620001ed57600080fd5b50565b61364280620002006000396000f3fe608060405260043610620001875760003560e01c80636d3123eb11620000db57806391d148541162000089578063d547741f1162000060578063d547741f1462000477578063da48f4ad146200049c578063f2fde38b14620004e157600080fd5b806391d1485414620003f1578063a217fddf146200043b578063ae1b768d146200045257600080fd5b80637cfb3d7111620000be5780637cfb3d7114620003875780637dafbedf14620003ac5780638da5cb5b14620003d157600080fd5b80636d3123eb146200034d578063715018a6146200036f57600080fd5b806336568abe11620001395780635ff53fc4116200011c5780635ff53fc414620002e1578063629bc15514620003035780636cfde491146200032857600080fd5b806336568abe146200028c57806345576f9414620002b157600080fd5b8063248a9ca3116200016e578063248a9ca314620001ed5780632f2ff15d146200023157806332ad7441146200025657600080fd5b806301ffc9a7146200018c578063182e8ca314620001c6575b600080fd5b3480156200019957600080fd5b50620001b1620001ab36600462001da2565b62000506565b60405190151581526020015b60405180910390f35b348015620001d357600080fd5b50620001eb620001e536600462001e8f565b62000570565b005b348015620001fa57600080fd5b50620002226200020c36600462001d59565b6000908152600160208190526040909120015490565b604051908152602001620001bd565b3480156200023e57600080fd5b50620001eb6200025036600462001d73565b620007ac565b3480156200026357600080fd5b50620002227f04c6a47ae7910ef8b295215a97e8495a9eaf57b7b05bfd8bf951edb3fd4a16a381565b3480156200029957600080fd5b50620001eb620002ab36600462001d73565b620007dc565b620002c8620002c236600462001dce565b6200086c565b6040516001600160a01b039091168152602001620001bd565b348015620002ee57600080fd5b50600254620002c8906001600160a01b031681565b3480156200031057600080fd5b50620002c86200032236600462001dce565b62000ab0565b3480156200033557600080fd5b50620001b16200034736600462001d18565b62000ae3565b3480156200035a57600080fd5b50600354620002c8906001600160a01b031681565b3480156200037c57600080fd5b50620001eb62000e11565b3480156200039457600080fd5b50620001eb620003a636600462001c8c565b62000e7b565b348015620003b957600080fd5b50620001eb620003cb36600462001e8f565b62000f06565b348015620003de57600080fd5b506000546001600160a01b0316620002c8565b348015620003fe57600080fd5b50620001b16200041036600462001d73565b60009182526001602090815260408084206001600160a01b0393909316845291905290205460ff1690565b3480156200044857600080fd5b5062000222600081565b3480156200045f57600080fd5b50620001eb6200047136600462001caa565b620012e4565b3480156200048457600080fd5b50620001eb6200049636600462001d73565b62001479565b348015620004a957600080fd5b50620002c8620004bb36600462001dce565b80516020818301810180516004825292820191909301209152546001600160a01b031681565b348015620004ee57600080fd5b50620001eb6200050036600462001c8c565b620014a4565b60006001600160e01b031982167f7965db0b0000000000000000000000000000000000000000000000000000000014806200056a57507f01ffc9a7000000000000000000000000000000000000000000000000000000006001600160e01b03198316145b92915050565b3360009081527fcf1b923b18384d1624cc28ba8bb98635f7506f0f1ea8e3ff203b3e458c503fe5602052604090205460ff16620005f45760405162461bcd60e51b815260206004820181905260248201527f596f7520646f6e742068617665207065726d697373696f6e20746f206d696e7460448201526064015b60405180910390fd5b600060048660405162000608919062001f78565b908152604051908190036020019020546001600160a01b0316905080620006725760405162461bcd60e51b815260206004820152601c60248201527f436f756c646e27742066696e642073796d626f6c2061646472657373000000006044820152606401620005eb565b604051632770a7eb60e21b81526001600160a01b03868116600483015260248201869052829190821690639dc29fac90604401600060405180830381600087803b158015620006c057600080fd5b505af1158015620006d5573d6000803e3d6000fd5b50506002546040516338c110ef60e21b81526001600160a01b038a8116600483015260248201889052909116925063e30443bc9150604401602060405180830381600087803b1580156200072857600080fd5b505af11580156200073d573d6000803e3d6000fd5b505050506040513d601f19601f8201168201806040525081019062000763919062001efd565b507fd581915fe7853994f2b3465dfbf5af86fa49e10f67587a6525afd708b66a9a4b878787876040516200079b949392919062002129565b60405180910390a150505050505050565b60008281526001602081905260409091200154620007cb813362001589565b620007d7838362001612565b505050565b6001600160a01b03811633146200085c5760405162461bcd60e51b815260206004820152602f60248201527f416363657373436f6e74726f6c3a2063616e206f6e6c792072656e6f756e636560448201527f20726f6c657320666f722073656c6600000000000000000000000000000000006064820152608401620005eb565b6200086882826200169a565b5050565b6000815160001415620008c25760405162461bcd60e51b815260206004820152601660248201527f53796d626f6c2063616e6e6f7420626520656d707479000000000000000000006044820152606401620005eb565b60006001600160a01b0316600483604051620008df919062001f78565b908152604051908190036020019020546001600160a01b031614620009475760405162461bcd60e51b815260206004820152601d60248201527f536563757269747920746f6b656e20616c7265616479206578697374730000006044820152606401620005eb565b60006200098b6040518060400160405280601581526020017f4c696d696e616c2e6d61726b65742073796d626f6c000000000000000000000081525084306200171e565b9050661c0cc191541a56600062000a1183838151602092830120604080517fff00000000000000000000000000000000000000000000000000000000000000818601523060601b6bffffffffffffffffffffffff191660218201526035810193909352605580840192909252805180840390920182526075909201909152805191012090565b905062000a1f83836200179b565b8060048660405162000a32919062001f78565b90815260405190819003602001812080546001600160a01b039390931673ffffffffffffffffffffffffffffffffffffffff19909316929092179091557f7c56d5eff73d004b4d80f35d05a7e9a2429df1bb9544be59c859d049e2f449fb9062000aa090839088906200201b565b60405180910390a1949350505050565b600060048260405162000ac4919062001f78565b908152604051908190036020019020546001600160a01b031692915050565b6002546040517f70a082310000000000000000000000000000000000000000000000000000000081526001600160a01b03858116600483015260009283929116906370a082319060240160206040518083038186803b15801562000b4657600080fd5b505afa15801562000b5b573d6000803e3d6000fd5b505050506040513d601f19601f8201168201806040525081019062000b81919062001efd565b90508281101562000bd55760405162461bcd60e51b815260206004820152601a60248201527f596f7520646f6e2774206861766520656e6f75676820615553440000000000006044820152606401620005eb565b600354604051638b1b925f60e01b81526001600160a01b0387811660048301526000921690638b1b925f9060240160006040518083038186803b15801562000c1c57600080fd5b505afa15801562000c31573d6000803e3d6000fd5b505050506040513d6000823e601f3d908101601f1916820160405262000c5b919081019062001e0f565b6002549091506001600160a01b031663e30443bc8762000c7c87866200228f565b6040516001600160e01b031960e085901b1681526001600160a01b0390921660048301526024820152604401602060405180830381600087803b15801562000cc357600080fd5b505af115801562000cd8573d6000803e3d6000fd5b505050506040513d601f19601f8201168201806040525081019062000cfe919062001efd565b5062000d406040518060400160405280600e81526020017f546f6b656e20616464726573733a00000000000000000000000000000000000081525086620017fb565b60008590506000816001600160a01b03166395d89b416040518163ffffffff1660e01b815260040160006040518083038186803b15801562000d8157600080fd5b505afa15801562000d96573d6000803e3d6000fd5b505050506040513d6000823e601f3d908101601f1916820160405262000dc0919081019062001e0f565b90507f63b41fc8b78a5a7716886b22e480980188e5b8b0d6a8e29c03c85bd969642589888785848b60405162000dfb9594939291906200203f565b60405180910390a1506001979650505050505050565b6000546001600160a01b0316331462000e6d5760405162461bcd60e51b815260206004820181905260248201527f4f776e61626c653a2063616c6c6572206973206e6f7420746865206f776e65726044820152606401620005eb565b62000e7960006200185d565b565b6000546001600160a01b0316331462000ed75760405162461bcd60e51b815260206004820152601a60248201527f4f6e6c79206f776e65722063616e206772616e7420726f6c65730000000000006044820152606401620005eb565b62000f037f04c6a47ae7910ef8b295215a97e8495a9eaf57b7b05bfd8bf951edb3fd4a16a382620007ac565b50565b3360009081527fcf1b923b18384d1624cc28ba8bb98635f7506f0f1ea8e3ff203b3e458c503fe5602052604090205460ff1662000f865760405162461bcd60e51b815260206004820181905260248201527f596f7520646f6e742068617665207065726d697373696f6e20746f206d696e746044820152606401620005eb565b62000fc76040518060400160405280601981526020017f5365637572697479466163746f7279202d20616d6f756e743a0000000000000081525084620018ba565b620010086040518060400160405280601c81526020017f5365637572697479466163746f7279202d20726563697069656e743a0000000081525085620017fb565b620010496040518060400160405280601981526020017f5365637572697479466163746f7279202d2073796d626f6c3a00000000000000815250866200191c565b6200108a6040518060400160405280601e81526020017f5365637572697479466163746f7279202d206155736442616c616e63653a000081525082620018ba565b8215620011d3576000600486604051620010a5919062001f78565b908152604051908190036020019020546001600160a01b03169050806200110f5760405162461bcd60e51b815260206004820152601c60248201527f436f756c646e27742066696e642073796d626f6c2061646472657373000000006044820152606401620005eb565b620011506040518060400160405280601681526020017f5365637572697479546f6b656e20616464726573733a0000000000000000000081525082620017fb565b6040517f40c10f190000000000000000000000000000000000000000000000000000000081526001600160a01b038681166004830152602482018690528291908216906340c10f1990604401600060405180830381600087803b158015620011b757600080fd5b505af1158015620011cc573d6000803e3d6000fd5b5050505050505b6002546040516338c110ef60e21b81526001600160a01b038681166004830152602482018490529091169063e30443bc90604401602060405180830381600087803b1580156200122257600080fd5b505af115801562001237573d6000803e3d6000fd5b505050506040513d601f19601f820116820180604052508101906200125d919062001efd565b506200129e6040518060400160405280601081526020017f444f4e452c20646f696e6720656d6974000000000000000000000000000000008152506200197e565b7f920b22c7bc0db9b2ae8edb75829e91c90ab7fa7dc8a4cce8a357bf8ce245c43285858585604051620012d5949392919062002129565b60405180910390a15050505050565b6002546001600160a01b03858116911614620013435760405162461bcd60e51b815260206004820152601d60248201527f56302e3120646f65736e277420737570706f7274207472616e736665720000006044820152606401620005eb565b600354604051638b1b925f60e01b81526001600160a01b0385811660048301526000921690638b1b925f9060240160006040518083038186803b1580156200138a57600080fd5b505afa1580156200139f573d6000803e3d6000fd5b505050506040513d6000823e601f3d908101601f19168201604052620013c9919081019062001e0f565b604051632770a7eb60e21b81526001600160a01b03861660048201526024810184905290915033908190639dc29fac90604401600060405180830381600087803b1580156200141757600080fd5b505af11580156200142c573d6000803e3d6000fd5b505050507f258a03e755a014272ade3556bbb170a7d4b4777dca0ed898c4968929e2869fd6828787878760405162001469959493929190620020d6565b60405180910390a1505050505050565b6000828152600160208190526040909120015462001498813362001589565b620007d783836200169a565b6000546001600160a01b03163314620015005760405162461bcd60e51b815260206004820181905260248201527f4f776e61626c653a2063616c6c6572206973206e6f7420746865206f776e65726044820152606401620005eb565b6001600160a01b0381166200157e5760405162461bcd60e51b815260206004820152602660248201527f4f776e61626c653a206e6577206f776e657220697320746865207a65726f206160448201527f64647265737300000000000000000000000000000000000000000000000000006064820152608401620005eb565b62000f03816200185d565b60008281526001602090815260408083206001600160a01b038516845290915290205460ff166200086857620015ca816001600160a01b03166014620019de565b620015d7836020620019de565b604051602001620015ea92919062001f96565b60408051601f198184030181529082905262461bcd60e51b8252620005eb9160040162002094565b60008281526001602090815260408083206001600160a01b038516845290915290205460ff16620008685760008281526001602081815260408084206001600160a01b0386168086529252808420805460ff19169093179092559051339285917f2f8788117e7eff1d82e926ec794901d17c78024a50270940304540a733656f0d9190a45050565b60008281526001602090815260408083206001600160a01b038516845290915290205460ff1615620008685760008281526001602090815260408083206001600160a01b0385168085529252808320805460ff1916905551339285917ff6391f5c32d9c69d2a47ea670b442974b53935d1edc7fd64eb21e047a839171b9190a45050565b6060600060405180602001620017349062001c05565b6020820181038252601f19601f8201166040525090508085858560405160200162001762939291906200218c565b60408051601f198184030181529082905262001782929160200162001f45565b6040516020818303038152906040529150509392505050565b60008183516020850134f59050803b620017b457600080fd5b604080516001600160a01b0383168152602081018490527fb03c53b28e78a88e31607a27e1fa48234dce28d5d9d9ec7b295aeb02e674a1e1910160405180910390a1505050565b62000868828260405160240162001814929190620020a9565b60408051601f198184030181529190526020810180516001600160e01b03167f319af3330000000000000000000000000000000000000000000000000000000017905262001be4565b600080546001600160a01b0383811673ffffffffffffffffffffffffffffffffffffffff19831681178455604051919092169283917f8be0079c531659141344cd1fd0a4f28419497f9722a3daafe3b4186f6b6457e09190a35050565b620008688282604051602401620018d3929190620021cf565b60408051601f198184030181529190526020810180516001600160e01b03167f9710a9d00000000000000000000000000000000000000000000000000000000017905262001be4565b6200086882826040516024016200193592919062002163565b60408051601f198184030181529190526020810180516001600160e01b03167f4b5c42770000000000000000000000000000000000000000000000000000000017905262001be4565b62000f038160405160240162001995919062002094565b60408051601f198184030181529190526020810180516001600160e01b03167f41304fac0000000000000000000000000000000000000000000000000000000017905262001be4565b60606000620019ef8360026200226d565b620019fc90600262002252565b67ffffffffffffffff81111562001a175762001a1762002322565b6040519080825280601f01601f19166020018201604052801562001a42576020820181803683370190505b5090507f30000000000000000000000000000000000000000000000000000000000000008160008151811062001a7c5762001a7c6200230c565b60200101906001600160f81b031916908160001a9053507f78000000000000000000000000000000000000000000000000000000000000008160018151811062001aca5762001aca6200230c565b60200101906001600160f81b031916908160001a905350600062001af08460026200226d565b62001afd90600162002252565b90505b600181111562001b8c577f303132333435363738396162636465660000000000000000000000000000000085600f166010811062001b425762001b426200230c565b1a60f81b82828151811062001b5b5762001b5b6200230c565b60200101906001600160f81b031916908160001a90535060049490941c9362001b8481620022dc565b905062001b00565b50831562001bdd5760405162461bcd60e51b815260206004820181905260248201527f537472696e67733a20686578206c656e67746820696e73756666696369656e746044820152606401620005eb565b9392505050565b80516a636f6e736f6c652e6c6f67602083016000808483855afa5050505050565b6112d4806200233983390190565b80356001600160a01b038116811462001c2b57600080fd5b919050565b600082601f83011262001c4257600080fd5b813562001c5962001c538262002227565b620021f3565b81815284602083860101111562001c6f57600080fd5b816020850160208301376000918101602001919091529392505050565b60006020828403121562001c9f57600080fd5b62001bdd8262001c13565b6000806000806080858703121562001cc157600080fd5b62001ccc8562001c13565b935062001cdc6020860162001c13565b9250604085013567ffffffffffffffff81111562001cf957600080fd5b62001d078782880162001c30565b949793965093946060013593505050565b60008060006060848603121562001d2e57600080fd5b62001d398462001c13565b925062001d496020850162001c13565b9150604084013590509250925092565b60006020828403121562001d6c57600080fd5b5035919050565b6000806040838503121562001d8757600080fd5b8235915062001d996020840162001c13565b90509250929050565b60006020828403121562001db557600080fd5b81356001600160e01b03198116811462001bdd57600080fd5b60006020828403121562001de157600080fd5b813567ffffffffffffffff81111562001df957600080fd5b62001e078482850162001c30565b949350505050565b60006020828403121562001e2257600080fd5b815167ffffffffffffffff81111562001e3a57600080fd5b8201601f8101841362001e4c57600080fd5b805162001e5d62001c538262002227565b81815285602083850101111562001e7357600080fd5b62001e86826020830160208601620022a9565b95945050505050565b600080600080600060a0868803121562001ea857600080fd5b853567ffffffffffffffff81111562001ec057600080fd5b62001ece8882890162001c30565b95505062001edf6020870162001c13565b94979496505050506040830135926060810135926080909101359150565b60006020828403121562001f1057600080fd5b5051919050565b6000815180845262001f31816020860160208601620022a9565b601f01601f19169290920160200192915050565b6000835162001f59818460208801620022a9565b83519083019062001f6f818360208801620022a9565b01949350505050565b6000825162001f8c818460208701620022a9565b9190910192915050565b7f416363657373436f6e74726f6c3a206163636f756e742000000000000000000081526000835162001fd0816017850160208801620022a9565b7f206973206d697373696e6720726f6c652000000000000000000000000000000060179184019182015283516200200f816028840160208801620022a9565b01602801949350505050565b6001600160a01b038316815260406020820152600062001e07604083018462001f17565b60006001600160a01b03808816835286602084015260a060408401526200206a60a084018762001f17565b83810360608501526200207e818762001f17565b9250508084166080840152509695505050505050565b60208152600062001bdd602083018462001f17565b604081526000620020be604083018562001f17565b90506001600160a01b03831660208301529392505050565b60a081526000620020eb60a083018862001f17565b6001600160a01b03878116602085015286166040840152828103606084015262002116818662001f17565b9150508260808301529695505050505050565b6080815260006200213e608083018762001f17565b6001600160a01b03959095166020830152506040810192909252606090910152919050565b60408152600062002178604083018562001f17565b828103602084015262001e86818562001f17565b606081526000620021a1606083018662001f17565b8281036020840152620021b5818662001f17565b9150506001600160a01b0383166040830152949350505050565b604081526000620021e4604083018562001f17565b90508260208301529392505050565b604051601f8201601f1916810167ffffffffffffffff811182821017156200221f576200221f62002322565b604052919050565b600067ffffffffffffffff82111562002244576200224462002322565b50601f01601f191660200190565b60008219821115620022685762002268620022f6565b500190565b60008160001904831182151516156200228a576200228a620022f6565b500290565b600082821015620022a457620022a4620022f6565b500390565b60005b83811015620022c6578181015183820152602001620022ac565b83811115620022d6576000848401525b50505050565b600081620022ee57620022ee620022f6565b506000190190565b634e487b7160e01b600052601160045260246000fd5b634e487b7160e01b600052603260045260246000fd5b634e487b7160e01b600052604160045260246000fdfe60806040523480156200001157600080fd5b50604051620012d4380380620012d4833981016040819052620000349162000237565b818162000041336200008a565b815162000056906004906020850190620000da565b5080516200006c906005906020840190620000da565b5050600680546001600160a01b0319163317905550620002f4915050565b600080546001600160a01b038381166001600160a01b0319831681178455604051919092169283917f8be0079c531659141344cd1fd0a4f28419497f9722a3daafe3b4186f6b6457e09190a35050565b828054620000e890620002a1565b90600052602060002090601f0160209004810192826200010c576000855562000157565b82601f106200012757805160ff191683800117855562000157565b8280016001018555821562000157579182015b82811115620001575782518255916020019190600101906200013a565b506200016592915062000169565b5090565b5b808211156200016557600081556001016200016a565b600082601f8301126200019257600080fd5b81516001600160401b0380821115620001af57620001af620002de565b604051601f8301601f19908116603f01168101908282118183101715620001da57620001da620002de565b81604052838152602092508683858801011115620001f757600080fd5b600091505b838210156200021b5785820183015181830184015290820190620001fc565b838211156200022d5760008385830101525b9695505050505050565b600080604083850312156200024b57600080fd5b82516001600160401b03808211156200026357600080fd5b620002718683870162000180565b935060208501519150808211156200028857600080fd5b50620002978582860162000180565b9150509250929050565b600181811c90821680620002b657607f821691505b60208210811415620002d857634e487b7160e01b600052602260045260246000fd5b50919050565b634e487b7160e01b600052604160045260246000fd5b610fd080620003046000396000f3fe608060405234801561001057600080fd5b50600436106101005760003560e01c8063715018a611610097578063a457c2d711610066578063a457c2d714610209578063a9059cbb1461021c578063dd62ed3e1461022f578063f2fde38b1461024257600080fd5b8063715018a6146101cb5780638da5cb5b146101d357806395d89b41146101ee5780639dc29fac146101f657600080fd5b8063313ce567116100d3578063313ce5671461016b578063395093511461017a57806340c10f191461018d57806370a08231146101a257600080fd5b806306fdde0314610105578063095ea7b31461012357806318160ddd1461014657806323b872dd14610158575b600080fd5b61010d610255565b60405161011a9190610ee5565b60405180910390f35b610136610131366004610e09565b6102e7565b604051901515815260200161011a565b6003545b60405190815260200161011a565b610136610166366004610dcd565b610337565b6040516012815260200161011a565b610136610188366004610e09565b610381565b6101a061019b366004610e09565b6103c6565b005b61014a6101b0366004610d78565b6001600160a01b031660009081526001602052604090205490565b6101a061048a565b6000546040516001600160a01b03909116815260200161011a565b61010d6104f0565b6101a0610204366004610e09565b6104ff565b610136610217366004610e09565b61064c565b61013661022a366004610e09565b6106fd565b61014a61023d366004610d9a565b610776565b6101a0610250366004610d78565b6107c1565b60606004805461026490610f49565b80601f016020809104026020016040519081016040528092919081815260200182805461029090610f49565b80156102dd5780601f106102b2576101008083540402835291602001916102dd565b820191906000526020600020905b8154815290600101906020018083116102c057829003601f168201915b5050505050905090565b60405162461bcd60e51b815260206004820152601c60248201527f56302e3120646f65736e277420737570706f727420617070726f76650000000060448201526000906064015b60405180910390fd5b600060405162461bcd60e51b815260040161032e906020808252818101527f56302e3120646f65736e277420737570706f7274207472616e66657246726f6d604082015260600190565b3360008181526002602090815260408083206001600160a01b038716845290915281205490916103bd9185906103b8908690610f1a565b6108a3565b50600192915050565b6000546001600160a01b031633146104205760405162461bcd60e51b815260206004820181905260248201527f4f776e61626c653a2063616c6c6572206973206e6f7420746865206f776e6572604482015260640161032e565b61042a82826109fb565b7f704496b72f6d3fd6e462fa31e27faddedde127bc9942bc94320e0c115b00cedf82826104556104f0565b6001600160a01b03861660009081526001602052604090205460405161047e9493929190610ebd565b60405180910390a15050565b6000546001600160a01b031633146104e45760405162461bcd60e51b815260206004820181905260248201527f4f776e61626c653a2063616c6c6572206973206e6f7420746865206f776e6572604482015260640161032e565b6104ee6000610adb565b565b60606005805461026490610f49565b6000546001600160a01b031633146105595760405162461bcd60e51b815260206004820181905260248201527f4f776e61626c653a2063616c6c6572206973206e6f7420746865206f776e6572604482015260640161032e565b6001600160a01b03821660009081526001602052604081205490506105b36040518060400160405280600781526020017f616d6f756e743a0000000000000000000000000000000000000000000000000081525083610b43565b6105f26040518060400160405280600781526020017f62616c616e63650000000000000000000000000000000000000000000000000081525082610b43565b818110156105fe578091505b61063d6040518060400160405280600881526020017f6275726e696e673a00000000000000000000000000000000000000000000000081525083610b43565b6106478383610bb6565b505050565b3360009081526002602090815260408083206001600160a01b0386168452909152812054828110156106e65760405162461bcd60e51b815260206004820152602560248201527f45524332303a2064656372656173656420616c6c6f77616e63652062656c6f7760448201527f207a65726f000000000000000000000000000000000000000000000000000000606482015260840161032e565b6106f333858584036108a3565b5060019392505050565b6006546000906001600160a01b031663ae1b768d843361071b6104f0565b866040518563ffffffff1660e01b815260040161073b9493929190610e80565b600060405180830381600087803b15801561075557600080fd5b505af1158015610769573d6000803e3d6000fd5b5060019695505050505050565b60405162461bcd60e51b815260206004820152601e60248201527f56302e3120646f65736e277420737570706f727420616c6c6f77616e63650000604482015260009060640161032e565b6000546001600160a01b0316331461081b5760405162461bcd60e51b815260206004820181905260248201527f4f776e61626c653a2063616c6c6572206973206e6f7420746865206f776e6572604482015260640161032e565b6001600160a01b0381166108975760405162461bcd60e51b815260206004820152602660248201527f4f776e61626c653a206e6577206f776e657220697320746865207a65726f206160448201527f6464726573730000000000000000000000000000000000000000000000000000606482015260840161032e565b6108a081610adb565b50565b6001600160a01b03831661091e5760405162461bcd60e51b8152602060048201526024808201527f45524332303a20617070726f76652066726f6d20746865207a65726f2061646460448201527f7265737300000000000000000000000000000000000000000000000000000000606482015260840161032e565b6001600160a01b03821661099a5760405162461bcd60e51b815260206004820152602260248201527f45524332303a20617070726f766520746f20746865207a65726f20616464726560448201527f7373000000000000000000000000000000000000000000000000000000000000606482015260840161032e565b6001600160a01b0383811660008181526002602090815260408083209487168084529482529182902085905590518481527f8c5be1e5ebec7d5bd14f71427d1e84f3dd0314c0f7b2291e5b200ac8c7c3b925910160405180910390a3505050565b6001600160a01b038216610a515760405162461bcd60e51b815260206004820152601f60248201527f45524332303a206d696e7420746f20746865207a65726f206164647265737300604482015260640161032e565b8060036000828254610a639190610f1a565b90915550506001600160a01b03821660009081526001602052604081208054839290610a90908490610f1a565b90915550506040518181526001600160a01b038316906000907fddf252ad1be2c89b69c2b068fc378daa952ba7f163c4a11628f55a4df523b3ef9060200160405180910390a35b5050565b600080546001600160a01b038381167fffffffffffffffffffffffff0000000000000000000000000000000000000000831681178455604051919092169283917f8be0079c531659141344cd1fd0a4f28419497f9722a3daafe3b4186f6b6457e09190a35050565b610ad78282604051602401610b59929190610ef8565b60408051601f198184030181529190526020810180517bffffffffffffffffffffffffffffffffffffffffffffffffffffffff167f9710a9d000000000000000000000000000000000000000000000000000000000179052610d3b565b6001600160a01b038216610c325760405162461bcd60e51b815260206004820152602160248201527f45524332303a206275726e2066726f6d20746865207a65726f2061646472657360448201527f7300000000000000000000000000000000000000000000000000000000000000606482015260840161032e565b6001600160a01b03821660009081526001602052604090205481811015610cc15760405162461bcd60e51b815260206004820152602260248201527f45524332303a206275726e20616d6f756e7420657863656564732062616c616e60448201527f6365000000000000000000000000000000000000000000000000000000000000606482015260840161032e565b6001600160a01b0383166000908152600160205260408120838303905560038054849290610cf0908490610f32565b90915550506040518281526000906001600160a01b038516907fddf252ad1be2c89b69c2b068fc378daa952ba7f163c4a11628f55a4df523b3ef9060200160405180910390a3505050565b80516a636f6e736f6c652e6c6f67602083016000808483855afa5050505050565b80356001600160a01b0381168114610d7357600080fd5b919050565b600060208284031215610d8a57600080fd5b610d9382610d5c565b9392505050565b60008060408385031215610dad57600080fd5b610db683610d5c565b9150610dc460208401610d5c565b90509250929050565b600080600060608486031215610de257600080fd5b610deb84610d5c565b9250610df960208501610d5c565b9150604084013590509250925092565b60008060408385031215610e1c57600080fd5b610e2583610d5c565b946020939093013593505050565b6000815180845260005b81811015610e5957602081850181015186830182015201610e3d565b81811115610e6b576000602083870101525b50601f01601f19169290920160200192915050565b60006001600160a01b03808716835280861660208401525060806040830152610eac6080830185610e33565b905082606083015295945050505050565b6001600160a01b0385168152836020820152608060408201526000610eac6080830185610e33565b602081526000610d936020830184610e33565b604081526000610f0b6040830185610e33565b90508260208301529392505050565b60008219821115610f2d57610f2d610f84565b500190565b600082821015610f4457610f44610f84565b500390565b600181811c90821680610f5d57607f821691505b60208210811415610f7e57634e487b7160e01b600052602260045260246000fd5b50919050565b634e487b7160e01b600052601160045260246000fdfea26469706673582212203b52db3ae50c8978ac8226cb773b22ae1b2ca6fd136ee7c42c0ce75d14643b4564736f6c63430008070033a264697066735822122030176ae7e27e3e3936419b8cfc080391c38d7e514afc8cd719b206ec065cfc0b64736f6c63430008070033",
  "linkReferences": {},
  "deployedLinkReferences": {}
}