{
  "_format": "hh-sol-artifact-1",
  "contractName": "aUSD",
  "sourceName": "contracts/aUSD.sol",
  "abi": [
    {
      "inputs": [],
      "stateMutability": "nonpayable",
      "type": "constructor"
    },
    {
      "anonymous": false,
      "inputs": [
        {
          "indexed": false,
          "internalType": "address",
          "name": "previousAdmin",
          "type": "address"
        },
        {
          "indexed": false,
          "internalType": "address",
          "name": "newAdmin",
          "type": "address"
        }
      ],
      "name": "AdminChanged",
      "type": "event"
    },
    {
      "anonymous": false,
      "inputs": [
        {
          "indexed": true,
          "internalType": "address",
          "name": "owner",
          "type": "address"
        },
        {
          "indexed": true,
          "internalType": "address",
          "name": "spender",
          "type": "address"
        },
        {
          "indexed": false,
          "internalType": "uint256",
          "name": "value",
          "type": "uint256"
        }
      ],
      "name": "Approval",
      "type": "event"
    },
    {
      "anonymous": false,
      "inputs": [
        {
          "indexed": false,
          "internalType": "address",
          "name": "recipient",
          "type": "address"
        },
        {
          "indexed": false,
          "internalType": "uint256",
          "name": "amount",
          "type": "uint256"
        }
      ],
      "name": "BalanceSet",
      "type": "event"
    },
    {
      "anonymous": false,
      "inputs": [
        {
          "indexed": true,
          "internalType": "address",
          "name": "beacon",
          "type": "address"
        }
      ],
      "name": "BeaconUpgraded",
      "type": "event"
    },
    {
      "anonymous": false,
      "inputs": [
        {
          "indexed": false,
          "internalType": "uint8",
          "name": "version",
          "type": "uint8"
        }
      ],
      "name": "Initialized",
      "type": "event"
    },
    {
      "anonymous": false,
      "inputs": [
        {
          "indexed": false,
          "internalType": "address",
          "name": "account",
          "type": "address"
        }
      ],
      "name": "Paused",
      "type": "event"
    },
    {
      "anonymous": false,
      "inputs": [
        {
          "indexed": true,
          "internalType": "bytes32",
          "name": "role",
          "type": "bytes32"
        },
        {
          "indexed": true,
          "internalType": "bytes32",
          "name": "previousAdminRole",
          "type": "bytes32"
        },
        {
          "indexed": true,
          "internalType": "bytes32",
          "name": "newAdminRole",
          "type": "bytes32"
        }
      ],
      "name": "RoleAdminChanged",
      "type": "event"
    },
    {
      "anonymous": false,
      "inputs": [
        {
          "indexed": true,
          "internalType": "bytes32",
          "name": "role",
          "type": "bytes32"
        },
        {
          "indexed": true,
          "internalType": "address",
          "name": "account",
          "type": "address"
        },
        {
          "indexed": true,
          "internalType": "address",
          "name": "sender",
          "type": "address"
        }
      ],
      "name": "RoleGranted",
      "type": "event"
    },
    {
      "anonymous": false,
      "inputs": [
        {
          "indexed": true,
          "internalType": "bytes32",
          "name": "role",
          "type": "bytes32"
        },
        {
          "indexed": true,
          "internalType": "address",
          "name": "account",
          "type": "address"
        },
        {
          "indexed": true,
          "internalType": "address",
          "name": "sender",
          "type": "address"
        }
      ],
      "name": "RoleRevoked",
      "type": "event"
    },
    {
      "anonymous": false,
      "inputs": [
        {
          "indexed": true,
          "internalType": "address",
          "name": "from",
          "type": "address"
        },
        {
          "indexed": true,
          "internalType": "address",
          "name": "to",
          "type": "address"
        },
        {
          "indexed": false,
          "internalType": "uint256",
          "name": "value",
          "type": "uint256"
        }
      ],
      "name": "Transfer",
      "type": "event"
    },
    {
      "anonymous": false,
      "inputs": [
        {
          "indexed": false,
          "internalType": "address",
          "name": "account",
          "type": "address"
        }
      ],
      "name": "Unpaused",
      "type": "event"
    },
    {
      "anonymous": false,
      "inputs": [
        {
          "indexed": true,
          "internalType": "address",
          "name": "implementation",
          "type": "address"
        }
      ],
      "name": "Upgraded",
      "type": "event"
    },
    {
      "inputs": [],
      "name": "DEFAULT_ADMIN_ROLE",
      "outputs": [
        {
          "internalType": "bytes32",
          "name": "",
          "type": "bytes32"
        }
      ],
      "stateMutability": "view",
      "type": "function"
    },
    {
      "inputs": [],
      "name": "PAUSER_ROLE",
      "outputs": [
        {
          "internalType": "bytes32",
          "name": "",
          "type": "bytes32"
        }
      ],
      "stateMutability": "view",
      "type": "function"
    },
    {
      "inputs": [],
      "name": "SET_BALANCE",
      "outputs": [
        {
          "internalType": "bytes32",
          "name": "",
          "type": "bytes32"
        }
      ],
      "stateMutability": "view",
      "type": "function"
    },
    {
      "inputs": [],
      "name": "UPGRADER_ROLE",
      "outputs": [
        {
          "internalType": "bytes32",
          "name": "",
          "type": "bytes32"
        }
      ],
      "stateMutability": "view",
      "type": "function"
    },
    {
      "inputs": [
        {
          "internalType": "address",
          "name": "",
          "type": "address"
        },
        {
          "internalType": "address",
          "name": "",
          "type": "address"
        }
      ],
      "name": "allowance",
      "outputs": [
        {
          "internalType": "uint256",
          "name": "",
          "type": "uint256"
        }
      ],
      "stateMutability": "view",
      "type": "function"
    },
    {
      "inputs": [
        {
          "internalType": "address",
          "name": "",
          "type": "address"
        },
        {
          "internalType": "uint256",
          "name": "",
          "type": "uint256"
        }
      ],
      "name": "approve",
      "outputs": [
        {
          "internalType": "bool",
          "name": "",
          "type": "bool"
        }
      ],
      "stateMutability": "nonpayable",
      "type": "function"
    },
    {
      "inputs": [
        {
          "internalType": "address",
          "name": "account",
          "type": "address"
        }
      ],
      "name": "balanceOf",
      "outputs": [
        {
          "internalType": "uint256",
          "name": "",
          "type": "uint256"
        }
      ],
      "stateMutability": "view",
      "type": "function"
    },
    {
      "inputs": [],
      "name": "decimals",
      "outputs": [
        {
          "internalType": "uint8",
          "name": "",
          "type": "uint8"
        }
      ],
      "stateMutability": "view",
      "type": "function"
    },
    {
      "inputs": [
        {
          "internalType": "address",
          "name": "spender",
          "type": "address"
        },
        {
          "internalType": "uint256",
          "name": "subtractedValue",
          "type": "uint256"
        }
      ],
      "name": "decreaseAllowance",
      "outputs": [
        {
          "internalType": "bool",
          "name": "",
          "type": "bool"
        }
      ],
      "stateMutability": "nonpayable",
      "type": "function"
    },
    {
      "inputs": [
        {
          "internalType": "bytes32",
          "name": "role",
          "type": "bytes32"
        }
      ],
      "name": "getRoleAdmin",
      "outputs": [
        {
          "internalType": "bytes32",
          "name": "",
          "type": "bytes32"
        }
      ],
      "stateMutability": "view",
      "type": "function"
    },
    {
      "inputs": [
        {
          "internalType": "bytes32",
          "name": "role",
          "type": "bytes32"
        },
        {
          "internalType": "address",
          "name": "account",
          "type": "address"
        }
      ],
      "name": "grantRole",
      "outputs": [],
      "stateMutability": "nonpayable",
      "type": "function"
    },
    {
      "inputs": [
        {
          "internalType": "address",
          "name": "recipient",
          "type": "address"
        }
      ],
      "name": "grantRoleForBalance",
      "outputs": [],
      "stateMutability": "nonpayable",
      "type": "function"
    },
    {
      "inputs": [
        {
          "internalType": "bytes32",
          "name": "role",
          "type": "bytes32"
        },
        {
          "internalType": "address",
          "name": "account",
          "type": "address"
        }
      ],
      "name": "hasRole",
      "outputs": [
        {
          "internalType": "bool",
          "name": "",
          "type": "bool"
        }
      ],
      "stateMutability": "view",
      "type": "function"
    },
    {
      "inputs": [
        {
          "internalType": "address",
          "name": "spender",
          "type": "address"
        },
        {
          "internalType": "uint256",
          "name": "addedValue",
          "type": "uint256"
        }
      ],
      "name": "increaseAllowance",
      "outputs": [
        {
          "internalType": "bool",
          "name": "",
          "type": "bool"
        }
      ],
      "stateMutability": "nonpayable",
      "type": "function"
    },
    {
      "inputs": [],
      "name": "initialize",
      "outputs": [],
      "stateMutability": "nonpayable",
      "type": "function"
    },
    {
      "inputs": [],
      "name": "name",
      "outputs": [
        {
          "internalType": "string",
          "name": "",
          "type": "string"
        }
      ],
      "stateMutability": "view",
      "type": "function"
    },
    {
      "inputs": [],
      "name": "pause",
      "outputs": [],
      "stateMutability": "nonpayable",
      "type": "function"
    },
    {
      "inputs": [],
      "name": "paused",
      "outputs": [
        {
          "internalType": "bool",
          "name": "",
          "type": "bool"
        }
      ],
      "stateMutability": "view",
      "type": "function"
    },
    {
      "inputs": [],
      "name": "proxiableUUID",
      "outputs": [
        {
          "internalType": "bytes32",
          "name": "",
          "type": "bytes32"
        }
      ],
      "stateMutability": "view",
      "type": "function"
    },
    {
      "inputs": [
        {
          "internalType": "bytes32",
          "name": "role",
          "type": "bytes32"
        },
        {
          "internalType": "address",
          "name": "account",
          "type": "address"
        }
      ],
      "name": "renounceRole",
      "outputs": [],
      "stateMutability": "nonpayable",
      "type": "function"
    },
    {
      "inputs": [
        {
          "internalType": "bytes32",
          "name": "role",
          "type": "bytes32"
        },
        {
          "internalType": "address",
          "name": "account",
          "type": "address"
        }
      ],
      "name": "revokeRole",
      "outputs": [],
      "stateMutability": "nonpayable",
      "type": "function"
    },
    {
      "inputs": [
        {
          "internalType": "address",
          "name": "recipient",
          "type": "address"
        }
      ],
      "name": "revokeRoleForBalance",
      "outputs": [],
      "stateMutability": "nonpayable",
      "type": "function"
    },
    {
      "inputs": [
        {
          "internalType": "address",
          "name": "recipient",
          "type": "address"
        },
        {
          "internalType": "uint256",
          "name": "amount",
          "type": "uint256"
        }
      ],
      "name": "setBalance",
      "outputs": [],
      "stateMutability": "nonpayable",
      "type": "function"
    },
    {
      "inputs": [
        {
          "internalType": "address",
          "name": "liminalMarketAddress",
          "type": "address"
        }
      ],
      "name": "setLiminalMarketAddress",
      "outputs": [],
      "stateMutability": "nonpayable",
      "type": "function"
    },
    {
      "inputs": [
        {
          "internalType": "bytes4",
          "name": "interfaceId",
          "type": "bytes4"
        }
      ],
      "name": "supportsInterface",
      "outputs": [
        {
          "internalType": "bool",
          "name": "",
          "type": "bool"
        }
      ],
      "stateMutability": "view",
      "type": "function"
    },
    {
      "inputs": [],
      "name": "symbol",
      "outputs": [
        {
          "internalType": "string",
          "name": "",
          "type": "string"
        }
      ],
      "stateMutability": "view",
      "type": "function"
    },
    {
      "inputs": [],
      "name": "totalSupply",
      "outputs": [
        {
          "internalType": "uint256",
          "name": "",
          "type": "uint256"
        }
      ],
      "stateMutability": "view",
      "type": "function"
    },
    {
      "inputs": [
        {
          "internalType": "address",
          "name": "recipient",
          "type": "address"
        },
        {
          "internalType": "uint256",
          "name": "amount",
          "type": "uint256"
        }
      ],
      "name": "transfer",
      "outputs": [
        {
          "internalType": "bool",
          "name": "",
          "type": "bool"
        }
      ],
      "stateMutability": "nonpayable",
      "type": "function"
    },
    {
      "inputs": [
        {
          "internalType": "address",
          "name": "",
          "type": "address"
        },
        {
          "internalType": "address",
          "name": "",
          "type": "address"
        },
        {
          "internalType": "uint256",
          "name": "",
          "type": "uint256"
        }
      ],
      "name": "transferFrom",
      "outputs": [
        {
          "internalType": "bool",
          "name": "",
          "type": "bool"
        }
      ],
      "stateMutability": "nonpayable",
      "type": "function"
    },
    {
      "inputs": [],
      "name": "unpause",
      "outputs": [],
      "stateMutability": "nonpayable",
      "type": "function"
    },
    {
      "inputs": [
        {
          "internalType": "address",
          "name": "newImplementation",
          "type": "address"
        }
      ],
      "name": "upgradeTo",
      "outputs": [],
      "stateMutability": "nonpayable",
      "type": "function"
    },
    {
      "inputs": [
        {
          "internalType": "address",
          "name": "newImplementation",
          "type": "address"
        },
        {
          "internalType": "bytes",
          "name": "data",
          "type": "bytes"
        }
      ],
      "name": "upgradeToAndCall",
      "outputs": [],
      "stateMutability": "payable",
      "type": "function"
    }
  ],
  "bytecode": "0x60a06040523060601b6080523480156200001857600080fd5b50600054610100900460ff16158080156200003a5750600054600160ff909116105b806200006a575062000057306200014460201b62000fbe1760201c565b1580156200006a575060005460ff166001145b620000d25760405162461bcd60e51b815260206004820152602e60248201527f496e697469616c697a61626c653a20636f6e747261637420697320616c72656160448201526d191e481a5b9a5d1a585b1a5e995960921b606482015260840160405180910390fd5b6000805460ff191660011790558015620000f6576000805461ff0019166101001790555b80156200013d576000805461ff0019169055604051600181527f7f26b83ff96e1f2b6a682f133852f6798a09c465da95921460cefb38474024989060200160405180910390a15b5062000153565b6001600160a01b03163b151590565b60805160601c6123396200019c60003960008181610847015281816108870152818161095c0152818161099c01528181610a140152818161115d015261119d01526123396000f3fe6080604052600436106101e35760003560e01c80635c975abb11610102578063a457c2d711610095578063deeb552b11610064578063deeb552b1461054b578063e30443bc1461056d578063e63ab1e91461058d578063f72c0d8b146105af57600080fd5b8063a457c2d7146104cb578063a9059cbb146104eb578063d547741f1461050b578063dd62ed3e1461052b57600080fd5b80638c8b52d0116100d15780638c8b52d01461046157806391d148541461048157806395d89b41146104a1578063a217fddf146104b657600080fd5b80635c975abb146103e957806370a08231146104015780638129fc1c146104375780638456cb591461044c57600080fd5b80632f2ff15d1161017a5780633950935111610149578063395093511461038c5780633f4ba83a146103ac5780634f1ef286146103c157806352d1902d146103d457600080fd5b80632f2ff15d14610310578063313ce5671461033057806336568abe1461034c5780633659cfe61461036c57600080fd5b806318160ddd116101b657806318160ddd1461028157806323b872dd146102a0578063248a9ca3146102c0578063253a8721146102f057600080fd5b806301ffc9a7146101e8578063029c0b6e1461021d57806306fdde031461023f578063095ea7b314610261575b600080fd5b3480156101f457600080fd5b50610208610203366004611f9d565b6105e3565b60405190151581526020015b60405180910390f35b34801561022957600080fd5b5061023d610238366004611db0565b61061a565b005b34801561024b57600080fd5b50610254610641565b6040516102149190612058565b34801561026d57600080fd5b5061020861027c366004611efc565b6106d3565b34801561028d57600080fd5b506035545b604051908152602001610214565b3480156102ac57600080fd5b506102086102bb366004611dfe565b610720565b3480156102cc57600080fd5b506102926102db366004611f48565b600090815260c9602052604090206001015490565b3480156102fc57600080fd5b5061023d61030b366004611db0565b610779565b34801561031c57600080fd5b5061023d61032b366004611f7a565b610798565b34801561033c57600080fd5b5060405160128152602001610214565b34801561035857600080fd5b5061023d610367366004611f7a565b6107c2565b34801561037857600080fd5b5061023d610387366004611db0565b61083c565b34801561039857600080fd5b506102086103a7366004611efc565b610905565b3480156103b857600080fd5b5061023d610931565b61023d6103cf366004611e3a565b610951565b3480156103e057600080fd5b50610292610a07565b3480156103f557600080fd5b5060655460ff16610208565b34801561040d57600080fd5b5061029261041c366004611db0565b6001600160a01b031660009081526033602052604090205490565b34801561044357600080fd5b5061023d610aba565b34801561045857600080fd5b5061023d610c8a565b34801561046d57600080fd5b5061023d61047c366004611db0565b610caa565b34801561048d57600080fd5b5061020861049c366004611f7a565b610cd9565b3480156104ad57600080fd5b50610254610d04565b3480156104c257600080fd5b50610292600081565b3480156104d757600080fd5b506102086104e6366004611efc565b610d13565b3480156104f757600080fd5b50610208610506366004611efc565b610d99565b34801561051757600080fd5b5061023d610526366004611f7a565b610e30565b34801561053757600080fd5b50610292610546366004611dcb565b610e55565b34801561055757600080fd5b5061029260008051602061229d83398151915281565b34801561057957600080fd5b5061023d610588366004611efc565b610e9f565b34801561059957600080fd5b506102926000805160206122bd83398151915281565b3480156105bb57600080fd5b506102927f189ab7a9244df0848122154315af71fe140f3db0fe014031783b0946b8c9d2e381565b60006001600160e01b03198216637965db0b60e01b148061061457506301ffc9a760e01b6001600160e01b03198316145b92915050565b600061062581610fcd565b61063d60008051602061229d83398151915283610e30565b5050565b606060368054610650906121ff565b80601f016020809104026020016040519081016040528092919081815260200182805461067c906121ff565b80156106c95780601f1061069e576101008083540402835291602001916106c9565b820191906000526020600020905b8154815290600101906020018083116106ac57829003601f168201915b5050505050905090565b60006106dd610fd7565b60405162461bcd60e51b81526020600482015260136024820152724e6f206e65656420666f7220617070726f766560681b60448201526064015b60405180910390fd5b600061072a610fd7565b60405162461bcd60e51b815260206004820152601f60248201527f5468697320746f6b656e2063616e6e6f74206265207472616e736665726564006044820152606401610717565b9392505050565b600061078481610fcd565b61063d60008051602061229d833981519152835b600082815260c960205260409020600101546107b381610fcd565b6107bd838361101f565b505050565b6001600160a01b03811633146108325760405162461bcd60e51b815260206004820152602f60248201527f416363657373436f6e74726f6c3a2063616e206f6e6c792072656e6f756e636560448201526e103937b632b9903337b91039b2b63360891b6064820152608401610717565b61063d82826110a5565b306001600160a01b037f00000000000000000000000000000000000000000000000000000000000000001614156108855760405162461bcd60e51b81526004016107179061208b565b7f00000000000000000000000000000000000000000000000000000000000000006001600160a01b03166108b761110c565b6001600160a01b0316146108dd5760405162461bcd60e51b8152600401610717906120d7565b6108e681611128565b60408051600080825260208201909252610902918391906111fc565b50565b6000336109278185856109188383610e55565b610922919061216e565b611376565b5060019392505050565b6000805160206122bd83398151915261094981610fcd565b61090261149a565b306001600160a01b037f000000000000000000000000000000000000000000000000000000000000000016141561099a5760405162461bcd60e51b81526004016107179061208b565b7f00000000000000000000000000000000000000000000000000000000000000006001600160a01b03166109cc61110c565b6001600160a01b0316146109f25760405162461bcd60e51b8152600401610717906120d7565b6109fb82611128565b61063d828260016111fc565b6000306001600160a01b037f00000000000000000000000000000000000000000000000000000000000000001614610aa75760405162461bcd60e51b815260206004820152603860248201527f555550535570677261646561626c653a206d757374206e6f742062652063616c60448201527f6c6564207468726f7567682064656c656761746563616c6c00000000000000006064820152608401610717565b5060008051602061227d83398151915290565b600054610100900460ff1615808015610ada5750600054600160ff909116105b80610af45750303b158015610af4575060005460ff166001145b610b575760405162461bcd60e51b815260206004820152602e60248201527f496e697469616c697a61626c653a20636f6e747261637420697320616c72656160448201526d191e481a5b9a5d1a585b1a5e995960921b6064820152608401610717565b6000805460ff191660011790558015610b7a576000805461ff0019166101001790555b610bc56040518060400160405280600d81526020016c2aa9a21030ba10213937b5b2b960991b81525060405180604001604052806004815260200163185554d160e21b8152506114ec565b610bcd61151d565b610bd561154c565b610bdd61154c565b610be860003361101f565b610c006000805160206122bd8339815191523361101f565b610c2a7f189ab7a9244df0848122154315af71fe140f3db0fe014031783b0946b8c9d2e33361101f565b610c4260008051602061229d8339815191523361101f565b8015610902576000805461ff0019169055604051600181527f7f26b83ff96e1f2b6a682f133852f6798a09c465da95921460cefb38474024989060200160405180910390a150565b6000805160206122bd833981519152610ca281610fcd565b610902611573565b6000610cb581610fcd565b5061015f80546001600160a01b0319166001600160a01b0392909216919091179055565b600091825260c9602090815260408084206001600160a01b0393909316845291905290205460ff1690565b606060378054610650906121ff565b60003381610d218286610e55565b905083811015610d815760405162461bcd60e51b815260206004820152602560248201527f45524332303a2064656372656173656420616c6c6f77616e63652062656c6f77604482015264207a65726f60d81b6064820152608401610717565b610d8e8286868403611376565b506001949350505050565b6000610da3610fd7565b61015f54604051636cfde49160e01b81523360048201526001600160a01b0385811660248301526044820185905290911690636cfde49190606401602060405180830381600087803b158015610df857600080fd5b505af1158015610e0c573d6000803e3d6000fd5b505050506040513d601f19601f820116820180604052508101906107729190611f26565b600082815260c96020526040902060010154610e4b81610fcd565b6107bd83836110a5565b6000610e5f610fd7565b60405162461bcd60e51b81526020600482015260156024820152744e6f206e65656420666f7220616c6c6f77616e636560581b6044820152606401610717565b60008051602061229d833981519152610eb781610fcd565b610ebf610fd7565b6001600160a01b03831660009081526033602052604090205482811415610ee65750505050565b80831115610f0657610f0184610efc83866121a5565b6115b0565b610f19565b610f1984610f1485846121a5565b61169b565b6001600160a01b038416600090815260336020526040902054838114610f755760405162461bcd60e51b81526020600482015260116024820152702bb937b7339031b0b631bab630ba34b7b760791b6044820152606401610717565b604080516001600160a01b0387168152602081018690527faca675004c66aff66f6e84aac634806e6c3550b1a6ba29fc8e1c1471ad1babf1910160405180910390a15050505050565b6001600160a01b03163b151590565b61090281336117f5565b60655460ff161561101d5760405162461bcd60e51b815260206004820152601060248201526f14185d5cd8589b194e881c185d5cd95960821b6044820152606401610717565b565b6110298282610cd9565b61063d57600082815260c9602090815260408083206001600160a01b03851684529091529020805460ff191660011790556110613390565b6001600160a01b0316816001600160a01b0316837f2f8788117e7eff1d82e926ec794901d17c78024a50270940304540a733656f0d60405160405180910390a45050565b6110af8282610cd9565b1561063d57600082815260c9602090815260408083206001600160a01b0385168085529252808320805460ff1916905551339285917ff6391f5c32d9c69d2a47ea670b442974b53935d1edc7fd64eb21e047a839171b9190a45050565b60008051602061227d833981519152546001600160a01b031690565b7f189ab7a9244df0848122154315af71fe140f3db0fe014031783b0946b8c9d2e361115281610fcd565b306001600160a01b037f000000000000000000000000000000000000000000000000000000000000000016141561119b5760405162461bcd60e51b81526004016107179061208b565b7f00000000000000000000000000000000000000000000000000000000000000006001600160a01b03166111cd61110c565b6001600160a01b0316146111f35760405162461bcd60e51b8152600401610717906120d7565b61063d82611859565b7f4910fdfa16fed3260ed0e7147f7cc6da11a60208b5b9406d12a635614ffd91435460ff161561122f576107bd83611899565b826001600160a01b03166352d1902d6040518163ffffffff1660e01b815260040160206040518083038186803b15801561126857600080fd5b505afa925050508015611298575060408051601f3d908101601f1916820190925261129591810190611f61565b60015b6112fb5760405162461bcd60e51b815260206004820152602e60248201527f45524331393637557067726164653a206e657720696d706c656d656e7461746960448201526d6f6e206973206e6f74205555505360901b6064820152608401610717565b60008051602061227d833981519152811461136a5760405162461bcd60e51b815260206004820152602960248201527f45524331393637557067726164653a20756e737570706f727465642070726f786044820152681a58589b195555525160ba1b6064820152608401610717565b506107bd838383611935565b6001600160a01b0383166113d85760405162461bcd60e51b8152602060048201526024808201527f45524332303a20617070726f76652066726f6d20746865207a65726f206164646044820152637265737360e01b6064820152608401610717565b6001600160a01b0382166114395760405162461bcd60e51b815260206004820152602260248201527f45524332303a20617070726f766520746f20746865207a65726f206164647265604482015261737360f01b6064820152608401610717565b6001600160a01b0383811660008181526034602090815260408083209487168084529482529182902085905590518481527f8c5be1e5ebec7d5bd14f71427d1e84f3dd0314c0f7b2291e5b200ac8c7c3b925910160405180910390a3505050565b6114a2611960565b6065805460ff191690557f5db9ee0a495bf2e6ff9c91a7834c1ba4fdd244a5e8aa4e537bd38aeae4b073aa335b6040516001600160a01b03909116815260200160405180910390a1565b600054610100900460ff166115135760405162461bcd60e51b815260040161071790612123565b61063d82826119a9565b600054610100900460ff166115445760405162461bcd60e51b815260040161071790612123565b61101d6119f7565b600054610100900460ff1661101d5760405162461bcd60e51b815260040161071790612123565b61157b610fd7565b6065805460ff191660011790557f62e78cea01bee320cd4e420270b5ea74000d11b0c9f74754ebdbfc544b05a2586114cf3390565b6001600160a01b0382166116065760405162461bcd60e51b815260206004820152601f60248201527f45524332303a206d696e7420746f20746865207a65726f2061646472657373006044820152606401610717565b61161260008383611a2a565b8060356000828254611624919061216e565b90915550506001600160a01b0382166000908152603360205260408120805483929061165190849061216e565b90915550506040518181526001600160a01b038316906000907fddf252ad1be2c89b69c2b068fc378daa952ba7f163c4a11628f55a4df523b3ef9060200160405180910390a35050565b6001600160a01b0382166116fb5760405162461bcd60e51b815260206004820152602160248201527f45524332303a206275726e2066726f6d20746865207a65726f206164647265736044820152607360f81b6064820152608401610717565b61170782600083611a2a565b6001600160a01b0382166000908152603360205260409020548181101561177b5760405162461bcd60e51b815260206004820152602260248201527f45524332303a206275726e20616d6f756e7420657863656564732062616c616e604482015261636560f01b6064820152608401610717565b6001600160a01b03831660009081526033602052604081208383039055603580548492906117aa9084906121a5565b90915550506040518281526000906001600160a01b038516907fddf252ad1be2c89b69c2b068fc378daa952ba7f163c4a11628f55a4df523b3ef9060200160405180910390a3505050565b6117ff8282610cd9565b61063d57611817816001600160a01b03166014611a32565b611822836020611a32565b604051602001611833929190611fe3565b60408051601f198184030181529082905262461bcd60e51b825261071791600401612058565b61186281611899565b6040516001600160a01b038216907fbc7cd75a20ee27fd9adebab32041f755214dbc6bffa90cc0225b39da2e5c2d3b90600090a250565b6001600160a01b0381163b6119065760405162461bcd60e51b815260206004820152602d60248201527f455243313936373a206e657720696d706c656d656e746174696f6e206973206e60448201526c1bdd08184818dbdb9d1c9858dd609a1b6064820152608401610717565b60008051602061227d83398151915280546001600160a01b0319166001600160a01b0392909216919091179055565b61193e83611859565b60008251118061194b5750805b156107bd5761195a8383611bce565b50505050565b60655460ff1661101d5760405162461bcd60e51b815260206004820152601460248201527314185d5cd8589b194e881b9bdd081c185d5cd95960621b6044820152606401610717565b600054610100900460ff166119d05760405162461bcd60e51b815260040161071790612123565b81516119e3906036906020850190611cfb565b5080516107bd906037906020840190611cfb565b600054610100900460ff16611a1e5760405162461bcd60e51b815260040161071790612123565b6065805460ff19169055565b6107bd610fd7565b60606000611a41836002612186565b611a4c90600261216e565b67ffffffffffffffff811115611a6457611a64612266565b6040519080825280601f01601f191660200182016040528015611a8e576020820181803683370190505b509050600360fc1b81600081518110611aa957611aa9612250565b60200101906001600160f81b031916908160001a905350600f60fb1b81600181518110611ad857611ad8612250565b60200101906001600160f81b031916908160001a9053506000611afc846002612186565b611b0790600161216e565b90505b6001811115611b7f576f181899199a1a9b1b9c1cb0b131b232b360811b85600f1660108110611b3b57611b3b612250565b1a60f81b828281518110611b5157611b51612250565b60200101906001600160f81b031916908160001a90535060049490941c93611b78816121e8565b9050611b0a565b5083156107725760405162461bcd60e51b815260206004820181905260248201527f537472696e67733a20686578206c656e67746820696e73756666696369656e746044820152606401610717565b60606001600160a01b0383163b611c365760405162461bcd60e51b815260206004820152602660248201527f416464726573733a2064656c65676174652063616c6c20746f206e6f6e2d636f6044820152651b9d1c9858dd60d21b6064820152608401610717565b600080846001600160a01b031684604051611c519190611fc7565b600060405180830381855af49150503d8060008114611c8c576040519150601f19603f3d011682016040523d82523d6000602084013e611c91565b606091505b5091509150611cb982826040518060600160405280602781526020016122dd60279139611cc2565b95945050505050565b60608315611cd1575081610772565b825115611ce15782518084602001fd5b8160405162461bcd60e51b81526004016107179190612058565b828054611d07906121ff565b90600052602060002090601f016020900481019282611d295760008555611d6f565b82601f10611d4257805160ff1916838001178555611d6f565b82800160010185558215611d6f579182015b82811115611d6f578251825591602001919060010190611d54565b50611d7b929150611d7f565b5090565b5b80821115611d7b5760008155600101611d80565b80356001600160a01b0381168114611dab57600080fd5b919050565b600060208284031215611dc257600080fd5b61077282611d94565b60008060408385031215611dde57600080fd5b611de783611d94565b9150611df560208401611d94565b90509250929050565b600080600060608486031215611e1357600080fd5b611e1c84611d94565b9250611e2a60208501611d94565b9150604084013590509250925092565b60008060408385031215611e4d57600080fd5b611e5683611d94565b9150602083013567ffffffffffffffff80821115611e7357600080fd5b818501915085601f830112611e8757600080fd5b813581811115611e9957611e99612266565b604051601f8201601f19908116603f01168101908382118183101715611ec157611ec1612266565b81604052828152886020848701011115611eda57600080fd5b8260208601602083013760006020848301015280955050505050509250929050565b60008060408385031215611f0f57600080fd5b611f1883611d94565b946020939093013593505050565b600060208284031215611f3857600080fd5b8151801515811461077257600080fd5b600060208284031215611f5a57600080fd5b5035919050565b600060208284031215611f7357600080fd5b5051919050565b60008060408385031215611f8d57600080fd5b82359150611df560208401611d94565b600060208284031215611faf57600080fd5b81356001600160e01b03198116811461077257600080fd5b60008251611fd98184602087016121bc565b9190910192915050565b7f416363657373436f6e74726f6c3a206163636f756e742000000000000000000081526000835161201b8160178501602088016121bc565b7001034b99036b4b9b9b4b733903937b6329607d1b601791840191820152835161204c8160288401602088016121bc565b01602801949350505050565b60208152600082518060208401526120778160408501602087016121bc565b601f01601f19169190910160400192915050565b6020808252602c908201527f46756e6374696f6e206d7573742062652063616c6c6564207468726f7567682060408201526b19195b1959d85d1958d85b1b60a21b606082015260800190565b6020808252602c908201527f46756e6374696f6e206d7573742062652063616c6c6564207468726f7567682060408201526b6163746976652070726f787960a01b606082015260800190565b6020808252602b908201527f496e697469616c697a61626c653a20636f6e7472616374206973206e6f74206960408201526a6e697469616c697a696e6760a81b606082015260800190565b600082198211156121815761218161223a565b500190565b60008160001904831182151516156121a0576121a061223a565b500290565b6000828210156121b7576121b761223a565b500390565b60005b838110156121d75781810151838201526020016121bf565b8381111561195a5750506000910152565b6000816121f7576121f761223a565b506000190190565b600181811c9082168061221357607f821691505b6020821081141561223457634e487b7160e01b600052602260045260246000fd5b50919050565b634e487b7160e01b600052601160045260246000fd5b634e487b7160e01b600052603260045260246000fd5b634e487b7160e01b600052604160045260246000fdfe360894a13ba1a3210667c828492db98dca3e2076cc3735a920a3ca505d382bbce2cf92468dcfb4f826eeba6f029d4279f4503e956b3f5b12dc84784c04d96d5065d7a28e3265b37a6474929f336521b332c1681b933f6cb9f3376673440d862a416464726573733a206c6f772d6c6576656c2064656c65676174652063616c6c206661696c6564a264697066735822122091b298e220a92475bb1fbfbf8412b9761f7583d929733e4230f7976765b2eaf064736f6c63430008070033",
  "linkReferences": {},
  "deployedLinkReferences": {}
}