{
  "_format": "hh-sol-artifact-1",
  "contractName": "aUSD",
  "sourceName": "contracts/aUSD.sol",
  "abi": [
    {
      "inputs": [],
      "stateMutability": "nonpayable",
      "type": "constructor"
    },
    {
      "anonymous": false,
      "inputs": [
        {
          "indexed": false,
          "internalType": "address",
          "name": "previousAdmin",
          "type": "address"
        },
        {
          "indexed": false,
          "internalType": "address",
          "name": "newAdmin",
          "type": "address"
        }
      ],
      "name": "AdminChanged",
      "type": "event"
    },
    {
      "anonymous": false,
      "inputs": [
        {
          "indexed": true,
          "internalType": "address",
          "name": "owner",
          "type": "address"
        },
        {
          "indexed": true,
          "internalType": "address",
          "name": "spender",
          "type": "address"
        },
        {
          "indexed": false,
          "internalType": "uint256",
          "name": "value",
          "type": "uint256"
        }
      ],
      "name": "Approval",
      "type": "event"
    },
    {
      "anonymous": false,
      "inputs": [
        {
          "indexed": false,
          "internalType": "address",
          "name": "recipient",
          "type": "address"
        },
        {
          "indexed": false,
          "internalType": "uint256",
          "name": "balance",
          "type": "uint256"
        },
        {
          "indexed": false,
          "internalType": "enum Action",
          "name": "action",
          "type": "uint8"
        }
      ],
      "name": "BalanceSet",
      "type": "event"
    },
    {
      "anonymous": false,
      "inputs": [
        {
          "indexed": true,
          "internalType": "address",
          "name": "beacon",
          "type": "address"
        }
      ],
      "name": "BeaconUpgraded",
      "type": "event"
    },
    {
      "anonymous": false,
      "inputs": [
        {
          "indexed": false,
          "internalType": "uint8",
          "name": "version",
          "type": "uint8"
        }
      ],
      "name": "Initialized",
      "type": "event"
    },
    {
      "anonymous": false,
      "inputs": [
        {
          "indexed": false,
          "internalType": "address",
          "name": "account",
          "type": "address"
        }
      ],
      "name": "Paused",
      "type": "event"
    },
    {
      "anonymous": false,
      "inputs": [
        {
          "indexed": true,
          "internalType": "bytes32",
          "name": "role",
          "type": "bytes32"
        },
        {
          "indexed": true,
          "internalType": "bytes32",
          "name": "previousAdminRole",
          "type": "bytes32"
        },
        {
          "indexed": true,
          "internalType": "bytes32",
          "name": "newAdminRole",
          "type": "bytes32"
        }
      ],
      "name": "RoleAdminChanged",
      "type": "event"
    },
    {
      "anonymous": false,
      "inputs": [
        {
          "indexed": true,
          "internalType": "bytes32",
          "name": "role",
          "type": "bytes32"
        },
        {
          "indexed": true,
          "internalType": "address",
          "name": "account",
          "type": "address"
        },
        {
          "indexed": true,
          "internalType": "address",
          "name": "sender",
          "type": "address"
        }
      ],
      "name": "RoleGranted",
      "type": "event"
    },
    {
      "anonymous": false,
      "inputs": [
        {
          "indexed": true,
          "internalType": "bytes32",
          "name": "role",
          "type": "bytes32"
        },
        {
          "indexed": true,
          "internalType": "address",
          "name": "account",
          "type": "address"
        },
        {
          "indexed": true,
          "internalType": "address",
          "name": "sender",
          "type": "address"
        }
      ],
      "name": "RoleRevoked",
      "type": "event"
    },
    {
      "anonymous": false,
      "inputs": [
        {
          "indexed": true,
          "internalType": "address",
          "name": "from",
          "type": "address"
        },
        {
          "indexed": true,
          "internalType": "address",
          "name": "to",
          "type": "address"
        },
        {
          "indexed": false,
          "internalType": "uint256",
          "name": "value",
          "type": "uint256"
        }
      ],
      "name": "Transfer",
      "type": "event"
    },
    {
      "anonymous": false,
      "inputs": [
        {
          "indexed": false,
          "internalType": "address",
          "name": "account",
          "type": "address"
        }
      ],
      "name": "Unpaused",
      "type": "event"
    },
    {
      "anonymous": false,
      "inputs": [
        {
          "indexed": true,
          "internalType": "address",
          "name": "implementation",
          "type": "address"
        }
      ],
      "name": "Upgraded",
      "type": "event"
    },
    {
      "inputs": [],
      "name": "DEFAULT_ADMIN_ROLE",
      "outputs": [
        {
          "internalType": "bytes32",
          "name": "",
          "type": "bytes32"
        }
      ],
      "stateMutability": "view",
      "type": "function"
    },
    {
      "inputs": [],
      "name": "PAUSER_ROLE",
      "outputs": [
        {
          "internalType": "bytes32",
          "name": "",
          "type": "bytes32"
        }
      ],
      "stateMutability": "view",
      "type": "function"
    },
    {
      "inputs": [],
      "name": "SET_BALANCE",
      "outputs": [
        {
          "internalType": "bytes32",
          "name": "",
          "type": "bytes32"
        }
      ],
      "stateMutability": "view",
      "type": "function"
    },
    {
      "inputs": [],
      "name": "UPGRADER_ROLE",
      "outputs": [
        {
          "internalType": "bytes32",
          "name": "",
          "type": "bytes32"
        }
      ],
      "stateMutability": "view",
      "type": "function"
    },
    {
      "inputs": [
        {
          "internalType": "address",
          "name": "owner",
          "type": "address"
        },
        {
          "internalType": "address",
          "name": "spender",
          "type": "address"
        }
      ],
      "name": "allowance",
      "outputs": [
        {
          "internalType": "uint256",
          "name": "",
          "type": "uint256"
        }
      ],
      "stateMutability": "view",
      "type": "function"
    },
    {
      "inputs": [
        {
          "internalType": "address",
          "name": "spender",
          "type": "address"
        },
        {
          "internalType": "uint256",
          "name": "amount",
          "type": "uint256"
        }
      ],
      "name": "approve",
      "outputs": [
        {
          "internalType": "bool",
          "name": "",
          "type": "bool"
        }
      ],
      "stateMutability": "nonpayable",
      "type": "function"
    },
    {
      "inputs": [
        {
          "internalType": "address",
          "name": "account",
          "type": "address"
        }
      ],
      "name": "balanceOf",
      "outputs": [
        {
          "internalType": "uint256",
          "name": "",
          "type": "uint256"
        }
      ],
      "stateMutability": "view",
      "type": "function"
    },
    {
      "inputs": [],
      "name": "decimals",
      "outputs": [
        {
          "internalType": "uint8",
          "name": "",
          "type": "uint8"
        }
      ],
      "stateMutability": "view",
      "type": "function"
    },
    {
      "inputs": [
        {
          "internalType": "address",
          "name": "spender",
          "type": "address"
        },
        {
          "internalType": "uint256",
          "name": "subtractedValue",
          "type": "uint256"
        }
      ],
      "name": "decreaseAllowance",
      "outputs": [
        {
          "internalType": "bool",
          "name": "",
          "type": "bool"
        }
      ],
      "stateMutability": "nonpayable",
      "type": "function"
    },
    {
      "inputs": [
        {
          "internalType": "bytes32",
          "name": "role",
          "type": "bytes32"
        }
      ],
      "name": "getRoleAdmin",
      "outputs": [
        {
          "internalType": "bytes32",
          "name": "",
          "type": "bytes32"
        }
      ],
      "stateMutability": "view",
      "type": "function"
    },
    {
      "inputs": [
        {
          "internalType": "bytes32",
          "name": "role",
          "type": "bytes32"
        },
        {
          "internalType": "address",
          "name": "account",
          "type": "address"
        }
      ],
      "name": "grantRole",
      "outputs": [],
      "stateMutability": "nonpayable",
      "type": "function"
    },
    {
      "inputs": [
        {
          "internalType": "address",
          "name": "recipient",
          "type": "address"
        }
      ],
      "name": "grantRoleForBalance",
      "outputs": [],
      "stateMutability": "nonpayable",
      "type": "function"
    },
    {
      "inputs": [
        {
          "internalType": "bytes32",
          "name": "role",
          "type": "bytes32"
        },
        {
          "internalType": "address",
          "name": "account",
          "type": "address"
        }
      ],
      "name": "hasRole",
      "outputs": [
        {
          "internalType": "bool",
          "name": "",
          "type": "bool"
        }
      ],
      "stateMutability": "view",
      "type": "function"
    },
    {
      "inputs": [
        {
          "internalType": "address",
          "name": "spender",
          "type": "address"
        },
        {
          "internalType": "uint256",
          "name": "addedValue",
          "type": "uint256"
        }
      ],
      "name": "increaseAllowance",
      "outputs": [
        {
          "internalType": "bool",
          "name": "",
          "type": "bool"
        }
      ],
      "stateMutability": "nonpayable",
      "type": "function"
    },
    {
      "inputs": [],
      "name": "initialize",
      "outputs": [],
      "stateMutability": "nonpayable",
      "type": "function"
    },
    {
      "inputs": [],
      "name": "name",
      "outputs": [
        {
          "internalType": "string",
          "name": "",
          "type": "string"
        }
      ],
      "stateMutability": "view",
      "type": "function"
    },
    {
      "inputs": [],
      "name": "pause",
      "outputs": [],
      "stateMutability": "nonpayable",
      "type": "function"
    },
    {
      "inputs": [],
      "name": "paused",
      "outputs": [
        {
          "internalType": "bool",
          "name": "",
          "type": "bool"
        }
      ],
      "stateMutability": "view",
      "type": "function"
    },
    {
      "inputs": [],
      "name": "proxiableUUID",
      "outputs": [
        {
          "internalType": "bytes32",
          "name": "",
          "type": "bytes32"
        }
      ],
      "stateMutability": "view",
      "type": "function"
    },
    {
      "inputs": [
        {
          "internalType": "bytes32",
          "name": "role",
          "type": "bytes32"
        },
        {
          "internalType": "address",
          "name": "account",
          "type": "address"
        }
      ],
      "name": "renounceRole",
      "outputs": [],
      "stateMutability": "nonpayable",
      "type": "function"
    },
    {
      "inputs": [
        {
          "internalType": "bytes32",
          "name": "role",
          "type": "bytes32"
        },
        {
          "internalType": "address",
          "name": "account",
          "type": "address"
        }
      ],
      "name": "revokeRole",
      "outputs": [],
      "stateMutability": "nonpayable",
      "type": "function"
    },
    {
      "inputs": [
        {
          "internalType": "address",
          "name": "recipient",
          "type": "address"
        }
      ],
      "name": "revokeRoleForBalance",
      "outputs": [],
      "stateMutability": "nonpayable",
      "type": "function"
    },
    {
      "inputs": [
        {
          "internalType": "address",
          "name": "recipient",
          "type": "address"
        },
        {
          "internalType": "uint256",
          "name": "balance",
          "type": "uint256"
        },
        {
          "internalType": "enum Action",
          "name": "action",
          "type": "uint8"
        }
      ],
      "name": "setBalance",
      "outputs": [],
      "stateMutability": "nonpayable",
      "type": "function"
    },
    {
      "inputs": [
        {
          "internalType": "address",
          "name": "liminalMarketAddress",
          "type": "address"
        }
      ],
      "name": "setLiminalMarketAddress",
      "outputs": [],
      "stateMutability": "nonpayable",
      "type": "function"
    },
    {
      "inputs": [
        {
          "internalType": "bytes4",
          "name": "interfaceId",
          "type": "bytes4"
        }
      ],
      "name": "supportsInterface",
      "outputs": [
        {
          "internalType": "bool",
          "name": "",
          "type": "bool"
        }
      ],
      "stateMutability": "view",
      "type": "function"
    },
    {
      "inputs": [],
      "name": "symbol",
      "outputs": [
        {
          "internalType": "string",
          "name": "",
          "type": "string"
        }
      ],
      "stateMutability": "view",
      "type": "function"
    },
    {
      "inputs": [],
      "name": "totalSupply",
      "outputs": [
        {
          "internalType": "uint256",
          "name": "",
          "type": "uint256"
        }
      ],
      "stateMutability": "view",
      "type": "function"
    },
    {
      "inputs": [
        {
          "internalType": "address",
          "name": "to",
          "type": "address"
        },
        {
          "internalType": "uint256",
          "name": "amount",
          "type": "uint256"
        }
      ],
      "name": "transfer",
      "outputs": [
        {
          "internalType": "bool",
          "name": "",
          "type": "bool"
        }
      ],
      "stateMutability": "nonpayable",
      "type": "function"
    },
    {
      "inputs": [
        {
          "internalType": "address",
          "name": "from",
          "type": "address"
        },
        {
          "internalType": "address",
          "name": "to",
          "type": "address"
        },
        {
          "internalType": "uint256",
          "name": "amount",
          "type": "uint256"
        }
      ],
      "name": "transferFrom",
      "outputs": [
        {
          "internalType": "bool",
          "name": "",
          "type": "bool"
        }
      ],
      "stateMutability": "nonpayable",
      "type": "function"
    },
    {
      "inputs": [],
      "name": "unpause",
      "outputs": [],
      "stateMutability": "nonpayable",
      "type": "function"
    },
    {
      "inputs": [
        {
          "internalType": "address",
          "name": "newImplementation",
          "type": "address"
        }
      ],
      "name": "upgradeTo",
      "outputs": [],
      "stateMutability": "nonpayable",
      "type": "function"
    },
    {
      "inputs": [
        {
          "internalType": "address",
          "name": "newImplementation",
          "type": "address"
        },
        {
          "internalType": "bytes",
          "name": "data",
          "type": "bytes"
        }
      ],
      "name": "upgradeToAndCall",
      "outputs": [],
      "stateMutability": "payable",
      "type": "function"
    }
  ],
  "bytecode": "0x60a0604052306080523480156200001557600080fd5b50600054610100900460ff1615808015620000375750600054600160ff909116105b8062000067575062000054306200014160201b620012c31760201c565b15801562000067575060005460ff166001145b620000cf5760405162461bcd60e51b815260206004820152602e60248201527f496e697469616c697a61626c653a20636f6e747261637420697320616c72656160448201526d191e481a5b9a5d1a585b1a5e995960921b606482015260840160405180910390fd5b6000805460ff191660011790558015620000f3576000805461ff0019166101001790555b80156200013a576000805461ff0019169055604051600181527f7f26b83ff96e1f2b6a682f133852f6798a09c465da95921460cefb38474024989060200160405180910390a15b5062000150565b6001600160a01b03163b151590565b608051612a24620001966000396000818161097401528181610a0a01528181610b8201528181610c1801528181610d0f0152818161166e01526117040152612a246000f3fe6080604052600436106101e35760003560e01c80635b45298911610102578063a217fddf11610095578063dd62ed3e11610064578063dd62ed3e14610571578063deeb552b146105b7578063e63ab1e9146105eb578063f72c0d8b1461061f57600080fd5b8063a217fddf146104fc578063a457c2d714610511578063a9059cbb14610531578063d547741f1461055157600080fd5b80638456cb59116100d15780638456cb591461046c5780638c8b52d01461048157806391d14854146104a157806395d89b41146104e757600080fd5b80635b452989146103e95780635c975abb1461040957806370a08231146104215780638129fc1c1461045757600080fd5b80632f2ff15d1161017a5780633950935111610149578063395093511461038c5780633f4ba83a146103ac5780634f1ef286146103c157806352d1902d146103d457600080fd5b80632f2ff15d14610310578063313ce5671461033057806336568abe1461034c5780633659cfe61461036c57600080fd5b806318160ddd116101b657806318160ddd1461028157806323b872dd146102a0578063248a9ca3146102c0578063253a8721146102f057600080fd5b806301ffc9a7146101e8578063029c0b6e1461021d57806306fdde031461023f578063095ea7b314610261575b600080fd5b3480156101f457600080fd5b5061020861020336600461243d565b610653565b60405190151581526020015b60405180910390f35b34801561022957600080fd5b5061023d61023836600461249b565b6106ec565b005b34801561024b57600080fd5b50610254610725565b60405161021491906124da565b34801561026d57600080fd5b5061020861027c36600461250d565b6107b7565b34801561028d57600080fd5b506035545b604051908152602001610214565b3480156102ac57600080fd5b506102086102bb366004612537565b6107cf565b3480156102cc57600080fd5b506102926102db366004612573565b600090815260c9602052604090206001015490565b3480156102fc57600080fd5b5061023d61030b36600461249b565b610882565b34801561031c57600080fd5b5061023d61032b36600461258c565b6108b3565b34801561033c57600080fd5b5060405160128152602001610214565b34801561035857600080fd5b5061023d61036736600461258c565b6108dd565b34801561037857600080fd5b5061023d61038736600461249b565b61096a565b34801561039857600080fd5b506102086103a736600461250d565b610b07565b3480156103b857600080fd5b5061023d610b46565b61023d6103cf3660046125ce565b610b78565b3480156103e057600080fd5b50610292610d02565b3480156103f557600080fd5b5061023d610404366004612690565b610dc7565b34801561041557600080fd5b5060655460ff16610208565b34801561042d57600080fd5b5061029261043c36600461249b565b6001600160a01b031660009081526033602052604090205490565b34801561046357600080fd5b5061023d610e95565b34801561047857600080fd5b5061023d6110c1565b34801561048d57600080fd5b5061023d61049c36600461249b565b6110f3565b3480156104ad57600080fd5b506102086104bc36600461258c565b600091825260c9602090815260408084206001600160a01b0393909316845291905290205460ff1690565b3480156104f357600080fd5b5061025461113a565b34801561050857600080fd5b50610292600081565b34801561051d57600080fd5b5061020861052c36600461250d565b611149565b34801561053d57600080fd5b5061020861054c36600461250d565b6111fe565b34801561055d57600080fd5b5061023d61056c36600461258c565b61129e565b34801561057d57600080fd5b5061029261058c3660046126d4565b6001600160a01b03918216600090815260346020908152604080832093909416825291909152205490565b3480156105c357600080fd5b506102927fe2cf92468dcfb4f826eeba6f029d4279f4503e956b3f5b12dc84784c04d96d5081565b3480156105f757600080fd5b506102927f65d7a28e3265b37a6474929f336521b332c1681b933f6cb9f3376673440d862a81565b34801561062b57600080fd5b506102927f189ab7a9244df0848122154315af71fe140f3db0fe014031783b0946b8c9d2e381565b60007fffffffff0000000000000000000000000000000000000000000000000000000082167f7965db0b0000000000000000000000000000000000000000000000000000000014806106e657507f01ffc9a7000000000000000000000000000000000000000000000000000000007fffffffff000000000000000000000000000000000000000000000000000000008316145b92915050565b60006106f7816112d2565b6107217fe2cf92468dcfb4f826eeba6f029d4279f4503e956b3f5b12dc84784c04d96d508361129e565b5050565b606060368054610734906126fe565b80601f0160208091040260200160405190810160405280929190818152602001828054610760906126fe565b80156107ad5780601f10610782576101008083540402835291602001916107ad565b820191906000526020600020905b81548152906001019060200180831161079057829003601f168201915b5050505050905090565b6000336107c58185856112dc565b5060019392505050565b60006107d9611434565b336107e5858285611489565b61015f546040517f0b317e790000000000000000000000000000000000000000000000000000000081526001600160a01b038781166004830152868116602483015260448201869052838116606483015290911690630b317e7990608401600060405180830381600087803b15801561085d57600080fd5b505af1158015610871573d6000803e3d6000fd5b5050505060019150505b9392505050565b600061088d816112d2565b6107217fe2cf92468dcfb4f826eeba6f029d4279f4503e956b3f5b12dc84784c04d96d50835b600082815260c960205260409020600101546108ce816112d2565b6108d88383611515565b505050565b6001600160a01b03811633146109605760405162461bcd60e51b815260206004820152602f60248201527f416363657373436f6e74726f6c3a2063616e206f6e6c792072656e6f756e636560448201527f20726f6c657320666f722073656c66000000000000000000000000000000000060648201526084015b60405180910390fd5b61072182826115b7565b6001600160a01b037f0000000000000000000000000000000000000000000000000000000000000000163003610a085760405162461bcd60e51b815260206004820152602c60248201527f46756e6374696f6e206d7573742062652063616c6c6564207468726f7567682060448201527f64656c656761746563616c6c00000000000000000000000000000000000000006064820152608401610957565b7f00000000000000000000000000000000000000000000000000000000000000006001600160a01b0316610a637f360894a13ba1a3210667c828492db98dca3e2076cc3735a920a3ca505d382bbc546001600160a01b031690565b6001600160a01b031614610adf5760405162461bcd60e51b815260206004820152602c60248201527f46756e6374696f6e206d7573742062652063616c6c6564207468726f7567682060448201527f6163746976652070726f787900000000000000000000000000000000000000006064820152608401610957565b610ae88161163a565b60408051600080825260208201909252610b04918391906117e2565b50565b3360008181526034602090815260408083206001600160a01b03871684529091528120549091906107c59082908690610b4190879061274e565b6112dc565b7f65d7a28e3265b37a6474929f336521b332c1681b933f6cb9f3376673440d862a610b70816112d2565b610b04611982565b6001600160a01b037f0000000000000000000000000000000000000000000000000000000000000000163003610c165760405162461bcd60e51b815260206004820152602c60248201527f46756e6374696f6e206d7573742062652063616c6c6564207468726f7567682060448201527f64656c656761746563616c6c00000000000000000000000000000000000000006064820152608401610957565b7f00000000000000000000000000000000000000000000000000000000000000006001600160a01b0316610c717f360894a13ba1a3210667c828492db98dca3e2076cc3735a920a3ca505d382bbc546001600160a01b031690565b6001600160a01b031614610ced5760405162461bcd60e51b815260206004820152602c60248201527f46756e6374696f6e206d7573742062652063616c6c6564207468726f7567682060448201527f6163746976652070726f787900000000000000000000000000000000000000006064820152608401610957565b610cf68261163a565b610721828260016117e2565b6000306001600160a01b037f00000000000000000000000000000000000000000000000000000000000000001614610da25760405162461bcd60e51b815260206004820152603860248201527f555550535570677261646561626c653a206d757374206e6f742062652063616c60448201527f6c6564207468726f7567682064656c656761746563616c6c00000000000000006064820152608401610957565b507f360894a13ba1a3210667c828492db98dca3e2076cc3735a920a3ca505d382bbc90565b7fe2cf92468dcfb4f826eeba6f029d4279f4503e956b3f5b12dc84784c04d96d50610df1816112d2565b610df9611434565b6001600160a01b038416600090815260336020526040902054808403610e1f5750610e8f565b80841115610e3f57610e3a85610e358387612761565b6119d4565b610e52565b610e5285610e4d8684612761565b611ab3565b7f30244e15ecc10155724345921df69c73800ac2dc40cdb5cb1798bc19dff3edc2858585604051610e8593929190612774565b60405180910390a1505b50505050565b600054610100900460ff1615808015610eb55750600054600160ff909116105b80610ecf5750303b158015610ecf575060005460ff166001145b610f415760405162461bcd60e51b815260206004820152602e60248201527f496e697469616c697a61626c653a20636f6e747261637420697320616c72656160448201527f647920696e697469616c697a65640000000000000000000000000000000000006064820152608401610957565b6000805460ff191660011790558015610f64576000805461ff0019166101001790555b610fd86040518060400160405280600d81526020017f5553442061742042726f6b6572000000000000000000000000000000000000008152506040518060400160405280600481526020017f6155534400000000000000000000000000000000000000000000000000000000815250611c38565b610fe0611cad565b610fe8611d20565b610ff0611d20565b610ffb600033611515565b6110257f65d7a28e3265b37a6474929f336521b332c1681b933f6cb9f3376673440d862a33611515565b61104f7f189ab7a9244df0848122154315af71fe140f3db0fe014031783b0946b8c9d2e333611515565b6110797fe2cf92468dcfb4f826eeba6f029d4279f4503e956b3f5b12dc84784c04d96d5033611515565b8015610b04576000805461ff0019169055604051600181527f7f26b83ff96e1f2b6a682f133852f6798a09c465da95921460cefb38474024989060200160405180910390a150565b7f65d7a28e3265b37a6474929f336521b332c1681b933f6cb9f3376673440d862a6110eb816112d2565b610b04611d8b565b60006110fe816112d2565b5061015f80547fffffffffffffffffffffffff0000000000000000000000000000000000000000166001600160a01b0392909216919091179055565b606060378054610734906126fe565b3360008181526034602090815260408083206001600160a01b0387168452909152812054909190838110156111e65760405162461bcd60e51b815260206004820152602560248201527f45524332303a2064656372656173656420616c6c6f77616e63652062656c6f7760448201527f207a65726f0000000000000000000000000000000000000000000000000000006064820152608401610957565b6111f382868684036112dc565b506001949350505050565b6000611208611434565b61015f546040517f0b317e790000000000000000000000000000000000000000000000000000000081523360048201526001600160a01b038581166024830152604482018590526000606483015290911690630b317e7990608401600060405180830381600087803b15801561127d57600080fd5b505af1158015611291573d6000803e3d6000fd5b5060019695505050505050565b600082815260c960205260409020600101546112b9816112d2565b6108d883836115b7565b6001600160a01b03163b151590565b610b048133611dc8565b6001600160a01b0383166113575760405162461bcd60e51b8152602060048201526024808201527f45524332303a20617070726f76652066726f6d20746865207a65726f2061646460448201527f72657373000000000000000000000000000000000000000000000000000000006064820152608401610957565b6001600160a01b0382166113d35760405162461bcd60e51b815260206004820152602260248201527f45524332303a20617070726f766520746f20746865207a65726f20616464726560448201527f73730000000000000000000000000000000000000000000000000000000000006064820152608401610957565b6001600160a01b0383811660008181526034602090815260408083209487168084529482529182902085905590518481527f8c5be1e5ebec7d5bd14f71427d1e84f3dd0314c0f7b2291e5b200ac8c7c3b925910160405180910390a3505050565b60655460ff16156114875760405162461bcd60e51b815260206004820152601060248201527f5061757361626c653a20706175736564000000000000000000000000000000006044820152606401610957565b565b6001600160a01b038381166000908152603460209081526040808320938616835292905220546000198114610e8f57818110156115085760405162461bcd60e51b815260206004820152601d60248201527f45524332303a20696e73756666696369656e7420616c6c6f77616e63650000006044820152606401610957565b610e8f84848484036112dc565b600082815260c9602090815260408083206001600160a01b038516845290915290205460ff1661072157600082815260c9602090815260408083206001600160a01b03851684529091529020805460ff191660011790556115733390565b6001600160a01b0316816001600160a01b0316837f2f8788117e7eff1d82e926ec794901d17c78024a50270940304540a733656f0d60405160405180910390a45050565b600082815260c9602090815260408083206001600160a01b038516845290915290205460ff161561072157600082815260c9602090815260408083206001600160a01b0385168085529252808320805460ff1916905551339285917ff6391f5c32d9c69d2a47ea670b442974b53935d1edc7fd64eb21e047a839171b9190a45050565b7f189ab7a9244df0848122154315af71fe140f3db0fe014031783b0946b8c9d2e3611664816112d2565b6001600160a01b037f00000000000000000000000000000000000000000000000000000000000000001630036117025760405162461bcd60e51b815260206004820152602c60248201527f46756e6374696f6e206d7573742062652063616c6c6564207468726f7567682060448201527f64656c656761746563616c6c00000000000000000000000000000000000000006064820152608401610957565b7f00000000000000000000000000000000000000000000000000000000000000006001600160a01b031661175d7f360894a13ba1a3210667c828492db98dca3e2076cc3735a920a3ca505d382bbc546001600160a01b031690565b6001600160a01b0316146117d95760405162461bcd60e51b815260206004820152602c60248201527f46756e6374696f6e206d7573742062652063616c6c6564207468726f7567682060448201527f6163746976652070726f787900000000000000000000000000000000000000006064820152608401610957565b61072182611e48565b7f4910fdfa16fed3260ed0e7147f7cc6da11a60208b5b9406d12a635614ffd91435460ff1615611815576108d883611e88565b826001600160a01b03166352d1902d6040518163ffffffff1660e01b8152600401602060405180830381865afa92505050801561186f575060408051601f3d908101601f1916820190925261186c918101906127b7565b60015b6118e15760405162461bcd60e51b815260206004820152602e60248201527f45524331393637557067726164653a206e657720696d706c656d656e7461746960448201527f6f6e206973206e6f7420555550530000000000000000000000000000000000006064820152608401610957565b7f360894a13ba1a3210667c828492db98dca3e2076cc3735a920a3ca505d382bbc81146119765760405162461bcd60e51b815260206004820152602960248201527f45524331393637557067726164653a20756e737570706f727465642070726f7860448201527f6961626c655555494400000000000000000000000000000000000000000000006064820152608401610957565b506108d8838383611f5e565b61198a611f83565b6065805460ff191690557f5db9ee0a495bf2e6ff9c91a7834c1ba4fdd244a5e8aa4e537bd38aeae4b073aa335b6040516001600160a01b03909116815260200160405180910390a1565b6001600160a01b038216611a2a5760405162461bcd60e51b815260206004820152601f60248201527f45524332303a206d696e7420746f20746865207a65726f2061646472657373006044820152606401610957565b8060356000828254611a3c919061274e565b90915550506001600160a01b03821660009081526033602052604081208054839290611a6990849061274e565b90915550506040518181526001600160a01b038316906000907fddf252ad1be2c89b69c2b068fc378daa952ba7f163c4a11628f55a4df523b3ef9060200160405180910390a35050565b6001600160a01b038216611b2f5760405162461bcd60e51b815260206004820152602160248201527f45524332303a206275726e2066726f6d20746865207a65726f2061646472657360448201527f73000000000000000000000000000000000000000000000000000000000000006064820152608401610957565b6001600160a01b03821660009081526033602052604090205481811015611bbe5760405162461bcd60e51b815260206004820152602260248201527f45524332303a206275726e20616d6f756e7420657863656564732062616c616e60448201527f63650000000000000000000000000000000000000000000000000000000000006064820152608401610957565b6001600160a01b0383166000908152603360205260408120838303905560358054849290611bed908490612761565b90915550506040518281526000906001600160a01b038516907fddf252ad1be2c89b69c2b068fc378daa952ba7f163c4a11628f55a4df523b3ef9060200160405180910390a3505050565b600054610100900460ff16611ca35760405162461bcd60e51b815260206004820152602b60248201527f496e697469616c697a61626c653a20636f6e7472616374206973206e6f74206960448201526a6e697469616c697a696e6760a81b6064820152608401610957565b6107218282611fd5565b600054610100900460ff16611d185760405162461bcd60e51b815260206004820152602b60248201527f496e697469616c697a61626c653a20636f6e7472616374206973206e6f74206960448201526a6e697469616c697a696e6760a81b6064820152608401610957565b611487612059565b600054610100900460ff166114875760405162461bcd60e51b815260206004820152602b60248201527f496e697469616c697a61626c653a20636f6e7472616374206973206e6f74206960448201526a6e697469616c697a696e6760a81b6064820152608401610957565b611d93611434565b6065805460ff191660011790557f62e78cea01bee320cd4e420270b5ea74000d11b0c9f74754ebdbfc544b05a2586119b73390565b600082815260c9602090815260408083206001600160a01b038516845290915290205460ff1661072157611e06816001600160a01b031660146120d0565b611e118360206120d0565b604051602001611e229291906127d0565b60408051601f198184030181529082905262461bcd60e51b8252610957916004016124da565b611e5181611e88565b6040516001600160a01b038216907fbc7cd75a20ee27fd9adebab32041f755214dbc6bffa90cc0225b39da2e5c2d3b90600090a250565b6001600160a01b0381163b611f055760405162461bcd60e51b815260206004820152602d60248201527f455243313936373a206e657720696d706c656d656e746174696f6e206973206e60448201527f6f74206120636f6e7472616374000000000000000000000000000000000000006064820152608401610957565b7f360894a13ba1a3210667c828492db98dca3e2076cc3735a920a3ca505d382bbc80547fffffffffffffffffffffffff0000000000000000000000000000000000000000166001600160a01b0392909216919091179055565b611f6783611e48565b600082511180611f745750805b156108d857610e8f83836122f9565b60655460ff166114875760405162461bcd60e51b815260206004820152601460248201527f5061757361626c653a206e6f74207061757365640000000000000000000000006044820152606401610957565b600054610100900460ff166120405760405162461bcd60e51b815260206004820152602b60248201527f496e697469616c697a61626c653a20636f6e7472616374206973206e6f74206960448201526a6e697469616c697a696e6760a81b6064820152608401610957565b603661204c838261289f565b5060376108d8828261289f565b600054610100900460ff166120c45760405162461bcd60e51b815260206004820152602b60248201527f496e697469616c697a61626c653a20636f6e7472616374206973206e6f74206960448201526a6e697469616c697a696e6760a81b6064820152608401610957565b6065805460ff19169055565b606060006120df83600261295f565b6120ea90600261274e565b67ffffffffffffffff811115612102576121026125b8565b6040519080825280601f01601f19166020018201604052801561212c576020820181803683370190505b5090507f3000000000000000000000000000000000000000000000000000000000000000816000815181106121635761216361297e565b60200101907effffffffffffffffffffffffffffffffffffffffffffffffffffffffffffff1916908160001a9053507f7800000000000000000000000000000000000000000000000000000000000000816001815181106121c6576121c661297e565b60200101907effffffffffffffffffffffffffffffffffffffffffffffffffffffffffffff1916908160001a905350600061220284600261295f565b61220d90600161274e565b90505b60018111156122aa577f303132333435363738396162636465660000000000000000000000000000000085600f166010811061224e5761224e61297e565b1a60f81b8282815181106122645761226461297e565b60200101907effffffffffffffffffffffffffffffffffffffffffffffffffffffffffffff1916908160001a90535060049490941c936122a381612994565b9050612210565b50831561087b5760405162461bcd60e51b815260206004820181905260248201527f537472696e67733a20686578206c656e67746820696e73756666696369656e746044820152606401610957565b60606001600160a01b0383163b6123785760405162461bcd60e51b815260206004820152602660248201527f416464726573733a2064656c65676174652063616c6c20746f206e6f6e2d636f60448201527f6e747261637400000000000000000000000000000000000000000000000000006064820152608401610957565b600080846001600160a01b03168460405161239391906129ab565b600060405180830381855af49150503d80600081146123ce576040519150601f19603f3d011682016040523d82523d6000602084013e6123d3565b606091505b50915091506123fb82826040518060600160405280602781526020016129c860279139612404565b95945050505050565b6060831561241357508161087b565b8251156124235782518084602001fd5b8160405162461bcd60e51b815260040161095791906124da565b60006020828403121561244f57600080fd5b81357fffffffff000000000000000000000000000000000000000000000000000000008116811461087b57600080fd5b80356001600160a01b038116811461249657600080fd5b919050565b6000602082840312156124ad57600080fd5b61087b8261247f565b60005b838110156124d15781810151838201526020016124b9565b50506000910152565b60208152600082518060208401526124f98160408501602087016124b6565b601f01601f19169190910160400192915050565b6000806040838503121561252057600080fd5b6125298361247f565b946020939093013593505050565b60008060006060848603121561254c57600080fd5b6125558461247f565b92506125636020850161247f565b9150604084013590509250925092565b60006020828403121561258557600080fd5b5035919050565b6000806040838503121561259f57600080fd5b823591506125af6020840161247f565b90509250929050565b634e487b7160e01b600052604160045260246000fd5b600080604083850312156125e157600080fd5b6125ea8361247f565b9150602083013567ffffffffffffffff8082111561260757600080fd5b818501915085601f83011261261b57600080fd5b81358181111561262d5761262d6125b8565b604051601f8201601f19908116603f01168101908382118183101715612655576126556125b8565b8160405282815288602084870101111561266e57600080fd5b8260208601602083013760006020848301015280955050505050509250929050565b6000806000606084860312156126a557600080fd5b6126ae8461247f565b9250602084013591506040840135600481106126c957600080fd5b809150509250925092565b600080604083850312156126e757600080fd5b6126f08361247f565b91506125af6020840161247f565b600181811c9082168061271257607f821691505b60208210810361273257634e487b7160e01b600052602260045260246000fd5b50919050565b634e487b7160e01b600052601160045260246000fd5b808201808211156106e6576106e6612738565b818103818111156106e6576106e6612738565b6001600160a01b03841681526020810183905260608101600483106127a957634e487b7160e01b600052602160045260246000fd5b826040830152949350505050565b6000602082840312156127c957600080fd5b5051919050565b7f416363657373436f6e74726f6c3a206163636f756e74200000000000000000008152600083516128088160178501602088016124b6565b7f206973206d697373696e6720726f6c652000000000000000000000000000000060179184019182015283516128458160288401602088016124b6565b01602801949350505050565b601f8211156108d857600081815260208120601f850160051c810160208610156128785750805b601f850160051c820191505b8181101561289757828155600101612884565b505050505050565b815167ffffffffffffffff8111156128b9576128b96125b8565b6128cd816128c784546126fe565b84612851565b602080601f83116001811461290257600084156128ea5750858301515b600019600386901b1c1916600185901b178555612897565b600085815260208120601f198616915b8281101561293157888601518255948401946001909101908401612912565b508582101561294f5787850151600019600388901b60f8161c191681555b5050505050600190811b01905550565b600081600019048311821515161561297957612979612738565b500290565b634e487b7160e01b600052603260045260246000fd5b6000816129a3576129a3612738565b506000190190565b600082516129bd8184602087016124b6565b919091019291505056fe416464726573733a206c6f772d6c6576656c2064656c65676174652063616c6c206661696c6564a264697066735822122040efcf4e97a8daa758d902387c80cc13b9f8ae80dfc6014181e83f7a4fb254d064736f6c63430008100033",
  "linkReferences": {},
  "deployedLinkReferences": {}
}