{
  "_format": "hh-sol-artifact-1",
  "contractName": "aUSD",
  "sourceName": "contracts/aUSD.sol",
  "abi": [
    {
      "inputs": [],
      "stateMutability": "nonpayable",
      "type": "constructor"
    },
    {
      "anonymous": false,
      "inputs": [
        {
          "indexed": false,
          "internalType": "address",
          "name": "previousAdmin",
          "type": "address"
        },
        {
          "indexed": false,
          "internalType": "address",
          "name": "newAdmin",
          "type": "address"
        }
      ],
      "name": "AdminChanged",
      "type": "event"
    },
    {
      "anonymous": false,
      "inputs": [
        {
          "indexed": true,
          "internalType": "address",
          "name": "owner",
          "type": "address"
        },
        {
          "indexed": true,
          "internalType": "address",
          "name": "spender",
          "type": "address"
        },
        {
          "indexed": false,
          "internalType": "uint256",
          "name": "value",
          "type": "uint256"
        }
      ],
      "name": "Approval",
      "type": "event"
    },
    {
      "anonymous": false,
      "inputs": [
        {
          "indexed": false,
          "internalType": "address",
          "name": "recipient",
          "type": "address"
        },
        {
          "indexed": false,
          "internalType": "uint256",
          "name": "balance",
          "type": "uint256"
        },
        {
          "indexed": false,
          "internalType": "enum LiminalMarket.Action",
          "name": "action",
          "type": "uint8"
        }
      ],
      "name": "BalanceSet",
      "type": "event"
    },
    {
      "anonymous": false,
      "inputs": [
        {
          "indexed": true,
          "internalType": "address",
          "name": "beacon",
          "type": "address"
        }
      ],
      "name": "BeaconUpgraded",
      "type": "event"
    },
    {
      "anonymous": false,
      "inputs": [
        {
          "indexed": false,
          "internalType": "uint8",
          "name": "version",
          "type": "uint8"
        }
      ],
      "name": "Initialized",
      "type": "event"
    },
    {
      "anonymous": false,
      "inputs": [
        {
          "indexed": false,
          "internalType": "address",
          "name": "account",
          "type": "address"
        }
      ],
      "name": "Paused",
      "type": "event"
    },
    {
      "anonymous": false,
      "inputs": [
        {
          "indexed": true,
          "internalType": "bytes32",
          "name": "role",
          "type": "bytes32"
        },
        {
          "indexed": true,
          "internalType": "bytes32",
          "name": "previousAdminRole",
          "type": "bytes32"
        },
        {
          "indexed": true,
          "internalType": "bytes32",
          "name": "newAdminRole",
          "type": "bytes32"
        }
      ],
      "name": "RoleAdminChanged",
      "type": "event"
    },
    {
      "anonymous": false,
      "inputs": [
        {
          "indexed": true,
          "internalType": "bytes32",
          "name": "role",
          "type": "bytes32"
        },
        {
          "indexed": true,
          "internalType": "address",
          "name": "account",
          "type": "address"
        },
        {
          "indexed": true,
          "internalType": "address",
          "name": "sender",
          "type": "address"
        }
      ],
      "name": "RoleGranted",
      "type": "event"
    },
    {
      "anonymous": false,
      "inputs": [
        {
          "indexed": true,
          "internalType": "bytes32",
          "name": "role",
          "type": "bytes32"
        },
        {
          "indexed": true,
          "internalType": "address",
          "name": "account",
          "type": "address"
        },
        {
          "indexed": true,
          "internalType": "address",
          "name": "sender",
          "type": "address"
        }
      ],
      "name": "RoleRevoked",
      "type": "event"
    },
    {
      "anonymous": false,
      "inputs": [
        {
          "indexed": true,
          "internalType": "address",
          "name": "from",
          "type": "address"
        },
        {
          "indexed": true,
          "internalType": "address",
          "name": "to",
          "type": "address"
        },
        {
          "indexed": false,
          "internalType": "uint256",
          "name": "value",
          "type": "uint256"
        }
      ],
      "name": "Transfer",
      "type": "event"
    },
    {
      "anonymous": false,
      "inputs": [
        {
          "indexed": false,
          "internalType": "address",
          "name": "account",
          "type": "address"
        }
      ],
      "name": "Unpaused",
      "type": "event"
    },
    {
      "anonymous": false,
      "inputs": [
        {
          "indexed": true,
          "internalType": "address",
          "name": "implementation",
          "type": "address"
        }
      ],
      "name": "Upgraded",
      "type": "event"
    },
    {
      "inputs": [],
      "name": "DEFAULT_ADMIN_ROLE",
      "outputs": [
        {
          "internalType": "bytes32",
          "name": "",
          "type": "bytes32"
        }
      ],
      "stateMutability": "view",
      "type": "function"
    },
    {
      "inputs": [],
      "name": "PAUSER_ROLE",
      "outputs": [
        {
          "internalType": "bytes32",
          "name": "",
          "type": "bytes32"
        }
      ],
      "stateMutability": "view",
      "type": "function"
    },
    {
      "inputs": [],
      "name": "SET_BALANCE",
      "outputs": [
        {
          "internalType": "bytes32",
          "name": "",
          "type": "bytes32"
        }
      ],
      "stateMutability": "view",
      "type": "function"
    },
    {
      "inputs": [],
      "name": "UPGRADER_ROLE",
      "outputs": [
        {
          "internalType": "bytes32",
          "name": "",
          "type": "bytes32"
        }
      ],
      "stateMutability": "view",
      "type": "function"
    },
    {
      "inputs": [
        {
          "internalType": "address",
          "name": "owner",
          "type": "address"
        },
        {
          "internalType": "address",
          "name": "spender",
          "type": "address"
        }
      ],
      "name": "allowance",
      "outputs": [
        {
          "internalType": "uint256",
          "name": "",
          "type": "uint256"
        }
      ],
      "stateMutability": "view",
      "type": "function"
    },
    {
      "inputs": [
        {
          "internalType": "address",
          "name": "spender",
          "type": "address"
        },
        {
          "internalType": "uint256",
          "name": "amount",
          "type": "uint256"
        }
      ],
      "name": "approve",
      "outputs": [
        {
          "internalType": "bool",
          "name": "",
          "type": "bool"
        }
      ],
      "stateMutability": "nonpayable",
      "type": "function"
    },
    {
      "inputs": [
        {
          "internalType": "address",
          "name": "account",
          "type": "address"
        }
      ],
      "name": "balanceOf",
      "outputs": [
        {
          "internalType": "uint256",
          "name": "",
          "type": "uint256"
        }
      ],
      "stateMutability": "view",
      "type": "function"
    },
    {
      "inputs": [],
      "name": "decimals",
      "outputs": [
        {
          "internalType": "uint8",
          "name": "",
          "type": "uint8"
        }
      ],
      "stateMutability": "view",
      "type": "function"
    },
    {
      "inputs": [
        {
          "internalType": "address",
          "name": "spender",
          "type": "address"
        },
        {
          "internalType": "uint256",
          "name": "subtractedValue",
          "type": "uint256"
        }
      ],
      "name": "decreaseAllowance",
      "outputs": [
        {
          "internalType": "bool",
          "name": "",
          "type": "bool"
        }
      ],
      "stateMutability": "nonpayable",
      "type": "function"
    },
    {
      "inputs": [
        {
          "internalType": "bytes32",
          "name": "role",
          "type": "bytes32"
        }
      ],
      "name": "getRoleAdmin",
      "outputs": [
        {
          "internalType": "bytes32",
          "name": "",
          "type": "bytes32"
        }
      ],
      "stateMutability": "view",
      "type": "function"
    },
    {
      "inputs": [
        {
          "internalType": "bytes32",
          "name": "role",
          "type": "bytes32"
        },
        {
          "internalType": "address",
          "name": "account",
          "type": "address"
        }
      ],
      "name": "grantRole",
      "outputs": [],
      "stateMutability": "nonpayable",
      "type": "function"
    },
    {
      "inputs": [
        {
          "internalType": "address",
          "name": "recipient",
          "type": "address"
        }
      ],
      "name": "grantRoleForBalance",
      "outputs": [],
      "stateMutability": "nonpayable",
      "type": "function"
    },
    {
      "inputs": [
        {
          "internalType": "bytes32",
          "name": "role",
          "type": "bytes32"
        },
        {
          "internalType": "address",
          "name": "account",
          "type": "address"
        }
      ],
      "name": "hasRole",
      "outputs": [
        {
          "internalType": "bool",
          "name": "",
          "type": "bool"
        }
      ],
      "stateMutability": "view",
      "type": "function"
    },
    {
      "inputs": [
        {
          "internalType": "address",
          "name": "spender",
          "type": "address"
        },
        {
          "internalType": "uint256",
          "name": "addedValue",
          "type": "uint256"
        }
      ],
      "name": "increaseAllowance",
      "outputs": [
        {
          "internalType": "bool",
          "name": "",
          "type": "bool"
        }
      ],
      "stateMutability": "nonpayable",
      "type": "function"
    },
    {
      "inputs": [],
      "name": "initialize",
      "outputs": [],
      "stateMutability": "nonpayable",
      "type": "function"
    },
    {
      "inputs": [],
      "name": "name",
      "outputs": [
        {
          "internalType": "string",
          "name": "",
          "type": "string"
        }
      ],
      "stateMutability": "view",
      "type": "function"
    },
    {
      "inputs": [],
      "name": "pause",
      "outputs": [],
      "stateMutability": "nonpayable",
      "type": "function"
    },
    {
      "inputs": [],
      "name": "paused",
      "outputs": [
        {
          "internalType": "bool",
          "name": "",
          "type": "bool"
        }
      ],
      "stateMutability": "view",
      "type": "function"
    },
    {
      "inputs": [],
      "name": "proxiableUUID",
      "outputs": [
        {
          "internalType": "bytes32",
          "name": "",
          "type": "bytes32"
        }
      ],
      "stateMutability": "view",
      "type": "function"
    },
    {
      "inputs": [
        {
          "internalType": "bytes32",
          "name": "role",
          "type": "bytes32"
        },
        {
          "internalType": "address",
          "name": "account",
          "type": "address"
        }
      ],
      "name": "renounceRole",
      "outputs": [],
      "stateMutability": "nonpayable",
      "type": "function"
    },
    {
      "inputs": [
        {
          "internalType": "bytes32",
          "name": "role",
          "type": "bytes32"
        },
        {
          "internalType": "address",
          "name": "account",
          "type": "address"
        }
      ],
      "name": "revokeRole",
      "outputs": [],
      "stateMutability": "nonpayable",
      "type": "function"
    },
    {
      "inputs": [
        {
          "internalType": "address",
          "name": "recipient",
          "type": "address"
        }
      ],
      "name": "revokeRoleForBalance",
      "outputs": [],
      "stateMutability": "nonpayable",
      "type": "function"
    },
    {
      "inputs": [
        {
          "internalType": "address",
          "name": "recipient",
          "type": "address"
        },
        {
          "internalType": "uint256",
          "name": "balance",
          "type": "uint256"
        },
        {
          "internalType": "enum LiminalMarket.Action",
          "name": "action",
          "type": "uint8"
        }
      ],
      "name": "setBalance",
      "outputs": [],
      "stateMutability": "nonpayable",
      "type": "function"
    },
    {
      "inputs": [
        {
          "internalType": "address",
          "name": "liminalMarketAddress",
          "type": "address"
        }
      ],
      "name": "setLiminalMarketAddress",
      "outputs": [],
      "stateMutability": "nonpayable",
      "type": "function"
    },
    {
      "inputs": [
        {
          "internalType": "bytes4",
          "name": "interfaceId",
          "type": "bytes4"
        }
      ],
      "name": "supportsInterface",
      "outputs": [
        {
          "internalType": "bool",
          "name": "",
          "type": "bool"
        }
      ],
      "stateMutability": "view",
      "type": "function"
    },
    {
      "inputs": [],
      "name": "symbol",
      "outputs": [
        {
          "internalType": "string",
          "name": "",
          "type": "string"
        }
      ],
      "stateMutability": "view",
      "type": "function"
    },
    {
      "inputs": [],
      "name": "totalSupply",
      "outputs": [
        {
          "internalType": "uint256",
          "name": "",
          "type": "uint256"
        }
      ],
      "stateMutability": "view",
      "type": "function"
    },
    {
      "inputs": [
        {
          "internalType": "address",
          "name": "to",
          "type": "address"
        },
        {
          "internalType": "uint256",
          "name": "amount",
          "type": "uint256"
        }
      ],
      "name": "transfer",
      "outputs": [
        {
          "internalType": "bool",
          "name": "",
          "type": "bool"
        }
      ],
      "stateMutability": "nonpayable",
      "type": "function"
    },
    {
      "inputs": [
        {
          "internalType": "address",
          "name": "from",
          "type": "address"
        },
        {
          "internalType": "address",
          "name": "to",
          "type": "address"
        },
        {
          "internalType": "uint256",
          "name": "amount",
          "type": "uint256"
        }
      ],
      "name": "transferFrom",
      "outputs": [
        {
          "internalType": "bool",
          "name": "",
          "type": "bool"
        }
      ],
      "stateMutability": "nonpayable",
      "type": "function"
    },
    {
      "inputs": [],
      "name": "unpause",
      "outputs": [],
      "stateMutability": "nonpayable",
      "type": "function"
    },
    {
      "inputs": [
        {
          "internalType": "address",
          "name": "newImplementation",
          "type": "address"
        }
      ],
      "name": "upgradeTo",
      "outputs": [],
      "stateMutability": "nonpayable",
      "type": "function"
    },
    {
      "inputs": [
        {
          "internalType": "address",
          "name": "newImplementation",
          "type": "address"
        },
        {
          "internalType": "bytes",
          "name": "data",
          "type": "bytes"
        }
      ],
      "name": "upgradeToAndCall",
      "outputs": [],
      "stateMutability": "payable",
      "type": "function"
    }
  ],
  "bytecode": "0x60a0604052306080523480156200001557600080fd5b506200002062000026565b620000e8565b600054610100900460ff1615620000935760405162461bcd60e51b815260206004820152602760248201527f496e697469616c697a61626c653a20636f6e747261637420697320696e697469604482015266616c697a696e6760c81b606482015260840160405180910390fd5b60005460ff9081161015620000e6576000805460ff191660ff9081179091556040519081527f7f26b83ff96e1f2b6a682f133852f6798a09c465da95921460cefb38474024989060200160405180910390a15b565b6080516129e96200012e6000396000818161097401528181610a0a01528181610b8201528181610c1801528181610d0f0152818161165f01526116f501526129e96000f3fe6080604052600436106101e35760003560e01c80635b45298911610102578063a217fddf11610095578063dd62ed3e11610064578063dd62ed3e14610571578063deeb552b146105b7578063e63ab1e9146105eb578063f72c0d8b1461061f57600080fd5b8063a217fddf146104fc578063a457c2d714610511578063a9059cbb14610531578063d547741f1461055157600080fd5b80638456cb59116100d15780638456cb591461046c5780638c8b52d01461048157806391d14854146104a157806395d89b41146104e757600080fd5b80635b452989146103e95780635c975abb1461040957806370a08231146104215780638129fc1c1461045757600080fd5b80632f2ff15d1161017a5780633950935111610149578063395093511461038c5780633f4ba83a146103ac5780634f1ef286146103c157806352d1902d146103d457600080fd5b80632f2ff15d14610310578063313ce5671461033057806336568abe1461034c5780633659cfe61461036c57600080fd5b806318160ddd116101b657806318160ddd1461028157806323b872dd146102a0578063248a9ca3146102c0578063253a8721146102f057600080fd5b806301ffc9a7146101e8578063029c0b6e1461021d57806306fdde031461023f578063095ea7b314610261575b600080fd5b3480156101f457600080fd5b50610208610203366004612402565b610653565b60405190151581526020015b60405180910390f35b34801561022957600080fd5b5061023d610238366004612460565b6106ec565b005b34801561024b57600080fd5b50610254610725565b604051610214919061249f565b34801561026d57600080fd5b5061020861027c3660046124d2565b6107b7565b34801561028d57600080fd5b506035545b604051908152602001610214565b3480156102ac57600080fd5b506102086102bb3660046124fc565b6107cf565b3480156102cc57600080fd5b506102926102db366004612538565b600090815260c9602052604090206001015490565b3480156102fc57600080fd5b5061023d61030b366004612460565b610882565b34801561031c57600080fd5b5061023d61032b366004612551565b6108b3565b34801561033c57600080fd5b5060405160128152602001610214565b34801561035857600080fd5b5061023d610367366004612551565b6108dd565b34801561037857600080fd5b5061023d610387366004612460565b61096a565b34801561039857600080fd5b506102086103a73660046124d2565b610b07565b3480156103b857600080fd5b5061023d610b46565b61023d6103cf366004612593565b610b78565b3480156103e057600080fd5b50610292610d02565b3480156103f557600080fd5b5061023d610404366004612655565b610dc7565b34801561041557600080fd5b5060655460ff16610208565b34801561042d57600080fd5b5061029261043c366004612460565b6001600160a01b031660009081526033602052604090205490565b34801561046357600080fd5b5061023d610e95565b34801561047857600080fd5b5061023d6110c1565b34801561048d57600080fd5b5061023d61049c366004612460565b6110f3565b3480156104ad57600080fd5b506102086104bc366004612551565b600091825260c9602090815260408084206001600160a01b0393909316845291905290205460ff1690565b3480156104f357600080fd5b5061025461113a565b34801561050857600080fd5b50610292600081565b34801561051d57600080fd5b5061020861052c3660046124d2565b611149565b34801561053d57600080fd5b5061020861054c3660046124d2565b6111fe565b34801561055d57600080fd5b5061023d61056c366004612551565b61129e565b34801561057d57600080fd5b5061029261058c366004612699565b6001600160a01b03918216600090815260346020908152604080832093909416825291909152205490565b3480156105c357600080fd5b506102927fe2cf92468dcfb4f826eeba6f029d4279f4503e956b3f5b12dc84784c04d96d5081565b3480156105f757600080fd5b506102927f65d7a28e3265b37a6474929f336521b332c1681b933f6cb9f3376673440d862a81565b34801561062b57600080fd5b506102927f189ab7a9244df0848122154315af71fe140f3db0fe014031783b0946b8c9d2e381565b60007fffffffff0000000000000000000000000000000000000000000000000000000082167f7965db0b0000000000000000000000000000000000000000000000000000000014806106e657507f01ffc9a7000000000000000000000000000000000000000000000000000000007fffffffff000000000000000000000000000000000000000000000000000000008316145b92915050565b60006106f7816112c3565b6107217fe2cf92468dcfb4f826eeba6f029d4279f4503e956b3f5b12dc84784c04d96d508361129e565b5050565b606060368054610734906126c3565b80601f0160208091040260200160405190810160405280929190818152602001828054610760906126c3565b80156107ad5780601f10610782576101008083540402835291602001916107ad565b820191906000526020600020905b81548152906001019060200180831161079057829003601f168201915b5050505050905090565b6000336107c58185856112cd565b5060019392505050565b60006107d9611425565b336107e585828561147a565b61015f546040517f0b317e790000000000000000000000000000000000000000000000000000000081526001600160a01b038781166004830152868116602483015260448201869052838116606483015290911690630b317e7990608401600060405180830381600087803b15801561085d57600080fd5b505af1158015610871573d6000803e3d6000fd5b5050505060019150505b9392505050565b600061088d816112c3565b6107217fe2cf92468dcfb4f826eeba6f029d4279f4503e956b3f5b12dc84784c04d96d50835b600082815260c960205260409020600101546108ce816112c3565b6108d88383611506565b505050565b6001600160a01b03811633146109605760405162461bcd60e51b815260206004820152602f60248201527f416363657373436f6e74726f6c3a2063616e206f6e6c792072656e6f756e636560448201527f20726f6c657320666f722073656c66000000000000000000000000000000000060648201526084015b60405180910390fd5b61072182826115a8565b6001600160a01b037f0000000000000000000000000000000000000000000000000000000000000000163003610a085760405162461bcd60e51b815260206004820152602c60248201527f46756e6374696f6e206d7573742062652063616c6c6564207468726f7567682060448201527f64656c656761746563616c6c00000000000000000000000000000000000000006064820152608401610957565b7f00000000000000000000000000000000000000000000000000000000000000006001600160a01b0316610a637f360894a13ba1a3210667c828492db98dca3e2076cc3735a920a3ca505d382bbc546001600160a01b031690565b6001600160a01b031614610adf5760405162461bcd60e51b815260206004820152602c60248201527f46756e6374696f6e206d7573742062652063616c6c6564207468726f7567682060448201527f6163746976652070726f787900000000000000000000000000000000000000006064820152608401610957565b610ae88161162b565b60408051600080825260208201909252610b04918391906117d3565b50565b3360008181526034602090815260408083206001600160a01b03871684529091528120549091906107c59082908690610b41908790612713565b6112cd565b7f65d7a28e3265b37a6474929f336521b332c1681b933f6cb9f3376673440d862a610b70816112c3565b610b04611973565b6001600160a01b037f0000000000000000000000000000000000000000000000000000000000000000163003610c165760405162461bcd60e51b815260206004820152602c60248201527f46756e6374696f6e206d7573742062652063616c6c6564207468726f7567682060448201527f64656c656761746563616c6c00000000000000000000000000000000000000006064820152608401610957565b7f00000000000000000000000000000000000000000000000000000000000000006001600160a01b0316610c717f360894a13ba1a3210667c828492db98dca3e2076cc3735a920a3ca505d382bbc546001600160a01b031690565b6001600160a01b031614610ced5760405162461bcd60e51b815260206004820152602c60248201527f46756e6374696f6e206d7573742062652063616c6c6564207468726f7567682060448201527f6163746976652070726f787900000000000000000000000000000000000000006064820152608401610957565b610cf68261162b565b610721828260016117d3565b6000306001600160a01b037f00000000000000000000000000000000000000000000000000000000000000001614610da25760405162461bcd60e51b815260206004820152603860248201527f555550535570677261646561626c653a206d757374206e6f742062652063616c60448201527f6c6564207468726f7567682064656c656761746563616c6c00000000000000006064820152608401610957565b507f360894a13ba1a3210667c828492db98dca3e2076cc3735a920a3ca505d382bbc90565b7fe2cf92468dcfb4f826eeba6f029d4279f4503e956b3f5b12dc84784c04d96d50610df1816112c3565b610df9611425565b6001600160a01b038416600090815260336020526040902054808403610e1f5750610e8f565b80841115610e3f57610e3a85610e358387612726565b6119c5565b610e52565b610e5285610e4d8684612726565b611a86565b7f30244e15ecc10155724345921df69c73800ac2dc40cdb5cb1798bc19dff3edc2858585604051610e8593929190612739565b60405180910390a1505b50505050565b600054610100900460ff1615808015610eb55750600054600160ff909116105b80610ecf5750303b158015610ecf575060005460ff166001145b610f415760405162461bcd60e51b815260206004820152602e60248201527f496e697469616c697a61626c653a20636f6e747261637420697320616c72656160448201527f647920696e697469616c697a65640000000000000000000000000000000000006064820152608401610957565b6000805460ff191660011790558015610f64576000805461ff0019166101001790555b610fd86040518060400160405280600d81526020017f5553442061742042726f6b6572000000000000000000000000000000000000008152506040518060400160405280600481526020017f6155534400000000000000000000000000000000000000000000000000000000815250611bf1565b610fe0611c66565b610fe8611cd9565b610ff0611cd9565b610ffb600033611506565b6110257f65d7a28e3265b37a6474929f336521b332c1681b933f6cb9f3376673440d862a33611506565b61104f7f189ab7a9244df0848122154315af71fe140f3db0fe014031783b0946b8c9d2e333611506565b6110797fe2cf92468dcfb4f826eeba6f029d4279f4503e956b3f5b12dc84784c04d96d5033611506565b8015610b04576000805461ff0019169055604051600181527f7f26b83ff96e1f2b6a682f133852f6798a09c465da95921460cefb38474024989060200160405180910390a150565b7f65d7a28e3265b37a6474929f336521b332c1681b933f6cb9f3376673440d862a6110eb816112c3565b610b04611d44565b60006110fe816112c3565b5061015f80547fffffffffffffffffffffffff0000000000000000000000000000000000000000166001600160a01b0392909216919091179055565b606060378054610734906126c3565b3360008181526034602090815260408083206001600160a01b0387168452909152812054909190838110156111e65760405162461bcd60e51b815260206004820152602560248201527f45524332303a2064656372656173656420616c6c6f77616e63652062656c6f7760448201527f207a65726f0000000000000000000000000000000000000000000000000000006064820152608401610957565b6111f382868684036112cd565b506001949350505050565b6000611208611425565b61015f546040517f0b317e790000000000000000000000000000000000000000000000000000000081523360048201526001600160a01b038581166024830152604482018590526000606483015290911690630b317e7990608401600060405180830381600087803b15801561127d57600080fd5b505af1158015611291573d6000803e3d6000fd5b5060019695505050505050565b600082815260c960205260409020600101546112b9816112c3565b6108d883836115a8565b610b048133611d81565b6001600160a01b0383166113485760405162461bcd60e51b8152602060048201526024808201527f45524332303a20617070726f76652066726f6d20746865207a65726f2061646460448201527f72657373000000000000000000000000000000000000000000000000000000006064820152608401610957565b6001600160a01b0382166113c45760405162461bcd60e51b815260206004820152602260248201527f45524332303a20617070726f766520746f20746865207a65726f20616464726560448201527f73730000000000000000000000000000000000000000000000000000000000006064820152608401610957565b6001600160a01b0383811660008181526034602090815260408083209487168084529482529182902085905590518481527f8c5be1e5ebec7d5bd14f71427d1e84f3dd0314c0f7b2291e5b200ac8c7c3b925910160405180910390a3505050565b60655460ff16156114785760405162461bcd60e51b815260206004820152601060248201527f5061757361626c653a20706175736564000000000000000000000000000000006044820152606401610957565b565b6001600160a01b038381166000908152603460209081526040808320938616835292905220546000198114610e8f57818110156114f95760405162461bcd60e51b815260206004820152601d60248201527f45524332303a20696e73756666696369656e7420616c6c6f77616e63650000006044820152606401610957565b610e8f84848484036112cd565b600082815260c9602090815260408083206001600160a01b038516845290915290205460ff1661072157600082815260c9602090815260408083206001600160a01b03851684529091529020805460ff191660011790556115643390565b6001600160a01b0316816001600160a01b0316837f2f8788117e7eff1d82e926ec794901d17c78024a50270940304540a733656f0d60405160405180910390a45050565b600082815260c9602090815260408083206001600160a01b038516845290915290205460ff161561072157600082815260c9602090815260408083206001600160a01b0385168085529252808320805460ff1916905551339285917ff6391f5c32d9c69d2a47ea670b442974b53935d1edc7fd64eb21e047a839171b9190a45050565b7f189ab7a9244df0848122154315af71fe140f3db0fe014031783b0946b8c9d2e3611655816112c3565b6001600160a01b037f00000000000000000000000000000000000000000000000000000000000000001630036116f35760405162461bcd60e51b815260206004820152602c60248201527f46756e6374696f6e206d7573742062652063616c6c6564207468726f7567682060448201527f64656c656761746563616c6c00000000000000000000000000000000000000006064820152608401610957565b7f00000000000000000000000000000000000000000000000000000000000000006001600160a01b031661174e7f360894a13ba1a3210667c828492db98dca3e2076cc3735a920a3ca505d382bbc546001600160a01b031690565b6001600160a01b0316146117ca5760405162461bcd60e51b815260206004820152602c60248201527f46756e6374696f6e206d7573742062652063616c6c6564207468726f7567682060448201527f6163746976652070726f787900000000000000000000000000000000000000006064820152608401610957565b61072182611df6565b7f4910fdfa16fed3260ed0e7147f7cc6da11a60208b5b9406d12a635614ffd91435460ff1615611806576108d883611e36565b826001600160a01b03166352d1902d6040518163ffffffff1660e01b8152600401602060405180830381865afa925050508015611860575060408051601f3d908101601f1916820190925261185d9181019061277c565b60015b6118d25760405162461bcd60e51b815260206004820152602e60248201527f45524331393637557067726164653a206e657720696d706c656d656e7461746960448201527f6f6e206973206e6f7420555550530000000000000000000000000000000000006064820152608401610957565b7f360894a13ba1a3210667c828492db98dca3e2076cc3735a920a3ca505d382bbc81146119675760405162461bcd60e51b815260206004820152602960248201527f45524331393637557067726164653a20756e737570706f727465642070726f7860448201527f6961626c655555494400000000000000000000000000000000000000000000006064820152608401610957565b506108d8838383611f0c565b61197b611f31565b6065805460ff191690557f5db9ee0a495bf2e6ff9c91a7834c1ba4fdd244a5e8aa4e537bd38aeae4b073aa335b6040516001600160a01b03909116815260200160405180910390a1565b6001600160a01b038216611a1b5760405162461bcd60e51b815260206004820152601f60248201527f45524332303a206d696e7420746f20746865207a65726f2061646472657373006044820152606401610957565b8060356000828254611a2d9190612713565b90915550506001600160a01b0382166000818152603360209081526040808320805486019055518481527fddf252ad1be2c89b69c2b068fc378daa952ba7f163c4a11628f55a4df523b3ef910160405180910390a35050565b6001600160a01b038216611b025760405162461bcd60e51b815260206004820152602160248201527f45524332303a206275726e2066726f6d20746865207a65726f2061646472657360448201527f73000000000000000000000000000000000000000000000000000000000000006064820152608401610957565b6001600160a01b03821660009081526033602052604090205481811015611b915760405162461bcd60e51b815260206004820152602260248201527f45524332303a206275726e20616d6f756e7420657863656564732062616c616e60448201527f63650000000000000000000000000000000000000000000000000000000000006064820152608401610957565b6001600160a01b03831660008181526033602090815260408083208686039055603580548790039055518581529192917fddf252ad1be2c89b69c2b068fc378daa952ba7f163c4a11628f55a4df523b3ef910160405180910390a3505050565b600054610100900460ff16611c5c5760405162461bcd60e51b815260206004820152602b60248201527f496e697469616c697a61626c653a20636f6e7472616374206973206e6f74206960448201526a6e697469616c697a696e6760a81b6064820152608401610957565b6107218282611f83565b600054610100900460ff16611cd15760405162461bcd60e51b815260206004820152602b60248201527f496e697469616c697a61626c653a20636f6e7472616374206973206e6f74206960448201526a6e697469616c697a696e6760a81b6064820152608401610957565b611478612007565b600054610100900460ff166114785760405162461bcd60e51b815260206004820152602b60248201527f496e697469616c697a61626c653a20636f6e7472616374206973206e6f74206960448201526a6e697469616c697a696e6760a81b6064820152608401610957565b611d4c611425565b6065805460ff191660011790557f62e78cea01bee320cd4e420270b5ea74000d11b0c9f74754ebdbfc544b05a2586119a83390565b600082815260c9602090815260408083206001600160a01b038516845290915290205460ff1661072157611db48161207e565b611dbf836020612090565b604051602001611dd0929190612795565b60408051601f198184030181529082905262461bcd60e51b82526109579160040161249f565b611dff81611e36565b6040516001600160a01b038216907fbc7cd75a20ee27fd9adebab32041f755214dbc6bffa90cc0225b39da2e5c2d3b90600090a250565b6001600160a01b0381163b611eb35760405162461bcd60e51b815260206004820152602d60248201527f455243313936373a206e657720696d706c656d656e746174696f6e206973206e60448201527f6f74206120636f6e7472616374000000000000000000000000000000000000006064820152608401610957565b7f360894a13ba1a3210667c828492db98dca3e2076cc3735a920a3ca505d382bbc80547fffffffffffffffffffffffff0000000000000000000000000000000000000000166001600160a01b0392909216919091179055565b611f1583611df6565b600082511180611f225750805b156108d857610e8f83836122b9565b60655460ff166114785760405162461bcd60e51b815260206004820152601460248201527f5061757361626c653a206e6f74207061757365640000000000000000000000006044820152606401610957565b600054610100900460ff16611fee5760405162461bcd60e51b815260206004820152602b60248201527f496e697469616c697a61626c653a20636f6e7472616374206973206e6f74206960448201526a6e697469616c697a696e6760a81b6064820152608401610957565b6036611ffa8382612864565b5060376108d88282612864565b600054610100900460ff166120725760405162461bcd60e51b815260206004820152602b60248201527f496e697469616c697a61626c653a20636f6e7472616374206973206e6f74206960448201526a6e697469616c697a696e6760a81b6064820152608401610957565b6065805460ff19169055565b60606106e66001600160a01b03831660145b6060600061209f836002612924565b6120aa906002612713565b67ffffffffffffffff8111156120c2576120c261257d565b6040519080825280601f01601f1916602001820160405280156120ec576020820181803683370190505b5090507f30000000000000000000000000000000000000000000000000000000000000008160008151811061212357612123612943565b60200101907effffffffffffffffffffffffffffffffffffffffffffffffffffffffffffff1916908160001a9053507f78000000000000000000000000000000000000000000000000000000000000008160018151811061218657612186612943565b60200101907effffffffffffffffffffffffffffffffffffffffffffffffffffffffffffff1916908160001a90535060006121c2846002612924565b6121cd906001612713565b90505b600181111561226a577f303132333435363738396162636465660000000000000000000000000000000085600f166010811061220e5761220e612943565b1a60f81b82828151811061222457612224612943565b60200101907effffffffffffffffffffffffffffffffffffffffffffffffffffffffffffff1916908160001a90535060049490941c9361226381612959565b90506121d0565b50831561087b5760405162461bcd60e51b815260206004820181905260248201527f537472696e67733a20686578206c656e67746820696e73756666696369656e746044820152606401610957565b60606001600160a01b0383163b6123385760405162461bcd60e51b815260206004820152602660248201527f416464726573733a2064656c65676174652063616c6c20746f206e6f6e2d636f60448201527f6e747261637400000000000000000000000000000000000000000000000000006064820152608401610957565b600080846001600160a01b0316846040516123539190612970565b600060405180830381855af49150503d806000811461238e576040519150601f19603f3d011682016040523d82523d6000602084013e612393565b606091505b50915091506123bb828260405180606001604052806027815260200161298d602791396123c4565b95945050505050565b606083156123d357508161087b565b61087b83838151156123e85781518083602001fd5b8060405162461bcd60e51b8152600401610957919061249f565b60006020828403121561241457600080fd5b81357fffffffff000000000000000000000000000000000000000000000000000000008116811461087b57600080fd5b80356001600160a01b038116811461245b57600080fd5b919050565b60006020828403121561247257600080fd5b61087b82612444565b60005b8381101561249657818101518382015260200161247e565b50506000910152565b60208152600082518060208401526124be81604085016020870161247b565b601f01601f19169190910160400192915050565b600080604083850312156124e557600080fd5b6124ee83612444565b946020939093013593505050565b60008060006060848603121561251157600080fd5b61251a84612444565b925061252860208501612444565b9150604084013590509250925092565b60006020828403121561254a57600080fd5b5035919050565b6000806040838503121561256457600080fd5b8235915061257460208401612444565b90509250929050565b634e487b7160e01b600052604160045260246000fd5b600080604083850312156125a657600080fd5b6125af83612444565b9150602083013567ffffffffffffffff808211156125cc57600080fd5b818501915085601f8301126125e057600080fd5b8135818111156125f2576125f261257d565b604051601f8201601f19908116603f0116810190838211818310171561261a5761261a61257d565b8160405282815288602084870101111561263357600080fd5b8260208601602083013760006020848301015280955050505050509250929050565b60008060006060848603121561266a57600080fd5b61267384612444565b92506020840135915060408401356007811061268e57600080fd5b809150509250925092565b600080604083850312156126ac57600080fd5b6126b583612444565b915061257460208401612444565b600181811c908216806126d757607f821691505b6020821081036126f757634e487b7160e01b600052602260045260246000fd5b50919050565b634e487b7160e01b600052601160045260246000fd5b808201808211156106e6576106e66126fd565b818103818111156106e6576106e66126fd565b6001600160a01b038416815260208101839052606081016007831061276e57634e487b7160e01b600052602160045260246000fd5b826040830152949350505050565b60006020828403121561278e57600080fd5b5051919050565b7f416363657373436f6e74726f6c3a206163636f756e74200000000000000000008152600083516127cd81601785016020880161247b565b7f206973206d697373696e6720726f6c6520000000000000000000000000000000601791840191820152835161280a81602884016020880161247b565b01602801949350505050565b601f8211156108d857600081815260208120601f850160051c8101602086101561283d5750805b601f850160051c820191505b8181101561285c57828155600101612849565b505050505050565b815167ffffffffffffffff81111561287e5761287e61257d565b6128928161288c84546126c3565b84612816565b602080601f8311600181146128c757600084156128af5750858301515b600019600386901b1c1916600185901b17855561285c565b600085815260208120601f198616915b828110156128f6578886015182559484019460019091019084016128d7565b50858210156129145787850151600019600388901b60f8161c191681555b5050505050600190811b01905550565b600081600019048311821515161561293e5761293e6126fd565b500290565b634e487b7160e01b600052603260045260246000fd5b600081612968576129686126fd565b506000190190565b6000825161298281846020870161247b565b919091019291505056fe416464726573733a206c6f772d6c6576656c2064656c65676174652063616c6c206661696c6564a2646970667358221220982c3bfc568750058657c7752c642df2a4214d29c1c46354482c0f8bd45750c064736f6c63430008100033",
  "linkReferences": {},
  "deployedLinkReferences": {}
}