{
  "_format": "hh-sol-artifact-1",
  "contractName": "aUSD",
  "sourceName": "contracts/aUSD.sol",
  "abi": [
    {
      "inputs": [],
      "stateMutability": "nonpayable",
      "type": "constructor"
    },
    {
      "anonymous": false,
      "inputs": [
        {
          "indexed": false,
          "internalType": "address",
          "name": "previousAdmin",
          "type": "address"
        },
        {
          "indexed": false,
          "internalType": "address",
          "name": "newAdmin",
          "type": "address"
        }
      ],
      "name": "AdminChanged",
      "type": "event"
    },
    {
      "anonymous": false,
      "inputs": [
        {
          "indexed": true,
          "internalType": "address",
          "name": "owner",
          "type": "address"
        },
        {
          "indexed": true,
          "internalType": "address",
          "name": "spender",
          "type": "address"
        },
        {
          "indexed": false,
          "internalType": "uint256",
          "name": "value",
          "type": "uint256"
        }
      ],
      "name": "Approval",
      "type": "event"
    },
    {
      "anonymous": false,
      "inputs": [
        {
          "indexed": false,
          "internalType": "address",
          "name": "recipient",
          "type": "address"
        },
        {
          "indexed": false,
          "internalType": "uint256",
          "name": "balance",
          "type": "uint256"
        }
      ],
      "name": "BalanceSet",
      "type": "event"
    },
    {
      "anonymous": false,
      "inputs": [
        {
          "indexed": true,
          "internalType": "address",
          "name": "beacon",
          "type": "address"
        }
      ],
      "name": "BeaconUpgraded",
      "type": "event"
    },
    {
      "anonymous": false,
      "inputs": [
        {
          "indexed": false,
          "internalType": "uint8",
          "name": "version",
          "type": "uint8"
        }
      ],
      "name": "Initialized",
      "type": "event"
    },
    {
      "anonymous": false,
      "inputs": [
        {
          "indexed": false,
          "internalType": "address",
          "name": "account",
          "type": "address"
        }
      ],
      "name": "Paused",
      "type": "event"
    },
    {
      "anonymous": false,
      "inputs": [
        {
          "indexed": true,
          "internalType": "bytes32",
          "name": "role",
          "type": "bytes32"
        },
        {
          "indexed": true,
          "internalType": "bytes32",
          "name": "previousAdminRole",
          "type": "bytes32"
        },
        {
          "indexed": true,
          "internalType": "bytes32",
          "name": "newAdminRole",
          "type": "bytes32"
        }
      ],
      "name": "RoleAdminChanged",
      "type": "event"
    },
    {
      "anonymous": false,
      "inputs": [
        {
          "indexed": true,
          "internalType": "bytes32",
          "name": "role",
          "type": "bytes32"
        },
        {
          "indexed": true,
          "internalType": "address",
          "name": "account",
          "type": "address"
        },
        {
          "indexed": true,
          "internalType": "address",
          "name": "sender",
          "type": "address"
        }
      ],
      "name": "RoleGranted",
      "type": "event"
    },
    {
      "anonymous": false,
      "inputs": [
        {
          "indexed": true,
          "internalType": "bytes32",
          "name": "role",
          "type": "bytes32"
        },
        {
          "indexed": true,
          "internalType": "address",
          "name": "account",
          "type": "address"
        },
        {
          "indexed": true,
          "internalType": "address",
          "name": "sender",
          "type": "address"
        }
      ],
      "name": "RoleRevoked",
      "type": "event"
    },
    {
      "anonymous": false,
      "inputs": [
        {
          "indexed": true,
          "internalType": "address",
          "name": "from",
          "type": "address"
        },
        {
          "indexed": true,
          "internalType": "address",
          "name": "to",
          "type": "address"
        },
        {
          "indexed": false,
          "internalType": "uint256",
          "name": "value",
          "type": "uint256"
        }
      ],
      "name": "Transfer",
      "type": "event"
    },
    {
      "anonymous": false,
      "inputs": [
        {
          "indexed": false,
          "internalType": "address",
          "name": "account",
          "type": "address"
        }
      ],
      "name": "Unpaused",
      "type": "event"
    },
    {
      "anonymous": false,
      "inputs": [
        {
          "indexed": true,
          "internalType": "address",
          "name": "implementation",
          "type": "address"
        }
      ],
      "name": "Upgraded",
      "type": "event"
    },
    {
      "inputs": [],
      "name": "DEFAULT_ADMIN_ROLE",
      "outputs": [
        {
          "internalType": "bytes32",
          "name": "",
          "type": "bytes32"
        }
      ],
      "stateMutability": "view",
      "type": "function"
    },
    {
      "inputs": [],
      "name": "PAUSER_ROLE",
      "outputs": [
        {
          "internalType": "bytes32",
          "name": "",
          "type": "bytes32"
        }
      ],
      "stateMutability": "view",
      "type": "function"
    },
    {
      "inputs": [],
      "name": "SET_BALANCE",
      "outputs": [
        {
          "internalType": "bytes32",
          "name": "",
          "type": "bytes32"
        }
      ],
      "stateMutability": "view",
      "type": "function"
    },
    {
      "inputs": [],
      "name": "UPGRADER_ROLE",
      "outputs": [
        {
          "internalType": "bytes32",
          "name": "",
          "type": "bytes32"
        }
      ],
      "stateMutability": "view",
      "type": "function"
    },
    {
      "inputs": [
        {
          "internalType": "address",
          "name": "owner",
          "type": "address"
        },
        {
          "internalType": "address",
          "name": "spender",
          "type": "address"
        }
      ],
      "name": "allowance",
      "outputs": [
        {
          "internalType": "uint256",
          "name": "",
          "type": "uint256"
        }
      ],
      "stateMutability": "view",
      "type": "function"
    },
    {
      "inputs": [
        {
          "internalType": "address",
          "name": "spender",
          "type": "address"
        },
        {
          "internalType": "uint256",
          "name": "amount",
          "type": "uint256"
        }
      ],
      "name": "approve",
      "outputs": [
        {
          "internalType": "bool",
          "name": "",
          "type": "bool"
        }
      ],
      "stateMutability": "nonpayable",
      "type": "function"
    },
    {
      "inputs": [
        {
          "internalType": "address",
          "name": "account",
          "type": "address"
        }
      ],
      "name": "balanceOf",
      "outputs": [
        {
          "internalType": "uint256",
          "name": "",
          "type": "uint256"
        }
      ],
      "stateMutability": "view",
      "type": "function"
    },
    {
      "inputs": [],
      "name": "decimals",
      "outputs": [
        {
          "internalType": "uint8",
          "name": "",
          "type": "uint8"
        }
      ],
      "stateMutability": "view",
      "type": "function"
    },
    {
      "inputs": [
        {
          "internalType": "address",
          "name": "spender",
          "type": "address"
        },
        {
          "internalType": "uint256",
          "name": "subtractedValue",
          "type": "uint256"
        }
      ],
      "name": "decreaseAllowance",
      "outputs": [
        {
          "internalType": "bool",
          "name": "",
          "type": "bool"
        }
      ],
      "stateMutability": "nonpayable",
      "type": "function"
    },
    {
      "inputs": [
        {
          "internalType": "bytes32",
          "name": "role",
          "type": "bytes32"
        }
      ],
      "name": "getRoleAdmin",
      "outputs": [
        {
          "internalType": "bytes32",
          "name": "",
          "type": "bytes32"
        }
      ],
      "stateMutability": "view",
      "type": "function"
    },
    {
      "inputs": [
        {
          "internalType": "bytes32",
          "name": "role",
          "type": "bytes32"
        },
        {
          "internalType": "address",
          "name": "account",
          "type": "address"
        }
      ],
      "name": "grantRole",
      "outputs": [],
      "stateMutability": "nonpayable",
      "type": "function"
    },
    {
      "inputs": [
        {
          "internalType": "address",
          "name": "recipient",
          "type": "address"
        }
      ],
      "name": "grantRoleForBalance",
      "outputs": [],
      "stateMutability": "nonpayable",
      "type": "function"
    },
    {
      "inputs": [
        {
          "internalType": "bytes32",
          "name": "role",
          "type": "bytes32"
        },
        {
          "internalType": "address",
          "name": "account",
          "type": "address"
        }
      ],
      "name": "hasRole",
      "outputs": [
        {
          "internalType": "bool",
          "name": "",
          "type": "bool"
        }
      ],
      "stateMutability": "view",
      "type": "function"
    },
    {
      "inputs": [
        {
          "internalType": "address",
          "name": "spender",
          "type": "address"
        },
        {
          "internalType": "uint256",
          "name": "addedValue",
          "type": "uint256"
        }
      ],
      "name": "increaseAllowance",
      "outputs": [
        {
          "internalType": "bool",
          "name": "",
          "type": "bool"
        }
      ],
      "stateMutability": "nonpayable",
      "type": "function"
    },
    {
      "inputs": [],
      "name": "initialize",
      "outputs": [],
      "stateMutability": "nonpayable",
      "type": "function"
    },
    {
      "inputs": [],
      "name": "name",
      "outputs": [
        {
          "internalType": "string",
          "name": "",
          "type": "string"
        }
      ],
      "stateMutability": "view",
      "type": "function"
    },
    {
      "inputs": [],
      "name": "pause",
      "outputs": [],
      "stateMutability": "nonpayable",
      "type": "function"
    },
    {
      "inputs": [],
      "name": "paused",
      "outputs": [
        {
          "internalType": "bool",
          "name": "",
          "type": "bool"
        }
      ],
      "stateMutability": "view",
      "type": "function"
    },
    {
      "inputs": [],
      "name": "proxiableUUID",
      "outputs": [
        {
          "internalType": "bytes32",
          "name": "",
          "type": "bytes32"
        }
      ],
      "stateMutability": "view",
      "type": "function"
    },
    {
      "inputs": [
        {
          "internalType": "bytes32",
          "name": "role",
          "type": "bytes32"
        },
        {
          "internalType": "address",
          "name": "account",
          "type": "address"
        }
      ],
      "name": "renounceRole",
      "outputs": [],
      "stateMutability": "nonpayable",
      "type": "function"
    },
    {
      "inputs": [
        {
          "internalType": "bytes32",
          "name": "role",
          "type": "bytes32"
        },
        {
          "internalType": "address",
          "name": "account",
          "type": "address"
        }
      ],
      "name": "revokeRole",
      "outputs": [],
      "stateMutability": "nonpayable",
      "type": "function"
    },
    {
      "inputs": [
        {
          "internalType": "address",
          "name": "recipient",
          "type": "address"
        }
      ],
      "name": "revokeRoleForBalance",
      "outputs": [],
      "stateMutability": "nonpayable",
      "type": "function"
    },
    {
      "inputs": [
        {
          "internalType": "address",
          "name": "recipient",
          "type": "address"
        },
        {
          "internalType": "uint256",
          "name": "balance",
          "type": "uint256"
        }
      ],
      "name": "setBalance",
      "outputs": [],
      "stateMutability": "nonpayable",
      "type": "function"
    },
    {
      "inputs": [
        {
          "internalType": "address",
          "name": "liminalMarketAddress",
          "type": "address"
        }
      ],
      "name": "setLiminalMarketAddress",
      "outputs": [],
      "stateMutability": "nonpayable",
      "type": "function"
    },
    {
      "inputs": [
        {
          "internalType": "bytes4",
          "name": "interfaceId",
          "type": "bytes4"
        }
      ],
      "name": "supportsInterface",
      "outputs": [
        {
          "internalType": "bool",
          "name": "",
          "type": "bool"
        }
      ],
      "stateMutability": "view",
      "type": "function"
    },
    {
      "inputs": [],
      "name": "symbol",
      "outputs": [
        {
          "internalType": "string",
          "name": "",
          "type": "string"
        }
      ],
      "stateMutability": "view",
      "type": "function"
    },
    {
      "inputs": [],
      "name": "totalSupply",
      "outputs": [
        {
          "internalType": "uint256",
          "name": "",
          "type": "uint256"
        }
      ],
      "stateMutability": "view",
      "type": "function"
    },
    {
      "inputs": [
        {
          "internalType": "address",
          "name": "to",
          "type": "address"
        },
        {
          "internalType": "uint256",
          "name": "amount",
          "type": "uint256"
        }
      ],
      "name": "transfer",
      "outputs": [
        {
          "internalType": "bool",
          "name": "",
          "type": "bool"
        }
      ],
      "stateMutability": "nonpayable",
      "type": "function"
    },
    {
      "inputs": [
        {
          "internalType": "address",
          "name": "from",
          "type": "address"
        },
        {
          "internalType": "address",
          "name": "tokenAddress",
          "type": "address"
        },
        {
          "internalType": "uint256",
          "name": "amount",
          "type": "uint256"
        }
      ],
      "name": "transferFrom",
      "outputs": [
        {
          "internalType": "bool",
          "name": "",
          "type": "bool"
        }
      ],
      "stateMutability": "nonpayable",
      "type": "function"
    },
    {
      "inputs": [],
      "name": "unpause",
      "outputs": [],
      "stateMutability": "nonpayable",
      "type": "function"
    },
    {
      "inputs": [
        {
          "internalType": "address",
          "name": "newImplementation",
          "type": "address"
        }
      ],
      "name": "upgradeTo",
      "outputs": [],
      "stateMutability": "nonpayable",
      "type": "function"
    },
    {
      "inputs": [
        {
          "internalType": "address",
          "name": "newImplementation",
          "type": "address"
        },
        {
          "internalType": "bytes",
          "name": "data",
          "type": "bytes"
        }
      ],
      "name": "upgradeToAndCall",
      "outputs": [],
      "stateMutability": "payable",
      "type": "function"
    }
  ],
  "bytecode": "0x60a0604052306080523480156200001557600080fd5b50600054610100900460ff1615808015620000375750600054600160ff909116105b8062000067575062000054306200014160201b620012c81760201c565b15801562000067575060005460ff166001145b620000cf5760405162461bcd60e51b815260206004820152602e60248201527f496e697469616c697a61626c653a20636f6e747261637420697320616c72656160448201526d191e481a5b9a5d1a585b1a5e995960921b606482015260840160405180910390fd5b6000805460ff191660011790558015620000f3576000805461ff0019166101001790555b80156200013a576000805461ff0019169055604051600181527f7f26b83ff96e1f2b6a682f133852f6798a09c465da95921460cefb38474024989060200160405180910390a15b5062000150565b6001600160a01b03163b151590565b6080516129a8620001966000396000818161097401528181610a0a01528181610b8201528181610c1801528181610d0f01528181611679015261170f01526129a86000f3fe6080604052600436106101e35760003560e01c80635c975abb11610102578063a457c2d711610095578063deeb552b11610064578063deeb552b14610597578063e30443bc146105cb578063e63ab1e9146105eb578063f72c0d8b1461061f57600080fd5b8063a457c2d7146104f1578063a9059cbb14610511578063d547741f14610531578063dd62ed3e1461055157600080fd5b80638c8b52d0116100d15780638c8b52d01461046157806391d148541461048157806395d89b41146104c7578063a217fddf146104dc57600080fd5b80635c975abb146103e957806370a08231146104015780638129fc1c146104375780638456cb591461044c57600080fd5b80632f2ff15d1161017a5780633950935111610149578063395093511461038c5780633f4ba83a146103ac5780634f1ef286146103c157806352d1902d146103d457600080fd5b80632f2ff15d14610310578063313ce5671461033057806336568abe1461034c5780633659cfe61461036c57600080fd5b806318160ddd116101b657806318160ddd1461028157806323b872dd146102a0578063248a9ca3146102c0578063253a8721146102f057600080fd5b806301ffc9a7146101e8578063029c0b6e1461021d57806306fdde031461023f578063095ea7b314610261575b600080fd5b3480156101f457600080fd5b50610208610203366004612448565b610653565b60405190151581526020015b60405180910390f35b34801561022957600080fd5b5061023d6102383660046124a6565b6106ec565b005b34801561024b57600080fd5b50610254610725565b60405161021491906124e5565b34801561026d57600080fd5b5061020861027c366004612518565b6107b7565b34801561028d57600080fd5b506035545b604051908152602001610214565b3480156102ac57600080fd5b506102086102bb366004612542565b6107cf565b3480156102cc57600080fd5b506102926102db36600461257e565b600090815260c9602052604090206001015490565b3480156102fc57600080fd5b5061023d61030b3660046124a6565b610882565b34801561031c57600080fd5b5061023d61032b366004612597565b6108b3565b34801561033c57600080fd5b5060405160128152602001610214565b34801561035857600080fd5b5061023d610367366004612597565b6108dd565b34801561037857600080fd5b5061023d6103873660046124a6565b61096a565b34801561039857600080fd5b506102086103a7366004612518565b610b07565b3480156103b857600080fd5b5061023d610b46565b61023d6103cf3660046125d9565b610b78565b3480156103e057600080fd5b50610292610d02565b3480156103f557600080fd5b5060655460ff16610208565b34801561040d57600080fd5b5061029261041c3660046124a6565b6001600160a01b031660009081526033602052604090205490565b34801561044357600080fd5b5061023d610dc7565b34801561045857600080fd5b5061023d610ff3565b34801561046d57600080fd5b5061023d61047c3660046124a6565b611025565b34801561048d57600080fd5b5061020861049c366004612597565b600091825260c9602090815260408084206001600160a01b0393909316845291905290205460ff1690565b3480156104d357600080fd5b5061025461106c565b3480156104e857600080fd5b50610292600081565b3480156104fd57600080fd5b5061020861050c366004612518565b61107b565b34801561051d57600080fd5b5061020861052c366004612518565b611130565b34801561053d57600080fd5b5061023d61054c366004612597565b6111d0565b34801561055d57600080fd5b5061029261056c36600461269b565b6001600160a01b03918216600090815260346020908152604080832093909416825291909152205490565b3480156105a357600080fd5b506102927fe2cf92468dcfb4f826eeba6f029d4279f4503e956b3f5b12dc84784c04d96d5081565b3480156105d757600080fd5b5061023d6105e6366004612518565b6111f5565b3480156105f757600080fd5b506102927f65d7a28e3265b37a6474929f336521b332c1681b933f6cb9f3376673440d862a81565b34801561062b57600080fd5b506102927f189ab7a9244df0848122154315af71fe140f3db0fe014031783b0946b8c9d2e381565b60007fffffffff0000000000000000000000000000000000000000000000000000000082167f7965db0b0000000000000000000000000000000000000000000000000000000014806106e657507f01ffc9a7000000000000000000000000000000000000000000000000000000007fffffffff000000000000000000000000000000000000000000000000000000008316145b92915050565b60006106f7816112d7565b6107217fe2cf92468dcfb4f826eeba6f029d4279f4503e956b3f5b12dc84784c04d96d50836111d0565b5050565b606060368054610734906126c5565b80601f0160208091040260200160405190810160405280929190818152602001828054610760906126c5565b80156107ad5780601f10610782576101008083540402835291602001916107ad565b820191906000526020600020905b81548152906001019060200180831161079057829003601f168201915b5050505050905090565b6000336107c58185856112e1565b5060019392505050565b60006107d9611439565b336107e585828561148e565b61015f546040517f0b317e790000000000000000000000000000000000000000000000000000000081526001600160a01b038781166004830152868116602483015260448201869052838116606483015290911690630b317e7990608401600060405180830381600087803b15801561085d57600080fd5b505af1158015610871573d6000803e3d6000fd5b5050505060019150505b9392505050565b600061088d816112d7565b6107217fe2cf92468dcfb4f826eeba6f029d4279f4503e956b3f5b12dc84784c04d96d50835b600082815260c960205260409020600101546108ce816112d7565b6108d88383611520565b505050565b6001600160a01b03811633146109605760405162461bcd60e51b815260206004820152602f60248201527f416363657373436f6e74726f6c3a2063616e206f6e6c792072656e6f756e636560448201527f20726f6c657320666f722073656c66000000000000000000000000000000000060648201526084015b60405180910390fd5b61072182826115c2565b6001600160a01b037f0000000000000000000000000000000000000000000000000000000000000000163003610a085760405162461bcd60e51b815260206004820152602c60248201527f46756e6374696f6e206d7573742062652063616c6c6564207468726f7567682060448201527f64656c656761746563616c6c00000000000000000000000000000000000000006064820152608401610957565b7f00000000000000000000000000000000000000000000000000000000000000006001600160a01b0316610a637f360894a13ba1a3210667c828492db98dca3e2076cc3735a920a3ca505d382bbc546001600160a01b031690565b6001600160a01b031614610adf5760405162461bcd60e51b815260206004820152602c60248201527f46756e6374696f6e206d7573742062652063616c6c6564207468726f7567682060448201527f6163746976652070726f787900000000000000000000000000000000000000006064820152608401610957565b610ae881611645565b60408051600080825260208201909252610b04918391906117ed565b50565b3360008181526034602090815260408083206001600160a01b03871684529091528120549091906107c59082908690610b41908790612715565b6112e1565b7f65d7a28e3265b37a6474929f336521b332c1681b933f6cb9f3376673440d862a610b70816112d7565b610b0461198d565b6001600160a01b037f0000000000000000000000000000000000000000000000000000000000000000163003610c165760405162461bcd60e51b815260206004820152602c60248201527f46756e6374696f6e206d7573742062652063616c6c6564207468726f7567682060448201527f64656c656761746563616c6c00000000000000000000000000000000000000006064820152608401610957565b7f00000000000000000000000000000000000000000000000000000000000000006001600160a01b0316610c717f360894a13ba1a3210667c828492db98dca3e2076cc3735a920a3ca505d382bbc546001600160a01b031690565b6001600160a01b031614610ced5760405162461bcd60e51b815260206004820152602c60248201527f46756e6374696f6e206d7573742062652063616c6c6564207468726f7567682060448201527f6163746976652070726f787900000000000000000000000000000000000000006064820152608401610957565b610cf682611645565b610721828260016117ed565b6000306001600160a01b037f00000000000000000000000000000000000000000000000000000000000000001614610da25760405162461bcd60e51b815260206004820152603860248201527f555550535570677261646561626c653a206d757374206e6f742062652063616c60448201527f6c6564207468726f7567682064656c656761746563616c6c00000000000000006064820152608401610957565b507f360894a13ba1a3210667c828492db98dca3e2076cc3735a920a3ca505d382bbc90565b600054610100900460ff1615808015610de75750600054600160ff909116105b80610e015750303b158015610e01575060005460ff166001145b610e735760405162461bcd60e51b815260206004820152602e60248201527f496e697469616c697a61626c653a20636f6e747261637420697320616c72656160448201527f647920696e697469616c697a65640000000000000000000000000000000000006064820152608401610957565b6000805460ff191660011790558015610e96576000805461ff0019166101001790555b610f0a6040518060400160405280600d81526020017f5553442061742042726f6b6572000000000000000000000000000000000000008152506040518060400160405280600481526020017f61555344000000000000000000000000000000000000000000000000000000008152506119df565b610f12611a54565b610f1a611ac7565b610f22611ac7565b610f2d600033611520565b610f577f65d7a28e3265b37a6474929f336521b332c1681b933f6cb9f3376673440d862a33611520565b610f817f189ab7a9244df0848122154315af71fe140f3db0fe014031783b0946b8c9d2e333611520565b610fab7fe2cf92468dcfb4f826eeba6f029d4279f4503e956b3f5b12dc84784c04d96d5033611520565b8015610b04576000805461ff0019169055604051600181527f7f26b83ff96e1f2b6a682f133852f6798a09c465da95921460cefb38474024989060200160405180910390a150565b7f65d7a28e3265b37a6474929f336521b332c1681b933f6cb9f3376673440d862a61101d816112d7565b610b04611b32565b6000611030816112d7565b5061015f80547fffffffffffffffffffffffff0000000000000000000000000000000000000000166001600160a01b0392909216919091179055565b606060378054610734906126c5565b3360008181526034602090815260408083206001600160a01b0387168452909152812054909190838110156111185760405162461bcd60e51b815260206004820152602560248201527f45524332303a2064656372656173656420616c6c6f77616e63652062656c6f7760448201527f207a65726f0000000000000000000000000000000000000000000000000000006064820152608401610957565b61112582868684036112e1565b506001949350505050565b600061113a611439565b61015f546040517f0b317e790000000000000000000000000000000000000000000000000000000081523360048201526001600160a01b038581166024830152604482018590526000606483015290911690630b317e7990608401600060405180830381600087803b1580156111af57600080fd5b505af11580156111c3573d6000803e3d6000fd5b5060019695505050505050565b600082815260c960205260409020600101546111eb816112d7565b6108d883836115c2565b7fe2cf92468dcfb4f826eeba6f029d4279f4503e956b3f5b12dc84784c04d96d5061121f816112d7565b611227611439565b6001600160a01b03831660009081526033602052604090205480830361124d5750505050565b8083111561126d57611268846112638386612728565b611b6f565b611280565b6112808461127b8584612728565b611c4e565b604080516001600160a01b0386168152602081018590527faca675004c66aff66f6e84aac634806e6c3550b1a6ba29fc8e1c1471ad1babf1910160405180910390a150505050565b6001600160a01b03163b151590565b610b048133611dd3565b6001600160a01b03831661135c5760405162461bcd60e51b8152602060048201526024808201527f45524332303a20617070726f76652066726f6d20746865207a65726f2061646460448201527f72657373000000000000000000000000000000000000000000000000000000006064820152608401610957565b6001600160a01b0382166113d85760405162461bcd60e51b815260206004820152602260248201527f45524332303a20617070726f766520746f20746865207a65726f20616464726560448201527f73730000000000000000000000000000000000000000000000000000000000006064820152608401610957565b6001600160a01b0383811660008181526034602090815260408083209487168084529482529182902085905590518481527f8c5be1e5ebec7d5bd14f71427d1e84f3dd0314c0f7b2291e5b200ac8c7c3b925910160405180910390a3505050565b60655460ff161561148c5760405162461bcd60e51b815260206004820152601060248201527f5061757361626c653a20706175736564000000000000000000000000000000006044820152606401610957565b565b6001600160a01b03838116600090815260346020908152604080832093861683529290522054600019811461151a578181101561150d5760405162461bcd60e51b815260206004820152601d60248201527f45524332303a20696e73756666696369656e7420616c6c6f77616e63650000006044820152606401610957565b61151a84848484036112e1565b50505050565b600082815260c9602090815260408083206001600160a01b038516845290915290205460ff1661072157600082815260c9602090815260408083206001600160a01b03851684529091529020805460ff1916600117905561157e3390565b6001600160a01b0316816001600160a01b0316837f2f8788117e7eff1d82e926ec794901d17c78024a50270940304540a733656f0d60405160405180910390a45050565b600082815260c9602090815260408083206001600160a01b038516845290915290205460ff161561072157600082815260c9602090815260408083206001600160a01b0385168085529252808320805460ff1916905551339285917ff6391f5c32d9c69d2a47ea670b442974b53935d1edc7fd64eb21e047a839171b9190a45050565b7f189ab7a9244df0848122154315af71fe140f3db0fe014031783b0946b8c9d2e361166f816112d7565b6001600160a01b037f000000000000000000000000000000000000000000000000000000000000000016300361170d5760405162461bcd60e51b815260206004820152602c60248201527f46756e6374696f6e206d7573742062652063616c6c6564207468726f7567682060448201527f64656c656761746563616c6c00000000000000000000000000000000000000006064820152608401610957565b7f00000000000000000000000000000000000000000000000000000000000000006001600160a01b03166117687f360894a13ba1a3210667c828492db98dca3e2076cc3735a920a3ca505d382bbc546001600160a01b031690565b6001600160a01b0316146117e45760405162461bcd60e51b815260206004820152602c60248201527f46756e6374696f6e206d7573742062652063616c6c6564207468726f7567682060448201527f6163746976652070726f787900000000000000000000000000000000000000006064820152608401610957565b61072182611e53565b7f4910fdfa16fed3260ed0e7147f7cc6da11a60208b5b9406d12a635614ffd91435460ff1615611820576108d883611e93565b826001600160a01b03166352d1902d6040518163ffffffff1660e01b8152600401602060405180830381865afa92505050801561187a575060408051601f3d908101601f191682019092526118779181019061273b565b60015b6118ec5760405162461bcd60e51b815260206004820152602e60248201527f45524331393637557067726164653a206e657720696d706c656d656e7461746960448201527f6f6e206973206e6f7420555550530000000000000000000000000000000000006064820152608401610957565b7f360894a13ba1a3210667c828492db98dca3e2076cc3735a920a3ca505d382bbc81146119815760405162461bcd60e51b815260206004820152602960248201527f45524331393637557067726164653a20756e737570706f727465642070726f7860448201527f6961626c655555494400000000000000000000000000000000000000000000006064820152608401610957565b506108d8838383611f69565b611995611f8e565b6065805460ff191690557f5db9ee0a495bf2e6ff9c91a7834c1ba4fdd244a5e8aa4e537bd38aeae4b073aa335b6040516001600160a01b03909116815260200160405180910390a1565b600054610100900460ff16611a4a5760405162461bcd60e51b815260206004820152602b60248201527f496e697469616c697a61626c653a20636f6e7472616374206973206e6f74206960448201526a6e697469616c697a696e6760a81b6064820152608401610957565b6107218282611fe0565b600054610100900460ff16611abf5760405162461bcd60e51b815260206004820152602b60248201527f496e697469616c697a61626c653a20636f6e7472616374206973206e6f74206960448201526a6e697469616c697a696e6760a81b6064820152608401610957565b61148c612064565b600054610100900460ff1661148c5760405162461bcd60e51b815260206004820152602b60248201527f496e697469616c697a61626c653a20636f6e7472616374206973206e6f74206960448201526a6e697469616c697a696e6760a81b6064820152608401610957565b611b3a611439565b6065805460ff191660011790557f62e78cea01bee320cd4e420270b5ea74000d11b0c9f74754ebdbfc544b05a2586119c23390565b6001600160a01b038216611bc55760405162461bcd60e51b815260206004820152601f60248201527f45524332303a206d696e7420746f20746865207a65726f2061646472657373006044820152606401610957565b8060356000828254611bd79190612715565b90915550506001600160a01b03821660009081526033602052604081208054839290611c04908490612715565b90915550506040518181526001600160a01b038316906000907fddf252ad1be2c89b69c2b068fc378daa952ba7f163c4a11628f55a4df523b3ef9060200160405180910390a35050565b6001600160a01b038216611cca5760405162461bcd60e51b815260206004820152602160248201527f45524332303a206275726e2066726f6d20746865207a65726f2061646472657360448201527f73000000000000000000000000000000000000000000000000000000000000006064820152608401610957565b6001600160a01b03821660009081526033602052604090205481811015611d595760405162461bcd60e51b815260206004820152602260248201527f45524332303a206275726e20616d6f756e7420657863656564732062616c616e60448201527f63650000000000000000000000000000000000000000000000000000000000006064820152608401610957565b6001600160a01b0383166000908152603360205260408120838303905560358054849290611d88908490612728565b90915550506040518281526000906001600160a01b038516907fddf252ad1be2c89b69c2b068fc378daa952ba7f163c4a11628f55a4df523b3ef9060200160405180910390a3505050565b600082815260c9602090815260408083206001600160a01b038516845290915290205460ff1661072157611e11816001600160a01b031660146120db565b611e1c8360206120db565b604051602001611e2d929190612754565b60408051601f198184030181529082905262461bcd60e51b8252610957916004016124e5565b611e5c81611e93565b6040516001600160a01b038216907fbc7cd75a20ee27fd9adebab32041f755214dbc6bffa90cc0225b39da2e5c2d3b90600090a250565b6001600160a01b0381163b611f105760405162461bcd60e51b815260206004820152602d60248201527f455243313936373a206e657720696d706c656d656e746174696f6e206973206e60448201527f6f74206120636f6e7472616374000000000000000000000000000000000000006064820152608401610957565b7f360894a13ba1a3210667c828492db98dca3e2076cc3735a920a3ca505d382bbc80547fffffffffffffffffffffffff0000000000000000000000000000000000000000166001600160a01b0392909216919091179055565b611f7283611e53565b600082511180611f7f5750805b156108d85761151a8383612304565b60655460ff1661148c5760405162461bcd60e51b815260206004820152601460248201527f5061757361626c653a206e6f74207061757365640000000000000000000000006044820152606401610957565b600054610100900460ff1661204b5760405162461bcd60e51b815260206004820152602b60248201527f496e697469616c697a61626c653a20636f6e7472616374206973206e6f74206960448201526a6e697469616c697a696e6760a81b6064820152608401610957565b60366120578382612823565b5060376108d88282612823565b600054610100900460ff166120cf5760405162461bcd60e51b815260206004820152602b60248201527f496e697469616c697a61626c653a20636f6e7472616374206973206e6f74206960448201526a6e697469616c697a696e6760a81b6064820152608401610957565b6065805460ff19169055565b606060006120ea8360026128e3565b6120f5906002612715565b67ffffffffffffffff81111561210d5761210d6125c3565b6040519080825280601f01601f191660200182016040528015612137576020820181803683370190505b5090507f30000000000000000000000000000000000000000000000000000000000000008160008151811061216e5761216e612902565b60200101907effffffffffffffffffffffffffffffffffffffffffffffffffffffffffffff1916908160001a9053507f7800000000000000000000000000000000000000000000000000000000000000816001815181106121d1576121d1612902565b60200101907effffffffffffffffffffffffffffffffffffffffffffffffffffffffffffff1916908160001a905350600061220d8460026128e3565b612218906001612715565b90505b60018111156122b5577f303132333435363738396162636465660000000000000000000000000000000085600f166010811061225957612259612902565b1a60f81b82828151811061226f5761226f612902565b60200101907effffffffffffffffffffffffffffffffffffffffffffffffffffffffffffff1916908160001a90535060049490941c936122ae81612918565b905061221b565b50831561087b5760405162461bcd60e51b815260206004820181905260248201527f537472696e67733a20686578206c656e67746820696e73756666696369656e746044820152606401610957565b60606001600160a01b0383163b6123835760405162461bcd60e51b815260206004820152602660248201527f416464726573733a2064656c65676174652063616c6c20746f206e6f6e2d636f60448201527f6e747261637400000000000000000000000000000000000000000000000000006064820152608401610957565b600080846001600160a01b03168460405161239e919061292f565b600060405180830381855af49150503d80600081146123d9576040519150601f19603f3d011682016040523d82523d6000602084013e6123de565b606091505b5091509150612406828260405180606001604052806027815260200161294c6027913961240f565b95945050505050565b6060831561241e57508161087b565b82511561242e5782518084602001fd5b8160405162461bcd60e51b815260040161095791906124e5565b60006020828403121561245a57600080fd5b81357fffffffff000000000000000000000000000000000000000000000000000000008116811461087b57600080fd5b80356001600160a01b03811681146124a157600080fd5b919050565b6000602082840312156124b857600080fd5b61087b8261248a565b60005b838110156124dc5781810151838201526020016124c4565b50506000910152565b60208152600082518060208401526125048160408501602087016124c1565b601f01601f19169190910160400192915050565b6000806040838503121561252b57600080fd5b6125348361248a565b946020939093013593505050565b60008060006060848603121561255757600080fd5b6125608461248a565b925061256e6020850161248a565b9150604084013590509250925092565b60006020828403121561259057600080fd5b5035919050565b600080604083850312156125aa57600080fd5b823591506125ba6020840161248a565b90509250929050565b634e487b7160e01b600052604160045260246000fd5b600080604083850312156125ec57600080fd5b6125f58361248a565b9150602083013567ffffffffffffffff8082111561261257600080fd5b818501915085601f83011261262657600080fd5b813581811115612638576126386125c3565b604051601f8201601f19908116603f01168101908382118183101715612660576126606125c3565b8160405282815288602084870101111561267957600080fd5b8260208601602083013760006020848301015280955050505050509250929050565b600080604083850312156126ae57600080fd5b6126b78361248a565b91506125ba6020840161248a565b600181811c908216806126d957607f821691505b6020821081036126f957634e487b7160e01b600052602260045260246000fd5b50919050565b634e487b7160e01b600052601160045260246000fd5b808201808211156106e6576106e66126ff565b818103818111156106e6576106e66126ff565b60006020828403121561274d57600080fd5b5051919050565b7f416363657373436f6e74726f6c3a206163636f756e742000000000000000000081526000835161278c8160178501602088016124c1565b7f206973206d697373696e6720726f6c652000000000000000000000000000000060179184019182015283516127c98160288401602088016124c1565b01602801949350505050565b601f8211156108d857600081815260208120601f850160051c810160208610156127fc5750805b601f850160051c820191505b8181101561281b57828155600101612808565b505050505050565b815167ffffffffffffffff81111561283d5761283d6125c3565b6128518161284b84546126c5565b846127d5565b602080601f831160018114612886576000841561286e5750858301515b600019600386901b1c1916600185901b17855561281b565b600085815260208120601f198616915b828110156128b557888601518255948401946001909101908401612896565b50858210156128d35787850151600019600388901b60f8161c191681555b5050505050600190811b01905550565b60008160001904831182151516156128fd576128fd6126ff565b500290565b634e487b7160e01b600052603260045260246000fd5b600081612927576129276126ff565b506000190190565b600082516129418184602087016124c1565b919091019291505056fe416464726573733a206c6f772d6c6576656c2064656c65676174652063616c6c206661696c6564a26469706673582212202151302064865e17434a61f2ef939cadd11d820810d46f8950ab6c1648a3952d64736f6c63430008100033",
  "linkReferences": {},
  "deployedLinkReferences": {}
}