{
  "_format": "hh-sol-artifact-1",
  "contractName": "KYC",
  "sourceName": "contracts/KYC.sol",
  "abi": [
    {
      "inputs": [],
      "stateMutability": "nonpayable",
      "type": "constructor"
    },
    {
      "anonymous": false,
      "inputs": [
        {
          "indexed": false,
          "internalType": "address",
          "name": "accountAddress",
          "type": "address"
        }
      ],
      "name": "AccountInvalidated",
      "type": "event"
    },
    {
      "anonymous": false,
      "inputs": [
        {
          "indexed": false,
          "internalType": "string",
          "name": "accountId",
          "type": "string"
        }
      ],
      "name": "AccountValidated",
      "type": "event"
    },
    {
      "anonymous": false,
      "inputs": [
        {
          "indexed": false,
          "internalType": "address",
          "name": "previousAdmin",
          "type": "address"
        },
        {
          "indexed": false,
          "internalType": "address",
          "name": "newAdmin",
          "type": "address"
        }
      ],
      "name": "AdminChanged",
      "type": "event"
    },
    {
      "anonymous": false,
      "inputs": [
        {
          "indexed": true,
          "internalType": "address",
          "name": "beacon",
          "type": "address"
        }
      ],
      "name": "BeaconUpgraded",
      "type": "event"
    },
    {
      "anonymous": false,
      "inputs": [
        {
          "indexed": false,
          "internalType": "uint8",
          "name": "version",
          "type": "uint8"
        }
      ],
      "name": "Initialized",
      "type": "event"
    },
    {
      "anonymous": false,
      "inputs": [
        {
          "indexed": true,
          "internalType": "bytes32",
          "name": "role",
          "type": "bytes32"
        },
        {
          "indexed": true,
          "internalType": "bytes32",
          "name": "previousAdminRole",
          "type": "bytes32"
        },
        {
          "indexed": true,
          "internalType": "bytes32",
          "name": "newAdminRole",
          "type": "bytes32"
        }
      ],
      "name": "RoleAdminChanged",
      "type": "event"
    },
    {
      "anonymous": false,
      "inputs": [
        {
          "indexed": true,
          "internalType": "bytes32",
          "name": "role",
          "type": "bytes32"
        },
        {
          "indexed": true,
          "internalType": "address",
          "name": "account",
          "type": "address"
        },
        {
          "indexed": true,
          "internalType": "address",
          "name": "sender",
          "type": "address"
        }
      ],
      "name": "RoleGranted",
      "type": "event"
    },
    {
      "anonymous": false,
      "inputs": [
        {
          "indexed": true,
          "internalType": "bytes32",
          "name": "role",
          "type": "bytes32"
        },
        {
          "indexed": true,
          "internalType": "address",
          "name": "account",
          "type": "address"
        },
        {
          "indexed": true,
          "internalType": "address",
          "name": "sender",
          "type": "address"
        }
      ],
      "name": "RoleRevoked",
      "type": "event"
    },
    {
      "anonymous": false,
      "inputs": [
        {
          "indexed": true,
          "internalType": "address",
          "name": "implementation",
          "type": "address"
        }
      ],
      "name": "Upgraded",
      "type": "event"
    },
    {
      "inputs": [],
      "name": "ADDRESS_NOT_VALID",
      "outputs": [
        {
          "internalType": "string",
          "name": "",
          "type": "string"
        }
      ],
      "stateMutability": "view",
      "type": "function"
    },
    {
      "inputs": [],
      "name": "DEFAULT_ADMIN_ROLE",
      "outputs": [
        {
          "internalType": "bytes32",
          "name": "",
          "type": "bytes32"
        }
      ],
      "stateMutability": "view",
      "type": "function"
    },
    {
      "inputs": [],
      "name": "INVALID_ACCOUNT_ID",
      "outputs": [
        {
          "internalType": "string",
          "name": "",
          "type": "string"
        }
      ],
      "stateMutability": "view",
      "type": "function"
    },
    {
      "inputs": [],
      "name": "SET_KYC",
      "outputs": [
        {
          "internalType": "bytes32",
          "name": "",
          "type": "bytes32"
        }
      ],
      "stateMutability": "view",
      "type": "function"
    },
    {
      "inputs": [],
      "name": "UPGRADER_ROLE",
      "outputs": [
        {
          "internalType": "bytes32",
          "name": "",
          "type": "bytes32"
        }
      ],
      "stateMutability": "view",
      "type": "function"
    },
    {
      "inputs": [
        {
          "internalType": "address",
          "name": "userAddress",
          "type": "address"
        }
      ],
      "name": "getAccountId",
      "outputs": [
        {
          "internalType": "string",
          "name": "",
          "type": "string"
        }
      ],
      "stateMutability": "view",
      "type": "function"
    },
    {
      "inputs": [
        {
          "internalType": "bytes32",
          "name": "role",
          "type": "bytes32"
        }
      ],
      "name": "getRoleAdmin",
      "outputs": [
        {
          "internalType": "bytes32",
          "name": "",
          "type": "bytes32"
        }
      ],
      "stateMutability": "view",
      "type": "function"
    },
    {
      "inputs": [
        {
          "internalType": "bytes32",
          "name": "role",
          "type": "bytes32"
        },
        {
          "internalType": "address",
          "name": "account",
          "type": "address"
        }
      ],
      "name": "grantRole",
      "outputs": [],
      "stateMutability": "nonpayable",
      "type": "function"
    },
    {
      "inputs": [
        {
          "internalType": "address",
          "name": "recipient",
          "type": "address"
        }
      ],
      "name": "grantRoleForKyc",
      "outputs": [],
      "stateMutability": "nonpayable",
      "type": "function"
    },
    {
      "inputs": [
        {
          "internalType": "bytes32",
          "name": "role",
          "type": "bytes32"
        },
        {
          "internalType": "address",
          "name": "account",
          "type": "address"
        }
      ],
      "name": "hasRole",
      "outputs": [
        {
          "internalType": "bool",
          "name": "",
          "type": "bool"
        }
      ],
      "stateMutability": "view",
      "type": "function"
    },
    {
      "inputs": [],
      "name": "initialize",
      "outputs": [],
      "stateMutability": "nonpayable",
      "type": "function"
    },
    {
      "inputs": [
        {
          "internalType": "address",
          "name": "userAddress",
          "type": "address"
        }
      ],
      "name": "invalidateAccount",
      "outputs": [],
      "stateMutability": "nonpayable",
      "type": "function"
    },
    {
      "inputs": [
        {
          "internalType": "address",
          "name": "userAddress",
          "type": "address"
        }
      ],
      "name": "isValid",
      "outputs": [
        {
          "internalType": "string",
          "name": "",
          "type": "string"
        }
      ],
      "stateMutability": "view",
      "type": "function"
    },
    {
      "inputs": [
        {
          "internalType": "address",
          "name": "",
          "type": "address"
        }
      ],
      "name": "kycAccount",
      "outputs": [
        {
          "internalType": "string",
          "name": "accountId",
          "type": "string"
        },
        {
          "internalType": "uint256",
          "name": "validationDate",
          "type": "uint256"
        }
      ],
      "stateMutability": "view",
      "type": "function"
    },
    {
      "inputs": [],
      "name": "proxiableUUID",
      "outputs": [
        {
          "internalType": "bytes32",
          "name": "",
          "type": "bytes32"
        }
      ],
      "stateMutability": "view",
      "type": "function"
    },
    {
      "inputs": [
        {
          "internalType": "bytes32",
          "name": "role",
          "type": "bytes32"
        },
        {
          "internalType": "address",
          "name": "account",
          "type": "address"
        }
      ],
      "name": "renounceRole",
      "outputs": [],
      "stateMutability": "nonpayable",
      "type": "function"
    },
    {
      "inputs": [
        {
          "internalType": "bytes32",
          "name": "role",
          "type": "bytes32"
        },
        {
          "internalType": "address",
          "name": "account",
          "type": "address"
        }
      ],
      "name": "revokeRole",
      "outputs": [],
      "stateMutability": "nonpayable",
      "type": "function"
    },
    {
      "inputs": [
        {
          "internalType": "address",
          "name": "recipient",
          "type": "address"
        }
      ],
      "name": "revokeRoleForKyc",
      "outputs": [],
      "stateMutability": "nonpayable",
      "type": "function"
    },
    {
      "inputs": [
        {
          "internalType": "bytes4",
          "name": "interfaceId",
          "type": "bytes4"
        }
      ],
      "name": "supportsInterface",
      "outputs": [
        {
          "internalType": "bool",
          "name": "",
          "type": "bool"
        }
      ],
      "stateMutability": "view",
      "type": "function"
    },
    {
      "inputs": [
        {
          "internalType": "address",
          "name": "newImplementation",
          "type": "address"
        }
      ],
      "name": "upgradeTo",
      "outputs": [],
      "stateMutability": "nonpayable",
      "type": "function"
    },
    {
      "inputs": [
        {
          "internalType": "address",
          "name": "newImplementation",
          "type": "address"
        },
        {
          "internalType": "bytes",
          "name": "data",
          "type": "bytes"
        }
      ],
      "name": "upgradeToAndCall",
      "outputs": [],
      "stateMutability": "payable",
      "type": "function"
    },
    {
      "inputs": [
        {
          "internalType": "string",
          "name": "accountId",
          "type": "string"
        },
        {
          "internalType": "address",
          "name": "userAddress",
          "type": "address"
        }
      ],
      "name": "validateAccount",
      "outputs": [
        {
          "internalType": "bool",
          "name": "",
          "type": "bool"
        }
      ],
      "stateMutability": "nonpayable",
      "type": "function"
    }
  ],
  "bytecode": "0x60a06040523060601b6080523480156200001857600080fd5b5060006200002760016200008e565b9050801562000040576000805461ff0019166101001790555b801562000087576000805461ff0019169055604051600181527f7f26b83ff96e1f2b6a682f133852f6798a09c465da95921460cefb38474024989060200160405180910390a15b50620001af565b60008054610100900460ff161562000127578160ff166001148015620000c75750620000c530620001a060201b62000ddb1760201c565b155b6200011f5760405162461bcd60e51b815260206004820152602e602482015260008051602062001ea383398151915260448201526d191e481a5b9a5d1a585b1a5e995960921b60648201526084015b60405180910390fd5b506000919050565b60005460ff808416911610620001865760405162461bcd60e51b815260206004820152602e602482015260008051602062001ea383398151915260448201526d191e481a5b9a5d1a585b1a5e995960921b606482015260840162000116565b506000805460ff191660ff92909216919091179055600190565b6001600160a01b03163b151590565b60805160601c611cab620001f86000396000818161076a015281816107aa0152818161083301528181610873015281816108eb01528181610f130152610f530152611cab6000f3fe6080604052600436106101355760003560e01c80638129fc1c116100ab578063a217fddf1161006f578063a217fddf1461038d578063c183b85b146103a2578063d547741f146103eb578063e0b490f71461040b578063f72c0d8b1461042b578063f86a44ad1461045f57600080fd5b80638129fc1c146102f85780638408d3151461030d5780638b1b925f1461032d57806391d148541461034d57806397d3f2be1461036d57600080fd5b8063248a9ca3116100fd578063248a9ca31461023e5780632f2ff15d1461026e57806336568abe146102905780633659cfe6146102b05780634f1ef286146102d057806352d1902d146102e357600080fd5b806301ffc9a71461013a578063094c566c1461016f5780630f58648f1461019d5780631e625830146101ee57806323140b991461020e575b600080fd5b34801561014657600080fd5b5061015a610155366004611898565b61047f565b60405190151581526020015b60405180910390f35b34801561017b57600080fd5b5061018f61018a3660046117bd565b6104b6565b6040516101669291906119eb565b3480156101a957600080fd5b506101e1604051806040016040528060188152602001771059191c995cdcc81a5cc81b9bdd0812d650c81d985b1a5960421b81525081565b60405161016691906119d8565b3480156101fa57600080fd5b5061015a6102093660046118c2565b61055a565b34801561021a57600080fd5b50610230600080516020611c0b83398151915281565b604051908152602001610166565b34801561024a57600080fd5b5061023061025936600461183a565b60009081526065602052604090206001015490565b34801561027a57600080fd5b5061028e61028936600461186c565b6106b7565b005b34801561029c57600080fd5b5061028e6102ab36600461186c565b6106e1565b3480156102bc57600080fd5b5061028e6102cb3660046117bd565b61075f565b61028e6102de3660046117d8565b610828565b3480156102ef57600080fd5b506102306108de565b34801561030457600080fd5b5061028e610991565b34801561031957600080fd5b5061028e6103283660046117bd565b610a30565b34801561033957600080fd5b506101e16103483660046117bd565b610a53565b34801561035957600080fd5b5061015a61036836600461186c565b610bbe565b34801561037957600080fd5b5061028e6103883660046117bd565b610be9565b34801561039957600080fd5b50610230600081565b3480156103ae57600080fd5b506101e16040518060400160405280601c81526020017f4c6f6f6b73206c696b6520696e76616c6964206163636f756e7449640000000081525081565b3480156103f757600080fd5b5061028e61040636600461186c565b610c6e565b34801561041757600080fd5b506101e16104263660046117bd565b610c93565b34801561043757600080fd5b506102307f189ab7a9244df0848122154315af71fe140f3db0fe014031783b0946b8c9d2e381565b34801561046b57600080fd5b5061028e61047a3660046117bd565b610db8565b60006001600160e01b03198216637965db0b60e01b14806104b057506301ffc9a760e01b6001600160e01b03198316145b92915050565b60fb602052600090815260409020805481906104d190611b6d565b80601f01602080910402602001604051908101604052809291908181526020018280546104fd90611b6d565b801561054a5780601f1061051f5761010080835404028352916020019161054a565b820191906000526020600020905b81548152906001019060200180831161052d57829003601f168201915b5050505050908060010154905082565b6000600080516020611c0b83398151915261057481610dea565b835160408051808201909152601c81527f4c6f6f6b73206c696b6520696e76616c6964206163636f756e74496400000000602082015285916024146105d55760405162461bcd60e51b81526004016105cc91906119d8565b60405180910390fd5b506001600160a01b0384166106255760405162461bcd60e51b8152602060048201526016602482015275416464726573732063616e6e6f74206265207a65726f60501b60448201526064016105cc565b604080518082018252868152426020808301919091526001600160a01b038716600090815260fb82529290922081518051929391926106679284920190611661565b50602082015181600101559050507f22bfe58e58301c85575d5a639c2c2a94a5c2edab18c748b6b95c43c5f9960f65856040516106a491906119d8565b60405180910390a1506001949350505050565b6000828152606560205260409020600101546106d281610dea565b6106dc8383610df4565b505050565b6001600160a01b03811633146107515760405162461bcd60e51b815260206004820152602f60248201527f416363657373436f6e74726f6c3a2063616e206f6e6c792072656e6f756e636560448201526e103937b632b9903337b91039b2b63360891b60648201526084016105cc565b61075b8282610e7a565b5050565b306001600160a01b037f00000000000000000000000000000000000000000000000000000000000000001614156107a85760405162461bcd60e51b81526004016105cc90611a0d565b7f00000000000000000000000000000000000000000000000000000000000000006001600160a01b03166107da610ee1565b6001600160a01b0316146108005760405162461bcd60e51b81526004016105cc90611a59565b61080981610efd565b6040805160008082526020820190925261082591839190610fb2565b50565b306001600160a01b037f00000000000000000000000000000000000000000000000000000000000000001614156108715760405162461bcd60e51b81526004016105cc90611a0d565b7f00000000000000000000000000000000000000000000000000000000000000006001600160a01b03166108a3610ee1565b6001600160a01b0316146108c95760405162461bcd60e51b81526004016105cc90611a59565b6108d282610efd565b61075b82826001610fb2565b6000306001600160a01b037f0000000000000000000000000000000000000000000000000000000000000000161461097e5760405162461bcd60e51b815260206004820152603860248201527f555550535570677261646561626c653a206d757374206e6f742062652063616c60448201527f6c6564207468726f7567682064656c656761746563616c6c000000000000000060648201526084016105cc565b50600080516020611beb83398151915290565b600061099d600161112c565b905080156109b5576000805461ff0019166101001790555b6109bd6111b9565b6109c56111b9565b6109d0600033610df4565b6109e8600080516020611c0b83398151915233610df4565b8015610825576000805461ff0019169055604051600181527f7f26b83ff96e1f2b6a682f133852f6798a09c465da95921460cefb38474024989060200160405180910390a150565b6000610a3b81610dea565b61075b600080516020611c0b833981519152836106b7565b606073f39fd6e51aad88f6f4ce6ab8827279cfffb922666001600160a01b0383161415610a9957604051806060016040528060248152602001611c526024913992915050565b6001600160a01b038216600090815260fb60205260408082208151808301909252805482908290610ac990611b6d565b80601f0160208091040260200160405190810160405280929190818152602001828054610af590611b6d565b8015610b425780601f10610b1757610100808354040283529160200191610b42565b820191906000526020600020905b815481529060010190602001808311610b2557829003601f168201915b505050505081526020016001820154815250509050600081600001519050805160001415604051806040016040528060188152602001771059191c995cdcc81a5cc81b9bdd0812d650c81d985b1a5960421b81525090610bb55760405162461bcd60e51b81526004016105cc91906119d8565b50505192915050565b60009182526065602090815260408084206001600160a01b0393909316845291905290205460ff1690565b600080516020611c0b833981519152610c0181610dea565b6001600160a01b038216600090815260fb6020526040812090610c2482826116e5565b506000600191909101556040516001600160a01b03831681527f81b5f6b3171c4a45c56498df6405815e9b8f677e0f06cb5eba743c8728e515ff9060200160405180910390a15050565b600082815260656020526040902060010154610c8981610dea565b6106dc8383610e7a565b6001600160a01b038116600090815260fb60205260408082208151808301909252805460609392919082908290610cc990611b6d565b80601f0160208091040260200160405190810160405280929190818152602001828054610cf590611b6d565b8015610d425780601f10610d1757610100808354040283529160200191610d42565b820191906000526020600020905b815481529060010190602001808311610d2557829003601f168201915b50505050508152602001600182015481525050905080600001515160001415604051806040016040528060188152602001771059191c995cdcc81a5cc81b9bdd0812d650c81d985b1a5960421b81525090610db05760405162461bcd60e51b81526004016105cc91906119d8565b505192915050565b6000610dc381610dea565b61075b600080516020611c0b83398151915283610c6e565b6001600160a01b03163b151590565b6108258133611226565b610dfe8282610bbe565b61075b5760008281526065602090815260408083206001600160a01b03851684529091529020805460ff19166001179055610e363390565b6001600160a01b0316816001600160a01b0316837f2f8788117e7eff1d82e926ec794901d17c78024a50270940304540a733656f0d60405160405180910390a45050565b610e848282610bbe565b1561075b5760008281526065602090815260408083206001600160a01b0385168085529252808320805460ff1916905551339285917ff6391f5c32d9c69d2a47ea670b442974b53935d1edc7fd64eb21e047a839171b9190a45050565b600080516020611beb833981519152546001600160a01b031690565b6000610f0881610dea565b306001600160a01b037f0000000000000000000000000000000000000000000000000000000000000000161415610f515760405162461bcd60e51b81526004016105cc90611a0d565b7f00000000000000000000000000000000000000000000000000000000000000006001600160a01b0316610f83610ee1565b6001600160a01b031614610fa95760405162461bcd60e51b81526004016105cc90611a59565b61075b8261128a565b7f4910fdfa16fed3260ed0e7147f7cc6da11a60208b5b9406d12a635614ffd91435460ff1615610fe5576106dc836112ca565b826001600160a01b03166352d1902d6040518163ffffffff1660e01b815260040160206040518083038186803b15801561101e57600080fd5b505afa92505050801561104e575060408051601f3d908101601f1916820190925261104b91810190611853565b60015b6110b15760405162461bcd60e51b815260206004820152602e60248201527f45524331393637557067726164653a206e657720696d706c656d656e7461746960448201526d6f6e206973206e6f74205555505360901b60648201526084016105cc565b600080516020611beb83398151915281146111205760405162461bcd60e51b815260206004820152602960248201527f45524331393637557067726164653a20756e737570706f727465642070726f786044820152681a58589b195555525160ba1b60648201526084016105cc565b506106dc838383611366565b60008054610100900460ff1615611173578160ff16600114801561114f5750303b155b61116b5760405162461bcd60e51b81526004016105cc90611aa5565b506000919050565b60005460ff80841691161061119a5760405162461bcd60e51b81526004016105cc90611aa5565b506000805460ff191660ff92909216919091179055600190565b919050565b600054610100900460ff166112245760405162461bcd60e51b815260206004820152602b60248201527f496e697469616c697a61626c653a20636f6e7472616374206973206e6f74206960448201526a6e697469616c697a696e6760a81b60648201526084016105cc565b565b6112308282610bbe565b61075b57611248816001600160a01b03166014611391565b611253836020611391565b604051602001611264929190611963565b60408051601f198184030181529082905262461bcd60e51b82526105cc916004016119d8565b611293816112ca565b6040516001600160a01b038216907fbc7cd75a20ee27fd9adebab32041f755214dbc6bffa90cc0225b39da2e5c2d3b90600090a250565b6001600160a01b0381163b6113375760405162461bcd60e51b815260206004820152602d60248201527f455243313936373a206e657720696d706c656d656e746174696f6e206973206e60448201526c1bdd08184818dbdb9d1c9858dd609a1b60648201526084016105cc565b600080516020611beb83398151915280546001600160a01b0319166001600160a01b0392909216919091179055565b61136f8361128a565b60008251118061137c5750805b156106dc5761138b8383611534565b50505050565b606060006113a0836002611b0b565b6113ab906002611af3565b67ffffffffffffffff8111156113c3576113c3611bd4565b6040519080825280601f01601f1916602001820160405280156113ed576020820181803683370190505b509050600360fc1b8160008151811061140857611408611bbe565b60200101906001600160f81b031916908160001a905350600f60fb1b8160018151811061143757611437611bbe565b60200101906001600160f81b031916908160001a905350600061145b846002611b0b565b611466906001611af3565b90505b60018111156114de576f181899199a1a9b1b9c1cb0b131b232b360811b85600f166010811061149a5761149a611bbe565b1a60f81b8282815181106114b0576114b0611bbe565b60200101906001600160f81b031916908160001a90535060049490941c936114d781611b56565b9050611469565b50831561152d5760405162461bcd60e51b815260206004820181905260248201527f537472696e67733a20686578206c656e67746820696e73756666696369656e7460448201526064016105cc565b9392505050565b60606001600160a01b0383163b61159c5760405162461bcd60e51b815260206004820152602660248201527f416464726573733a2064656c65676174652063616c6c20746f206e6f6e2d636f6044820152651b9d1c9858dd60d21b60648201526084016105cc565b600080846001600160a01b0316846040516115b79190611947565b600060405180830381855af49150503d80600081146115f2576040519150601f19603f3d011682016040523d82523d6000602084013e6115f7565b606091505b509150915061161f8282604051806060016040528060278152602001611c2b60279139611628565b95945050505050565b6060831561163757508161152d565b8251156116475782518084602001fd5b8160405162461bcd60e51b81526004016105cc91906119d8565b82805461166d90611b6d565b90600052602060002090601f01602090048101928261168f57600085556116d5565b82601f106116a857805160ff19168380011785556116d5565b828001600101855582156116d5579182015b828111156116d55782518255916020019190600101906116ba565b506116e192915061171b565b5090565b5080546116f190611b6d565b6000825580601f10611701575050565b601f01602090049060005260206000209081019061082591905b5b808211156116e1576000815560010161171c565b600067ffffffffffffffff8084111561174b5761174b611bd4565b604051601f8501601f19908116603f0116810190828211818310171561177357611773611bd4565b8160405280935085815286868601111561178c57600080fd5b858560208301376000602087830101525050509392505050565b80356001600160a01b03811681146111b457600080fd5b6000602082840312156117cf57600080fd5b61152d826117a6565b600080604083850312156117eb57600080fd5b6117f4836117a6565b9150602083013567ffffffffffffffff81111561181057600080fd5b8301601f8101851361182157600080fd5b61183085823560208401611730565b9150509250929050565b60006020828403121561184c57600080fd5b5035919050565b60006020828403121561186557600080fd5b5051919050565b6000806040838503121561187f57600080fd5b8235915061188f602084016117a6565b90509250929050565b6000602082840312156118aa57600080fd5b81356001600160e01b03198116811461152d57600080fd5b600080604083850312156118d557600080fd5b823567ffffffffffffffff8111156118ec57600080fd5b8301601f810185136118fd57600080fd5b61190c85823560208401611730565b92505061188f602084016117a6565b60008151808452611933816020860160208601611b2a565b601f01601f19169290920160200192915050565b60008251611959818460208701611b2a565b9190910192915050565b7f416363657373436f6e74726f6c3a206163636f756e742000000000000000000081526000835161199b816017850160208801611b2a565b7001034b99036b4b9b9b4b733903937b6329607d1b60179184019182015283516119cc816028840160208801611b2a565b01602801949350505050565b60208152600061152d602083018461191b565b6040815260006119fe604083018561191b565b90508260208301529392505050565b6020808252602c908201527f46756e6374696f6e206d7573742062652063616c6c6564207468726f7567682060408201526b19195b1959d85d1958d85b1b60a21b606082015260800190565b6020808252602c908201527f46756e6374696f6e206d7573742062652063616c6c6564207468726f7567682060408201526b6163746976652070726f787960a01b606082015260800190565b6020808252602e908201527f496e697469616c697a61626c653a20636f6e747261637420697320616c72656160408201526d191e481a5b9a5d1a585b1a5e995960921b606082015260800190565b60008219821115611b0657611b06611ba8565b500190565b6000816000190483118215151615611b2557611b25611ba8565b500290565b60005b83811015611b45578181015183820152602001611b2d565b8381111561138b5750506000910152565b600081611b6557611b65611ba8565b506000190190565b600181811c90821680611b8157607f821691505b60208210811415611ba257634e487b7160e01b600052602260045260246000fd5b50919050565b634e487b7160e01b600052601160045260246000fd5b634e487b7160e01b600052603260045260246000fd5b634e487b7160e01b600052604160045260246000fdfe360894a13ba1a3210667c828492db98dca3e2076cc3735a920a3ca505d382bbc353580da269761db872db8b33dc2c08818fa5fc6b4526c8ec1d1fcd36c75aaa3416464726573733a206c6f772d6c6576656c2064656c65676174652063616c6c206661696c656461656535343862322d623235302d343439632d386430622d393337623062383763636566a26469706673582212207e9155e138311920f05987bd4a0e51a4f9041d54e7a0c9eb5c2829e163e6496864736f6c63430008070033496e697469616c697a61626c653a20636f6e747261637420697320616c726561",
  "linkReferences": {},
  "deployedLinkReferences": {}
}