{
  "_format": "hh-sol-artifact-1",
  "contractName": "KYC",
  "sourceName": "contracts/KYC.sol",
  "abi": [
    {
      "inputs": [],
      "stateMutability": "nonpayable",
      "type": "constructor"
    },
    {
      "anonymous": false,
      "inputs": [
        {
          "indexed": false,
          "internalType": "address",
          "name": "accountAddress",
          "type": "address"
        }
      ],
      "name": "AccountInvalidated",
      "type": "event"
    },
    {
      "anonymous": false,
      "inputs": [
        {
          "indexed": false,
          "internalType": "string",
          "name": "accountId",
          "type": "string"
        }
      ],
      "name": "AccountValidated",
      "type": "event"
    },
    {
      "anonymous": false,
      "inputs": [
        {
          "indexed": false,
          "internalType": "address",
          "name": "previousAdmin",
          "type": "address"
        },
        {
          "indexed": false,
          "internalType": "address",
          "name": "newAdmin",
          "type": "address"
        }
      ],
      "name": "AdminChanged",
      "type": "event"
    },
    {
      "anonymous": false,
      "inputs": [
        {
          "indexed": true,
          "internalType": "address",
          "name": "beacon",
          "type": "address"
        }
      ],
      "name": "BeaconUpgraded",
      "type": "event"
    },
    {
      "anonymous": false,
      "inputs": [
        {
          "indexed": false,
          "internalType": "uint8",
          "name": "version",
          "type": "uint8"
        }
      ],
      "name": "Initialized",
      "type": "event"
    },
    {
      "anonymous": false,
      "inputs": [
        {
          "indexed": true,
          "internalType": "bytes32",
          "name": "role",
          "type": "bytes32"
        },
        {
          "indexed": true,
          "internalType": "bytes32",
          "name": "previousAdminRole",
          "type": "bytes32"
        },
        {
          "indexed": true,
          "internalType": "bytes32",
          "name": "newAdminRole",
          "type": "bytes32"
        }
      ],
      "name": "RoleAdminChanged",
      "type": "event"
    },
    {
      "anonymous": false,
      "inputs": [
        {
          "indexed": true,
          "internalType": "bytes32",
          "name": "role",
          "type": "bytes32"
        },
        {
          "indexed": true,
          "internalType": "address",
          "name": "account",
          "type": "address"
        },
        {
          "indexed": true,
          "internalType": "address",
          "name": "sender",
          "type": "address"
        }
      ],
      "name": "RoleGranted",
      "type": "event"
    },
    {
      "anonymous": false,
      "inputs": [
        {
          "indexed": true,
          "internalType": "bytes32",
          "name": "role",
          "type": "bytes32"
        },
        {
          "indexed": true,
          "internalType": "address",
          "name": "account",
          "type": "address"
        },
        {
          "indexed": true,
          "internalType": "address",
          "name": "sender",
          "type": "address"
        }
      ],
      "name": "RoleRevoked",
      "type": "event"
    },
    {
      "anonymous": false,
      "inputs": [
        {
          "indexed": true,
          "internalType": "address",
          "name": "implementation",
          "type": "address"
        }
      ],
      "name": "Upgraded",
      "type": "event"
    },
    {
      "inputs": [],
      "name": "ADDRESS_NOT_VALID",
      "outputs": [
        {
          "internalType": "string",
          "name": "",
          "type": "string"
        }
      ],
      "stateMutability": "view",
      "type": "function"
    },
    {
      "inputs": [],
      "name": "DEFAULT_ADMIN_ROLE",
      "outputs": [
        {
          "internalType": "bytes32",
          "name": "",
          "type": "bytes32"
        }
      ],
      "stateMutability": "view",
      "type": "function"
    },
    {
      "inputs": [],
      "name": "INVALID_ACCOUNT_ID",
      "outputs": [
        {
          "internalType": "string",
          "name": "",
          "type": "string"
        }
      ],
      "stateMutability": "view",
      "type": "function"
    },
    {
      "inputs": [],
      "name": "SET_KYC",
      "outputs": [
        {
          "internalType": "bytes32",
          "name": "",
          "type": "bytes32"
        }
      ],
      "stateMutability": "view",
      "type": "function"
    },
    {
      "inputs": [],
      "name": "UPGRADER_ROLE",
      "outputs": [
        {
          "internalType": "bytes32",
          "name": "",
          "type": "bytes32"
        }
      ],
      "stateMutability": "view",
      "type": "function"
    },
    {
      "inputs": [
        {
          "internalType": "address",
          "name": "userAddress",
          "type": "address"
        }
      ],
      "name": "getAccountId",
      "outputs": [
        {
          "internalType": "string",
          "name": "",
          "type": "string"
        }
      ],
      "stateMutability": "view",
      "type": "function"
    },
    {
      "inputs": [
        {
          "internalType": "bytes32",
          "name": "role",
          "type": "bytes32"
        }
      ],
      "name": "getRoleAdmin",
      "outputs": [
        {
          "internalType": "bytes32",
          "name": "",
          "type": "bytes32"
        }
      ],
      "stateMutability": "view",
      "type": "function"
    },
    {
      "inputs": [
        {
          "internalType": "bytes32",
          "name": "role",
          "type": "bytes32"
        },
        {
          "internalType": "address",
          "name": "account",
          "type": "address"
        }
      ],
      "name": "grantRole",
      "outputs": [],
      "stateMutability": "nonpayable",
      "type": "function"
    },
    {
      "inputs": [
        {
          "internalType": "address",
          "name": "recipient",
          "type": "address"
        }
      ],
      "name": "grantRoleForKyc",
      "outputs": [],
      "stateMutability": "nonpayable",
      "type": "function"
    },
    {
      "inputs": [
        {
          "internalType": "bytes32",
          "name": "role",
          "type": "bytes32"
        },
        {
          "internalType": "address",
          "name": "account",
          "type": "address"
        }
      ],
      "name": "hasRole",
      "outputs": [
        {
          "internalType": "bool",
          "name": "",
          "type": "bool"
        }
      ],
      "stateMutability": "view",
      "type": "function"
    },
    {
      "inputs": [],
      "name": "initialize",
      "outputs": [],
      "stateMutability": "nonpayable",
      "type": "function"
    },
    {
      "inputs": [
        {
          "internalType": "address",
          "name": "userAddress",
          "type": "address"
        }
      ],
      "name": "invalidateAccount",
      "outputs": [],
      "stateMutability": "nonpayable",
      "type": "function"
    },
    {
      "inputs": [
        {
          "internalType": "address",
          "name": "userAddress",
          "type": "address"
        }
      ],
      "name": "isValid",
      "outputs": [
        {
          "internalType": "string",
          "name": "",
          "type": "string"
        }
      ],
      "stateMutability": "view",
      "type": "function"
    },
    {
      "inputs": [
        {
          "internalType": "address",
          "name": "",
          "type": "address"
        }
      ],
      "name": "kycAccount",
      "outputs": [
        {
          "internalType": "string",
          "name": "accountId",
          "type": "string"
        },
        {
          "internalType": "uint256",
          "name": "validationDate",
          "type": "uint256"
        }
      ],
      "stateMutability": "view",
      "type": "function"
    },
    {
      "inputs": [],
      "name": "proxiableUUID",
      "outputs": [
        {
          "internalType": "bytes32",
          "name": "",
          "type": "bytes32"
        }
      ],
      "stateMutability": "view",
      "type": "function"
    },
    {
      "inputs": [
        {
          "internalType": "bytes32",
          "name": "role",
          "type": "bytes32"
        },
        {
          "internalType": "address",
          "name": "account",
          "type": "address"
        }
      ],
      "name": "renounceRole",
      "outputs": [],
      "stateMutability": "nonpayable",
      "type": "function"
    },
    {
      "inputs": [
        {
          "internalType": "bytes32",
          "name": "role",
          "type": "bytes32"
        },
        {
          "internalType": "address",
          "name": "account",
          "type": "address"
        }
      ],
      "name": "revokeRole",
      "outputs": [],
      "stateMutability": "nonpayable",
      "type": "function"
    },
    {
      "inputs": [
        {
          "internalType": "address",
          "name": "recipient",
          "type": "address"
        }
      ],
      "name": "revokeRoleForKyc",
      "outputs": [],
      "stateMutability": "nonpayable",
      "type": "function"
    },
    {
      "inputs": [
        {
          "internalType": "bytes4",
          "name": "interfaceId",
          "type": "bytes4"
        }
      ],
      "name": "supportsInterface",
      "outputs": [
        {
          "internalType": "bool",
          "name": "",
          "type": "bool"
        }
      ],
      "stateMutability": "view",
      "type": "function"
    },
    {
      "inputs": [
        {
          "internalType": "address",
          "name": "newImplementation",
          "type": "address"
        }
      ],
      "name": "upgradeTo",
      "outputs": [],
      "stateMutability": "nonpayable",
      "type": "function"
    },
    {
      "inputs": [
        {
          "internalType": "address",
          "name": "newImplementation",
          "type": "address"
        },
        {
          "internalType": "bytes",
          "name": "data",
          "type": "bytes"
        }
      ],
      "name": "upgradeToAndCall",
      "outputs": [],
      "stateMutability": "payable",
      "type": "function"
    },
    {
      "inputs": [
        {
          "internalType": "string",
          "name": "accountId",
          "type": "string"
        },
        {
          "internalType": "address",
          "name": "userAddress",
          "type": "address"
        }
      ],
      "name": "validateAccount",
      "outputs": [
        {
          "internalType": "bool",
          "name": "",
          "type": "bool"
        }
      ],
      "stateMutability": "nonpayable",
      "type": "function"
    }
  ],
  "bytecode": "0x60a06040523060601b6080523480156200001857600080fd5b50600054610100900460ff16158080156200003a5750600054600160ff909116105b806200006a575062000057306200014460201b62000e771760201c565b1580156200006a575060005460ff166001145b620000d25760405162461bcd60e51b815260206004820152602e60248201527f496e697469616c697a61626c653a20636f6e747261637420697320616c72656160448201526d191e481a5b9a5d1a585b1a5e995960921b606482015260840160405180910390fd5b6000805460ff191660011790558015620000f6576000805461ff0019166101001790555b80156200013d576000805461ff0019169055604051600181527f7f26b83ff96e1f2b6a682f133852f6798a09c465da95921460cefb38474024989060200160405180910390a15b5062000153565b6001600160a01b03163b151590565b60805160601c611c716200019c6000396000818161076a015281816107aa0152818161083301528181610873015281816108eb01528181610faf0152610fef0152611c716000f3fe6080604052600436106101355760003560e01c80638129fc1c116100ab578063a217fddf1161006f578063a217fddf1461038d578063c183b85b146103a2578063d547741f146103eb578063e0b490f71461040b578063f72c0d8b1461042b578063f86a44ad1461045f57600080fd5b80638129fc1c146102f85780638408d3151461030d5780638b1b925f1461032d57806391d148541461034d57806397d3f2be1461036d57600080fd5b8063248a9ca3116100fd578063248a9ca31461023e5780632f2ff15d1461026e57806336568abe146102905780633659cfe6146102b05780634f1ef286146102d057806352d1902d146102e357600080fd5b806301ffc9a71461013a578063094c566c1461016f5780630f58648f1461019d5780631e625830146101ee57806323140b991461020e575b600080fd5b34801561014657600080fd5b5061015a6101553660046118ac565b61047f565b60405190151581526020015b60405180910390f35b34801561017b57600080fd5b5061018f61018a3660046117d1565b6104b6565b6040516101669291906119ff565b3480156101a957600080fd5b506101e1604051806040016040528060188152602001771059191c995cdcc81a5cc81b9bdd0812d650c81d985b1a5960421b81525081565b60405161016691906119ec565b3480156101fa57600080fd5b5061015a6102093660046118d6565b61055a565b34801561021a57600080fd5b50610230600080516020611bd183398151915281565b604051908152602001610166565b34801561024a57600080fd5b5061023061025936600461184e565b60009081526065602052604090206001015490565b34801561027a57600080fd5b5061028e610289366004611880565b6106b7565b005b34801561029c57600080fd5b5061028e6102ab366004611880565b6106e1565b3480156102bc57600080fd5b5061028e6102cb3660046117d1565b61075f565b61028e6102de3660046117ec565b610828565b3480156102ef57600080fd5b506102306108de565b34801561030457600080fd5b5061028e610991565b34801561031957600080fd5b5061028e6103283660046117d1565b610acc565b34801561033957600080fd5b506101e16103483660046117d1565b610aef565b34801561035957600080fd5b5061015a610368366004611880565b610c5a565b34801561037957600080fd5b5061028e6103883660046117d1565b610c85565b34801561039957600080fd5b50610230600081565b3480156103ae57600080fd5b506101e16040518060400160405280601c81526020017f4c6f6f6b73206c696b6520696e76616c6964206163636f756e7449640000000081525081565b3480156103f757600080fd5b5061028e610406366004611880565b610d0a565b34801561041757600080fd5b506101e16104263660046117d1565b610d2f565b34801561043757600080fd5b506102307f189ab7a9244df0848122154315af71fe140f3db0fe014031783b0946b8c9d2e381565b34801561046b57600080fd5b5061028e61047a3660046117d1565b610e54565b60006001600160e01b03198216637965db0b60e01b14806104b057506301ffc9a760e01b6001600160e01b03198316145b92915050565b60fb602052600090815260409020805481906104d190611b33565b80601f01602080910402602001604051908101604052809291908181526020018280546104fd90611b33565b801561054a5780601f1061051f5761010080835404028352916020019161054a565b820191906000526020600020905b81548152906001019060200180831161052d57829003601f168201915b5050505050908060010154905082565b6000600080516020611bd183398151915261057481610e86565b835160408051808201909152601c81527f4c6f6f6b73206c696b6520696e76616c6964206163636f756e74496400000000602082015285916024146105d55760405162461bcd60e51b81526004016105cc91906119ec565b60405180910390fd5b506001600160a01b0384166106255760405162461bcd60e51b8152602060048201526016602482015275416464726573732063616e6e6f74206265207a65726f60501b60448201526064016105cc565b604080518082018252868152426020808301919091526001600160a01b038716600090815260fb82529290922081518051929391926106679284920190611670565b50602082015181600101559050507f22bfe58e58301c85575d5a639c2c2a94a5c2edab18c748b6b95c43c5f9960f65856040516106a491906119ec565b60405180910390a1506001949350505050565b6000828152606560205260409020600101546106d281610e86565b6106dc8383610e90565b505050565b6001600160a01b03811633146107515760405162461bcd60e51b815260206004820152602f60248201527f416363657373436f6e74726f6c3a2063616e206f6e6c792072656e6f756e636560448201526e103937b632b9903337b91039b2b63360891b60648201526084016105cc565b61075b8282610f16565b5050565b306001600160a01b037f00000000000000000000000000000000000000000000000000000000000000001614156107a85760405162461bcd60e51b81526004016105cc90611a21565b7f00000000000000000000000000000000000000000000000000000000000000006001600160a01b03166107da610f7d565b6001600160a01b0316146108005760405162461bcd60e51b81526004016105cc90611a6d565b61080981610f99565b604080516000808252602082019092526108259183919061104e565b50565b306001600160a01b037f00000000000000000000000000000000000000000000000000000000000000001614156108715760405162461bcd60e51b81526004016105cc90611a21565b7f00000000000000000000000000000000000000000000000000000000000000006001600160a01b03166108a3610f7d565b6001600160a01b0316146108c95760405162461bcd60e51b81526004016105cc90611a6d565b6108d282610f99565b61075b8282600161104e565b6000306001600160a01b037f0000000000000000000000000000000000000000000000000000000000000000161461097e5760405162461bcd60e51b815260206004820152603860248201527f555550535570677261646561626c653a206d757374206e6f742062652063616c60448201527f6c6564207468726f7567682064656c656761746563616c6c000000000000000060648201526084016105cc565b50600080516020611bb183398151915290565b600054610100900460ff16158080156109b15750600054600160ff909116105b806109cb5750303b1580156109cb575060005460ff166001145b610a2e5760405162461bcd60e51b815260206004820152602e60248201527f496e697469616c697a61626c653a20636f6e747261637420697320616c72656160448201526d191e481a5b9a5d1a585b1a5e995960921b60648201526084016105cc565b6000805460ff191660011790558015610a51576000805461ff0019166101001790555b610a596111c8565b610a616111c8565b610a6c600033610e90565b610a84600080516020611bd183398151915233610e90565b8015610825576000805461ff0019169055604051600181527f7f26b83ff96e1f2b6a682f133852f6798a09c465da95921460cefb38474024989060200160405180910390a150565b6000610ad781610e86565b61075b600080516020611bd1833981519152836106b7565b606073f39fd6e51aad88f6f4ce6ab8827279cfffb922666001600160a01b0383161415610b3557604051806060016040528060248152602001611c186024913992915050565b6001600160a01b038216600090815260fb60205260408082208151808301909252805482908290610b6590611b33565b80601f0160208091040260200160405190810160405280929190818152602001828054610b9190611b33565b8015610bde5780601f10610bb357610100808354040283529160200191610bde565b820191906000526020600020905b815481529060010190602001808311610bc157829003601f168201915b505050505081526020016001820154815250509050600081600001519050805160001415604051806040016040528060188152602001771059191c995cdcc81a5cc81b9bdd0812d650c81d985b1a5960421b81525090610c515760405162461bcd60e51b81526004016105cc91906119ec565b50505192915050565b60009182526065602090815260408084206001600160a01b0393909316845291905290205460ff1690565b600080516020611bd1833981519152610c9d81610e86565b6001600160a01b038216600090815260fb6020526040812090610cc082826116f4565b506000600191909101556040516001600160a01b03831681527f81b5f6b3171c4a45c56498df6405815e9b8f677e0f06cb5eba743c8728e515ff9060200160405180910390a15050565b600082815260656020526040902060010154610d2581610e86565b6106dc8383610f16565b6001600160a01b038116600090815260fb60205260408082208151808301909252805460609392919082908290610d6590611b33565b80601f0160208091040260200160405190810160405280929190818152602001828054610d9190611b33565b8015610dde5780601f10610db357610100808354040283529160200191610dde565b820191906000526020600020905b815481529060010190602001808311610dc157829003601f168201915b50505050508152602001600182015481525050905080600001515160001415604051806040016040528060188152602001771059191c995cdcc81a5cc81b9bdd0812d650c81d985b1a5960421b81525090610e4c5760405162461bcd60e51b81526004016105cc91906119ec565b505192915050565b6000610e5f81610e86565b61075b600080516020611bd183398151915283610d0a565b6001600160a01b03163b151590565b6108258133611235565b610e9a8282610c5a565b61075b5760008281526065602090815260408083206001600160a01b03851684529091529020805460ff19166001179055610ed23390565b6001600160a01b0316816001600160a01b0316837f2f8788117e7eff1d82e926ec794901d17c78024a50270940304540a733656f0d60405160405180910390a45050565b610f208282610c5a565b1561075b5760008281526065602090815260408083206001600160a01b0385168085529252808320805460ff1916905551339285917ff6391f5c32d9c69d2a47ea670b442974b53935d1edc7fd64eb21e047a839171b9190a45050565b600080516020611bb1833981519152546001600160a01b031690565b6000610fa481610e86565b306001600160a01b037f0000000000000000000000000000000000000000000000000000000000000000161415610fed5760405162461bcd60e51b81526004016105cc90611a21565b7f00000000000000000000000000000000000000000000000000000000000000006001600160a01b031661101f610f7d565b6001600160a01b0316146110455760405162461bcd60e51b81526004016105cc90611a6d565b61075b82611299565b7f4910fdfa16fed3260ed0e7147f7cc6da11a60208b5b9406d12a635614ffd91435460ff1615611081576106dc836112d9565b826001600160a01b03166352d1902d6040518163ffffffff1660e01b815260040160206040518083038186803b1580156110ba57600080fd5b505afa9250505080156110ea575060408051601f3d908101601f191682019092526110e791810190611867565b60015b61114d5760405162461bcd60e51b815260206004820152602e60248201527f45524331393637557067726164653a206e657720696d706c656d656e7461746960448201526d6f6e206973206e6f74205555505360901b60648201526084016105cc565b600080516020611bb183398151915281146111bc5760405162461bcd60e51b815260206004820152602960248201527f45524331393637557067726164653a20756e737570706f727465642070726f786044820152681a58589b195555525160ba1b60648201526084016105cc565b506106dc838383611375565b600054610100900460ff166112335760405162461bcd60e51b815260206004820152602b60248201527f496e697469616c697a61626c653a20636f6e7472616374206973206e6f74206960448201526a6e697469616c697a696e6760a81b60648201526084016105cc565b565b61123f8282610c5a565b61075b57611257816001600160a01b031660146113a0565b6112628360206113a0565b604051602001611273929190611977565b60408051601f198184030181529082905262461bcd60e51b82526105cc916004016119ec565b6112a2816112d9565b6040516001600160a01b038216907fbc7cd75a20ee27fd9adebab32041f755214dbc6bffa90cc0225b39da2e5c2d3b90600090a250565b6001600160a01b0381163b6113465760405162461bcd60e51b815260206004820152602d60248201527f455243313936373a206e657720696d706c656d656e746174696f6e206973206e60448201526c1bdd08184818dbdb9d1c9858dd609a1b60648201526084016105cc565b600080516020611bb183398151915280546001600160a01b0319166001600160a01b0392909216919091179055565b61137e83611299565b60008251118061138b5750805b156106dc5761139a8383611543565b50505050565b606060006113af836002611ad1565b6113ba906002611ab9565b67ffffffffffffffff8111156113d2576113d2611b9a565b6040519080825280601f01601f1916602001820160405280156113fc576020820181803683370190505b509050600360fc1b8160008151811061141757611417611b84565b60200101906001600160f81b031916908160001a905350600f60fb1b8160018151811061144657611446611b84565b60200101906001600160f81b031916908160001a905350600061146a846002611ad1565b611475906001611ab9565b90505b60018111156114ed576f181899199a1a9b1b9c1cb0b131b232b360811b85600f16601081106114a9576114a9611b84565b1a60f81b8282815181106114bf576114bf611b84565b60200101906001600160f81b031916908160001a90535060049490941c936114e681611b1c565b9050611478565b50831561153c5760405162461bcd60e51b815260206004820181905260248201527f537472696e67733a20686578206c656e67746820696e73756666696369656e7460448201526064016105cc565b9392505050565b60606001600160a01b0383163b6115ab5760405162461bcd60e51b815260206004820152602660248201527f416464726573733a2064656c65676174652063616c6c20746f206e6f6e2d636f6044820152651b9d1c9858dd60d21b60648201526084016105cc565b600080846001600160a01b0316846040516115c6919061195b565b600060405180830381855af49150503d8060008114611601576040519150601f19603f3d011682016040523d82523d6000602084013e611606565b606091505b509150915061162e8282604051806060016040528060278152602001611bf160279139611637565b95945050505050565b6060831561164657508161153c565b8251156116565782518084602001fd5b8160405162461bcd60e51b81526004016105cc91906119ec565b82805461167c90611b33565b90600052602060002090601f01602090048101928261169e57600085556116e4565b82601f106116b757805160ff19168380011785556116e4565b828001600101855582156116e4579182015b828111156116e45782518255916020019190600101906116c9565b506116f092915061172a565b5090565b50805461170090611b33565b6000825580601f10611710575050565b601f01602090049060005260206000209081019061082591905b5b808211156116f0576000815560010161172b565b600067ffffffffffffffff8084111561175a5761175a611b9a565b604051601f8501601f19908116603f0116810190828211818310171561178257611782611b9a565b8160405280935085815286868601111561179b57600080fd5b858560208301376000602087830101525050509392505050565b80356001600160a01b03811681146117cc57600080fd5b919050565b6000602082840312156117e357600080fd5b61153c826117b5565b600080604083850312156117ff57600080fd5b611808836117b5565b9150602083013567ffffffffffffffff81111561182457600080fd5b8301601f8101851361183557600080fd5b6118448582356020840161173f565b9150509250929050565b60006020828403121561186057600080fd5b5035919050565b60006020828403121561187957600080fd5b5051919050565b6000806040838503121561189357600080fd5b823591506118a3602084016117b5565b90509250929050565b6000602082840312156118be57600080fd5b81356001600160e01b03198116811461153c57600080fd5b600080604083850312156118e957600080fd5b823567ffffffffffffffff81111561190057600080fd5b8301601f8101851361191157600080fd5b6119208582356020840161173f565b9250506118a3602084016117b5565b60008151808452611947816020860160208601611af0565b601f01601f19169290920160200192915050565b6000825161196d818460208701611af0565b9190910192915050565b7f416363657373436f6e74726f6c3a206163636f756e74200000000000000000008152600083516119af816017850160208801611af0565b7001034b99036b4b9b9b4b733903937b6329607d1b60179184019182015283516119e0816028840160208801611af0565b01602801949350505050565b60208152600061153c602083018461192f565b604081526000611a12604083018561192f565b90508260208301529392505050565b6020808252602c908201527f46756e6374696f6e206d7573742062652063616c6c6564207468726f7567682060408201526b19195b1959d85d1958d85b1b60a21b606082015260800190565b6020808252602c908201527f46756e6374696f6e206d7573742062652063616c6c6564207468726f7567682060408201526b6163746976652070726f787960a01b606082015260800190565b60008219821115611acc57611acc611b6e565b500190565b6000816000190483118215151615611aeb57611aeb611b6e565b500290565b60005b83811015611b0b578181015183820152602001611af3565b8381111561139a5750506000910152565b600081611b2b57611b2b611b6e565b506000190190565b600181811c90821680611b4757607f821691505b60208210811415611b6857634e487b7160e01b600052602260045260246000fd5b50919050565b634e487b7160e01b600052601160045260246000fd5b634e487b7160e01b600052603260045260246000fd5b634e487b7160e01b600052604160045260246000fdfe360894a13ba1a3210667c828492db98dca3e2076cc3735a920a3ca505d382bbc353580da269761db872db8b33dc2c08818fa5fc6b4526c8ec1d1fcd36c75aaa3416464726573733a206c6f772d6c6576656c2064656c65676174652063616c6c206661696c656461656535343862322d623235302d343439632d386430622d393337623062383763636566a2646970667358221220623140390857ae48fac71842c1fa7155c95a2d450b8bcb884c39762b463766c264736f6c63430008070033",
  "linkReferences": {},
  "deployedLinkReferences": {}
}