{
  "_format": "hh-sol-artifact-1",
  "contractName": "LiminalMarket",
  "sourceName": "contracts/LiminalMarket.sol",
  "abi": [
    {
      "inputs": [],
      "stateMutability": "nonpayable",
      "type": "constructor"
    },
    {
      "anonymous": false,
      "inputs": [
        {
          "indexed": false,
          "internalType": "address",
          "name": "previousAdmin",
          "type": "address"
        },
        {
          "indexed": false,
          "internalType": "address",
          "name": "newAdmin",
          "type": "address"
        }
      ],
      "name": "AdminChanged",
      "type": "event"
    },
    {
      "anonymous": false,
      "inputs": [
        {
          "indexed": true,
          "internalType": "address",
          "name": "beacon",
          "type": "address"
        }
      ],
      "name": "BeaconUpgraded",
      "type": "event"
    },
    {
      "anonymous": false,
      "inputs": [
        {
          "indexed": false,
          "internalType": "address",
          "name": "walletAddress",
          "type": "address"
        },
        {
          "indexed": false,
          "internalType": "uint256",
          "name": "amount",
          "type": "uint256"
        },
        {
          "indexed": false,
          "internalType": "string",
          "name": "accountId",
          "type": "string"
        },
        {
          "indexed": false,
          "internalType": "string",
          "name": "symbol",
          "type": "string"
        },
        {
          "indexed": false,
          "internalType": "address",
          "name": "tokenAddress",
          "type": "address"
        },
        {
          "indexed": false,
          "internalType": "address",
          "name": "spender",
          "type": "address"
        }
      ],
      "name": "BuyWithAUsd",
      "type": "event"
    },
    {
      "anonymous": false,
      "inputs": [
        {
          "indexed": false,
          "internalType": "uint8",
          "name": "version",
          "type": "uint8"
        }
      ],
      "name": "Initialized",
      "type": "event"
    },
    {
      "anonymous": false,
      "inputs": [
        {
          "indexed": false,
          "internalType": "address",
          "name": "recipient",
          "type": "address"
        },
        {
          "indexed": false,
          "internalType": "string",
          "name": "symbol",
          "type": "string"
        },
        {
          "indexed": false,
          "internalType": "uint256",
          "name": "tsl",
          "type": "uint256"
        },
        {
          "indexed": false,
          "internalType": "uint256",
          "name": "filledQty",
          "type": "uint256"
        },
        {
          "indexed": false,
          "internalType": "uint256",
          "name": "filledAvgPrice",
          "type": "uint256"
        },
        {
          "indexed": false,
          "internalType": "string",
          "name": "side",
          "type": "string"
        },
        {
          "indexed": false,
          "internalType": "uint256",
          "name": "filledAt",
          "type": "uint256"
        },
        {
          "indexed": false,
          "internalType": "uint256",
          "name": "serviceFee",
          "type": "uint256"
        },
        {
          "indexed": false,
          "internalType": "uint256",
          "name": "aUsdBalance",
          "type": "uint256"
        },
        {
          "indexed": false,
          "internalType": "address",
          "name": "spender",
          "type": "address"
        }
      ],
      "name": "OrderExecuted",
      "type": "event"
    },
    {
      "anonymous": false,
      "inputs": [
        {
          "indexed": false,
          "internalType": "address",
          "name": "recipient",
          "type": "address"
        },
        {
          "indexed": false,
          "internalType": "string",
          "name": "symbol",
          "type": "string"
        },
        {
          "indexed": false,
          "internalType": "uint256",
          "name": "buyingPower",
          "type": "uint256"
        },
        {
          "indexed": false,
          "internalType": "string",
          "name": "message",
          "type": "string"
        },
        {
          "indexed": false,
          "internalType": "address",
          "name": "spender",
          "type": "address"
        }
      ],
      "name": "OrderFailed",
      "type": "event"
    },
    {
      "anonymous": false,
      "inputs": [
        {
          "indexed": false,
          "internalType": "address",
          "name": "account",
          "type": "address"
        }
      ],
      "name": "Paused",
      "type": "event"
    },
    {
      "anonymous": false,
      "inputs": [
        {
          "indexed": true,
          "internalType": "bytes32",
          "name": "role",
          "type": "bytes32"
        },
        {
          "indexed": true,
          "internalType": "bytes32",
          "name": "previousAdminRole",
          "type": "bytes32"
        },
        {
          "indexed": true,
          "internalType": "bytes32",
          "name": "newAdminRole",
          "type": "bytes32"
        }
      ],
      "name": "RoleAdminChanged",
      "type": "event"
    },
    {
      "anonymous": false,
      "inputs": [
        {
          "indexed": true,
          "internalType": "bytes32",
          "name": "role",
          "type": "bytes32"
        },
        {
          "indexed": true,
          "internalType": "address",
          "name": "account",
          "type": "address"
        },
        {
          "indexed": true,
          "internalType": "address",
          "name": "sender",
          "type": "address"
        }
      ],
      "name": "RoleGranted",
      "type": "event"
    },
    {
      "anonymous": false,
      "inputs": [
        {
          "indexed": true,
          "internalType": "bytes32",
          "name": "role",
          "type": "bytes32"
        },
        {
          "indexed": true,
          "internalType": "address",
          "name": "account",
          "type": "address"
        },
        {
          "indexed": true,
          "internalType": "address",
          "name": "sender",
          "type": "address"
        }
      ],
      "name": "RoleRevoked",
      "type": "event"
    },
    {
      "anonymous": false,
      "inputs": [
        {
          "indexed": false,
          "internalType": "string",
          "name": "accountId",
          "type": "string"
        },
        {
          "indexed": false,
          "internalType": "address",
          "name": "walletAddress",
          "type": "address"
        },
        {
          "indexed": false,
          "internalType": "address",
          "name": "aUsdAddress",
          "type": "address"
        },
        {
          "indexed": false,
          "internalType": "string",
          "name": "symbol",
          "type": "string"
        },
        {
          "indexed": false,
          "internalType": "uint256",
          "name": "amount",
          "type": "uint256"
        },
        {
          "indexed": false,
          "internalType": "address",
          "name": "spender",
          "type": "address"
        }
      ],
      "name": "SellSecurityToken",
      "type": "event"
    },
    {
      "anonymous": false,
      "inputs": [
        {
          "indexed": false,
          "internalType": "address",
          "name": "tokenAddress",
          "type": "address"
        },
        {
          "indexed": false,
          "internalType": "string",
          "name": "symbol",
          "type": "string"
        }
      ],
      "name": "TokenCreated",
      "type": "event"
    },
    {
      "anonymous": false,
      "inputs": [
        {
          "indexed": false,
          "internalType": "address",
          "name": "account",
          "type": "address"
        }
      ],
      "name": "Unpaused",
      "type": "event"
    },
    {
      "anonymous": false,
      "inputs": [
        {
          "indexed": true,
          "internalType": "address",
          "name": "implementation",
          "type": "address"
        }
      ],
      "name": "Upgraded",
      "type": "event"
    },
    {
      "inputs": [],
      "name": "ADDRESS_CANNOT_BE_ZERO",
      "outputs": [
        {
          "internalType": "string",
          "name": "",
          "type": "string"
        }
      ],
      "stateMutability": "view",
      "type": "function"
    },
    {
      "inputs": [],
      "name": "DEFAULT_ADMIN_ROLE",
      "outputs": [
        {
          "internalType": "bytes32",
          "name": "",
          "type": "bytes32"
        }
      ],
      "stateMutability": "view",
      "type": "function"
    },
    {
      "inputs": [],
      "name": "MARKET_CLOSED",
      "outputs": [
        {
          "internalType": "string",
          "name": "",
          "type": "string"
        }
      ],
      "stateMutability": "view",
      "type": "function"
    },
    {
      "inputs": [],
      "name": "MINTER_ROLE",
      "outputs": [
        {
          "internalType": "bytes32",
          "name": "",
          "type": "bytes32"
        }
      ],
      "stateMutability": "view",
      "type": "function"
    },
    {
      "inputs": [],
      "name": "NOT_ENOUGH_AUSD",
      "outputs": [
        {
          "internalType": "string",
          "name": "",
          "type": "string"
        }
      ],
      "stateMutability": "view",
      "type": "function"
    },
    {
      "inputs": [],
      "name": "NOT_VALID_TOKEN_ADDRESS",
      "outputs": [
        {
          "internalType": "string",
          "name": "",
          "type": "string"
        }
      ],
      "stateMutability": "view",
      "type": "function"
    },
    {
      "inputs": [],
      "name": "ONLY_AUSD_CAN_CALL_ME",
      "outputs": [
        {
          "internalType": "string",
          "name": "",
          "type": "string"
        }
      ],
      "stateMutability": "view",
      "type": "function"
    },
    {
      "inputs": [],
      "name": "ONLY_SEND_TO_AUSD",
      "outputs": [
        {
          "internalType": "string",
          "name": "",
          "type": "string"
        }
      ],
      "stateMutability": "view",
      "type": "function"
    },
    {
      "inputs": [],
      "name": "PAUSER_ROLE",
      "outputs": [
        {
          "internalType": "bytes32",
          "name": "",
          "type": "bytes32"
        }
      ],
      "stateMutability": "view",
      "type": "function"
    },
    {
      "inputs": [],
      "name": "QUANTITY_MORE_THEN_BALANCE",
      "outputs": [
        {
          "internalType": "string",
          "name": "",
          "type": "string"
        }
      ],
      "stateMutability": "view",
      "type": "function"
    },
    {
      "inputs": [],
      "name": "SYMBOL_CANNOT_BE_EMPTY",
      "outputs": [
        {
          "internalType": "string",
          "name": "",
          "type": "string"
        }
      ],
      "stateMutability": "view",
      "type": "function"
    },
    {
      "inputs": [],
      "name": "TOKEN_ALREADY_EXISTS",
      "outputs": [
        {
          "internalType": "string",
          "name": "",
          "type": "string"
        }
      ],
      "stateMutability": "view",
      "type": "function"
    },
    {
      "inputs": [],
      "name": "TOKEN_NAME",
      "outputs": [
        {
          "internalType": "string",
          "name": "",
          "type": "string"
        }
      ],
      "stateMutability": "view",
      "type": "function"
    },
    {
      "inputs": [],
      "name": "UPGRADER_ROLE",
      "outputs": [
        {
          "internalType": "bytes32",
          "name": "",
          "type": "bytes32"
        }
      ],
      "stateMutability": "view",
      "type": "function"
    },
    {
      "inputs": [],
      "name": "aUsdContract",
      "outputs": [
        {
          "internalType": "contract aUSD",
          "name": "",
          "type": "address"
        }
      ],
      "stateMutability": "view",
      "type": "function"
    },
    {
      "inputs": [
        {
          "internalType": "address",
          "name": "walletAddress",
          "type": "address"
        },
        {
          "internalType": "string",
          "name": "symbol",
          "type": "string"
        },
        {
          "internalType": "uint256",
          "name": "amount",
          "type": "uint256"
        },
        {
          "internalType": "address",
          "name": "spender",
          "type": "address"
        }
      ],
      "name": "buySecurityToken",
      "outputs": [],
      "stateMutability": "nonpayable",
      "type": "function"
    },
    {
      "inputs": [
        {
          "internalType": "address",
          "name": "walletAddress",
          "type": "address"
        },
        {
          "internalType": "address",
          "name": "tokenAddress",
          "type": "address"
        },
        {
          "internalType": "uint256",
          "name": "amount",
          "type": "uint256"
        },
        {
          "internalType": "address",
          "name": "spender",
          "type": "address"
        }
      ],
      "name": "buyWithAUsd",
      "outputs": [],
      "stateMutability": "nonpayable",
      "type": "function"
    },
    {
      "inputs": [
        {
          "internalType": "string",
          "name": "symbol",
          "type": "string"
        }
      ],
      "name": "createToken",
      "outputs": [
        {
          "internalType": "contract SecurityToken",
          "name": "",
          "type": "address"
        }
      ],
      "stateMutability": "nonpayable",
      "type": "function"
    },
    {
      "inputs": [
        {
          "internalType": "bytes32",
          "name": "role",
          "type": "bytes32"
        }
      ],
      "name": "getRoleAdmin",
      "outputs": [
        {
          "internalType": "bytes32",
          "name": "",
          "type": "bytes32"
        }
      ],
      "stateMutability": "view",
      "type": "function"
    },
    {
      "inputs": [
        {
          "internalType": "string",
          "name": "symbol",
          "type": "string"
        }
      ],
      "name": "getSecurityToken",
      "outputs": [
        {
          "internalType": "address",
          "name": "",
          "type": "address"
        }
      ],
      "stateMutability": "view",
      "type": "function"
    },
    {
      "inputs": [
        {
          "internalType": "address",
          "name": "recipient",
          "type": "address"
        }
      ],
      "name": "grantMintAndBurnRole",
      "outputs": [],
      "stateMutability": "nonpayable",
      "type": "function"
    },
    {
      "inputs": [
        {
          "internalType": "bytes32",
          "name": "role",
          "type": "bytes32"
        },
        {
          "internalType": "address",
          "name": "account",
          "type": "address"
        }
      ],
      "name": "grantRole",
      "outputs": [],
      "stateMutability": "nonpayable",
      "type": "function"
    },
    {
      "inputs": [
        {
          "internalType": "bytes32",
          "name": "role",
          "type": "bytes32"
        },
        {
          "internalType": "address",
          "name": "account",
          "type": "address"
        }
      ],
      "name": "hasRole",
      "outputs": [
        {
          "internalType": "bool",
          "name": "",
          "type": "bool"
        }
      ],
      "stateMutability": "view",
      "type": "function"
    },
    {
      "inputs": [],
      "name": "initialize",
      "outputs": [],
      "stateMutability": "nonpayable",
      "type": "function"
    },
    {
      "inputs": [],
      "name": "kycContract",
      "outputs": [
        {
          "internalType": "contract KYC",
          "name": "",
          "type": "address"
        }
      ],
      "stateMutability": "view",
      "type": "function"
    },
    {
      "inputs": [],
      "name": "lmToken",
      "outputs": [
        {
          "internalType": "contract LM",
          "name": "",
          "type": "address"
        }
      ],
      "stateMutability": "view",
      "type": "function"
    },
    {
      "inputs": [],
      "name": "marketCalendarContract",
      "outputs": [
        {
          "internalType": "contract MarketCalendar",
          "name": "",
          "type": "address"
        }
      ],
      "stateMutability": "view",
      "type": "function"
    },
    {
      "inputs": [
        {
          "internalType": "address",
          "name": "recipient",
          "type": "address"
        },
        {
          "internalType": "string",
          "name": "symbol",
          "type": "string"
        },
        {
          "internalType": "uint256",
          "name": "tsl",
          "type": "uint256"
        },
        {
          "internalType": "uint256",
          "name": "filledQty",
          "type": "uint256"
        },
        {
          "internalType": "uint256",
          "name": "filledAvgPrice",
          "type": "uint256"
        },
        {
          "internalType": "string",
          "name": "side",
          "type": "string"
        },
        {
          "internalType": "uint256",
          "name": "filledAt",
          "type": "uint256"
        },
        {
          "internalType": "uint256",
          "name": "aUsdBalance",
          "type": "uint256"
        },
        {
          "internalType": "address",
          "name": "spender",
          "type": "address"
        }
      ],
      "name": "orderExecuted",
      "outputs": [],
      "stateMutability": "nonpayable",
      "type": "function"
    },
    {
      "inputs": [
        {
          "internalType": "address",
          "name": "recipient",
          "type": "address"
        },
        {
          "internalType": "string",
          "name": "symbol",
          "type": "string"
        },
        {
          "internalType": "uint256",
          "name": "buyingPower",
          "type": "uint256"
        },
        {
          "internalType": "string",
          "name": "message",
          "type": "string"
        },
        {
          "internalType": "address",
          "name": "spender",
          "type": "address"
        }
      ],
      "name": "orderFailed",
      "outputs": [],
      "stateMutability": "nonpayable",
      "type": "function"
    },
    {
      "inputs": [],
      "name": "pause",
      "outputs": [],
      "stateMutability": "nonpayable",
      "type": "function"
    },
    {
      "inputs": [],
      "name": "paused",
      "outputs": [
        {
          "internalType": "bool",
          "name": "",
          "type": "bool"
        }
      ],
      "stateMutability": "view",
      "type": "function"
    },
    {
      "inputs": [],
      "name": "proxiableUUID",
      "outputs": [
        {
          "internalType": "bytes32",
          "name": "",
          "type": "bytes32"
        }
      ],
      "stateMutability": "view",
      "type": "function"
    },
    {
      "inputs": [
        {
          "internalType": "bytes32",
          "name": "role",
          "type": "bytes32"
        },
        {
          "internalType": "address",
          "name": "account",
          "type": "address"
        }
      ],
      "name": "renounceRole",
      "outputs": [],
      "stateMutability": "nonpayable",
      "type": "function"
    },
    {
      "inputs": [
        {
          "internalType": "address",
          "name": "recipient",
          "type": "address"
        }
      ],
      "name": "revokeMintAndBurnRole",
      "outputs": [],
      "stateMutability": "nonpayable",
      "type": "function"
    },
    {
      "inputs": [
        {
          "internalType": "bytes32",
          "name": "role",
          "type": "bytes32"
        },
        {
          "internalType": "address",
          "name": "account",
          "type": "address"
        }
      ],
      "name": "revokeRole",
      "outputs": [],
      "stateMutability": "nonpayable",
      "type": "function"
    },
    {
      "inputs": [
        {
          "internalType": "string",
          "name": "",
          "type": "string"
        }
      ],
      "name": "securityTokens",
      "outputs": [
        {
          "internalType": "address",
          "name": "",
          "type": "address"
        }
      ],
      "stateMutability": "view",
      "type": "function"
    },
    {
      "inputs": [
        {
          "internalType": "address",
          "name": "walletAddress",
          "type": "address"
        },
        {
          "internalType": "address",
          "name": "aUsdAddress",
          "type": "address"
        },
        {
          "internalType": "string",
          "name": "symbol",
          "type": "string"
        },
        {
          "internalType": "uint256",
          "name": "quantity",
          "type": "uint256"
        },
        {
          "internalType": "address",
          "name": "spender",
          "type": "address"
        }
      ],
      "name": "sellSecurityToken",
      "outputs": [],
      "stateMutability": "nonpayable",
      "type": "function"
    },
    {
      "inputs": [
        {
          "internalType": "contract aUSD",
          "name": "aUsdAddress",
          "type": "address"
        },
        {
          "internalType": "contract KYC",
          "name": "kycAddress",
          "type": "address"
        },
        {
          "internalType": "contract MarketCalendar",
          "name": "marketCalendarAddress",
          "type": "address"
        },
        {
          "internalType": "contract LM",
          "name": "lmTokenAddress",
          "type": "address"
        }
      ],
      "name": "setAddresses",
      "outputs": [],
      "stateMutability": "nonpayable",
      "type": "function"
    },
    {
      "inputs": [
        {
          "internalType": "bytes4",
          "name": "interfaceId",
          "type": "bytes4"
        }
      ],
      "name": "supportsInterface",
      "outputs": [
        {
          "internalType": "bool",
          "name": "",
          "type": "bool"
        }
      ],
      "stateMutability": "view",
      "type": "function"
    },
    {
      "inputs": [],
      "name": "unpause",
      "outputs": [],
      "stateMutability": "nonpayable",
      "type": "function"
    },
    {
      "inputs": [
        {
          "internalType": "address",
          "name": "newImplementation",
          "type": "address"
        }
      ],
      "name": "upgradeTo",
      "outputs": [],
      "stateMutability": "nonpayable",
      "type": "function"
    },
    {
      "inputs": [
        {
          "internalType": "address",
          "name": "newImplementation",
          "type": "address"
        },
        {
          "internalType": "bytes",
          "name": "data",
          "type": "bytes"
        }
      ],
      "name": "upgradeToAndCall",
      "outputs": [],
      "stateMutability": "payable",
      "type": "function"
    }
  ],
  "bytecode": "0x60a0604052306080523480156200001557600080fd5b506200002062000026565b620000e8565b600054610100900460ff1615620000935760405162461bcd60e51b815260206004820152602760248201527f496e697469616c697a61626c653a20636f6e747261637420697320696e697469604482015266616c697a696e6760c81b606482015260840160405180910390fd5b60005460ff9081161015620000e6576000805460ff191660ff9081179091556040519081527f7f26b83ff96e1f2b6a682f133852f6798a09c465da95921460cefb38474024989060200160405180910390a15b565b608051614d1e6200012e600039600081816111c10152818161125901528181611609015281816116a10152818161179f015281816125d101526126690152614d1e6000f3fe6080604052600436106200030b5760003560e01c80636d3123eb11620001975780639d81f9e111620000e7578063d547741f1162000095578063f1935fd4116200006c578063f1935fd41462000a38578063f72c0d8b1462000a83578063fcca64041462000ab957600080fd5b8063d547741f1462000997578063da48f4ad14620009bc578063e63ab1e91462000a0257600080fd5b8063a82df14211620000ca578063a82df1421462000919578063d414daac146200093e578063d5391393146200096157600080fd5b80639d81f9e114620008df578063a217fddf146200090257600080fd5b8063835d9c58116200014557806385b38eed116200012857806385b38eed146200084b57806388fff293146200087057806391d14854146200089557600080fd5b8063835d9c58146200081b5780638456cb59146200083357600080fd5b80637989ad68116200017a5780637989ad6814620007935780637cfb3d7114620007de5780638129fc1c146200080357600080fd5b80636d3123eb146200074b5780636dbac5f8146200076e57600080fd5b80633659cfe6116200025f5780634f1ef286116200020d5780635c975abb11620001e45780635c975abb14620006e95780635ff53fc41462000703578063629bc155146200072657600080fd5b80634f1ef286146200066f5780634ffcfbe1146200068657806352d1902d14620006d157600080fd5b80633f4ba83a11620002425780633f4ba83a14620005f457806345576f94146200060c5780634a945f8d146200064a57600080fd5b80633659cfe614620005845780633afea58614620005a957600080fd5b80631bc9905111620002bd5780632f2ff15d11620002a05780632f2ff15d14620004ef5780633623ce90146200051457806336568abe146200055f57600080fd5b80631bc990511462000461578063248a9ca314620004ac57600080fd5b80630b317e7911620002f25780630b317e7914620003a45780631882140014620003cb57806319b4881a146200041657600080fd5b806301ffc9a7146200031057806307d725da146200034a575b600080fd5b3480156200031d57600080fd5b50620003356200032f3660046200311b565b62000ade565b60405190151581526020015b60405180910390f35b3480156200035757600080fd5b50620003956040518060400160405280601081526020017f4d61726b657420697320636c6f7365640000000000000000000000000000000081525081565b604051620003419190620031b3565b348015620003b157600080fd5b50620003c9620003c3366004620031de565b62000b78565b005b348015620003d857600080fd5b50620003956040518060400160405280601581526020017f4c696d696e616c2e6d61726b65742073796d626f6c000000000000000000000081525081565b3480156200042357600080fd5b50620003956040518060400160405280601a81526020017f596f7520646f6e2774206861766520656e6f756768206155534400000000000081525081565b3480156200046e57600080fd5b50620003956040518060400160405280601681526020017f53796d626f6c2063616e6e6f7420626520656d7074790000000000000000000081525081565b348015620004b957600080fd5b50620004e0620004cb36600462003238565b60009081526097602052604090206001015490565b60405190815260200162000341565b348015620004fc57600080fd5b50620003c96200050e36600462003252565b620010f9565b3480156200052157600080fd5b50620003956040518060400160405280601d81526020017f536563757269747920746f6b656e20616c72656164792065786973747300000081525081565b3480156200056c57600080fd5b50620003c96200057e36600462003252565b62001127565b3480156200059157600080fd5b50620003c9620005a336600462003285565b620011b7565b348015620005b657600080fd5b50620003956040518060400160405280601681526020017f416464726573732063616e6e6f74206265207a65726f0000000000000000000081525081565b3480156200060157600080fd5b50620003c96200135d565b3480156200061957600080fd5b50620006316200062b36600462003380565b62001393565b6040516001600160a01b03909116815260200162000341565b3480156200065757600080fd5b50620003c962000669366004620033c1565b62001590565b620003c9620006803660046200341b565b620015ff565b3480156200069357600080fd5b50620003956040518060400160405280601f81526020017f596f752063616e206f6e6c792073656e6420746f206155534420746f6b656e0081525081565b348015620006de57600080fd5b50620004e062001792565b348015620006f657600080fd5b5060335460ff1662000335565b3480156200071057600080fd5b5061012d5462000631906001600160a01b031681565b3480156200073357600080fd5b50620006316200074536600462003380565b62001859565b3480156200075857600080fd5b5061012e5462000631906001600160a01b031681565b3480156200077b57600080fd5b50620003c96200078d36600462003486565b6200188d565b348015620007a057600080fd5b50620003956040518060400160405280601f81526020017f54686973206973206e6f742076616c696420746f6b656e20616464726573730081525081565b348015620007eb57600080fd5b50620003c9620007fd36600462003285565b620018f0565b3480156200081057600080fd5b50620003c962001929565b3480156200082857600080fd5b506200039562001af6565b3480156200084057600080fd5b50620003c962001b13565b3480156200085857600080fd5b50620003c96200086a36600462003285565b62001b49565b3480156200087d57600080fd5b50620003c96200088f366004620034ef565b62001b82565b348015620008a257600080fd5b5062000335620008b436600462003252565b60009182526097602090815260408084206001600160a01b0393909316845291905290205460ff1690565b348015620008ec57600080fd5b5061012f5462000631906001600160a01b031681565b3480156200090f57600080fd5b50620004e0600081565b3480156200092657600080fd5b50620003c962000938366004620035b6565b62001ef7565b3480156200094b57600080fd5b506101315462000631906001600160a01b031681565b3480156200096e57600080fd5b50620004e07f9f2df0fed2c77648de5860a4cc508cd0818c85b8b8a1ab4ceeef8d981c8956a681565b348015620009a457600080fd5b50620003c9620009b636600462003252565b62002368565b348015620009c957600080fd5b5062000631620009db36600462003380565b8051602081830181018051610130825292820191909301209152546001600160a01b031681565b34801562000a0f57600080fd5b50620004e07f65d7a28e3265b37a6474929f336521b332c1681b933f6cb9f3376673440d862a81565b34801562000a4557600080fd5b50620003956040518060400160405280601e81526020017f4f6e6c79206155534420636f6e74726163742063616e2063616c6c206d65000081525081565b34801562000a9057600080fd5b50620004e07f189ab7a9244df0848122154315af71fe140f3db0fe014031783b0946b8c9d2e381565b34801562000ac657600080fd5b50620003c962000ad836600462003641565b62002391565b60007fffffffff0000000000000000000000000000000000000000000000000000000082167f7965db0b00000000000000000000000000000000000000000000000000000000148062000b7257507f01ffc9a7000000000000000000000000000000000000000000000000000000007fffffffff000000000000000000000000000000000000000000000000000000008316145b92915050565b62000b8262002410565b61012d546001600160a01b031633148062000ba557506001600160a01b03811615155b6040518060400160405280601e81526020017f4f6e6c79206155534420636f6e74726163742063616e2063616c6c206d6500008152509062000c055760405162461bcd60e51b815260040162000bfc9190620031b3565b60405180910390fd5b5061012f60009054906101000a90046001600160a01b03166001600160a01b031663d4ce85f36040518163ffffffff1660e01b8152600401602060405180830381865afa15801562000c5b573d6000803e3d6000fd5b505050506040513d601f19601f8201168201806040525081019062000c819190620036d3565b6040518060400160405280601081526020017f4d61726b657420697320636c6f736564000000000000000000000000000000008152509062000cd85760405162461bcd60e51b815260040162000bfc9190620031b3565b5061012d546040517f70a082310000000000000000000000000000000000000000000000000000000081526001600160a01b03868116600483015260009216906370a0823190602401602060405180830381865afa15801562000d3f573d6000803e3d6000fd5b505050506040513d601f19601f8201168201806040525081019062000d659190620036f7565b9050828110156040518060400160405280601a81526020017f596f7520646f6e2774206861766520656e6f75676820615553440000000000008152509062000dc25760405162461bcd60e51b815260040162000bfc9190620031b3565b5061012e546040517f8b1b925f0000000000000000000000000000000000000000000000000000000081526001600160a01b0387811660048301526000921690638b1b925f90602401600060405180830381865afa15801562000e29573d6000803e3d6000fd5b505050506040513d6000823e601f3d908101601f1916820160405262000e53919081019062003711565b90506000859050306001600160a01b0316816001600160a01b0316638da5cb5b6040518163ffffffff1660e01b8152600401602060405180830381865afa15801562000ea3573d6000803e3d6000fd5b505050506040513d601f19601f8201168201806040525081019062000ec9919062003788565b6001600160a01b0316146040518060400160405280601f81526020017f54686973206973206e6f742076616c696420746f6b656e2061646472657373008152509062000f2a5760405162461bcd60e51b815260040162000bfc9190620031b3565b506000816001600160a01b03166395d89b416040518163ffffffff1660e01b8152600401600060405180830381865afa15801562000f6c573d6000803e3d6000fd5b505050506040513d6000823e601f3d908101601f1916820160405262000f96919081019062003711565b90506001600160a01b03851662000fab573094505b610131546040517f167eaea40000000000000000000000000000000000000000000000000000000081526001600160a01b038a811660048301526024820189905287811660448301529091169063167eaea490606401600060405180830381600087803b1580156200101c57600080fd5b505af115801562001031573d6000803e3d6000fd5b505061012d546001600160a01b03169150635b452989905089620010568988620037be565b60016040518463ffffffff1660e01b81526004016200107893929190620037d4565b600060405180830381600087803b1580156200109357600080fd5b505af1158015620010a8573d6000803e3d6000fd5b505050507f7e5d12bbde79004142810629c5e42ea48221200745f25bf60cfcc2e5d0f2db7d888785848b8a604051620010e79695949392919062003818565b60405180910390a15050505050505050565b600082815260976020526040902060010154620011168162002467565b62001122838362002473565b505050565b6001600160a01b0381163314620011a75760405162461bcd60e51b815260206004820152602f60248201527f416363657373436f6e74726f6c3a2063616e206f6e6c792072656e6f756e636560448201527f20726f6c657320666f722073656c660000000000000000000000000000000000606482015260840162000bfc565b620011b3828262002517565b5050565b6001600160a01b037f0000000000000000000000000000000000000000000000000000000000000000163003620012575760405162461bcd60e51b815260206004820152602c60248201527f46756e6374696f6e206d7573742062652063616c6c6564207468726f7567682060448201527f64656c656761746563616c6c0000000000000000000000000000000000000000606482015260840162000bfc565b7f00000000000000000000000000000000000000000000000000000000000000006001600160a01b0316620012b37f360894a13ba1a3210667c828492db98dca3e2076cc3735a920a3ca505d382bbc546001600160a01b031690565b6001600160a01b031614620013315760405162461bcd60e51b815260206004820152602c60248201527f46756e6374696f6e206d7573742062652063616c6c6564207468726f7567682060448201527f6163746976652070726f78790000000000000000000000000000000000000000606482015260840162000bfc565b6200133c816200259b565b604080516000808252602082019092526200135a918391906200274c565b50565b7f65d7a28e3265b37a6474929f336521b332c1681b933f6cb9f3376673440d862a620013898162002467565b6200135a620028f8565b60006200139f62002410565b815160408051808201909152601681527f53796d626f6c2063616e6e6f7420626520656d70747900000000000000000000602082015290620013f65760405162461bcd60e51b815260040162000bfc9190620031b3565b5060006001600160a01b03166101308360405162001415919062003873565b90815260408051918290036020908101832054838301909252601d83527f536563757269747920746f6b656e20616c7265616479206578697374730000009083015290916001600160a01b0390911614620014855760405162461bcd60e51b815260040162000bfc9190620031b3565b5060006040518060400160405280601581526020017f4c696d696e616c2e6d61726b65742073796d626f6c000000000000000000000081525083604051620014cd906200310d565b620014da92919062003891565b604051809103906000f080158015620014f7573d6000803e3d6000fd5b5090506000819050806101308560405162001513919062003873565b90815260405190819003602001812080546001600160a01b039390931673ffffffffffffffffffffffffffffffffffffffff19909316929092179091557f7c56d5eff73d004b4d80f35d05a7e9a2429df1bb9544be59c859d049e2f449fb90620015819083908790620038ba565b60405180910390a15092915050565b60006200159d8162002467565b5061012d80546001600160a01b0395861673ffffffffffffffffffffffffffffffffffffffff199182161790915561012e80549486169482169490941790935561012f8054928516928416929092179091556101318054919093169116179055565b6001600160a01b037f00000000000000000000000000000000000000000000000000000000000000001630036200169f5760405162461bcd60e51b815260206004820152602c60248201527f46756e6374696f6e206d7573742062652063616c6c6564207468726f7567682060448201527f64656c656761746563616c6c0000000000000000000000000000000000000000606482015260840162000bfc565b7f00000000000000000000000000000000000000000000000000000000000000006001600160a01b0316620016fb7f360894a13ba1a3210667c828492db98dca3e2076cc3735a920a3ca505d382bbc546001600160a01b031690565b6001600160a01b031614620017795760405162461bcd60e51b815260206004820152602c60248201527f46756e6374696f6e206d7573742062652063616c6c6564207468726f7567682060448201527f6163746976652070726f78790000000000000000000000000000000000000000606482015260840162000bfc565b62001784826200259b565b620011b3828260016200274c565b6000306001600160a01b037f00000000000000000000000000000000000000000000000000000000000000001614620018345760405162461bcd60e51b815260206004820152603860248201527f555550535570677261646561626c653a206d757374206e6f742062652063616c60448201527f6c6564207468726f7567682064656c656761746563616c6c0000000000000000606482015260840162000bfc565b507f360894a13ba1a3210667c828492db98dca3e2076cc3735a920a3ca505d382bbc90565b6000610130826040516200186e919062003873565b908152604051908190036020019020546001600160a01b031692915050565b6200189762002410565b600061013084604051620018ac919062003873565b908152604051908190036020019020546001600160a01b0316905080620018db57620018d88462001393565b90505b620018e98582858562000b78565b5050505050565b6000620018fd8162002467565b620011b37f9f2df0fed2c77648de5860a4cc508cd0818c85b8b8a1ab4ceeef8d981c8956a683620010f9565b600054610100900460ff16158080156200194a5750600054600160ff909116105b80620019665750303b15801562001966575060005460ff166001145b620019da5760405162461bcd60e51b815260206004820152602e60248201527f496e697469616c697a61626c653a20636f6e747261637420697320616c72656160448201527f647920696e697469616c697a6564000000000000000000000000000000000000606482015260840162000bfc565b6000805460ff191660011790558015620019fe576000805461ff0019166101001790555b62001a086200294c565b62001a12620029d5565b62001a1c620029d5565b62001a2960003362002473565b62001a557f65d7a28e3265b37a6474929f336521b332c1681b933f6cb9f3376673440d862a3362002473565b62001a817f9f2df0fed2c77648de5860a4cc508cd0818c85b8b8a1ab4ceeef8d981c8956a63362002473565b62001aad7f189ab7a9244df0848122154315af71fe140f3db0fe014031783b0946b8c9d2e33362002473565b80156200135a576000805461ff0019169055604051600181527f7f26b83ff96e1f2b6a682f133852f6798a09c465da95921460cefb38474024989060200160405180910390a150565b60405180606001604052806026815260200162004c9c6026913981565b7f65d7a28e3265b37a6474929f336521b332c1681b933f6cb9f3376673440d862a62001b3f8162002467565b6200135a62002a54565b600062001b568162002467565b620011b37f9f2df0fed2c77648de5860a4cc508cd0818c85b8b8a1ab4ceeef8d981c8956a68362002368565b62001b8c62002410565b7f9f2df0fed2c77648de5860a4cc508cd0818c85b8b8a1ab4ceeef8d981c8956a662001bb88162002467565b60408051808201909152601681527f416464726573732063616e6e6f74206265207a65726f0000000000000000000060208201526001600160a01b038b1662001c165760405162461bcd60e51b815260040162000bfc9190620031b3565b506000806101308b60405162001c2d919062003873565b908152604051908190036020019020546001600160a01b031690508062001cda576040517f45576f9400000000000000000000000000000000000000000000000000000000815230906345576f949062001c8c908e90600401620031b3565b6020604051808303816000875af115801562001cac573d6000803e3d6000fd5b505050506040513d601f19601f8201168201806040525081019062001cd2919062003788565b915062001cde565b8091505b6040517f5b4529890000000000000000000000000000000000000000000000000000000081526001600160a01b03831690635b4529899062001d2a908f908e90600390600401620037d4565b600060405180830381600087803b15801562001d4557600080fd5b505af115801562001d5a573d6000803e3d6000fd5b505061012d546040517f5b4529890000000000000000000000000000000000000000000000000000000081526001600160a01b039091169250635b452989915062001daf908f908990600390600401620037d4565b600060405180830381600087803b15801562001dca57600080fd5b505af115801562001ddf573d6000803e3d6000fd5b505061013154600092506001600160a01b03169050637b2841ae8e62001e068d8d62002a94565b6040517fffffffff0000000000000000000000000000000000000000000000000000000060e085901b1681526001600160a01b039283166004820152602481019190915290881660448201526064016020604051808303816000875af115801562001e75573d6000803e3d6000fd5b505050506040513d601f19601f8201168201806040525081019062001e9b9190620036f7565b90507f63d96cc2b8bb5bdb5a21698ccf602b5d04799801cbaface9d322d180a38c55b48d8d8d8d8d8d8d888e8e60405162001ee09a99989796959493929190620038de565b60405180910390a150505050505050505050505050565b62001f0162002410565b61012d5460408051808201909152601f81527f596f752063616e206f6e6c792073656e6420746f206155534420746f6b656e006020820152906001600160a01b0386811691161462001f685760405162461bcd60e51b815260040162000bfc9190620031b3565b5061012f60009054906101000a90046001600160a01b03166001600160a01b031663d4ce85f36040518163ffffffff1660e01b8152600401602060405180830381865afa15801562001fbe573d6000803e3d6000fd5b505050506040513d601f19601f8201168201806040525081019062001fe49190620036d3565b6040518060400160405280601081526020017f4d61726b657420697320636c6f73656400000000000000000000000000000000815250906200203b5760405162461bcd60e51b815260040162000bfc9190620031b3565b5033620020488462001859565b6001600160a01b031614806200206657506001600160a01b03811615155b6040518060400160405280601f81526020017f54686973206973206e6f742076616c696420746f6b656e20616464726573730081525090620020bd5760405162461bcd60e51b815260040162000bfc9190620031b3565b5061012e546040517f8b1b925f0000000000000000000000000000000000000000000000000000000081526001600160a01b0387811660048301526000921690638b1b925f90602401600060405180830381865afa15801562002124573d6000803e3d6000fd5b505050506040513d6000823e601f3d908101601f191682016040526200214e919081019062003711565b6040517f70a082310000000000000000000000000000000000000000000000000000000081526001600160a01b0388166004820152909150339060009082906370a0823190602401602060405180830381865afa158015620021b4573d6000803e3d6000fd5b505050506040513d601f19601f82011682018060405250810190620021da9190620036f7565b90508481101560405180606001604052806026815260200162004c9c60269139906200221b5760405162461bcd60e51b815260040162000bfc9190620031b3565b506001600160a01b0384166200222f573093505b610131546040517f167eaea40000000000000000000000000000000000000000000000000000000081526001600160a01b038a811660048301526000602483015286811660448301529091169063167eaea490606401600060405180830381600087803b158015620022a057600080fd5b505af1158015620022b5573d6000803e3d6000fd5b50505050816001600160a01b0316635b452989898784620022d79190620037be565b60026040518463ffffffff1660e01b8152600401620022f993929190620037d4565b600060405180830381600087803b1580156200231457600080fd5b505af115801562002329573d6000803e3d6000fd5b505050507f4341e54645ad9755ed9779b519412751d6965340ce2953951d20ebbfcbdf340b838989898989604051620010e7969594939291906200395b565b600082815260976020526040902060010154620023858162002467565b62001122838362002517565b6200239b62002410565b7f9f2df0fed2c77648de5860a4cc508cd0818c85b8b8a1ab4ceeef8d981c8956a6620023c78162002467565b7fb119d18d6fd69df5ab079683b30b759ed526ca02797650de9c42f2e33c6a57e6868686868660405162002400959493929190620039b9565b60405180910390a1505050505050565b60335460ff1615620024655760405162461bcd60e51b815260206004820152601060248201527f5061757361626c653a2070617573656400000000000000000000000000000000604482015260640162000bfc565b565b6200135a813362002abe565b60008281526097602090815260408083206001600160a01b038516845290915290205460ff16620011b35760008281526097602090815260408083206001600160a01b03851684529091529020805460ff19166001179055620024d33390565b6001600160a01b0316816001600160a01b0316837f2f8788117e7eff1d82e926ec794901d17c78024a50270940304540a733656f0d60405160405180910390a45050565b60008281526097602090815260408083206001600160a01b038516845290915290205460ff1615620011b35760008281526097602090815260408083206001600160a01b0385168085529252808320805460ff1916905551339285917ff6391f5c32d9c69d2a47ea670b442974b53935d1edc7fd64eb21e047a839171b9190a45050565b7f189ab7a9244df0848122154315af71fe140f3db0fe014031783b0946b8c9d2e3620025c78162002467565b6001600160a01b037f0000000000000000000000000000000000000000000000000000000000000000163003620026675760405162461bcd60e51b815260206004820152602c60248201527f46756e6374696f6e206d7573742062652063616c6c6564207468726f7567682060448201527f64656c656761746563616c6c0000000000000000000000000000000000000000606482015260840162000bfc565b7f00000000000000000000000000000000000000000000000000000000000000006001600160a01b0316620026c37f360894a13ba1a3210667c828492db98dca3e2076cc3735a920a3ca505d382bbc546001600160a01b031690565b6001600160a01b031614620027415760405162461bcd60e51b815260206004820152602c60248201527f46756e6374696f6e206d7573742062652063616c6c6564207468726f7567682060448201527f6163746976652070726f78790000000000000000000000000000000000000000606482015260840162000bfc565b620011b38262002b3c565b7f4910fdfa16fed3260ed0e7147f7cc6da11a60208b5b9406d12a635614ffd91435460ff16156200278257620011228362002b7e565b826001600160a01b03166352d1902d6040518163ffffffff1660e01b8152600401602060405180830381865afa925050508015620027df575060408051601f3d908101601f19168201909252620027dc91810190620036f7565b60015b620028535760405162461bcd60e51b815260206004820152602e60248201527f45524331393637557067726164653a206e657720696d706c656d656e7461746960448201527f6f6e206973206e6f742055555053000000000000000000000000000000000000606482015260840162000bfc565b7f360894a13ba1a3210667c828492db98dca3e2076cc3735a920a3ca505d382bbc8114620028ea5760405162461bcd60e51b815260206004820152602960248201527f45524331393637557067726164653a20756e737570706f727465642070726f7860448201527f6961626c65555549440000000000000000000000000000000000000000000000606482015260840162000bfc565b506200112283838362002c4b565b6200290262002c7c565b6033805460ff191690557f5db9ee0a495bf2e6ff9c91a7834c1ba4fdd244a5e8aa4e537bd38aeae4b073aa335b6040516001600160a01b03909116815260200160405180910390a1565b600054610100900460ff16620029cb5760405162461bcd60e51b815260206004820152602b60248201527f496e697469616c697a61626c653a20636f6e7472616374206973206e6f74206960448201527f6e697469616c697a696e67000000000000000000000000000000000000000000606482015260840162000bfc565b6200246562002cd0565b600054610100900460ff16620024655760405162461bcd60e51b815260206004820152602b60248201527f496e697469616c697a61626c653a20636f6e7472616374206973206e6f74206960448201527f6e697469616c697a696e67000000000000000000000000000000000000000000606482015260840162000bfc565b62002a5e62002410565b6033805460ff191660011790557f62e78cea01bee320cd4e420270b5ea74000d11b0c9f74754ebdbfc544b05a2586200292f3390565b6000670de0b6b3a764000062002aab838562003a0e565b62002ab7919062003a30565b9392505050565b60008281526097602090815260408083206001600160a01b038516845290915290205460ff16620011b35762002af48162002d5b565b62002b0183602062002d6e565b60405160200162002b1492919062003a53565b60408051601f198184030181529082905262461bcd60e51b825262000bfc91600401620031b3565b62002b478162002b7e565b6040516001600160a01b038216907fbc7cd75a20ee27fd9adebab32041f755214dbc6bffa90cc0225b39da2e5c2d3b90600090a250565b6001600160a01b0381163b62002bfd5760405162461bcd60e51b815260206004820152602d60248201527f455243313936373a206e657720696d706c656d656e746174696f6e206973206e60448201527f6f74206120636f6e747261637400000000000000000000000000000000000000606482015260840162000bfc565b7f360894a13ba1a3210667c828492db98dca3e2076cc3735a920a3ca505d382bbc805473ffffffffffffffffffffffffffffffffffffffff19166001600160a01b0392909216919091179055565b62002c568362002b3c565b60008251118062002c645750805b15620011225762002c76838362002fb5565b50505050565b60335460ff16620024655760405162461bcd60e51b815260206004820152601460248201527f5061757361626c653a206e6f7420706175736564000000000000000000000000604482015260640162000bfc565b600054610100900460ff1662002d4f5760405162461bcd60e51b815260206004820152602b60248201527f496e697469616c697a61626c653a20636f6e7472616374206973206e6f74206960448201527f6e697469616c697a696e67000000000000000000000000000000000000000000606482015260840162000bfc565b6033805460ff19169055565b606062000b726001600160a01b03831660145b6060600062002d7f83600262003a0e565b62002d8c90600262003ad8565b67ffffffffffffffff81111562002da75762002da7620032a5565b6040519080825280601f01601f19166020018201604052801562002dd2576020820181803683370190505b5090507f30000000000000000000000000000000000000000000000000000000000000008160008151811062002e0c5762002e0c62003aee565b60200101907effffffffffffffffffffffffffffffffffffffffffffffffffffffffffffff1916908160001a9053507f78000000000000000000000000000000000000000000000000000000000000008160018151811062002e725762002e7262003aee565b60200101907effffffffffffffffffffffffffffffffffffffffffffffffffffffffffffff1916908160001a905350600062002eb084600262003a0e565b62002ebd90600162003ad8565b90505b600181111562002f64577f303132333435363738396162636465660000000000000000000000000000000085600f166010811062002f025762002f0262003aee565b1a60f81b82828151811062002f1b5762002f1b62003aee565b60200101907effffffffffffffffffffffffffffffffffffffffffffffffffffffffffffff1916908160001a90535060049490941c9362002f5c8162003b04565b905062002ec0565b50831562002ab75760405162461bcd60e51b815260206004820181905260248201527f537472696e67733a20686578206c656e67746820696e73756666696369656e74604482015260640162000bfc565b60606001600160a01b0383163b620030365760405162461bcd60e51b815260206004820152602660248201527f416464726573733a2064656c65676174652063616c6c20746f206e6f6e2d636f60448201527f6e74726163740000000000000000000000000000000000000000000000000000606482015260840162000bfc565b600080846001600160a01b03168460405162003053919062003873565b600060405180830381855af49150503d806000811462003090576040519150601f19603f3d011682016040523d82523d6000602084013e62003095565b606091505b5091509150620030c0828260405180606001604052806027815260200162004cc260279139620030c9565b95945050505050565b60608315620030da57508162002ab7565b62002ab78383815115620030f15781518083602001fd5b8060405162461bcd60e51b815260040162000bfc9190620031b3565b61117d8062003b1f83390190565b6000602082840312156200312e57600080fd5b81357fffffffff000000000000000000000000000000000000000000000000000000008116811462002ab757600080fd5b60005b838110156200317c57818101518382015260200162003162565b50506000910152565b600081518084526200319f8160208601602086016200315f565b601f01601f19169290920160200192915050565b60208152600062002ab7602083018462003185565b6001600160a01b03811681146200135a57600080fd5b60008060008060808587031215620031f557600080fd5b84356200320281620031c8565b935060208501356200321481620031c8565b92506040850135915060608501356200322d81620031c8565b939692955090935050565b6000602082840312156200324b57600080fd5b5035919050565b600080604083850312156200326657600080fd5b8235915060208301356200327a81620031c8565b809150509250929050565b6000602082840312156200329857600080fd5b813562002ab781620031c8565b634e487b7160e01b600052604160045260246000fd5b604051601f8201601f1916810167ffffffffffffffff81118282101715620032e757620032e7620032a5565b604052919050565b600067ffffffffffffffff8211156200330c576200330c620032a5565b50601f01601f191660200190565b6000620033316200332b84620032ef565b620032bb565b90508281528383830111156200334657600080fd5b828260208301376000602084830101529392505050565b600082601f8301126200336f57600080fd5b62002ab7838335602085016200331a565b6000602082840312156200339357600080fd5b813567ffffffffffffffff811115620033ab57600080fd5b620033b9848285016200335d565b949350505050565b60008060008060808587031215620033d857600080fd5b8435620033e581620031c8565b93506020850135620033f781620031c8565b925060408501356200340981620031c8565b915060608501356200322d81620031c8565b600080604083850312156200342f57600080fd5b82356200343c81620031c8565b9150602083013567ffffffffffffffff8111156200345957600080fd5b8301601f810185136200346b57600080fd5b6200347c858235602084016200331a565b9150509250929050565b600080600080608085870312156200349d57600080fd5b8435620034aa81620031c8565b9350602085013567ffffffffffffffff811115620034c757600080fd5b620034d5878288016200335d565b9350506040850135915060608501356200322d81620031c8565b60008060008060008060008060006101208a8c0312156200350f57600080fd5b89356200351c81620031c8565b985060208a013567ffffffffffffffff808211156200353a57600080fd5b620035488d838e016200335d565b995060408c0135985060608c0135975060808c0135965060a08c01359150808211156200357457600080fd5b50620035838c828d016200335d565b94505060c08a0135925060e08a013591506101008a0135620035a581620031c8565b809150509295985092959850929598565b600080600080600060a08688031215620035cf57600080fd5b8535620035dc81620031c8565b94506020860135620035ee81620031c8565b9350604086013567ffffffffffffffff8111156200360b57600080fd5b62003619888289016200335d565b9350506060860135915060808601356200363381620031c8565b809150509295509295909350565b600080600080600060a086880312156200365a57600080fd5b85356200366781620031c8565b9450602086013567ffffffffffffffff808211156200368557600080fd5b6200369389838a016200335d565b9550604088013594506060880135915080821115620036b157600080fd5b50620036c0888289016200335d565b92505060808601356200363381620031c8565b600060208284031215620036e657600080fd5b8151801515811462002ab757600080fd5b6000602082840312156200370a57600080fd5b5051919050565b6000602082840312156200372457600080fd5b815167ffffffffffffffff8111156200373c57600080fd5b8201601f810184136200374e57600080fd5b80516200375f6200332b82620032ef565b8181528560208385010111156200377557600080fd5b620030c08260208301602086016200315f565b6000602082840312156200379b57600080fd5b815162002ab781620031c8565b634e487b7160e01b600052601160045260246000fd5b8181038181111562000b725762000b72620037a8565b6001600160a01b03841681526020810183905260608101600783106200380a57634e487b7160e01b600052602160045260246000fd5b826040830152949350505050565b60006001600160a01b03808916835287602084015260c060408401526200384360c084018862003185565b838103606085015262003857818862003185565b9582166080850152509290921660a09091015250949350505050565b60008251620038878184602087016200315f565b9190910192915050565b604081526000620038a6604083018562003185565b8281036020840152620030c0818562003185565b6001600160a01b0383168152604060208201526000620033b9604083018462003185565b60006101406001600160a01b03808e168452816020850152620039048285018e62003185565b91508b60408501528a606085015289608085015283820360a08501526200392c828a62003185565b92508760c08501528660e08501528561010085015280851661012085015250509b9a5050505050505050505050565b60c0815260006200397060c083018962003185565b6001600160a01b038089166020850152808816604085015283820360608501526200399c828862003185565b925085608085015280851660a08501525050979650505050505050565b60006001600160a01b03808816835260a06020840152620039de60a084018862003185565b8660408501528381036060850152620039f8818762003185565b9250508084166080840152509695505050505050565b600081600019048311821515161562003a2b5762003a2b620037a8565b500290565b60008262003a4e57634e487b7160e01b600052601260045260246000fd5b500490565b7f416363657373436f6e74726f6c3a206163636f756e742000000000000000000081526000835162003a8d8160178501602088016200315f565b7f206973206d697373696e6720726f6c6520000000000000000000000000000000601791840191820152835162003acc8160288401602088016200315f565b01602801949350505050565b8082018082111562000b725762000b72620037a8565b634e487b7160e01b600052603260045260246000fd5b60008162003b165762003b16620037a8565b50600019019056fe60806040523480156200001157600080fd5b506040516200117d3803806200117d833981016040819052620000349162000191565b818162000041336200007c565b60046200004f83826200028a565b5060056200005e82826200028a565b5050600680546001600160a01b031916331790555062000356915050565b600080546001600160a01b038381166001600160a01b0319831681178455604051919092169283917f8be0079c531659141344cd1fd0a4f28419497f9722a3daafe3b4186f6b6457e09190a35050565b634e487b7160e01b600052604160045260246000fd5b600082601f830112620000f457600080fd5b81516001600160401b0380821115620001115762000111620000cc565b604051601f8301601f19908116603f011681019082821181831017156200013c576200013c620000cc565b816040528381526020925086838588010111156200015957600080fd5b600091505b838210156200017d57858201830151818301840152908201906200015e565b600093810190920192909252949350505050565b60008060408385031215620001a557600080fd5b82516001600160401b0380821115620001bd57600080fd5b620001cb86838701620000e2565b93506020850151915080821115620001e257600080fd5b50620001f185828601620000e2565b9150509250929050565b600181811c908216806200021057607f821691505b6020821081036200023157634e487b7160e01b600052602260045260246000fd5b50919050565b601f8211156200028557600081815260208120601f850160051c81016020861015620002605750805b601f850160051c820191505b8181101562000281578281556001016200026c565b5050505b505050565b81516001600160401b03811115620002a657620002a6620000cc565b620002be81620002b78454620001fb565b8462000237565b602080601f831160018114620002f65760008415620002dd5750858301515b600019600386901b1c1916600185901b17855562000281565b600085815260208120601f198616915b82811015620003275788860151825594840194600190910190840162000306565b5085821015620003465787850151600019600388901b60f8161c191681555b5050505050600190811b01905550565b610e1780620003666000396000f3fe608060405234801561001057600080fd5b50600436106100f55760003560e01c806370a0823111610097578063a457c2d711610066578063a457c2d7146101eb578063a9059cbb146101fe578063dd62ed3e14610211578063f2fde38b1461024a57600080fd5b806370a0823114610197578063715018a6146101c05780638da5cb5b146101c857806395d89b41146101e357600080fd5b806323b872dd116100d357806323b872dd1461014d578063313ce56714610160578063395093511461016f5780635b4529891461018257600080fd5b806306fdde03146100fa578063095ea7b31461011857806318160ddd1461013b575b600080fd5b61010261025d565b60405161010f9190610bb5565b60405180910390f35b61012b610126366004610beb565b6102ef565b604051901515815260200161010f565b6003545b60405190815260200161010f565b61012b61015b366004610c15565b610309565b6040516012815260200161010f565b61012b61017d366004610beb565b610391565b610195610190366004610c51565b6103d0565b005b61013f6101a5366004610c95565b6001600160a01b031660009081526001602052604090205490565b610195610472565b6000546040516001600160a01b03909116815260200161010f565b610102610486565b61012b6101f9366004610beb565b610495565b61012b61020c366004610beb565b61054f565b61013f61021f366004610cb0565b6001600160a01b03918216600090815260026020908152604080832093909416825291909152205490565b610195610258366004610c95565b6105cb565b60606004805461026c90610ce3565b80601f016020809104026020016040519081016040528092919081815260200182805461029890610ce3565b80156102e55780601f106102ba576101008083540402835291602001916102e5565b820191906000526020600020905b8154815290600101906020018083116102c857829003601f168201915b5050505050905090565b6000336102fd81858561065b565b60019150505b92915050565b6000336103178582856107b3565b6006546001600160a01b031663a82df1428686610332610486565b87866040518663ffffffff1660e01b8152600401610354959493929190610d1d565b600060405180830381600087803b15801561036e57600080fd5b505af1158015610382573d6000803e3d6000fd5b50600198975050505050505050565b3360008181526002602090815260408083206001600160a01b03871684529091528120549091906102fd90829086906103cb908790610d78565b61065b565b6103d8610863565b6001600160a01b0383166000908152600160205260409020548083036103fe5750505050565b8083111561041e57610419846104148386610d8b565b6108bd565b610431565b6104318461042c8584610d8b565b61097e565b7f30244e15ecc10155724345921df69c73800ac2dc40cdb5cb1798bc19dff3edc284848460405161046493929190610d9e565b60405180910390a150505050565b61047a610863565b6104846000610ae9565b565b60606005805461026c90610ce3565b3360008181526002602090815260408083206001600160a01b0387168452909152812054909190838110156105375760405162461bcd60e51b815260206004820152602560248201527f45524332303a2064656372656173656420616c6c6f77616e63652062656c6f7760448201527f207a65726f00000000000000000000000000000000000000000000000000000060648201526084015b60405180910390fd5b610544828686840361065b565b506001949350505050565b6006546000906001600160a01b031663a82df142338561056d610486565b8660006040518663ffffffff1660e01b8152600401610590959493929190610d1d565b600060405180830381600087803b1580156105aa57600080fd5b505af11580156105be573d6000803e3d6000fd5b5060019695505050505050565b6105d3610863565b6001600160a01b03811661064f5760405162461bcd60e51b815260206004820152602660248201527f4f776e61626c653a206e6577206f776e657220697320746865207a65726f206160448201527f6464726573730000000000000000000000000000000000000000000000000000606482015260840161052e565b61065881610ae9565b50565b6001600160a01b0383166106d65760405162461bcd60e51b8152602060048201526024808201527f45524332303a20617070726f76652066726f6d20746865207a65726f2061646460448201527f7265737300000000000000000000000000000000000000000000000000000000606482015260840161052e565b6001600160a01b0382166107525760405162461bcd60e51b815260206004820152602260248201527f45524332303a20617070726f766520746f20746865207a65726f20616464726560448201527f7373000000000000000000000000000000000000000000000000000000000000606482015260840161052e565b6001600160a01b0383811660008181526002602090815260408083209487168084529482529182902085905590518481527f8c5be1e5ebec7d5bd14f71427d1e84f3dd0314c0f7b2291e5b200ac8c7c3b925910160405180910390a3505050565b6001600160a01b038381166000908152600260209081526040808320938616835292905220547fffffffffffffffffffffffffffffffffffffffffffffffffffffffffffffffff811461085d57818110156108505760405162461bcd60e51b815260206004820152601d60248201527f45524332303a20696e73756666696369656e7420616c6c6f77616e6365000000604482015260640161052e565b61085d848484840361065b565b50505050565b6000546001600160a01b031633146104845760405162461bcd60e51b815260206004820181905260248201527f4f776e61626c653a2063616c6c6572206973206e6f7420746865206f776e6572604482015260640161052e565b6001600160a01b0382166109135760405162461bcd60e51b815260206004820152601f60248201527f45524332303a206d696e7420746f20746865207a65726f206164647265737300604482015260640161052e565b80600360008282546109259190610d78565b90915550506001600160a01b0382166000818152600160209081526040808320805486019055518481527fddf252ad1be2c89b69c2b068fc378daa952ba7f163c4a11628f55a4df523b3ef910160405180910390a35050565b6001600160a01b0382166109fa5760405162461bcd60e51b815260206004820152602160248201527f45524332303a206275726e2066726f6d20746865207a65726f2061646472657360448201527f7300000000000000000000000000000000000000000000000000000000000000606482015260840161052e565b6001600160a01b03821660009081526001602052604090205481811015610a895760405162461bcd60e51b815260206004820152602260248201527f45524332303a206275726e20616d6f756e7420657863656564732062616c616e60448201527f6365000000000000000000000000000000000000000000000000000000000000606482015260840161052e565b6001600160a01b03831660008181526001602090815260408083208686039055600380548790039055518581529192917fddf252ad1be2c89b69c2b068fc378daa952ba7f163c4a11628f55a4df523b3ef910160405180910390a3505050565b600080546001600160a01b038381167fffffffffffffffffffffffff0000000000000000000000000000000000000000831681178455604051919092169283917f8be0079c531659141344cd1fd0a4f28419497f9722a3daafe3b4186f6b6457e09190a35050565b6000815180845260005b81811015610b7757602081850181015186830182015201610b5b565b5060006020828601015260207fffffffffffffffffffffffffffffffffffffffffffffffffffffffffffffffe0601f83011685010191505092915050565b602081526000610bc86020830184610b51565b9392505050565b80356001600160a01b0381168114610be657600080fd5b919050565b60008060408385031215610bfe57600080fd5b610c0783610bcf565b946020939093013593505050565b600080600060608486031215610c2a57600080fd5b610c3384610bcf565b9250610c4160208501610bcf565b9150604084013590509250925092565b600080600060608486031215610c6657600080fd5b610c6f84610bcf565b925060208401359150604084013560078110610c8a57600080fd5b809150509250925092565b600060208284031215610ca757600080fd5b610bc882610bcf565b60008060408385031215610cc357600080fd5b610ccc83610bcf565b9150610cda60208401610bcf565b90509250929050565b600181811c90821680610cf757607f821691505b602082108103610d1757634e487b7160e01b600052602260045260246000fd5b50919050565b60006001600160a01b038088168352808716602084015260a06040840152610d4860a0840187610b51565b606084019590955292909216608090910152509392505050565b634e487b7160e01b600052601160045260246000fd5b8082018082111561030357610303610d62565b8181038181111561030357610303610d62565b6001600160a01b0384168152602081018390526060810160078310610dd357634e487b7160e01b600052602160045260246000fd5b82604083015294935050505056fea264697066735822122022ebe0e19f22a48bdb2d5b0e281aeb342a1cfb917d4330e885496eb2b5633e8e64736f6c634300081000335175616e746974792063616e6e6f74206265206c6172676572207468656e2062616c616e6365416464726573733a206c6f772d6c6576656c2064656c65676174652063616c6c206661696c6564a2646970667358221220afe0315728a351dec0987de73896c0a3820d715c3c68918407b3fc63431bf65964736f6c63430008100033",
  "linkReferences": {},
  "deployedLinkReferences": {}
}