{
  "_format": "hh-sol-artifact-1",
  "contractName": "LiminalMarket",
  "sourceName": "contracts/LiminalMarket.sol",
  "abi": [
    {
      "inputs": [],
      "stateMutability": "nonpayable",
      "type": "constructor"
    },
    {
      "anonymous": false,
      "inputs": [
        {
          "indexed": false,
          "internalType": "address",
          "name": "previousAdmin",
          "type": "address"
        },
        {
          "indexed": false,
          "internalType": "address",
          "name": "newAdmin",
          "type": "address"
        }
      ],
      "name": "AdminChanged",
      "type": "event"
    },
    {
      "anonymous": false,
      "inputs": [
        {
          "indexed": true,
          "internalType": "address",
          "name": "beacon",
          "type": "address"
        }
      ],
      "name": "BeaconUpgraded",
      "type": "event"
    },
    {
      "anonymous": false,
      "inputs": [
        {
          "indexed": false,
          "internalType": "address",
          "name": "walletAddress",
          "type": "address"
        },
        {
          "indexed": false,
          "internalType": "uint256",
          "name": "amount",
          "type": "uint256"
        },
        {
          "indexed": false,
          "internalType": "string",
          "name": "accountId",
          "type": "string"
        },
        {
          "indexed": false,
          "internalType": "string",
          "name": "symbol",
          "type": "string"
        },
        {
          "indexed": false,
          "internalType": "address",
          "name": "tokenAddress",
          "type": "address"
        },
        {
          "indexed": false,
          "internalType": "address",
          "name": "spender",
          "type": "address"
        }
      ],
      "name": "BuyWithAUsd",
      "type": "event"
    },
    {
      "anonymous": false,
      "inputs": [
        {
          "indexed": false,
          "internalType": "uint8",
          "name": "version",
          "type": "uint8"
        }
      ],
      "name": "Initialized",
      "type": "event"
    },
    {
      "anonymous": false,
      "inputs": [
        {
          "indexed": false,
          "internalType": "address",
          "name": "recipient",
          "type": "address"
        },
        {
          "indexed": false,
          "internalType": "string",
          "name": "symbol",
          "type": "string"
        },
        {
          "indexed": false,
          "internalType": "uint256",
          "name": "tsl",
          "type": "uint256"
        },
        {
          "indexed": false,
          "internalType": "uint256",
          "name": "filledQty",
          "type": "uint256"
        },
        {
          "indexed": false,
          "internalType": "uint256",
          "name": "filledAvgPrice",
          "type": "uint256"
        },
        {
          "indexed": false,
          "internalType": "string",
          "name": "side",
          "type": "string"
        },
        {
          "indexed": false,
          "internalType": "uint256",
          "name": "filledAt",
          "type": "uint256"
        },
        {
          "indexed": false,
          "internalType": "uint256",
          "name": "commission",
          "type": "uint256"
        },
        {
          "indexed": false,
          "internalType": "uint256",
          "name": "aUsdBalance",
          "type": "uint256"
        },
        {
          "indexed": false,
          "internalType": "address",
          "name": "spender",
          "type": "address"
        }
      ],
      "name": "OrderExecuted",
      "type": "event"
    },
    {
      "anonymous": false,
      "inputs": [
        {
          "indexed": false,
          "internalType": "address",
          "name": "recipient",
          "type": "address"
        },
        {
          "indexed": false,
          "internalType": "string",
          "name": "symbol",
          "type": "string"
        },
        {
          "indexed": false,
          "internalType": "uint256",
          "name": "buyingPower",
          "type": "uint256"
        },
        {
          "indexed": false,
          "internalType": "string",
          "name": "message",
          "type": "string"
        },
        {
          "indexed": false,
          "internalType": "address",
          "name": "spender",
          "type": "address"
        }
      ],
      "name": "OrderFailed",
      "type": "event"
    },
    {
      "anonymous": false,
      "inputs": [
        {
          "indexed": false,
          "internalType": "address",
          "name": "account",
          "type": "address"
        }
      ],
      "name": "Paused",
      "type": "event"
    },
    {
      "anonymous": false,
      "inputs": [
        {
          "indexed": true,
          "internalType": "bytes32",
          "name": "role",
          "type": "bytes32"
        },
        {
          "indexed": true,
          "internalType": "bytes32",
          "name": "previousAdminRole",
          "type": "bytes32"
        },
        {
          "indexed": true,
          "internalType": "bytes32",
          "name": "newAdminRole",
          "type": "bytes32"
        }
      ],
      "name": "RoleAdminChanged",
      "type": "event"
    },
    {
      "anonymous": false,
      "inputs": [
        {
          "indexed": true,
          "internalType": "bytes32",
          "name": "role",
          "type": "bytes32"
        },
        {
          "indexed": true,
          "internalType": "address",
          "name": "account",
          "type": "address"
        },
        {
          "indexed": true,
          "internalType": "address",
          "name": "sender",
          "type": "address"
        }
      ],
      "name": "RoleGranted",
      "type": "event"
    },
    {
      "anonymous": false,
      "inputs": [
        {
          "indexed": true,
          "internalType": "bytes32",
          "name": "role",
          "type": "bytes32"
        },
        {
          "indexed": true,
          "internalType": "address",
          "name": "account",
          "type": "address"
        },
        {
          "indexed": true,
          "internalType": "address",
          "name": "sender",
          "type": "address"
        }
      ],
      "name": "RoleRevoked",
      "type": "event"
    },
    {
      "anonymous": false,
      "inputs": [
        {
          "indexed": false,
          "internalType": "string",
          "name": "accountId",
          "type": "string"
        },
        {
          "indexed": false,
          "internalType": "address",
          "name": "walletAddress",
          "type": "address"
        },
        {
          "indexed": false,
          "internalType": "address",
          "name": "aUsdAddress",
          "type": "address"
        },
        {
          "indexed": false,
          "internalType": "string",
          "name": "symbol",
          "type": "string"
        },
        {
          "indexed": false,
          "internalType": "uint256",
          "name": "amount",
          "type": "uint256"
        },
        {
          "indexed": false,
          "internalType": "address",
          "name": "spender",
          "type": "address"
        }
      ],
      "name": "SellSecurityToken",
      "type": "event"
    },
    {
      "anonymous": false,
      "inputs": [
        {
          "indexed": false,
          "internalType": "address",
          "name": "tokenAddress",
          "type": "address"
        },
        {
          "indexed": false,
          "internalType": "string",
          "name": "symbol",
          "type": "string"
        }
      ],
      "name": "TokenCreated",
      "type": "event"
    },
    {
      "anonymous": false,
      "inputs": [
        {
          "indexed": false,
          "internalType": "address",
          "name": "account",
          "type": "address"
        }
      ],
      "name": "Unpaused",
      "type": "event"
    },
    {
      "anonymous": false,
      "inputs": [
        {
          "indexed": true,
          "internalType": "address",
          "name": "implementation",
          "type": "address"
        }
      ],
      "name": "Upgraded",
      "type": "event"
    },
    {
      "inputs": [],
      "name": "ADDRESS_CANNOT_BE_ZERO",
      "outputs": [
        {
          "internalType": "string",
          "name": "",
          "type": "string"
        }
      ],
      "stateMutability": "view",
      "type": "function"
    },
    {
      "inputs": [],
      "name": "DEFAULT_ADMIN_ROLE",
      "outputs": [
        {
          "internalType": "bytes32",
          "name": "",
          "type": "bytes32"
        }
      ],
      "stateMutability": "view",
      "type": "function"
    },
    {
      "inputs": [],
      "name": "MARKET_CLOSED",
      "outputs": [
        {
          "internalType": "string",
          "name": "",
          "type": "string"
        }
      ],
      "stateMutability": "view",
      "type": "function"
    },
    {
      "inputs": [],
      "name": "MINTER_ROLE",
      "outputs": [
        {
          "internalType": "bytes32",
          "name": "",
          "type": "bytes32"
        }
      ],
      "stateMutability": "view",
      "type": "function"
    },
    {
      "inputs": [],
      "name": "NOT_ENOUGH_AUSD",
      "outputs": [
        {
          "internalType": "string",
          "name": "",
          "type": "string"
        }
      ],
      "stateMutability": "view",
      "type": "function"
    },
    {
      "inputs": [],
      "name": "NOT_VALID_TOKEN_ADDRESS",
      "outputs": [
        {
          "internalType": "string",
          "name": "",
          "type": "string"
        }
      ],
      "stateMutability": "view",
      "type": "function"
    },
    {
      "inputs": [],
      "name": "ONLY_AUSD_CAN_CALL_ME",
      "outputs": [
        {
          "internalType": "string",
          "name": "",
          "type": "string"
        }
      ],
      "stateMutability": "view",
      "type": "function"
    },
    {
      "inputs": [],
      "name": "ONLY_SEND_TO_AUSD",
      "outputs": [
        {
          "internalType": "string",
          "name": "",
          "type": "string"
        }
      ],
      "stateMutability": "view",
      "type": "function"
    },
    {
      "inputs": [],
      "name": "PAUSER_ROLE",
      "outputs": [
        {
          "internalType": "bytes32",
          "name": "",
          "type": "bytes32"
        }
      ],
      "stateMutability": "view",
      "type": "function"
    },
    {
      "inputs": [],
      "name": "QUANTITY_MORE_THEN_BALANCE",
      "outputs": [
        {
          "internalType": "string",
          "name": "",
          "type": "string"
        }
      ],
      "stateMutability": "view",
      "type": "function"
    },
    {
      "inputs": [],
      "name": "SYMBOL_CANNOT_BE_EMPTY",
      "outputs": [
        {
          "internalType": "string",
          "name": "",
          "type": "string"
        }
      ],
      "stateMutability": "view",
      "type": "function"
    },
    {
      "inputs": [],
      "name": "TOKEN_ALREADY_EXISTS",
      "outputs": [
        {
          "internalType": "string",
          "name": "",
          "type": "string"
        }
      ],
      "stateMutability": "view",
      "type": "function"
    },
    {
      "inputs": [],
      "name": "TOKEN_NAME",
      "outputs": [
        {
          "internalType": "string",
          "name": "",
          "type": "string"
        }
      ],
      "stateMutability": "view",
      "type": "function"
    },
    {
      "inputs": [],
      "name": "UPGRADER_ROLE",
      "outputs": [
        {
          "internalType": "bytes32",
          "name": "",
          "type": "bytes32"
        }
      ],
      "stateMutability": "view",
      "type": "function"
    },
    {
      "inputs": [],
      "name": "aUsdContract",
      "outputs": [
        {
          "internalType": "contract aUSD",
          "name": "",
          "type": "address"
        }
      ],
      "stateMutability": "view",
      "type": "function"
    },
    {
      "inputs": [
        {
          "internalType": "address",
          "name": "walletAddress",
          "type": "address"
        },
        {
          "internalType": "address",
          "name": "tokenAddress",
          "type": "address"
        },
        {
          "internalType": "uint256",
          "name": "amount",
          "type": "uint256"
        },
        {
          "internalType": "address",
          "name": "spender",
          "type": "address"
        }
      ],
      "name": "buyWithAUsd",
      "outputs": [],
      "stateMutability": "nonpayable",
      "type": "function"
    },
    {
      "inputs": [
        {
          "internalType": "string",
          "name": "symbol",
          "type": "string"
        }
      ],
      "name": "createToken",
      "outputs": [
        {
          "internalType": "contract SecurityToken",
          "name": "",
          "type": "address"
        }
      ],
      "stateMutability": "nonpayable",
      "type": "function"
    },
    {
      "inputs": [
        {
          "internalType": "bytes32",
          "name": "role",
          "type": "bytes32"
        }
      ],
      "name": "getRoleAdmin",
      "outputs": [
        {
          "internalType": "bytes32",
          "name": "",
          "type": "bytes32"
        }
      ],
      "stateMutability": "view",
      "type": "function"
    },
    {
      "inputs": [
        {
          "internalType": "string",
          "name": "symbol",
          "type": "string"
        }
      ],
      "name": "getSecurityToken",
      "outputs": [
        {
          "internalType": "address",
          "name": "",
          "type": "address"
        }
      ],
      "stateMutability": "view",
      "type": "function"
    },
    {
      "inputs": [
        {
          "internalType": "address",
          "name": "recipient",
          "type": "address"
        }
      ],
      "name": "grantMintAndBurnRole",
      "outputs": [],
      "stateMutability": "nonpayable",
      "type": "function"
    },
    {
      "inputs": [
        {
          "internalType": "bytes32",
          "name": "role",
          "type": "bytes32"
        },
        {
          "internalType": "address",
          "name": "account",
          "type": "address"
        }
      ],
      "name": "grantRole",
      "outputs": [],
      "stateMutability": "nonpayable",
      "type": "function"
    },
    {
      "inputs": [
        {
          "internalType": "bytes32",
          "name": "role",
          "type": "bytes32"
        },
        {
          "internalType": "address",
          "name": "account",
          "type": "address"
        }
      ],
      "name": "hasRole",
      "outputs": [
        {
          "internalType": "bool",
          "name": "",
          "type": "bool"
        }
      ],
      "stateMutability": "view",
      "type": "function"
    },
    {
      "inputs": [],
      "name": "initialize",
      "outputs": [],
      "stateMutability": "nonpayable",
      "type": "function"
    },
    {
      "inputs": [],
      "name": "kycContract",
      "outputs": [
        {
          "internalType": "contract KYC",
          "name": "",
          "type": "address"
        }
      ],
      "stateMutability": "view",
      "type": "function"
    },
    {
      "inputs": [],
      "name": "marketCalendarContract",
      "outputs": [
        {
          "internalType": "contract MarketCalendar",
          "name": "",
          "type": "address"
        }
      ],
      "stateMutability": "view",
      "type": "function"
    },
    {
      "inputs": [
        {
          "internalType": "address",
          "name": "recipient",
          "type": "address"
        },
        {
          "internalType": "string",
          "name": "symbol",
          "type": "string"
        },
        {
          "internalType": "uint256",
          "name": "tsl",
          "type": "uint256"
        },
        {
          "internalType": "uint256",
          "name": "filledQty",
          "type": "uint256"
        },
        {
          "internalType": "uint256",
          "name": "filledAvgPrice",
          "type": "uint256"
        },
        {
          "internalType": "string",
          "name": "side",
          "type": "string"
        },
        {
          "internalType": "uint256",
          "name": "filledAt",
          "type": "uint256"
        },
        {
          "internalType": "uint256",
          "name": "commission",
          "type": "uint256"
        },
        {
          "internalType": "uint256",
          "name": "aUsdBalance",
          "type": "uint256"
        },
        {
          "internalType": "address",
          "name": "spender",
          "type": "address"
        }
      ],
      "name": "orderExecuted",
      "outputs": [],
      "stateMutability": "nonpayable",
      "type": "function"
    },
    {
      "inputs": [
        {
          "internalType": "address",
          "name": "recipient",
          "type": "address"
        },
        {
          "internalType": "string",
          "name": "symbol",
          "type": "string"
        },
        {
          "internalType": "uint256",
          "name": "buyingPower",
          "type": "uint256"
        },
        {
          "internalType": "string",
          "name": "message",
          "type": "string"
        },
        {
          "internalType": "address",
          "name": "spender",
          "type": "address"
        }
      ],
      "name": "orderFailed",
      "outputs": [],
      "stateMutability": "nonpayable",
      "type": "function"
    },
    {
      "inputs": [],
      "name": "pause",
      "outputs": [],
      "stateMutability": "nonpayable",
      "type": "function"
    },
    {
      "inputs": [],
      "name": "paused",
      "outputs": [
        {
          "internalType": "bool",
          "name": "",
          "type": "bool"
        }
      ],
      "stateMutability": "view",
      "type": "function"
    },
    {
      "inputs": [],
      "name": "proxiableUUID",
      "outputs": [
        {
          "internalType": "bytes32",
          "name": "",
          "type": "bytes32"
        }
      ],
      "stateMutability": "view",
      "type": "function"
    },
    {
      "inputs": [
        {
          "internalType": "bytes32",
          "name": "role",
          "type": "bytes32"
        },
        {
          "internalType": "address",
          "name": "account",
          "type": "address"
        }
      ],
      "name": "renounceRole",
      "outputs": [],
      "stateMutability": "nonpayable",
      "type": "function"
    },
    {
      "inputs": [
        {
          "internalType": "address",
          "name": "recipient",
          "type": "address"
        }
      ],
      "name": "revokeMintAndBurnRole",
      "outputs": [],
      "stateMutability": "nonpayable",
      "type": "function"
    },
    {
      "inputs": [
        {
          "internalType": "bytes32",
          "name": "role",
          "type": "bytes32"
        },
        {
          "internalType": "address",
          "name": "account",
          "type": "address"
        }
      ],
      "name": "revokeRole",
      "outputs": [],
      "stateMutability": "nonpayable",
      "type": "function"
    },
    {
      "inputs": [
        {
          "internalType": "string",
          "name": "",
          "type": "string"
        }
      ],
      "name": "securityTokens",
      "outputs": [
        {
          "internalType": "address",
          "name": "",
          "type": "address"
        }
      ],
      "stateMutability": "view",
      "type": "function"
    },
    {
      "inputs": [
        {
          "internalType": "address",
          "name": "walletAddress",
          "type": "address"
        },
        {
          "internalType": "address",
          "name": "aUsdAddress",
          "type": "address"
        },
        {
          "internalType": "string",
          "name": "symbol",
          "type": "string"
        },
        {
          "internalType": "uint256",
          "name": "quantity",
          "type": "uint256"
        },
        {
          "internalType": "address",
          "name": "spender",
          "type": "address"
        }
      ],
      "name": "sellSecurityToken",
      "outputs": [],
      "stateMutability": "nonpayable",
      "type": "function"
    },
    {
      "inputs": [
        {
          "internalType": "contract aUSD",
          "name": "aUsdAddress",
          "type": "address"
        },
        {
          "internalType": "contract KYC",
          "name": "kycAddress",
          "type": "address"
        },
        {
          "internalType": "contract MarketCalendar",
          "name": "marketCalendarAddress",
          "type": "address"
        }
      ],
      "name": "setAddresses",
      "outputs": [],
      "stateMutability": "nonpayable",
      "type": "function"
    },
    {
      "inputs": [
        {
          "internalType": "bytes4",
          "name": "interfaceId",
          "type": "bytes4"
        }
      ],
      "name": "supportsInterface",
      "outputs": [
        {
          "internalType": "bool",
          "name": "",
          "type": "bool"
        }
      ],
      "stateMutability": "view",
      "type": "function"
    },
    {
      "inputs": [],
      "name": "unpause",
      "outputs": [],
      "stateMutability": "nonpayable",
      "type": "function"
    },
    {
      "inputs": [
        {
          "internalType": "address",
          "name": "newImplementation",
          "type": "address"
        }
      ],
      "name": "upgradeTo",
      "outputs": [],
      "stateMutability": "nonpayable",
      "type": "function"
    },
    {
      "inputs": [
        {
          "internalType": "address",
          "name": "newImplementation",
          "type": "address"
        },
        {
          "internalType": "bytes",
          "name": "data",
          "type": "bytes"
        }
      ],
      "name": "upgradeToAndCall",
      "outputs": [],
      "stateMutability": "payable",
      "type": "function"
    }
  ],
  "bytecode": "0x60a0604052306080523480156200001557600080fd5b50600054610100900460ff1615808015620000375750600054600160ff909116105b8062000067575062000054306200014160201b6200211a1760201c565b15801562000067575060005460ff166001145b620000cf5760405162461bcd60e51b815260206004820152602e60248201527f496e697469616c697a61626c653a20636f6e747261637420697320616c72656160448201526d191e481a5b9a5d1a585b1a5e995960921b606482015260840160405180910390fd5b6000805460ff191660011790558015620000f3576000805461ff0019166101001790555b80156200013a576000805461ff0019169055604051600181527f7f26b83ff96e1f2b6a682f133852f6798a09c465da95921460cefb38474024989060200160405180910390a15b5062000150565b6001600160a01b03163b151590565b608051614921620001966000396000818161113e015281816111d601528181611519015281816115b1015281816116af015281816122ea015261238201526149216000f3fe608060405260043610620002f35760003560e01c8063629bc155116200018b578063a217fddf11620000db578063e63ab1e91162000089578063f1935fd4116200006c578063f1935fd414620009d8578063f72c0d8b1462000a23578063fcca64041462000a5957600080fd5b8063e63ab1e9146200097d578063ee02eab114620009b357600080fd5b8063d539139311620000be578063d539139314620008dc578063d547741f1462000912578063da48f4ad146200093757600080fd5b8063a217fddf14620008a0578063a82df14214620008b757600080fd5b8063835d9c58116200013957806385b38eed116200011c57806385b38eed146200080e57806391d1485414620008335780639d81f9e1146200087d57600080fd5b8063835d9c5814620007de5780638456cb5914620007f657600080fd5b80637989ad68116200016e5780637989ad6814620007565780637cfb3d7114620007a15780638129fc1c14620007c657600080fd5b8063629bc155146200070e5780636d3123eb146200073357600080fd5b806336568abe11620002475780634f1ef28611620001f557806352d1902d11620001d857806352d1902d14620006b95780635c975abb14620006d15780635ff53fc414620006eb57600080fd5b80634f1ef28614620006575780634ffcfbe1146200066e57600080fd5b80633afea586116200022a5780633afea58614620005b65780633f4ba83a146200060157806345576f94146200061957600080fd5b806336568abe146200056c5780633659cfe6146200059157600080fd5b80631bc9905111620002a55780632f2ff15d11620002885780632f2ff15d14620004d75780633623ce9014620004fc578063363bf964146200054757600080fd5b80631bc990511462000449578063248a9ca3146200049457600080fd5b80630b317e7911620002da5780630b317e79146200038c5780631882140014620003b357806319b4881a14620003fe57600080fd5b806301ffc9a714620002f857806307d725da1462000332575b600080fd5b3480156200030557600080fd5b506200031d6200031736600462002e03565b62000a7e565b60405190151581526020015b60405180910390f35b3480156200033f57600080fd5b506200037d6040518060400160405280601081526020017f4d61726b657420697320636c6f7365640000000000000000000000000000000081525081565b60405162000329919062002e9b565b3480156200039957600080fd5b50620003b1620003ab36600462002ed3565b62000b18565b005b348015620003c057600080fd5b506200037d6040518060400160405280601581526020017f4c696d696e616c2e6d61726b65742073796d626f6c000000000000000000000081525081565b3480156200040b57600080fd5b506200037d6040518060400160405280601a81526020017f596f7520646f6e2774206861766520656e6f756768206155534400000000000081525081565b3480156200045657600080fd5b506200037d6040518060400160405280601681526020017f53796d626f6c2063616e6e6f7420626520656d7074790000000000000000000081525081565b348015620004a157600080fd5b50620004c8620004b336600462002f2d565b60009081526097602052604090206001015490565b60405190815260200162000329565b348015620004e457600080fd5b50620003b1620004f636600462002f47565b62001019565b3480156200050957600080fd5b506200037d6040518060400160405280601d81526020017f536563757269747920746f6b656e20616c72656164792065786973747300000081525081565b3480156200055457600080fd5b50620003b16200056636600462002f7a565b62001047565b3480156200057957600080fd5b50620003b16200058b36600462002f47565b620010a4565b3480156200059e57600080fd5b50620003b1620005b036600462002fcc565b62001134565b348015620005c357600080fd5b506200037d6040518060400160405280601681526020017f416464726573732063616e6e6f74206265207a65726f0000000000000000000081525081565b3480156200060e57600080fd5b50620003b1620012da565b3480156200062657600080fd5b506200063e62000638366004620030c7565b62001310565b6040516001600160a01b03909116815260200162000329565b620003b16200066836600462003108565b6200150f565b3480156200067b57600080fd5b506200037d6040518060400160405280601f81526020017f596f752063616e206f6e6c792073656e6420746f206155534420746f6b656e0081525081565b348015620006c657600080fd5b50620004c8620016a2565b348015620006de57600080fd5b5060335460ff166200031d565b348015620006f857600080fd5b5061012d546200063e906001600160a01b031681565b3480156200071b57600080fd5b506200063e6200072d366004620030c7565b62001769565b3480156200074057600080fd5b5061012e546200063e906001600160a01b031681565b3480156200076357600080fd5b506200037d6040518060400160405280601f81526020017f54686973206973206e6f742076616c696420746f6b656e20616464726573730081525081565b348015620007ae57600080fd5b50620003b1620007c036600462002fcc565b6200179d565b348015620007d357600080fd5b50620003b1620017d6565b348015620007eb57600080fd5b506200037d620019a3565b3480156200080357600080fd5b50620003b1620019c0565b3480156200081b57600080fd5b50620003b16200082d36600462002fcc565b620019f6565b3480156200084057600080fd5b506200031d6200085236600462002f47565b60009182526097602090815260408084206001600160a01b0393909316845291905290205460ff1690565b3480156200088a57600080fd5b5061012f546200063e906001600160a01b031681565b348015620008ad57600080fd5b50620004c8600081565b348015620008c457600080fd5b50620003b1620008d636600462003173565b62001a2f565b348015620008e957600080fd5b50620004c87f9f2df0fed2c77648de5860a4cc508cd0818c85b8b8a1ab4ceeef8d981c8956a681565b3480156200091f57600080fd5b50620003b16200093136600462002f47565b62001db2565b3480156200094457600080fd5b506200063e62000956366004620030c7565b8051602081830181018051610130825292820191909301209152546001600160a01b031681565b3480156200098a57600080fd5b50620004c87f65d7a28e3265b37a6474929f336521b332c1681b933f6cb9f3376673440d862a81565b348015620009c057600080fd5b50620003b1620009d2366004620031fe565b62001ddb565b348015620009e557600080fd5b506200037d6040518060400160405280601e81526020017f4f6e6c79206155534420636f6e74726163742063616e2063616c6c206d65000081525081565b34801562000a3057600080fd5b50620004c87f189ab7a9244df0848122154315af71fe140f3db0fe014031783b0946b8c9d2e381565b34801562000a6657600080fd5b50620003b162000a78366004620032ca565b6200209b565b60007fffffffff0000000000000000000000000000000000000000000000000000000082167f7965db0b00000000000000000000000000000000000000000000000000000000148062000b1257507f01ffc9a7000000000000000000000000000000000000000000000000000000007fffffffff000000000000000000000000000000000000000000000000000000008316145b92915050565b62000b2262002129565b61012d5460408051808201909152601e81527f4f6e6c79206155534420636f6e74726163742063616e2063616c6c206d6500006020820152906001600160a01b0316331462000b8f5760405162461bcd60e51b815260040162000b86919062002e9b565b60405180910390fd5b5061012f60009054906101000a90046001600160a01b03166001600160a01b031663d4ce85f36040518163ffffffff1660e01b8152600401602060405180830381865afa15801562000be5573d6000803e3d6000fd5b505050506040513d601f19601f8201168201806040525081019062000c0b91906200335c565b6040518060400160405280601081526020017f4d61726b657420697320636c6f736564000000000000000000000000000000008152509062000c625760405162461bcd60e51b815260040162000b86919062002e9b565b5061012d546040517f70a082310000000000000000000000000000000000000000000000000000000081526001600160a01b03868116600483015260009216906370a0823190602401602060405180830381865afa15801562000cc9573d6000803e3d6000fd5b505050506040513d601f19601f8201168201806040525081019062000cef919062003380565b9050828110156040518060400160405280601a81526020017f596f7520646f6e2774206861766520656e6f75676820615553440000000000008152509062000d4c5760405162461bcd60e51b815260040162000b86919062002e9b565b5061012e546040517f8b1b925f0000000000000000000000000000000000000000000000000000000081526001600160a01b0387811660048301526000921690638b1b925f90602401600060405180830381865afa15801562000db3573d6000803e3d6000fd5b505050506040513d6000823e601f3d908101601f1916820160405262000ddd91908101906200339a565b90506000859050306001600160a01b0316816001600160a01b0316638da5cb5b6040518163ffffffff1660e01b8152600401602060405180830381865afa15801562000e2d573d6000803e3d6000fd5b505050506040513d601f19601f8201168201806040525081019062000e53919062003411565b6001600160a01b0316146040518060400160405280601f81526020017f54686973206973206e6f742076616c696420746f6b656e2061646472657373008152509062000eb45760405162461bcd60e51b815260040162000b86919062002e9b565b506000816001600160a01b03166395d89b416040518163ffffffff1660e01b8152600401600060405180830381865afa15801562000ef6573d6000803e3d6000fd5b505050506040513d6000823e601f3d908101601f1916820160405262000f2091908101906200339a565b90506001600160a01b03851662000f35573094505b7f7e5d12bbde79004142810629c5e42ea48221200745f25bf60cfcc2e5d0f2db7d888785848b8a60405162000f709695949392919062003431565b60405180910390a161012d546001600160a01b031663e30443bc8962000f978988620034a2565b6040517fffffffff0000000000000000000000000000000000000000000000000000000060e085901b1681526001600160a01b0390921660048301526024820152604401600060405180830381600087803b15801562000ff657600080fd5b505af11580156200100b573d6000803e3d6000fd5b505050505050505050505050565b600082815260976020526040902060010154620010368162002180565b6200104283836200218c565b505050565b6000620010548162002180565b5061012d80546001600160a01b0394851673ffffffffffffffffffffffffffffffffffffffff199182161790915561012e80549385169382169390931790925561012f8054919093169116179055565b6001600160a01b0381163314620011245760405162461bcd60e51b815260206004820152602f60248201527f416363657373436f6e74726f6c3a2063616e206f6e6c792072656e6f756e636560448201527f20726f6c657320666f722073656c660000000000000000000000000000000000606482015260840162000b86565b62001130828262002230565b5050565b6001600160a01b037f0000000000000000000000000000000000000000000000000000000000000000163003620011d45760405162461bcd60e51b815260206004820152602c60248201527f46756e6374696f6e206d7573742062652063616c6c6564207468726f7567682060448201527f64656c656761746563616c6c0000000000000000000000000000000000000000606482015260840162000b86565b7f00000000000000000000000000000000000000000000000000000000000000006001600160a01b0316620012307f360894a13ba1a3210667c828492db98dca3e2076cc3735a920a3ca505d382bbc546001600160a01b031690565b6001600160a01b031614620012ae5760405162461bcd60e51b815260206004820152602c60248201527f46756e6374696f6e206d7573742062652063616c6c6564207468726f7567682060448201527f6163746976652070726f78790000000000000000000000000000000000000000606482015260840162000b86565b620012b981620022b4565b60408051600080825260208201909252620012d79183919062002465565b50565b7f65d7a28e3265b37a6474929f336521b332c1681b933f6cb9f3376673440d862a620013068162002180565b620012d762002611565b60006200131c62002129565b815160408051808201909152601681527f53796d626f6c2063616e6e6f7420626520656d70747900000000000000000000602082015290620013735760405162461bcd60e51b815260040162000b86919062002e9b565b5060006001600160a01b031661013083604051620013929190620034b8565b90815260408051918290036020908101832054838301909252601d83527f536563757269747920746f6b656e20616c7265616479206578697374730000009083015290916001600160a01b0390911614620014025760405162461bcd60e51b815260040162000b86919062002e9b565b5060006040518060400160405280601581526020017f4c696d696e616c2e6d61726b65742073796d626f6c0000000000000000000000815250836040516200144a9062002df5565b62001457929190620034d6565b604051809103906000f08015801562001474573d6000803e3d6000fd5b50905060008190508061013085604051620014909190620034b8565b90815260405190819003602001812080546001600160a01b039390931673ffffffffffffffffffffffffffffffffffffffff19909316929092179091557f7c56d5eff73d004b4d80f35d05a7e9a2429df1bb9544be59c859d049e2f449fb90620014fe9083908790620034ff565b60405180910390a15090505b919050565b6001600160a01b037f0000000000000000000000000000000000000000000000000000000000000000163003620015af5760405162461bcd60e51b815260206004820152602c60248201527f46756e6374696f6e206d7573742062652063616c6c6564207468726f7567682060448201527f64656c656761746563616c6c0000000000000000000000000000000000000000606482015260840162000b86565b7f00000000000000000000000000000000000000000000000000000000000000006001600160a01b03166200160b7f360894a13ba1a3210667c828492db98dca3e2076cc3735a920a3ca505d382bbc546001600160a01b031690565b6001600160a01b031614620016895760405162461bcd60e51b815260206004820152602c60248201527f46756e6374696f6e206d7573742062652063616c6c6564207468726f7567682060448201527f6163746976652070726f78790000000000000000000000000000000000000000606482015260840162000b86565b6200169482620022b4565b620011308282600162002465565b6000306001600160a01b037f00000000000000000000000000000000000000000000000000000000000000001614620017445760405162461bcd60e51b815260206004820152603860248201527f555550535570677261646561626c653a206d757374206e6f742062652063616c60448201527f6c6564207468726f7567682064656c656761746563616c6c0000000000000000606482015260840162000b86565b507f360894a13ba1a3210667c828492db98dca3e2076cc3735a920a3ca505d382bbc90565b6000610130826040516200177e9190620034b8565b908152604051908190036020019020546001600160a01b031692915050565b6000620017aa8162002180565b620011307f9f2df0fed2c77648de5860a4cc508cd0818c85b8b8a1ab4ceeef8d981c8956a68362001019565b600054610100900460ff1615808015620017f75750600054600160ff909116105b80620018135750303b15801562001813575060005460ff166001145b620018875760405162461bcd60e51b815260206004820152602e60248201527f496e697469616c697a61626c653a20636f6e747261637420697320616c72656160448201527f647920696e697469616c697a6564000000000000000000000000000000000000606482015260840162000b86565b6000805460ff191660011790558015620018ab576000805461ff0019166101001790555b620018b562002665565b620018bf620026ee565b620018c9620026ee565b620018d66000336200218c565b620019027f65d7a28e3265b37a6474929f336521b332c1681b933f6cb9f3376673440d862a336200218c565b6200192e7f9f2df0fed2c77648de5860a4cc508cd0818c85b8b8a1ab4ceeef8d981c8956a6336200218c565b6200195a7f189ab7a9244df0848122154315af71fe140f3db0fe014031783b0946b8c9d2e3336200218c565b8015620012d7576000805461ff0019169055604051600181527f7f26b83ff96e1f2b6a682f133852f6798a09c465da95921460cefb38474024989060200160405180910390a150565b6040518060600160405280602681526020016200489f6026913981565b7f65d7a28e3265b37a6474929f336521b332c1681b933f6cb9f3376673440d862a620019ec8162002180565b620012d76200276d565b600062001a038162002180565b620011307f9f2df0fed2c77648de5860a4cc508cd0818c85b8b8a1ab4ceeef8d981c8956a68362001db2565b62001a3962002129565b61012d5460408051808201909152601f81527f596f752063616e206f6e6c792073656e6420746f206155534420746f6b656e006020820152906001600160a01b0386811691161462001aa05760405162461bcd60e51b815260040162000b86919062002e9b565b5061012f60009054906101000a90046001600160a01b03166001600160a01b031663d4ce85f36040518163ffffffff1660e01b8152600401602060405180830381865afa15801562001af6573d6000803e3d6000fd5b505050506040513d601f19601f8201168201806040525081019062001b1c91906200335c565b6040518060400160405280601081526020017f4d61726b657420697320636c6f736564000000000000000000000000000000008152509062001b735760405162461bcd60e51b815260040162000b86919062002e9b565b503362001b808462001769565b6001600160a01b0316146040518060400160405280601f81526020017f54686973206973206e6f742076616c696420746f6b656e2061646472657373008152509062001be15760405162461bcd60e51b815260040162000b86919062002e9b565b5061012e546040517f8b1b925f0000000000000000000000000000000000000000000000000000000081526001600160a01b0387811660048301526000921690638b1b925f90602401600060405180830381865afa15801562001c48573d6000803e3d6000fd5b505050506040513d6000823e601f3d908101601f1916820160405262001c7291908101906200339a565b6040517f70a082310000000000000000000000000000000000000000000000000000000081526001600160a01b0388166004820152909150339060009082906370a0823190602401602060405180830381865afa15801562001cd8573d6000803e3d6000fd5b505050506040513d601f19601f8201168201806040525081019062001cfe919062003380565b9050848110156040518060600160405280602681526020016200489f602691399062001d3f5760405162461bcd60e51b815260040162000b86919062002e9b565b506001600160a01b03841662001d53573093505b7f4341e54645ad9755ed9779b519412751d6965340ce2953951d20ebbfcbdf340b83898989898960405162001d8e9695949392919062003523565b60405180910390a16001600160a01b03821663e30443bc8962000f978885620034a2565b60008281526097602052604090206001015462001dcf8162002180565b62001042838362002230565b62001de562002129565b7f9f2df0fed2c77648de5860a4cc508cd0818c85b8b8a1ab4ceeef8d981c8956a662001e118162002180565b60408051808201909152601681527f416464726573732063616e6e6f74206265207a65726f0000000000000000000060208201526001600160a01b038c1662001e6f5760405162461bcd60e51b815260040162000b86919062002e9b565b506000806101308c60405162001e869190620034b8565b908152604051908190036020019020546001600160a01b031690508062001f33576040517f45576f9400000000000000000000000000000000000000000000000000000000815230906345576f949062001ee5908f9060040162002e9b565b6020604051808303816000875af115801562001f05573d6000803e3d6000fd5b505050506040513d601f19601f8201168201806040525081019062001f2b919062003411565b915062001f37565b8091505b6040517fe30443bc0000000000000000000000000000000000000000000000000000000081526001600160a01b038e81166004830152602482018d905283169063e30443bc90604401600060405180830381600087803b15801562001f9b57600080fd5b505af115801562001fb0573d6000803e3d6000fd5b5050505061012d60009054906101000a90046001600160a01b03166001600160a01b031663e30443bc8e876040518363ffffffff1660e01b81526004016200200d9291906001600160a01b03929092168252602082015260400190565b600060405180830381600087803b1580156200202857600080fd5b505af11580156200203d573d6000803e3d6000fd5b505050507f63d96cc2b8bb5bdb5a21698ccf602b5d04799801cbaface9d322d180a38c55b48d8d8d8d8d8d8d8d8d8d604051620020849a9998979695949392919062003581565b60405180910390a150505050505050505050505050565b620020a562002129565b7f9f2df0fed2c77648de5860a4cc508cd0818c85b8b8a1ab4ceeef8d981c8956a6620020d18162002180565b7fb119d18d6fd69df5ab079683b30b759ed526ca02797650de9c42f2e33c6a57e686868686866040516200210a959493929190620035fe565b60405180910390a1505050505050565b6001600160a01b03163b151590565b60335460ff16156200217e5760405162461bcd60e51b815260206004820152601060248201527f5061757361626c653a2070617573656400000000000000000000000000000000604482015260640162000b86565b565b620012d78133620027ad565b60008281526097602090815260408083206001600160a01b038516845290915290205460ff16620011305760008281526097602090815260408083206001600160a01b03851684529091529020805460ff19166001179055620021ec3390565b6001600160a01b0316816001600160a01b0316837f2f8788117e7eff1d82e926ec794901d17c78024a50270940304540a733656f0d60405160405180910390a45050565b60008281526097602090815260408083206001600160a01b038516845290915290205460ff1615620011305760008281526097602090815260408083206001600160a01b0385168085529252808320805460ff1916905551339285917ff6391f5c32d9c69d2a47ea670b442974b53935d1edc7fd64eb21e047a839171b9190a45050565b7f189ab7a9244df0848122154315af71fe140f3db0fe014031783b0946b8c9d2e3620022e08162002180565b6001600160a01b037f0000000000000000000000000000000000000000000000000000000000000000163003620023805760405162461bcd60e51b815260206004820152602c60248201527f46756e6374696f6e206d7573742062652063616c6c6564207468726f7567682060448201527f64656c656761746563616c6c0000000000000000000000000000000000000000606482015260840162000b86565b7f00000000000000000000000000000000000000000000000000000000000000006001600160a01b0316620023dc7f360894a13ba1a3210667c828492db98dca3e2076cc3735a920a3ca505d382bbc546001600160a01b031690565b6001600160a01b0316146200245a5760405162461bcd60e51b815260206004820152602c60248201527f46756e6374696f6e206d7573742062652063616c6c6564207468726f7567682060448201527f6163746976652070726f78790000000000000000000000000000000000000000606482015260840162000b86565b620011308262002836565b7f4910fdfa16fed3260ed0e7147f7cc6da11a60208b5b9406d12a635614ffd91435460ff16156200249b57620010428362002878565b826001600160a01b03166352d1902d6040518163ffffffff1660e01b8152600401602060405180830381865afa925050508015620024f8575060408051601f3d908101601f19168201909252620024f59181019062003380565b60015b6200256c5760405162461bcd60e51b815260206004820152602e60248201527f45524331393637557067726164653a206e657720696d706c656d656e7461746960448201527f6f6e206973206e6f742055555053000000000000000000000000000000000000606482015260840162000b86565b7f360894a13ba1a3210667c828492db98dca3e2076cc3735a920a3ca505d382bbc8114620026035760405162461bcd60e51b815260206004820152602960248201527f45524331393637557067726164653a20756e737570706f727465642070726f7860448201527f6961626c65555549440000000000000000000000000000000000000000000000606482015260840162000b86565b506200104283838362002945565b6200261b62002976565b6033805460ff191690557f5db9ee0a495bf2e6ff9c91a7834c1ba4fdd244a5e8aa4e537bd38aeae4b073aa335b6040516001600160a01b03909116815260200160405180910390a1565b600054610100900460ff16620026e45760405162461bcd60e51b815260206004820152602b60248201527f496e697469616c697a61626c653a20636f6e7472616374206973206e6f74206960448201527f6e697469616c697a696e67000000000000000000000000000000000000000000606482015260840162000b86565b6200217e620029ca565b600054610100900460ff166200217e5760405162461bcd60e51b815260206004820152602b60248201527f496e697469616c697a61626c653a20636f6e7472616374206973206e6f74206960448201527f6e697469616c697a696e67000000000000000000000000000000000000000000606482015260840162000b86565b6200277762002129565b6033805460ff191660011790557f62e78cea01bee320cd4e420270b5ea74000d11b0c9f74754ebdbfc544b05a258620026483390565b60008281526097602090815260408083206001600160a01b038516845290915290205460ff166200113057620027ee816001600160a01b0316601462002a55565b620027fb83602062002a55565b6040516020016200280e92919062003653565b60408051601f198184030181529082905262461bcd60e51b825262000b869160040162002e9b565b620028418162002878565b6040516001600160a01b038216907fbc7cd75a20ee27fd9adebab32041f755214dbc6bffa90cc0225b39da2e5c2d3b90600090a250565b6001600160a01b0381163b620028f75760405162461bcd60e51b815260206004820152602d60248201527f455243313936373a206e657720696d706c656d656e746174696f6e206973206e60448201527f6f74206120636f6e747261637400000000000000000000000000000000000000606482015260840162000b86565b7f360894a13ba1a3210667c828492db98dca3e2076cc3735a920a3ca505d382bbc805473ffffffffffffffffffffffffffffffffffffffff19166001600160a01b0392909216919091179055565b620029508362002836565b6000825111806200295e5750805b15620010425762002970838362002ca3565b50505050565b60335460ff166200217e5760405162461bcd60e51b815260206004820152601460248201527f5061757361626c653a206e6f7420706175736564000000000000000000000000604482015260640162000b86565b600054610100900460ff1662002a495760405162461bcd60e51b815260206004820152602b60248201527f496e697469616c697a61626c653a20636f6e7472616374206973206e6f74206960448201527f6e697469616c697a696e67000000000000000000000000000000000000000000606482015260840162000b86565b6033805460ff19169055565b6060600062002a66836002620036d8565b62002a73906002620036fa565b67ffffffffffffffff81111562002a8e5762002a8e62002fec565b6040519080825280601f01601f19166020018201604052801562002ab9576020820181803683370190505b5090507f30000000000000000000000000000000000000000000000000000000000000008160008151811062002af35762002af362003710565b60200101907effffffffffffffffffffffffffffffffffffffffffffffffffffffffffffff1916908160001a9053507f78000000000000000000000000000000000000000000000000000000000000008160018151811062002b595762002b5962003710565b60200101907effffffffffffffffffffffffffffffffffffffffffffffffffffffffffffff1916908160001a905350600062002b97846002620036d8565b62002ba4906001620036fa565b90505b600181111562002c4b577f303132333435363738396162636465660000000000000000000000000000000085600f166010811062002be95762002be962003710565b1a60f81b82828151811062002c025762002c0262003710565b60200101907effffffffffffffffffffffffffffffffffffffffffffffffffffffffffffff1916908160001a90535060049490941c9362002c438162003726565b905062002ba7565b50831562002c9c5760405162461bcd60e51b815260206004820181905260248201527f537472696e67733a20686578206c656e67746820696e73756666696369656e74604482015260640162000b86565b9392505050565b60606001600160a01b0383163b62002d245760405162461bcd60e51b815260206004820152602660248201527f416464726573733a2064656c65676174652063616c6c20746f206e6f6e2d636f60448201527f6e74726163740000000000000000000000000000000000000000000000000000606482015260840162000b86565b600080846001600160a01b03168460405162002d419190620034b8565b600060405180830381855af49150503d806000811462002d7e576040519150601f19603f3d011682016040523d82523d6000602084013e62002d83565b606091505b509150915062002dae8282604051806060016040528060278152602001620048c56027913962002db7565b95945050505050565b6060831562002dc857508162002c9c565b82511562002dd95782518084602001fd5b8160405162461bcd60e51b815260040162000b86919062002e9b565b61115e806200374183390190565b60006020828403121562002e1657600080fd5b81357fffffffff000000000000000000000000000000000000000000000000000000008116811462002c9c57600080fd5b60005b8381101562002e6457818101518382015260200162002e4a565b50506000910152565b6000815180845262002e8781602086016020860162002e47565b601f01601f19169290920160200192915050565b60208152600062002c9c602083018462002e6d565b6001600160a01b0381168114620012d757600080fd5b80356200150a8162002eb0565b6000806000806080858703121562002eea57600080fd5b843562002ef78162002eb0565b9350602085013562002f098162002eb0565b925060408501359150606085013562002f228162002eb0565b939692955090935050565b60006020828403121562002f4057600080fd5b5035919050565b6000806040838503121562002f5b57600080fd5b82359150602083013562002f6f8162002eb0565b809150509250929050565b60008060006060848603121562002f9057600080fd5b833562002f9d8162002eb0565b9250602084013562002faf8162002eb0565b9150604084013562002fc18162002eb0565b809150509250925092565b60006020828403121562002fdf57600080fd5b813562002c9c8162002eb0565b634e487b7160e01b600052604160045260246000fd5b604051601f8201601f1916810167ffffffffffffffff811182821017156200302e576200302e62002fec565b604052919050565b600067ffffffffffffffff82111562003053576200305362002fec565b50601f01601f191660200190565b600062003078620030728462003036565b62003002565b90508281528383830111156200308d57600080fd5b828260208301376000602084830101529392505050565b600082601f830112620030b657600080fd5b62002c9c8383356020850162003061565b600060208284031215620030da57600080fd5b813567ffffffffffffffff811115620030f257600080fd5b6200310084828501620030a4565b949350505050565b600080604083850312156200311c57600080fd5b8235620031298162002eb0565b9150602083013567ffffffffffffffff8111156200314657600080fd5b8301601f810185136200315857600080fd5b620031698582356020840162003061565b9150509250929050565b600080600080600060a086880312156200318c57600080fd5b8535620031998162002eb0565b94506020860135620031ab8162002eb0565b9350604086013567ffffffffffffffff811115620031c857600080fd5b620031d688828901620030a4565b935050606086013591506080860135620031f08162002eb0565b809150509295509295909350565b6000806000806000806000806000806101408b8d0312156200321f57600080fd5b6200322a8b62002ec6565b995060208b013567ffffffffffffffff808211156200324857600080fd5b620032568e838f01620030a4565b9a5060408d0135995060608d0135985060808d0135975060a08d01359150808211156200328257600080fd5b50620032918d828e01620030a4565b95505060c08b0135935060e08b013592506101008b01359150620032b96101208c0162002ec6565b90509295989b9194979a5092959850565b600080600080600060a08688031215620032e357600080fd5b8535620032f08162002eb0565b9450602086013567ffffffffffffffff808211156200330e57600080fd5b6200331c89838a01620030a4565b95506040880135945060608801359150808211156200333a57600080fd5b506200334988828901620030a4565b9250506080860135620031f08162002eb0565b6000602082840312156200336f57600080fd5b8151801515811462002c9c57600080fd5b6000602082840312156200339357600080fd5b5051919050565b600060208284031215620033ad57600080fd5b815167ffffffffffffffff811115620033c557600080fd5b8201601f81018413620033d757600080fd5b8051620033e8620030728262003036565b818152856020838501011115620033fe57600080fd5b62002dae82602083016020860162002e47565b6000602082840312156200342457600080fd5b815162002c9c8162002eb0565b60006001600160a01b03808916835287602084015260c060408401526200345c60c084018862002e6d565b838103606085015262003470818862002e6d565b9582166080850152509290921660a09091015250949350505050565b634e487b7160e01b600052601160045260246000fd5b8181038181111562000b125762000b126200348c565b60008251620034cc81846020870162002e47565b9190910192915050565b604081526000620034eb604083018562002e6d565b828103602084015262002dae818562002e6d565b6001600160a01b038316815260406020820152600062003100604083018462002e6d565b60c0815260006200353860c083018962002e6d565b6001600160a01b0380891660208501528088166040850152838203606085015262003564828862002e6d565b925085608085015280851660a08501525050979650505050505050565b60006101406001600160a01b03808e168452816020850152620035a78285018e62002e6d565b91508b60408501528a606085015289608085015283820360a0850152620035cf828a62002e6d565b92508760c08501528660e08501528561010085015280851661012085015250509b9a5050505050505050505050565b60006001600160a01b03808816835260a060208401526200362360a084018862002e6d565b86604085015283810360608501526200363d818762002e6d565b9250508084166080840152509695505050505050565b7f416363657373436f6e74726f6c3a206163636f756e74200000000000000000008152600083516200368d81601785016020880162002e47565b7f206973206d697373696e6720726f6c65200000000000000000000000000000006017918401918201528351620036cc81602884016020880162002e47565b01602801949350505050565b6000816000190483118215151615620036f557620036f56200348c565b500290565b8082018082111562000b125762000b126200348c565b634e487b7160e01b600052603260045260246000fd5b6000816200373857620037386200348c565b50600019019056fe60806040523480156200001157600080fd5b506040516200115e3803806200115e833981016040819052620000349162000191565b818162000041336200007c565b60046200004f83826200028a565b5060056200005e82826200028a565b5050600680546001600160a01b031916331790555062000356915050565b600080546001600160a01b038381166001600160a01b0319831681178455604051919092169283917f8be0079c531659141344cd1fd0a4f28419497f9722a3daafe3b4186f6b6457e09190a35050565b634e487b7160e01b600052604160045260246000fd5b600082601f830112620000f457600080fd5b81516001600160401b0380821115620001115762000111620000cc565b604051601f8301601f19908116603f011681019082821181831017156200013c576200013c620000cc565b816040528381526020925086838588010111156200015957600080fd5b600091505b838210156200017d57858201830151818301840152908201906200015e565b600093810190920192909252949350505050565b60008060408385031215620001a557600080fd5b82516001600160401b0380821115620001bd57600080fd5b620001cb86838701620000e2565b93506020850151915080821115620001e257600080fd5b50620001f185828601620000e2565b9150509250929050565b600181811c908216806200021057607f821691505b6020821081036200023157634e487b7160e01b600052602260045260246000fd5b50919050565b601f8211156200028557600081815260208120601f850160051c81016020861015620002605750805b601f850160051c820191505b8181101562000281578281556001016200026c565b5050505b505050565b81516001600160401b03811115620002a657620002a6620000cc565b620002be81620002b78454620001fb565b8462000237565b602080601f831160018114620002f65760008415620002dd5750858301515b600019600386901b1c1916600185901b17855562000281565b600085815260208120601f198616915b82811015620003275788860151825594840194600190910190840162000306565b5085821015620003465787850151600019600388901b60f8161c191681555b5050505050600190811b01905550565b610df880620003666000396000f3fe608060405234801561001057600080fd5b50600436106100f55760003560e01c8063715018a611610097578063a9059cbb11610066578063a9059cbb146101eb578063dd62ed3e146101fe578063e30443bc14610237578063f2fde38b1461024a57600080fd5b8063715018a6146101ab5780638da5cb5b146101b557806395d89b41146101d0578063a457c2d7146101d857600080fd5b806323b872dd116100d357806323b872dd1461014d578063313ce56714610160578063395093511461016f57806370a082311461018257600080fd5b806306fdde03146100fa578063095ea7b31461011857806318160ddd1461013b575b600080fd5b61010261025d565b60405161010f9190610beb565b60405180910390f35b61012b610126366004610c21565b6102ef565b604051901515815260200161010f565b6003545b60405190815260200161010f565b61012b61015b366004610c4b565b610309565b6040516012815260200161010f565b61012b61017d366004610c21565b610391565b61013f610190366004610c87565b6001600160a01b031660009081526001602052604090205490565b6101b36103d0565b005b6000546040516001600160a01b03909116815260200161010f565b6101026103e4565b61012b6101e6366004610c21565b6103f3565b61012b6101f9366004610c21565b6104ad565b61013f61020c366004610ca2565b6001600160a01b03918216600090815260026020908152604080832093909416825291909152205490565b6101b3610245366004610c21565b610529565b6101b3610258366004610c87565b6105d0565b60606004805461026c90610cd5565b80601f016020809104026020016040519081016040528092919081815260200182805461029890610cd5565b80156102e55780601f106102ba576101008083540402835291602001916102e5565b820191906000526020600020905b8154815290600101906020018083116102c857829003601f168201915b5050505050905090565b6000336102fd818585610660565b60019150505b92915050565b6000336103178582856107b9565b6006546001600160a01b031663a82df14286866103326103e4565b87866040518663ffffffff1660e01b8152600401610354959493929190610d28565b600060405180830381600087803b15801561036e57600080fd5b505af1158015610382573d6000803e3d6000fd5b50600198975050505050505050565b3360008181526002602090815260408083206001600160a01b03871684529091528120549091906102fd90829086906103cb908790610d9c565b610660565b6103d8610869565b6103e260006108c3565b565b60606005805461026c90610cd5565b3360008181526002602090815260408083206001600160a01b0387168452909152812054909190838110156104955760405162461bcd60e51b815260206004820152602560248201527f45524332303a2064656372656173656420616c6c6f77616e63652062656c6f7760448201527f207a65726f00000000000000000000000000000000000000000000000000000060648201526084015b60405180910390fd5b6104a28286868403610660565b506001949350505050565b6006546000906001600160a01b031663a82df14233856104cb6103e4565b8660006040518663ffffffff1660e01b81526004016104ee959493929190610d28565b600060405180830381600087803b15801561050857600080fd5b505af115801561051c573d6000803e3d6000fd5b5060019695505050505050565b610531610869565b6001600160a01b03821660009081526001602052604090205480820361055657505050565b80821115610576576105718361056c8385610daf565b61092b565b610589565b610589836105848484610daf565b610a0a565b604080516001600160a01b0385168152602081018490527faca675004c66aff66f6e84aac634806e6c3550b1a6ba29fc8e1c1471ad1babf1910160405180910390a1505050565b6105d8610869565b6001600160a01b0381166106545760405162461bcd60e51b815260206004820152602660248201527f4f776e61626c653a206e6577206f776e657220697320746865207a65726f206160448201527f6464726573730000000000000000000000000000000000000000000000000000606482015260840161048c565b61065d816108c3565b50565b6001600160a01b0383166106db5760405162461bcd60e51b8152602060048201526024808201527f45524332303a20617070726f76652066726f6d20746865207a65726f2061646460448201527f7265737300000000000000000000000000000000000000000000000000000000606482015260840161048c565b6001600160a01b0382166107575760405162461bcd60e51b815260206004820152602260248201527f45524332303a20617070726f766520746f20746865207a65726f20616464726560448201527f7373000000000000000000000000000000000000000000000000000000000000606482015260840161048c565b6001600160a01b0383811660008181526002602090815260408083209487168084529482529182902085905590518481527f8c5be1e5ebec7d5bd14f71427d1e84f3dd0314c0f7b2291e5b200ac8c7c3b92591015b60405180910390a3505050565b6001600160a01b038381166000908152600260209081526040808320938616835292905220547fffffffffffffffffffffffffffffffffffffffffffffffffffffffffffffffff811461086357818110156108565760405162461bcd60e51b815260206004820152601d60248201527f45524332303a20696e73756666696369656e7420616c6c6f77616e6365000000604482015260640161048c565b6108638484848403610660565b50505050565b6000546001600160a01b031633146103e25760405162461bcd60e51b815260206004820181905260248201527f4f776e61626c653a2063616c6c6572206973206e6f7420746865206f776e6572604482015260640161048c565b600080546001600160a01b038381167fffffffffffffffffffffffff0000000000000000000000000000000000000000831681178455604051919092169283917f8be0079c531659141344cd1fd0a4f28419497f9722a3daafe3b4186f6b6457e09190a35050565b6001600160a01b0382166109815760405162461bcd60e51b815260206004820152601f60248201527f45524332303a206d696e7420746f20746865207a65726f206164647265737300604482015260640161048c565b80600360008282546109939190610d9c565b90915550506001600160a01b038216600090815260016020526040812080548392906109c0908490610d9c565b90915550506040518181526001600160a01b038316906000907fddf252ad1be2c89b69c2b068fc378daa952ba7f163c4a11628f55a4df523b3ef9060200160405180910390a35050565b6001600160a01b038216610a865760405162461bcd60e51b815260206004820152602160248201527f45524332303a206275726e2066726f6d20746865207a65726f2061646472657360448201527f7300000000000000000000000000000000000000000000000000000000000000606482015260840161048c565b6001600160a01b03821660009081526001602052604090205481811015610b155760405162461bcd60e51b815260206004820152602260248201527f45524332303a206275726e20616d6f756e7420657863656564732062616c616e60448201527f6365000000000000000000000000000000000000000000000000000000000000606482015260840161048c565b6001600160a01b0383166000908152600160205260408120838303905560038054849290610b44908490610daf565b90915550506040518281526000906001600160a01b038516907fddf252ad1be2c89b69c2b068fc378daa952ba7f163c4a11628f55a4df523b3ef906020016107ac565b6000815180845260005b81811015610bad57602081850181015186830182015201610b91565b5060006020828601015260207fffffffffffffffffffffffffffffffffffffffffffffffffffffffffffffffe0601f83011685010191505092915050565b602081526000610bfe6020830184610b87565b9392505050565b80356001600160a01b0381168114610c1c57600080fd5b919050565b60008060408385031215610c3457600080fd5b610c3d83610c05565b946020939093013593505050565b600080600060608486031215610c6057600080fd5b610c6984610c05565b9250610c7760208501610c05565b9150604084013590509250925092565b600060208284031215610c9957600080fd5b610bfe82610c05565b60008060408385031215610cb557600080fd5b610cbe83610c05565b9150610ccc60208401610c05565b90509250929050565b600181811c90821680610ce957607f821691505b602082108103610d22577f4e487b7100000000000000000000000000000000000000000000000000000000600052602260045260246000fd5b50919050565b60006001600160a01b038088168352808716602084015260a06040840152610d5360a0840187610b87565b606084019590955292909216608090910152509392505050565b7f4e487b7100000000000000000000000000000000000000000000000000000000600052601160045260246000fd5b8082018082111561030357610303610d6d565b8181038181111561030357610303610d6d56fea2646970667358221220c26a883eb1e40320b986aaef38d732375e7b71ba73ae6d3dbaeb6fc71a33b9c964736f6c634300081000335175616e746974792063616e6e6f74206265206c6172676572207468656e2062616c616e6365416464726573733a206c6f772d6c6576656c2064656c65676174652063616c6c206661696c6564a2646970667358221220327ee60ac29eb9e3ff36c98bd95a55196bb2a91d77e35d700402279d69e887e864736f6c63430008100033",
  "linkReferences": {},
  "deployedLinkReferences": {}
}