{
  "_format": "hh-sol-artifact-1",
  "contractName": "LiminalMarket",
  "sourceName": "contracts/LiminalMarket.sol",
  "abi": [
    {
      "inputs": [],
      "stateMutability": "nonpayable",
      "type": "constructor"
    },
    {
      "anonymous": false,
      "inputs": [
        {
          "indexed": false,
          "internalType": "address",
          "name": "previousAdmin",
          "type": "address"
        },
        {
          "indexed": false,
          "internalType": "address",
          "name": "newAdmin",
          "type": "address"
        }
      ],
      "name": "AdminChanged",
      "type": "event"
    },
    {
      "anonymous": false,
      "inputs": [
        {
          "indexed": true,
          "internalType": "address",
          "name": "beacon",
          "type": "address"
        }
      ],
      "name": "BeaconUpgraded",
      "type": "event"
    },
    {
      "anonymous": false,
      "inputs": [
        {
          "indexed": false,
          "internalType": "address",
          "name": "walletAddress",
          "type": "address"
        },
        {
          "indexed": false,
          "internalType": "uint256",
          "name": "amount",
          "type": "uint256"
        },
        {
          "indexed": false,
          "internalType": "string",
          "name": "accountId",
          "type": "string"
        },
        {
          "indexed": false,
          "internalType": "string",
          "name": "symbol",
          "type": "string"
        },
        {
          "indexed": false,
          "internalType": "address",
          "name": "tokenAddress",
          "type": "address"
        },
        {
          "indexed": false,
          "internalType": "address",
          "name": "spender",
          "type": "address"
        }
      ],
      "name": "BuyWithAUsd",
      "type": "event"
    },
    {
      "anonymous": false,
      "inputs": [
        {
          "indexed": false,
          "internalType": "uint8",
          "name": "version",
          "type": "uint8"
        }
      ],
      "name": "Initialized",
      "type": "event"
    },
    {
      "anonymous": false,
      "inputs": [
        {
          "indexed": false,
          "internalType": "address",
          "name": "recipient",
          "type": "address"
        },
        {
          "indexed": false,
          "internalType": "string",
          "name": "symbol",
          "type": "string"
        },
        {
          "indexed": false,
          "internalType": "uint256",
          "name": "tsl",
          "type": "uint256"
        },
        {
          "indexed": false,
          "internalType": "uint256",
          "name": "filledQty",
          "type": "uint256"
        },
        {
          "indexed": false,
          "internalType": "uint256",
          "name": "filledAvgPrice",
          "type": "uint256"
        },
        {
          "indexed": false,
          "internalType": "string",
          "name": "side",
          "type": "string"
        },
        {
          "indexed": false,
          "internalType": "uint256",
          "name": "filledAt",
          "type": "uint256"
        },
        {
          "indexed": false,
          "internalType": "uint256",
          "name": "commission",
          "type": "uint256"
        },
        {
          "indexed": false,
          "internalType": "uint256",
          "name": "aUsdBalance",
          "type": "uint256"
        },
        {
          "indexed": false,
          "internalType": "address",
          "name": "spender",
          "type": "address"
        }
      ],
      "name": "OrderExecuted",
      "type": "event"
    },
    {
      "anonymous": false,
      "inputs": [
        {
          "indexed": false,
          "internalType": "address",
          "name": "recipient",
          "type": "address"
        },
        {
          "indexed": false,
          "internalType": "string",
          "name": "symbol",
          "type": "string"
        },
        {
          "indexed": false,
          "internalType": "uint256",
          "name": "buyingPower",
          "type": "uint256"
        },
        {
          "indexed": false,
          "internalType": "string",
          "name": "message",
          "type": "string"
        },
        {
          "indexed": false,
          "internalType": "address",
          "name": "spender",
          "type": "address"
        }
      ],
      "name": "OrderFailed",
      "type": "event"
    },
    {
      "anonymous": false,
      "inputs": [
        {
          "indexed": false,
          "internalType": "address",
          "name": "account",
          "type": "address"
        }
      ],
      "name": "Paused",
      "type": "event"
    },
    {
      "anonymous": false,
      "inputs": [
        {
          "indexed": true,
          "internalType": "bytes32",
          "name": "role",
          "type": "bytes32"
        },
        {
          "indexed": true,
          "internalType": "bytes32",
          "name": "previousAdminRole",
          "type": "bytes32"
        },
        {
          "indexed": true,
          "internalType": "bytes32",
          "name": "newAdminRole",
          "type": "bytes32"
        }
      ],
      "name": "RoleAdminChanged",
      "type": "event"
    },
    {
      "anonymous": false,
      "inputs": [
        {
          "indexed": true,
          "internalType": "bytes32",
          "name": "role",
          "type": "bytes32"
        },
        {
          "indexed": true,
          "internalType": "address",
          "name": "account",
          "type": "address"
        },
        {
          "indexed": true,
          "internalType": "address",
          "name": "sender",
          "type": "address"
        }
      ],
      "name": "RoleGranted",
      "type": "event"
    },
    {
      "anonymous": false,
      "inputs": [
        {
          "indexed": true,
          "internalType": "bytes32",
          "name": "role",
          "type": "bytes32"
        },
        {
          "indexed": true,
          "internalType": "address",
          "name": "account",
          "type": "address"
        },
        {
          "indexed": true,
          "internalType": "address",
          "name": "sender",
          "type": "address"
        }
      ],
      "name": "RoleRevoked",
      "type": "event"
    },
    {
      "anonymous": false,
      "inputs": [
        {
          "indexed": false,
          "internalType": "string",
          "name": "accountId",
          "type": "string"
        },
        {
          "indexed": false,
          "internalType": "address",
          "name": "walletAddress",
          "type": "address"
        },
        {
          "indexed": false,
          "internalType": "address",
          "name": "aUsdAddress",
          "type": "address"
        },
        {
          "indexed": false,
          "internalType": "string",
          "name": "symbol",
          "type": "string"
        },
        {
          "indexed": false,
          "internalType": "uint256",
          "name": "amount",
          "type": "uint256"
        },
        {
          "indexed": false,
          "internalType": "address",
          "name": "spender",
          "type": "address"
        }
      ],
      "name": "SellSecurityToken",
      "type": "event"
    },
    {
      "anonymous": false,
      "inputs": [
        {
          "indexed": false,
          "internalType": "address",
          "name": "tokenAddress",
          "type": "address"
        },
        {
          "indexed": false,
          "internalType": "string",
          "name": "symbol",
          "type": "string"
        }
      ],
      "name": "TokenCreated",
      "type": "event"
    },
    {
      "anonymous": false,
      "inputs": [
        {
          "indexed": false,
          "internalType": "address",
          "name": "account",
          "type": "address"
        }
      ],
      "name": "Unpaused",
      "type": "event"
    },
    {
      "anonymous": false,
      "inputs": [
        {
          "indexed": true,
          "internalType": "address",
          "name": "implementation",
          "type": "address"
        }
      ],
      "name": "Upgraded",
      "type": "event"
    },
    {
      "inputs": [],
      "name": "ADDRESS_CANNOT_BE_ZERO",
      "outputs": [
        {
          "internalType": "string",
          "name": "",
          "type": "string"
        }
      ],
      "stateMutability": "view",
      "type": "function"
    },
    {
      "inputs": [],
      "name": "DEFAULT_ADMIN_ROLE",
      "outputs": [
        {
          "internalType": "bytes32",
          "name": "",
          "type": "bytes32"
        }
      ],
      "stateMutability": "view",
      "type": "function"
    },
    {
      "inputs": [],
      "name": "MARKET_CLOSED",
      "outputs": [
        {
          "internalType": "string",
          "name": "",
          "type": "string"
        }
      ],
      "stateMutability": "view",
      "type": "function"
    },
    {
      "inputs": [],
      "name": "MINTER_ROLE",
      "outputs": [
        {
          "internalType": "bytes32",
          "name": "",
          "type": "bytes32"
        }
      ],
      "stateMutability": "view",
      "type": "function"
    },
    {
      "inputs": [],
      "name": "NOT_ENOUGH_AUSD",
      "outputs": [
        {
          "internalType": "string",
          "name": "",
          "type": "string"
        }
      ],
      "stateMutability": "view",
      "type": "function"
    },
    {
      "inputs": [],
      "name": "NOT_VALID_TOKEN_ADDRESS",
      "outputs": [
        {
          "internalType": "string",
          "name": "",
          "type": "string"
        }
      ],
      "stateMutability": "view",
      "type": "function"
    },
    {
      "inputs": [],
      "name": "ONLY_AUSD_CAN_CALL_ME",
      "outputs": [
        {
          "internalType": "string",
          "name": "",
          "type": "string"
        }
      ],
      "stateMutability": "view",
      "type": "function"
    },
    {
      "inputs": [],
      "name": "ONLY_SEND_TO_AUSD",
      "outputs": [
        {
          "internalType": "string",
          "name": "",
          "type": "string"
        }
      ],
      "stateMutability": "view",
      "type": "function"
    },
    {
      "inputs": [],
      "name": "PAUSER_ROLE",
      "outputs": [
        {
          "internalType": "bytes32",
          "name": "",
          "type": "bytes32"
        }
      ],
      "stateMutability": "view",
      "type": "function"
    },
    {
      "inputs": [],
      "name": "QUANTITY_MORE_THEN_BALANCE",
      "outputs": [
        {
          "internalType": "string",
          "name": "",
          "type": "string"
        }
      ],
      "stateMutability": "view",
      "type": "function"
    },
    {
      "inputs": [],
      "name": "SYMBOL_CANNOT_BE_EMPTY",
      "outputs": [
        {
          "internalType": "string",
          "name": "",
          "type": "string"
        }
      ],
      "stateMutability": "view",
      "type": "function"
    },
    {
      "inputs": [],
      "name": "TOKEN_ALREADY_EXISTS",
      "outputs": [
        {
          "internalType": "string",
          "name": "",
          "type": "string"
        }
      ],
      "stateMutability": "view",
      "type": "function"
    },
    {
      "inputs": [],
      "name": "TOKEN_NAME",
      "outputs": [
        {
          "internalType": "string",
          "name": "",
          "type": "string"
        }
      ],
      "stateMutability": "view",
      "type": "function"
    },
    {
      "inputs": [],
      "name": "UPGRADER_ROLE",
      "outputs": [
        {
          "internalType": "bytes32",
          "name": "",
          "type": "bytes32"
        }
      ],
      "stateMutability": "view",
      "type": "function"
    },
    {
      "inputs": [],
      "name": "aUsdContract",
      "outputs": [
        {
          "internalType": "contract aUSD",
          "name": "",
          "type": "address"
        }
      ],
      "stateMutability": "view",
      "type": "function"
    },
    {
      "inputs": [
        {
          "internalType": "address",
          "name": "walletAddress",
          "type": "address"
        },
        {
          "internalType": "address",
          "name": "tokenAddress",
          "type": "address"
        },
        {
          "internalType": "uint256",
          "name": "amount",
          "type": "uint256"
        },
        {
          "internalType": "address",
          "name": "spender",
          "type": "address"
        }
      ],
      "name": "buyWithAUsd",
      "outputs": [],
      "stateMutability": "nonpayable",
      "type": "function"
    },
    {
      "inputs": [
        {
          "internalType": "string",
          "name": "symbol",
          "type": "string"
        }
      ],
      "name": "createToken",
      "outputs": [
        {
          "internalType": "contract SecurityToken",
          "name": "",
          "type": "address"
        }
      ],
      "stateMutability": "nonpayable",
      "type": "function"
    },
    {
      "inputs": [
        {
          "internalType": "bytes32",
          "name": "role",
          "type": "bytes32"
        }
      ],
      "name": "getRoleAdmin",
      "outputs": [
        {
          "internalType": "bytes32",
          "name": "",
          "type": "bytes32"
        }
      ],
      "stateMutability": "view",
      "type": "function"
    },
    {
      "inputs": [
        {
          "internalType": "string",
          "name": "symbol",
          "type": "string"
        }
      ],
      "name": "getSecurityToken",
      "outputs": [
        {
          "internalType": "address",
          "name": "",
          "type": "address"
        }
      ],
      "stateMutability": "view",
      "type": "function"
    },
    {
      "inputs": [
        {
          "internalType": "address",
          "name": "recipient",
          "type": "address"
        }
      ],
      "name": "grantMintAndBurnRole",
      "outputs": [],
      "stateMutability": "nonpayable",
      "type": "function"
    },
    {
      "inputs": [
        {
          "internalType": "bytes32",
          "name": "role",
          "type": "bytes32"
        },
        {
          "internalType": "address",
          "name": "account",
          "type": "address"
        }
      ],
      "name": "grantRole",
      "outputs": [],
      "stateMutability": "nonpayable",
      "type": "function"
    },
    {
      "inputs": [
        {
          "internalType": "bytes32",
          "name": "role",
          "type": "bytes32"
        },
        {
          "internalType": "address",
          "name": "account",
          "type": "address"
        }
      ],
      "name": "hasRole",
      "outputs": [
        {
          "internalType": "bool",
          "name": "",
          "type": "bool"
        }
      ],
      "stateMutability": "view",
      "type": "function"
    },
    {
      "inputs": [],
      "name": "initialize",
      "outputs": [],
      "stateMutability": "nonpayable",
      "type": "function"
    },
    {
      "inputs": [],
      "name": "kycContract",
      "outputs": [
        {
          "internalType": "contract KYC",
          "name": "",
          "type": "address"
        }
      ],
      "stateMutability": "view",
      "type": "function"
    },
    {
      "inputs": [],
      "name": "marketCalendarContract",
      "outputs": [
        {
          "internalType": "contract MarketCalendar",
          "name": "",
          "type": "address"
        }
      ],
      "stateMutability": "view",
      "type": "function"
    },
    {
      "inputs": [
        {
          "internalType": "address",
          "name": "recipient",
          "type": "address"
        },
        {
          "internalType": "string",
          "name": "symbol",
          "type": "string"
        },
        {
          "internalType": "uint256",
          "name": "tsl",
          "type": "uint256"
        },
        {
          "internalType": "uint256",
          "name": "filledQty",
          "type": "uint256"
        },
        {
          "internalType": "uint256",
          "name": "filledAvgPrice",
          "type": "uint256"
        },
        {
          "internalType": "string",
          "name": "side",
          "type": "string"
        },
        {
          "internalType": "uint256",
          "name": "filledAt",
          "type": "uint256"
        },
        {
          "internalType": "uint256",
          "name": "commission",
          "type": "uint256"
        },
        {
          "internalType": "uint256",
          "name": "aUsdBalance",
          "type": "uint256"
        },
        {
          "internalType": "address",
          "name": "spender",
          "type": "address"
        }
      ],
      "name": "orderExecuted",
      "outputs": [],
      "stateMutability": "nonpayable",
      "type": "function"
    },
    {
      "inputs": [
        {
          "internalType": "address",
          "name": "recipient",
          "type": "address"
        },
        {
          "internalType": "string",
          "name": "symbol",
          "type": "string"
        },
        {
          "internalType": "uint256",
          "name": "buyingPower",
          "type": "uint256"
        },
        {
          "internalType": "string",
          "name": "message",
          "type": "string"
        },
        {
          "internalType": "address",
          "name": "spender",
          "type": "address"
        }
      ],
      "name": "orderFailed",
      "outputs": [],
      "stateMutability": "nonpayable",
      "type": "function"
    },
    {
      "inputs": [],
      "name": "pause",
      "outputs": [],
      "stateMutability": "nonpayable",
      "type": "function"
    },
    {
      "inputs": [],
      "name": "paused",
      "outputs": [
        {
          "internalType": "bool",
          "name": "",
          "type": "bool"
        }
      ],
      "stateMutability": "view",
      "type": "function"
    },
    {
      "inputs": [],
      "name": "proxiableUUID",
      "outputs": [
        {
          "internalType": "bytes32",
          "name": "",
          "type": "bytes32"
        }
      ],
      "stateMutability": "view",
      "type": "function"
    },
    {
      "inputs": [
        {
          "internalType": "bytes32",
          "name": "role",
          "type": "bytes32"
        },
        {
          "internalType": "address",
          "name": "account",
          "type": "address"
        }
      ],
      "name": "renounceRole",
      "outputs": [],
      "stateMutability": "nonpayable",
      "type": "function"
    },
    {
      "inputs": [
        {
          "internalType": "address",
          "name": "recipient",
          "type": "address"
        }
      ],
      "name": "revokeMintAndBurnRole",
      "outputs": [],
      "stateMutability": "nonpayable",
      "type": "function"
    },
    {
      "inputs": [
        {
          "internalType": "bytes32",
          "name": "role",
          "type": "bytes32"
        },
        {
          "internalType": "address",
          "name": "account",
          "type": "address"
        }
      ],
      "name": "revokeRole",
      "outputs": [],
      "stateMutability": "nonpayable",
      "type": "function"
    },
    {
      "inputs": [
        {
          "internalType": "string",
          "name": "",
          "type": "string"
        }
      ],
      "name": "securityTokens",
      "outputs": [
        {
          "internalType": "address",
          "name": "",
          "type": "address"
        }
      ],
      "stateMutability": "view",
      "type": "function"
    },
    {
      "inputs": [
        {
          "internalType": "address",
          "name": "walletAddress",
          "type": "address"
        },
        {
          "internalType": "address",
          "name": "aUsdAddress",
          "type": "address"
        },
        {
          "internalType": "string",
          "name": "symbol",
          "type": "string"
        },
        {
          "internalType": "uint256",
          "name": "quantity",
          "type": "uint256"
        },
        {
          "internalType": "address",
          "name": "spender",
          "type": "address"
        }
      ],
      "name": "sellSecurityToken",
      "outputs": [],
      "stateMutability": "nonpayable",
      "type": "function"
    },
    {
      "inputs": [
        {
          "internalType": "contract aUSD",
          "name": "aUsdAddress",
          "type": "address"
        },
        {
          "internalType": "contract KYC",
          "name": "kycAddress",
          "type": "address"
        },
        {
          "internalType": "contract MarketCalendar",
          "name": "marketCalendarAddress",
          "type": "address"
        },
        {
          "internalType": "contract StakingPool",
          "name": "stakingPoolAddress",
          "type": "address"
        }
      ],
      "name": "setAddresses",
      "outputs": [],
      "stateMutability": "nonpayable",
      "type": "function"
    },
    {
      "inputs": [],
      "name": "stakingPoolContract",
      "outputs": [
        {
          "internalType": "contract StakingPool",
          "name": "",
          "type": "address"
        }
      ],
      "stateMutability": "view",
      "type": "function"
    },
    {
      "inputs": [
        {
          "internalType": "bytes4",
          "name": "interfaceId",
          "type": "bytes4"
        }
      ],
      "name": "supportsInterface",
      "outputs": [
        {
          "internalType": "bool",
          "name": "",
          "type": "bool"
        }
      ],
      "stateMutability": "view",
      "type": "function"
    },
    {
      "inputs": [],
      "name": "unpause",
      "outputs": [],
      "stateMutability": "nonpayable",
      "type": "function"
    },
    {
      "inputs": [
        {
          "internalType": "address",
          "name": "newImplementation",
          "type": "address"
        }
      ],
      "name": "upgradeTo",
      "outputs": [],
      "stateMutability": "nonpayable",
      "type": "function"
    },
    {
      "inputs": [
        {
          "internalType": "address",
          "name": "newImplementation",
          "type": "address"
        },
        {
          "internalType": "bytes",
          "name": "data",
          "type": "bytes"
        }
      ],
      "name": "upgradeToAndCall",
      "outputs": [],
      "stateMutability": "payable",
      "type": "function"
    }
  ],
  "bytecode": "0x60a0604052306080523480156200001557600080fd5b50600054610100900460ff1615808015620000375750600054600160ff909116105b8062000067575062000054306200014160201b620022191760201c565b15801562000067575060005460ff166001145b620000cf5760405162461bcd60e51b815260206004820152602e60248201527f496e697469616c697a61626c653a20636f6e747261637420697320616c72656160448201526d191e481a5b9a5d1a585b1a5e995960921b606482015260840160405180910390fd5b6000805460ff191660011790558015620000f3576000805461ff0019166101001790555b80156200013a576000805461ff0019169055604051600181527f7f26b83ff96e1f2b6a682f133852f6798a09c465da95921460cefb38474024989060200160405180910390a15b5062000150565b6001600160a01b03163b151590565b608051614afa62000196600039600081816110ee0152818161118601528181611538015281816115d0015281816116ce015281816123e901526124810152614afa6000f3fe608060405260043610620002ff5760003560e01c80635ff53fc411620001975780639d81f9e111620000e7578063da48f4ad1162000095578063f1935fd4116200006c578063f1935fd41462000a07578063f72c0d8b1462000a52578063fcca64041462000a8857600080fd5b8063da48f4ad1462000966578063e63ab1e914620009ac578063ee02eab114620009e257600080fd5b8063a82df14211620000ca578063a82df14214620008e6578063d5391393146200090b578063d547741f146200094157600080fd5b80639d81f9e114620008ac578063a217fddf14620008cf57600080fd5b80638129fc1c11620001455780638456cb5911620001285780638456cb59146200082557806385b38eed146200083d57806391d14854146200086257600080fd5b80638129fc1c14620007f5578063835d9c58146200080d57600080fd5b80636d3123eb116200017a5780636d3123eb14620007625780637989ad6814620007855780637cfb3d7114620007d057600080fd5b80635ff53fc4146200071a578063629bc155146200073d57600080fd5b806336568abe11620002535780634a945f8d11620002015780634ffcfbe111620001e45780634ffcfbe1146200069d57806352d1902d14620006e85780635c975abb146200070057600080fd5b80634a945f8d14620006615780634f1ef286146200068657600080fd5b80633afea58611620002365780633afea58614620005d95780633f4ba83a146200062457806345576f94146200063c57600080fd5b806336568abe146200058f5780633659cfe614620005b457600080fd5b80631bc9905111620002b15780632a9535ff11620002945780632a9535ff14620004e35780632f2ff15d146200051f5780633623ce90146200054457600080fd5b80631bc990511462000455578063248a9ca314620004a057600080fd5b80630b317e7911620002e65780630b317e7914620003985780631882140014620003bf57806319b4881a146200040a57600080fd5b806301ffc9a7146200030457806307d725da146200033e575b600080fd5b3480156200031157600080fd5b50620003296200032336600462002f02565b62000aad565b60405190151581526020015b60405180910390f35b3480156200034b57600080fd5b50620003896040518060400160405280601081526020017f4d61726b657420697320636c6f7365640000000000000000000000000000000081525081565b60405162000335919062002f9a565b348015620003a557600080fd5b50620003bd620003b736600462002fd2565b62000b47565b005b348015620003cc57600080fd5b50620003896040518060400160405280601581526020017f4c696d696e616c2e6d61726b65742073796d626f6c000000000000000000000081525081565b3480156200041757600080fd5b50620003896040518060400160405280601a81526020017f596f7520646f6e2774206861766520656e6f756768206155534400000000000081525081565b3480156200046257600080fd5b50620003896040518060400160405280601681526020017f53796d626f6c2063616e6e6f7420626520656d7074790000000000000000000081525081565b348015620004ad57600080fd5b50620004d4620004bf3660046200302c565b60009081526097602052604090206001015490565b60405190815260200162000335565b348015620004f057600080fd5b506101315462000506906001600160a01b031681565b6040516001600160a01b03909116815260200162000335565b3480156200052c57600080fd5b50620003bd6200053e36600462003046565b62001026565b3480156200055157600080fd5b50620003896040518060400160405280601d81526020017f536563757269747920746f6b656e20616c72656164792065786973747300000081525081565b3480156200059c57600080fd5b50620003bd620005ae36600462003046565b62001054565b348015620005c157600080fd5b50620003bd620005d336600462003079565b620010e4565b348015620005e657600080fd5b50620003896040518060400160405280601681526020017f416464726573732063616e6e6f74206265207a65726f0000000000000000000081525081565b3480156200063157600080fd5b50620003bd6200128a565b3480156200064957600080fd5b50620005066200065b36600462003174565b620012c0565b3480156200066e57600080fd5b50620003bd62000680366004620031b5565b620014bf565b620003bd620006973660046200320f565b6200152e565b348015620006aa57600080fd5b50620003896040518060400160405280601f81526020017f596f752063616e206f6e6c792073656e6420746f206155534420746f6b656e0081525081565b348015620006f557600080fd5b50620004d4620016c1565b3480156200070d57600080fd5b5060335460ff1662000329565b3480156200072757600080fd5b5061012d5462000506906001600160a01b031681565b3480156200074a57600080fd5b50620005066200075c36600462003174565b62001788565b3480156200076f57600080fd5b5061012e5462000506906001600160a01b031681565b3480156200079257600080fd5b50620003896040518060400160405280601f81526020017f54686973206973206e6f742076616c696420746f6b656e20616464726573730081525081565b348015620007dd57600080fd5b50620003bd620007ef36600462003079565b620017bc565b3480156200080257600080fd5b50620003bd620017f5565b3480156200081a57600080fd5b5062000389620019c2565b3480156200083257600080fd5b50620003bd620019df565b3480156200084a57600080fd5b50620003bd6200085c36600462003079565b62001a15565b3480156200086f57600080fd5b50620003296200088136600462003046565b60009182526097602090815260408084206001600160a01b0393909316845291905290205460ff1690565b348015620008b957600080fd5b5061012f5462000506906001600160a01b031681565b348015620008dc57600080fd5b50620004d4600081565b348015620008f357600080fd5b50620003bd620009053660046200327a565b62001a4e565b3480156200091857600080fd5b50620004d47f9f2df0fed2c77648de5860a4cc508cd0818c85b8b8a1ab4ceeef8d981c8956a681565b3480156200094e57600080fd5b50620003bd6200096036600462003046565b62001ed7565b3480156200097357600080fd5b50620005066200098536600462003174565b8051602081830181018051610130825292820191909301209152546001600160a01b031681565b348015620009b957600080fd5b50620004d47f65d7a28e3265b37a6474929f336521b332c1681b933f6cb9f3376673440d862a81565b348015620009ef57600080fd5b50620003bd62000a0136600462003305565b62001f00565b34801562000a1457600080fd5b50620003896040518060400160405280601e81526020017f4f6e6c79206155534420636f6e74726163742063616e2063616c6c206d65000081525081565b34801562000a5f57600080fd5b50620004d47f189ab7a9244df0848122154315af71fe140f3db0fe014031783b0946b8c9d2e381565b34801562000a9557600080fd5b50620003bd62000aa7366004620033d1565b6200219a565b60007fffffffff0000000000000000000000000000000000000000000000000000000082167f7965db0b00000000000000000000000000000000000000000000000000000000148062000b4157507f01ffc9a7000000000000000000000000000000000000000000000000000000007fffffffff000000000000000000000000000000000000000000000000000000008316145b92915050565b62000b5162002228565b61012d5460408051808201909152601e81527f4f6e6c79206155534420636f6e74726163742063616e2063616c6c206d6500006020820152906001600160a01b0316331462000bbe5760405162461bcd60e51b815260040162000bb5919062002f9a565b60405180910390fd5b5061012f60009054906101000a90046001600160a01b03166001600160a01b031663d4ce85f36040518163ffffffff1660e01b8152600401602060405180830381865afa15801562000c14573d6000803e3d6000fd5b505050506040513d601f19601f8201168201806040525081019062000c3a919062003463565b6040518060400160405280601081526020017f4d61726b657420697320636c6f736564000000000000000000000000000000008152509062000c915760405162461bcd60e51b815260040162000bb5919062002f9a565b5061012d546040517f70a082310000000000000000000000000000000000000000000000000000000081526001600160a01b03868116600483015260009216906370a0823190602401602060405180830381865afa15801562000cf8573d6000803e3d6000fd5b505050506040513d601f19601f8201168201806040525081019062000d1e919062003487565b9050828110156040518060400160405280601a81526020017f596f7520646f6e2774206861766520656e6f75676820615553440000000000008152509062000d7b5760405162461bcd60e51b815260040162000bb5919062002f9a565b5061012e546040517f8b1b925f0000000000000000000000000000000000000000000000000000000081526001600160a01b0387811660048301526000921690638b1b925f90602401600060405180830381865afa15801562000de2573d6000803e3d6000fd5b505050506040513d6000823e601f3d908101601f1916820160405262000e0c9190810190620034a1565b90506000859050306001600160a01b0316816001600160a01b0316638da5cb5b6040518163ffffffff1660e01b8152600401602060405180830381865afa15801562000e5c573d6000803e3d6000fd5b505050506040513d601f19601f8201168201806040525081019062000e82919062003518565b6001600160a01b0316146040518060400160405280601f81526020017f54686973206973206e6f742076616c696420746f6b656e2061646472657373008152509062000ee35760405162461bcd60e51b815260040162000bb5919062002f9a565b506000816001600160a01b03166395d89b416040518163ffffffff1660e01b8152600401600060405180830381865afa15801562000f25573d6000803e3d6000fd5b505050506040513d6000823e601f3d908101601f1916820160405262000f4f9190810190620034a1565b90506001600160a01b03851662000f64573094505b7f7e5d12bbde79004142810629c5e42ea48221200745f25bf60cfcc2e5d0f2db7d888785848b8a60405162000f9f9695949392919062003538565b60405180910390a161012d546001600160a01b0316635b4529898962000fc68988620035a9565b60016040518463ffffffff1660e01b815260040162000fe893929190620035bf565b600060405180830381600087803b1580156200100357600080fd5b505af115801562001018573d6000803e3d6000fd5b505050505050505050505050565b60008281526097602052604090206001015462001043816200227f565b6200104f83836200228b565b505050565b6001600160a01b0381163314620010d45760405162461bcd60e51b815260206004820152602f60248201527f416363657373436f6e74726f6c3a2063616e206f6e6c792072656e6f756e636560448201527f20726f6c657320666f722073656c660000000000000000000000000000000000606482015260840162000bb5565b620010e082826200232f565b5050565b6001600160a01b037f0000000000000000000000000000000000000000000000000000000000000000163003620011845760405162461bcd60e51b815260206004820152602c60248201527f46756e6374696f6e206d7573742062652063616c6c6564207468726f7567682060448201527f64656c656761746563616c6c0000000000000000000000000000000000000000606482015260840162000bb5565b7f00000000000000000000000000000000000000000000000000000000000000006001600160a01b0316620011e07f360894a13ba1a3210667c828492db98dca3e2076cc3735a920a3ca505d382bbc546001600160a01b031690565b6001600160a01b0316146200125e5760405162461bcd60e51b815260206004820152602c60248201527f46756e6374696f6e206d7573742062652063616c6c6564207468726f7567682060448201527f6163746976652070726f78790000000000000000000000000000000000000000606482015260840162000bb5565b6200126981620023b3565b60408051600080825260208201909252620012879183919062002564565b50565b7f65d7a28e3265b37a6474929f336521b332c1681b933f6cb9f3376673440d862a620012b6816200227f565b6200128762002710565b6000620012cc62002228565b815160408051808201909152601681527f53796d626f6c2063616e6e6f7420626520656d70747900000000000000000000602082015290620013235760405162461bcd60e51b815260040162000bb5919062002f9a565b5060006001600160a01b03166101308360405162001342919062003603565b90815260408051918290036020908101832054838301909252601d83527f536563757269747920746f6b656e20616c7265616479206578697374730000009083015290916001600160a01b0390911614620013b25760405162461bcd60e51b815260040162000bb5919062002f9a565b5060006040518060400160405280601581526020017f4c696d696e616c2e6d61726b65742073796d626f6c000000000000000000000081525083604051620013fa9062002ef4565b6200140792919062003621565b604051809103906000f08015801562001424573d6000803e3d6000fd5b5090506000819050806101308560405162001440919062003603565b90815260405190819003602001812080546001600160a01b039390931673ffffffffffffffffffffffffffffffffffffffff19909316929092179091557f7c56d5eff73d004b4d80f35d05a7e9a2429df1bb9544be59c859d049e2f449fb90620014ae90839087906200364a565b60405180910390a15090505b919050565b6000620014cc816200227f565b5061012d80546001600160a01b0395861673ffffffffffffffffffffffffffffffffffffffff199182161790915561012e80549486169482169490941790935561012f8054928516928416929092179091556101318054919093169116179055565b6001600160a01b037f0000000000000000000000000000000000000000000000000000000000000000163003620015ce5760405162461bcd60e51b815260206004820152602c60248201527f46756e6374696f6e206d7573742062652063616c6c6564207468726f7567682060448201527f64656c656761746563616c6c0000000000000000000000000000000000000000606482015260840162000bb5565b7f00000000000000000000000000000000000000000000000000000000000000006001600160a01b03166200162a7f360894a13ba1a3210667c828492db98dca3e2076cc3735a920a3ca505d382bbc546001600160a01b031690565b6001600160a01b031614620016a85760405162461bcd60e51b815260206004820152602c60248201527f46756e6374696f6e206d7573742062652063616c6c6564207468726f7567682060448201527f6163746976652070726f78790000000000000000000000000000000000000000606482015260840162000bb5565b620016b382620023b3565b620010e08282600162002564565b6000306001600160a01b037f00000000000000000000000000000000000000000000000000000000000000001614620017635760405162461bcd60e51b815260206004820152603860248201527f555550535570677261646561626c653a206d757374206e6f742062652063616c60448201527f6c6564207468726f7567682064656c656761746563616c6c0000000000000000606482015260840162000bb5565b507f360894a13ba1a3210667c828492db98dca3e2076cc3735a920a3ca505d382bbc90565b6000610130826040516200179d919062003603565b908152604051908190036020019020546001600160a01b031692915050565b6000620017c9816200227f565b620010e07f9f2df0fed2c77648de5860a4cc508cd0818c85b8b8a1ab4ceeef8d981c8956a68362001026565b600054610100900460ff1615808015620018165750600054600160ff909116105b80620018325750303b15801562001832575060005460ff166001145b620018a65760405162461bcd60e51b815260206004820152602e60248201527f496e697469616c697a61626c653a20636f6e747261637420697320616c72656160448201527f647920696e697469616c697a6564000000000000000000000000000000000000606482015260840162000bb5565b6000805460ff191660011790558015620018ca576000805461ff0019166101001790555b620018d462002764565b620018de620027ed565b620018e8620027ed565b620018f56000336200228b565b620019217f65d7a28e3265b37a6474929f336521b332c1681b933f6cb9f3376673440d862a336200228b565b6200194d7f9f2df0fed2c77648de5860a4cc508cd0818c85b8b8a1ab4ceeef8d981c8956a6336200228b565b620019797f189ab7a9244df0848122154315af71fe140f3db0fe014031783b0946b8c9d2e3336200228b565b801562001287576000805461ff0019169055604051600181527f7f26b83ff96e1f2b6a682f133852f6798a09c465da95921460cefb38474024989060200160405180910390a150565b60405180606001604052806026815260200162004a786026913981565b7f65d7a28e3265b37a6474929f336521b332c1681b933f6cb9f3376673440d862a62001a0b816200227f565b620012876200286c565b600062001a22816200227f565b620010e07f9f2df0fed2c77648de5860a4cc508cd0818c85b8b8a1ab4ceeef8d981c8956a68362001ed7565b62001a5862002228565b61012d5460408051808201909152601f81527f596f752063616e206f6e6c792073656e6420746f206155534420746f6b656e006020820152906001600160a01b0386811691161462001abf5760405162461bcd60e51b815260040162000bb5919062002f9a565b5061012f60009054906101000a90046001600160a01b03166001600160a01b031663d4ce85f36040518163ffffffff1660e01b8152600401602060405180830381865afa15801562001b15573d6000803e3d6000fd5b505050506040513d601f19601f8201168201806040525081019062001b3b919062003463565b6040518060400160405280601081526020017f4d61726b657420697320636c6f736564000000000000000000000000000000008152509062001b925760405162461bcd60e51b815260040162000bb5919062002f9a565b503362001b9f8462001788565b6001600160a01b0316146040518060400160405280601f81526020017f54686973206973206e6f742076616c696420746f6b656e2061646472657373008152509062001c005760405162461bcd60e51b815260040162000bb5919062002f9a565b5061012e546040517f8b1b925f0000000000000000000000000000000000000000000000000000000081526001600160a01b0387811660048301526000921690638b1b925f90602401600060405180830381865afa15801562001c67573d6000803e3d6000fd5b505050506040513d6000823e601f3d908101601f1916820160405262001c919190810190620034a1565b6040517f70a082310000000000000000000000000000000000000000000000000000000081526001600160a01b0388166004820152909150339060009082906370a0823190602401602060405180830381865afa15801562001cf7573d6000803e3d6000fd5b505050506040513d601f19601f8201168201806040525081019062001d1d919062003487565b90508481101560405180606001604052806026815260200162004a78602691399062001d5e5760405162461bcd60e51b815260040162000bb5919062002f9a565b50610131546040517f9c45c8290000000000000000000000000000000000000000000000000000000081526001600160a01b0390911690639c45c8299062001db1908b908a9086908b906004016200366e565b602060405180830381865afa15801562001dcf573d6000803e3d6000fd5b505050506040513d601f19601f8201168201806040525081019062001df5919062003463565b62001e435760405162461bcd60e51b815260206004820152600f60248201527f546f6b656e206973207374616b65640000000000000000000000000000000000604482015260640162000bb5565b6001600160a01b03841662001e56573093505b7f4341e54645ad9755ed9779b519412751d6965340ce2953951d20ebbfcbdf340b83898989898960405162001e9196959493929190620036a5565b60405180910390a16001600160a01b038216635b4529898962001eb58885620035a9565b60026040518463ffffffff1660e01b815260040162000fe893929190620035bf565b60008281526097602052604090206001015462001ef4816200227f565b6200104f83836200232f565b62001f0a62002228565b7f9f2df0fed2c77648de5860a4cc508cd0818c85b8b8a1ab4ceeef8d981c8956a662001f36816200227f565b60408051808201909152601681527f416464726573732063616e6e6f74206265207a65726f0000000000000000000060208201526001600160a01b038c1662001f945760405162461bcd60e51b815260040162000bb5919062002f9a565b506000806101308c60405162001fab919062003603565b908152604051908190036020019020546001600160a01b031690508062002058576040517f45576f9400000000000000000000000000000000000000000000000000000000815230906345576f94906200200a908f9060040162002f9a565b6020604051808303816000875af11580156200202a573d6000803e3d6000fd5b505050506040513d601f19601f8201168201806040525081019062002050919062003518565b91506200205c565b8091505b816001600160a01b0316635b4529898e8d60036040518463ffffffff1660e01b81526004016200208f93929190620035bf565b600060405180830381600087803b158015620020aa57600080fd5b505af1158015620020bf573d6000803e3d6000fd5b5050505061012d60009054906101000a90046001600160a01b03166001600160a01b0316635b4529898e8760036040518463ffffffff1660e01b81526004016200210c93929190620035bf565b600060405180830381600087803b1580156200212757600080fd5b505af11580156200213c573d6000803e3d6000fd5b505050507f63d96cc2b8bb5bdb5a21698ccf602b5d04799801cbaface9d322d180a38c55b48d8d8d8d8d8d8d8d8d8d604051620021839a9998979695949392919062003703565b60405180910390a150505050505050505050505050565b620021a462002228565b7f9f2df0fed2c77648de5860a4cc508cd0818c85b8b8a1ab4ceeef8d981c8956a6620021d0816200227f565b7fb119d18d6fd69df5ab079683b30b759ed526ca02797650de9c42f2e33c6a57e686868686866040516200220995949392919062003780565b60405180910390a1505050505050565b6001600160a01b03163b151590565b60335460ff16156200227d5760405162461bcd60e51b815260206004820152601060248201527f5061757361626c653a2070617573656400000000000000000000000000000000604482015260640162000bb5565b565b620012878133620028ac565b60008281526097602090815260408083206001600160a01b038516845290915290205460ff16620010e05760008281526097602090815260408083206001600160a01b03851684529091529020805460ff19166001179055620022eb3390565b6001600160a01b0316816001600160a01b0316837f2f8788117e7eff1d82e926ec794901d17c78024a50270940304540a733656f0d60405160405180910390a45050565b60008281526097602090815260408083206001600160a01b038516845290915290205460ff1615620010e05760008281526097602090815260408083206001600160a01b0385168085529252808320805460ff1916905551339285917ff6391f5c32d9c69d2a47ea670b442974b53935d1edc7fd64eb21e047a839171b9190a45050565b7f189ab7a9244df0848122154315af71fe140f3db0fe014031783b0946b8c9d2e3620023df816200227f565b6001600160a01b037f00000000000000000000000000000000000000000000000000000000000000001630036200247f5760405162461bcd60e51b815260206004820152602c60248201527f46756e6374696f6e206d7573742062652063616c6c6564207468726f7567682060448201527f64656c656761746563616c6c0000000000000000000000000000000000000000606482015260840162000bb5565b7f00000000000000000000000000000000000000000000000000000000000000006001600160a01b0316620024db7f360894a13ba1a3210667c828492db98dca3e2076cc3735a920a3ca505d382bbc546001600160a01b031690565b6001600160a01b031614620025595760405162461bcd60e51b815260206004820152602c60248201527f46756e6374696f6e206d7573742062652063616c6c6564207468726f7567682060448201527f6163746976652070726f78790000000000000000000000000000000000000000606482015260840162000bb5565b620010e08262002935565b7f4910fdfa16fed3260ed0e7147f7cc6da11a60208b5b9406d12a635614ffd91435460ff16156200259a576200104f8362002977565b826001600160a01b03166352d1902d6040518163ffffffff1660e01b8152600401602060405180830381865afa925050508015620025f7575060408051601f3d908101601f19168201909252620025f49181019062003487565b60015b6200266b5760405162461bcd60e51b815260206004820152602e60248201527f45524331393637557067726164653a206e657720696d706c656d656e7461746960448201527f6f6e206973206e6f742055555053000000000000000000000000000000000000606482015260840162000bb5565b7f360894a13ba1a3210667c828492db98dca3e2076cc3735a920a3ca505d382bbc8114620027025760405162461bcd60e51b815260206004820152602960248201527f45524331393637557067726164653a20756e737570706f727465642070726f7860448201527f6961626c65555549440000000000000000000000000000000000000000000000606482015260840162000bb5565b506200104f83838362002a44565b6200271a62002a75565b6033805460ff191690557f5db9ee0a495bf2e6ff9c91a7834c1ba4fdd244a5e8aa4e537bd38aeae4b073aa335b6040516001600160a01b03909116815260200160405180910390a1565b600054610100900460ff16620027e35760405162461bcd60e51b815260206004820152602b60248201527f496e697469616c697a61626c653a20636f6e7472616374206973206e6f74206960448201527f6e697469616c697a696e67000000000000000000000000000000000000000000606482015260840162000bb5565b6200227d62002ac9565b600054610100900460ff166200227d5760405162461bcd60e51b815260206004820152602b60248201527f496e697469616c697a61626c653a20636f6e7472616374206973206e6f74206960448201527f6e697469616c697a696e67000000000000000000000000000000000000000000606482015260840162000bb5565b6200287662002228565b6033805460ff191660011790557f62e78cea01bee320cd4e420270b5ea74000d11b0c9f74754ebdbfc544b05a258620027473390565b60008281526097602090815260408083206001600160a01b038516845290915290205460ff16620010e057620028ed816001600160a01b0316601462002b54565b620028fa83602062002b54565b6040516020016200290d929190620037d5565b60408051601f198184030181529082905262461bcd60e51b825262000bb59160040162002f9a565b620029408162002977565b6040516001600160a01b038216907fbc7cd75a20ee27fd9adebab32041f755214dbc6bffa90cc0225b39da2e5c2d3b90600090a250565b6001600160a01b0381163b620029f65760405162461bcd60e51b815260206004820152602d60248201527f455243313936373a206e657720696d706c656d656e746174696f6e206973206e60448201527f6f74206120636f6e747261637400000000000000000000000000000000000000606482015260840162000bb5565b7f360894a13ba1a3210667c828492db98dca3e2076cc3735a920a3ca505d382bbc805473ffffffffffffffffffffffffffffffffffffffff19166001600160a01b0392909216919091179055565b62002a4f8362002935565b60008251118062002a5d5750805b156200104f5762002a6f838362002da2565b50505050565b60335460ff166200227d5760405162461bcd60e51b815260206004820152601460248201527f5061757361626c653a206e6f7420706175736564000000000000000000000000604482015260640162000bb5565b600054610100900460ff1662002b485760405162461bcd60e51b815260206004820152602b60248201527f496e697469616c697a61626c653a20636f6e7472616374206973206e6f74206960448201527f6e697469616c697a696e67000000000000000000000000000000000000000000606482015260840162000bb5565b6033805460ff19169055565b6060600062002b658360026200385a565b62002b729060026200387c565b67ffffffffffffffff81111562002b8d5762002b8d62003099565b6040519080825280601f01601f19166020018201604052801562002bb8576020820181803683370190505b5090507f30000000000000000000000000000000000000000000000000000000000000008160008151811062002bf25762002bf262003892565b60200101907effffffffffffffffffffffffffffffffffffffffffffffffffffffffffffff1916908160001a9053507f78000000000000000000000000000000000000000000000000000000000000008160018151811062002c585762002c5862003892565b60200101907effffffffffffffffffffffffffffffffffffffffffffffffffffffffffffff1916908160001a905350600062002c968460026200385a565b62002ca39060016200387c565b90505b600181111562002d4a577f303132333435363738396162636465660000000000000000000000000000000085600f166010811062002ce85762002ce862003892565b1a60f81b82828151811062002d015762002d0162003892565b60200101907effffffffffffffffffffffffffffffffffffffffffffffffffffffffffffff1916908160001a90535060049490941c9362002d4281620038a8565b905062002ca6565b50831562002d9b5760405162461bcd60e51b815260206004820181905260248201527f537472696e67733a20686578206c656e67746820696e73756666696369656e74604482015260640162000bb5565b9392505050565b60606001600160a01b0383163b62002e235760405162461bcd60e51b815260206004820152602660248201527f416464726573733a2064656c65676174652063616c6c20746f206e6f6e2d636f60448201527f6e74726163740000000000000000000000000000000000000000000000000000606482015260840162000bb5565b600080846001600160a01b03168460405162002e40919062003603565b600060405180830381855af49150503d806000811462002e7d576040519150601f19603f3d011682016040523d82523d6000602084013e62002e82565b606091505b509150915062002ead828260405180606001604052806027815260200162004a9e6027913962002eb6565b95945050505050565b6060831562002ec757508162002d9b565b82511562002ed85782518084602001fd5b8160405162461bcd60e51b815260040162000bb5919062002f9a565b6111b580620038c383390190565b60006020828403121562002f1557600080fd5b81357fffffffff000000000000000000000000000000000000000000000000000000008116811462002d9b57600080fd5b60005b8381101562002f6357818101518382015260200162002f49565b50506000910152565b6000815180845262002f8681602086016020860162002f46565b601f01601f19169290920160200192915050565b60208152600062002d9b602083018462002f6c565b6001600160a01b03811681146200128757600080fd5b8035620014ba8162002faf565b6000806000806080858703121562002fe957600080fd5b843562002ff68162002faf565b93506020850135620030088162002faf565b9250604085013591506060850135620030218162002faf565b939692955090935050565b6000602082840312156200303f57600080fd5b5035919050565b600080604083850312156200305a57600080fd5b8235915060208301356200306e8162002faf565b809150509250929050565b6000602082840312156200308c57600080fd5b813562002d9b8162002faf565b634e487b7160e01b600052604160045260246000fd5b604051601f8201601f1916810167ffffffffffffffff81118282101715620030db57620030db62003099565b604052919050565b600067ffffffffffffffff82111562003100576200310062003099565b50601f01601f191660200190565b6000620031256200311f84620030e3565b620030af565b90508281528383830111156200313a57600080fd5b828260208301376000602084830101529392505050565b600082601f8301126200316357600080fd5b62002d9b838335602085016200310e565b6000602082840312156200318757600080fd5b813567ffffffffffffffff8111156200319f57600080fd5b620031ad8482850162003151565b949350505050565b60008060008060808587031215620031cc57600080fd5b8435620031d98162002faf565b93506020850135620031eb8162002faf565b92506040850135620031fd8162002faf565b91506060850135620030218162002faf565b600080604083850312156200322357600080fd5b8235620032308162002faf565b9150602083013567ffffffffffffffff8111156200324d57600080fd5b8301601f810185136200325f57600080fd5b62003270858235602084016200310e565b9150509250929050565b600080600080600060a086880312156200329357600080fd5b8535620032a08162002faf565b94506020860135620032b28162002faf565b9350604086013567ffffffffffffffff811115620032cf57600080fd5b620032dd8882890162003151565b935050606086013591506080860135620032f78162002faf565b809150509295509295909350565b6000806000806000806000806000806101408b8d0312156200332657600080fd5b620033318b62002fc5565b995060208b013567ffffffffffffffff808211156200334f57600080fd5b6200335d8e838f0162003151565b9a5060408d0135995060608d0135985060808d0135975060a08d01359150808211156200338957600080fd5b50620033988d828e0162003151565b95505060c08b0135935060e08b013592506101008b01359150620033c06101208c0162002fc5565b90509295989b9194979a5092959850565b600080600080600060a08688031215620033ea57600080fd5b8535620033f78162002faf565b9450602086013567ffffffffffffffff808211156200341557600080fd5b6200342389838a0162003151565b95506040880135945060608801359150808211156200344157600080fd5b50620034508882890162003151565b9250506080860135620032f78162002faf565b6000602082840312156200347657600080fd5b8151801515811462002d9b57600080fd5b6000602082840312156200349a57600080fd5b5051919050565b600060208284031215620034b457600080fd5b815167ffffffffffffffff811115620034cc57600080fd5b8201601f81018413620034de57600080fd5b8051620034ef6200311f82620030e3565b8181528560208385010111156200350557600080fd5b62002ead82602083016020860162002f46565b6000602082840312156200352b57600080fd5b815162002d9b8162002faf565b60006001600160a01b03808916835287602084015260c060408401526200356360c084018862002f6c565b838103606085015262003577818862002f6c565b9582166080850152509290921660a09091015250949350505050565b634e487b7160e01b600052601160045260246000fd5b8181038181111562000b415762000b4162003593565b6001600160a01b0384168152602081018390526060810160048310620035f557634e487b7160e01b600052602160045260246000fd5b826040830152949350505050565b600082516200361781846020870162002f46565b9190910192915050565b60408152600062003636604083018562002f6c565b828103602084015262002ead818562002f6c565b6001600160a01b0383168152604060208201526000620031ad604083018462002f6c565b6001600160a01b038516815260806020820152600062003692608083018662002f6c565b6040830194909452506060015292915050565b60c081526000620036ba60c083018962002f6c565b6001600160a01b03808916602085015280881660408501528382036060850152620036e6828862002f6c565b925085608085015280851660a08501525050979650505050505050565b60006101406001600160a01b03808e168452816020850152620037298285018e62002f6c565b91508b60408501528a606085015289608085015283820360a085015262003751828a62002f6c565b92508760c08501528660e08501528561010085015280851661012085015250509b9a5050505050505050505050565b60006001600160a01b03808816835260a06020840152620037a560a084018862002f6c565b8660408501528381036060850152620037bf818762002f6c565b9250508084166080840152509695505050505050565b7f416363657373436f6e74726f6c3a206163636f756e74200000000000000000008152600083516200380f81601785016020880162002f46565b7f206973206d697373696e6720726f6c652000000000000000000000000000000060179184019182015283516200384e81602884016020880162002f46565b01602801949350505050565b600081600019048311821515161562003877576200387762003593565b500290565b8082018082111562000b415762000b4162003593565b634e487b7160e01b600052603260045260246000fd5b600081620038ba57620038ba62003593565b50600019019056fe60806040523480156200001157600080fd5b50604051620011b5380380620011b5833981016040819052620000349162000191565b818162000041336200007c565b60046200004f83826200028a565b5060056200005e82826200028a565b5050600680546001600160a01b031916331790555062000356915050565b600080546001600160a01b038381166001600160a01b0319831681178455604051919092169283917f8be0079c531659141344cd1fd0a4f28419497f9722a3daafe3b4186f6b6457e09190a35050565b634e487b7160e01b600052604160045260246000fd5b600082601f830112620000f457600080fd5b81516001600160401b0380821115620001115762000111620000cc565b604051601f8301601f19908116603f011681019082821181831017156200013c576200013c620000cc565b816040528381526020925086838588010111156200015957600080fd5b600091505b838210156200017d57858201830151818301840152908201906200015e565b600093810190920192909252949350505050565b60008060408385031215620001a557600080fd5b82516001600160401b0380821115620001bd57600080fd5b620001cb86838701620000e2565b93506020850151915080821115620001e257600080fd5b50620001f185828601620000e2565b9150509250929050565b600181811c908216806200021057607f821691505b6020821081036200023157634e487b7160e01b600052602260045260246000fd5b50919050565b601f8211156200028557600081815260208120601f850160051c81016020861015620002605750805b601f850160051c820191505b8181101562000281578281556001016200026c565b5050505b505050565b81516001600160401b03811115620002a657620002a6620000cc565b620002be81620002b78454620001fb565b8462000237565b602080601f831160018114620002f65760008415620002dd5750858301515b600019600386901b1c1916600185901b17855562000281565b600085815260208120601f198616915b82811015620003275788860151825594840194600190910190840162000306565b5085821015620003465787850151600019600388901b60f8161c191681555b5050505050600190811b01905550565b610e4f80620003666000396000f3fe608060405234801561001057600080fd5b50600436106100f55760003560e01c806370a0823111610097578063a457c2d711610066578063a457c2d7146101eb578063a9059cbb146101fe578063dd62ed3e14610211578063f2fde38b1461024a57600080fd5b806370a0823114610197578063715018a6146101c05780638da5cb5b146101c857806395d89b41146101e357600080fd5b806323b872dd116100d357806323b872dd1461014d578063313ce56714610160578063395093511461016f5780635b4529891461018257600080fd5b806306fdde03146100fa578063095ea7b31461011857806318160ddd1461013b575b600080fd5b61010261025d565b60405161010f9190610bed565b60405180910390f35b61012b610126366004610c23565b6102ef565b604051901515815260200161010f565b6003545b60405190815260200161010f565b61012b61015b366004610c4d565b610309565b6040516012815260200161010f565b61012b61017d366004610c23565b610391565b610195610190366004610c89565b6103d0565b005b61013f6101a5366004610ccd565b6001600160a01b031660009081526001602052604090205490565b610195610472565b6000546040516001600160a01b03909116815260200161010f565b610102610486565b61012b6101f9366004610c23565b610495565b61012b61020c366004610c23565b61054f565b61013f61021f366004610ce8565b6001600160a01b03918216600090815260026020908152604080832093909416825291909152205490565b610195610258366004610ccd565b6105cb565b60606004805461026c90610d1b565b80601f016020809104026020016040519081016040528092919081815260200182805461029890610d1b565b80156102e55780601f106102ba576101008083540402835291602001916102e5565b820191906000526020600020905b8154815290600101906020018083116102c857829003601f168201915b5050505050905090565b6000336102fd81858561065b565b60019150505b92915050565b6000336103178582856107b3565b6006546001600160a01b031663a82df1428686610332610486565b87866040518663ffffffff1660e01b8152600401610354959493929190610d55565b600060405180830381600087803b15801561036e57600080fd5b505af1158015610382573d6000803e3d6000fd5b50600198975050505050505050565b3360008181526002602090815260408083206001600160a01b03871684529091528120549091906102fd90829086906103cb908790610db0565b61065b565b6103d8610863565b6001600160a01b0383166000908152600160205260409020548083036103fe5750505050565b8083111561041e57610419846104148386610dc3565b6108bd565b610431565b6104318461042c8584610dc3565b61099c565b7f30244e15ecc10155724345921df69c73800ac2dc40cdb5cb1798bc19dff3edc284848460405161046493929190610dd6565b60405180910390a150505050565b61047a610863565b6104846000610b21565b565b60606005805461026c90610d1b565b3360008181526002602090815260408083206001600160a01b0387168452909152812054909190838110156105375760405162461bcd60e51b815260206004820152602560248201527f45524332303a2064656372656173656420616c6c6f77616e63652062656c6f7760448201527f207a65726f00000000000000000000000000000000000000000000000000000060648201526084015b60405180910390fd5b610544828686840361065b565b506001949350505050565b6006546000906001600160a01b031663a82df142338561056d610486565b8660006040518663ffffffff1660e01b8152600401610590959493929190610d55565b600060405180830381600087803b1580156105aa57600080fd5b505af11580156105be573d6000803e3d6000fd5b5060019695505050505050565b6105d3610863565b6001600160a01b03811661064f5760405162461bcd60e51b815260206004820152602660248201527f4f776e61626c653a206e6577206f776e657220697320746865207a65726f206160448201527f6464726573730000000000000000000000000000000000000000000000000000606482015260840161052e565b61065881610b21565b50565b6001600160a01b0383166106d65760405162461bcd60e51b8152602060048201526024808201527f45524332303a20617070726f76652066726f6d20746865207a65726f2061646460448201527f7265737300000000000000000000000000000000000000000000000000000000606482015260840161052e565b6001600160a01b0382166107525760405162461bcd60e51b815260206004820152602260248201527f45524332303a20617070726f766520746f20746865207a65726f20616464726560448201527f7373000000000000000000000000000000000000000000000000000000000000606482015260840161052e565b6001600160a01b0383811660008181526002602090815260408083209487168084529482529182902085905590518481527f8c5be1e5ebec7d5bd14f71427d1e84f3dd0314c0f7b2291e5b200ac8c7c3b925910160405180910390a3505050565b6001600160a01b038381166000908152600260209081526040808320938616835292905220547fffffffffffffffffffffffffffffffffffffffffffffffffffffffffffffffff811461085d57818110156108505760405162461bcd60e51b815260206004820152601d60248201527f45524332303a20696e73756666696369656e7420616c6c6f77616e6365000000604482015260640161052e565b61085d848484840361065b565b50505050565b6000546001600160a01b031633146104845760405162461bcd60e51b815260206004820181905260248201527f4f776e61626c653a2063616c6c6572206973206e6f7420746865206f776e6572604482015260640161052e565b6001600160a01b0382166109135760405162461bcd60e51b815260206004820152601f60248201527f45524332303a206d696e7420746f20746865207a65726f206164647265737300604482015260640161052e565b80600360008282546109259190610db0565b90915550506001600160a01b03821660009081526001602052604081208054839290610952908490610db0565b90915550506040518181526001600160a01b038316906000907fddf252ad1be2c89b69c2b068fc378daa952ba7f163c4a11628f55a4df523b3ef9060200160405180910390a35050565b6001600160a01b038216610a185760405162461bcd60e51b815260206004820152602160248201527f45524332303a206275726e2066726f6d20746865207a65726f2061646472657360448201527f7300000000000000000000000000000000000000000000000000000000000000606482015260840161052e565b6001600160a01b03821660009081526001602052604090205481811015610aa75760405162461bcd60e51b815260206004820152602260248201527f45524332303a206275726e20616d6f756e7420657863656564732062616c616e60448201527f6365000000000000000000000000000000000000000000000000000000000000606482015260840161052e565b6001600160a01b0383166000908152600160205260408120838303905560038054849290610ad6908490610dc3565b90915550506040518281526000906001600160a01b038516907fddf252ad1be2c89b69c2b068fc378daa952ba7f163c4a11628f55a4df523b3ef9060200160405180910390a3505050565b600080546001600160a01b038381167fffffffffffffffffffffffff0000000000000000000000000000000000000000831681178455604051919092169283917f8be0079c531659141344cd1fd0a4f28419497f9722a3daafe3b4186f6b6457e09190a35050565b6000815180845260005b81811015610baf57602081850181015186830182015201610b93565b5060006020828601015260207fffffffffffffffffffffffffffffffffffffffffffffffffffffffffffffffe0601f83011685010191505092915050565b602081526000610c006020830184610b89565b9392505050565b80356001600160a01b0381168114610c1e57600080fd5b919050565b60008060408385031215610c3657600080fd5b610c3f83610c07565b946020939093013593505050565b600080600060608486031215610c6257600080fd5b610c6b84610c07565b9250610c7960208501610c07565b9150604084013590509250925092565b600080600060608486031215610c9e57600080fd5b610ca784610c07565b925060208401359150604084013560048110610cc257600080fd5b809150509250925092565b600060208284031215610cdf57600080fd5b610c0082610c07565b60008060408385031215610cfb57600080fd5b610d0483610c07565b9150610d1260208401610c07565b90509250929050565b600181811c90821680610d2f57607f821691505b602082108103610d4f57634e487b7160e01b600052602260045260246000fd5b50919050565b60006001600160a01b038088168352808716602084015260a06040840152610d8060a0840187610b89565b606084019590955292909216608090910152509392505050565b634e487b7160e01b600052601160045260246000fd5b8082018082111561030357610303610d9a565b8181038181111561030357610303610d9a565b6001600160a01b0384168152602081018390526060810160048310610e0b57634e487b7160e01b600052602160045260246000fd5b82604083015294935050505056fea2646970667358221220586cd1198fe502bccb7fe4c767e264c7e5a7d46f8270daf35cc6f156566e29ad64736f6c634300081000335175616e746974792063616e6e6f74206265206c6172676572207468656e2062616c616e6365416464726573733a206c6f772d6c6576656c2064656c65676174652063616c6c206661696c6564a2646970667358221220b1c0ff4e3b1e1b645867bef4da7559a835d8ceae77a26b4b76374ce5501d18cb64736f6c63430008100033",
  "linkReferences": {},
  "deployedLinkReferences": {}
}