{
  "_format": "hh-sol-artifact-1",
  "contractName": "LiminalMarket",
  "sourceName": "contracts/LiminalMarket.sol",
  "abi": [
    {
      "inputs": [],
      "stateMutability": "nonpayable",
      "type": "constructor"
    },
    {
      "anonymous": false,
      "inputs": [
        {
          "indexed": false,
          "internalType": "address",
          "name": "previousAdmin",
          "type": "address"
        },
        {
          "indexed": false,
          "internalType": "address",
          "name": "newAdmin",
          "type": "address"
        }
      ],
      "name": "AdminChanged",
      "type": "event"
    },
    {
      "anonymous": false,
      "inputs": [
        {
          "indexed": true,
          "internalType": "address",
          "name": "beacon",
          "type": "address"
        }
      ],
      "name": "BeaconUpgraded",
      "type": "event"
    },
    {
      "anonymous": false,
      "inputs": [
        {
          "indexed": false,
          "internalType": "address",
          "name": "userAddress",
          "type": "address"
        },
        {
          "indexed": false,
          "internalType": "uint256",
          "name": "amount",
          "type": "uint256"
        },
        {
          "indexed": false,
          "internalType": "string",
          "name": "accountId",
          "type": "string"
        },
        {
          "indexed": false,
          "internalType": "string",
          "name": "symbol",
          "type": "string"
        },
        {
          "indexed": false,
          "internalType": "address",
          "name": "tokenAddress",
          "type": "address"
        }
      ],
      "name": "BuyWithAUsd",
      "type": "event"
    },
    {
      "anonymous": false,
      "inputs": [
        {
          "indexed": false,
          "internalType": "address",
          "name": "addr",
          "type": "address"
        },
        {
          "indexed": false,
          "internalType": "uint256",
          "name": "salt",
          "type": "uint256"
        }
      ],
      "name": "Deployed",
      "type": "event"
    },
    {
      "anonymous": false,
      "inputs": [
        {
          "indexed": false,
          "internalType": "uint8",
          "name": "version",
          "type": "uint8"
        }
      ],
      "name": "Initialized",
      "type": "event"
    },
    {
      "anonymous": false,
      "inputs": [
        {
          "indexed": false,
          "internalType": "address",
          "name": "recipient",
          "type": "address"
        },
        {
          "indexed": false,
          "internalType": "string",
          "name": "symbol",
          "type": "string"
        },
        {
          "indexed": false,
          "internalType": "uint256",
          "name": "qty",
          "type": "uint256"
        },
        {
          "indexed": false,
          "internalType": "uint256",
          "name": "filledQty",
          "type": "uint256"
        },
        {
          "indexed": false,
          "internalType": "uint256",
          "name": "filledAvgPrice",
          "type": "uint256"
        },
        {
          "indexed": false,
          "internalType": "string",
          "name": "side",
          "type": "string"
        },
        {
          "indexed": false,
          "internalType": "uint256",
          "name": "filledAt",
          "type": "uint256"
        },
        {
          "indexed": false,
          "internalType": "uint256",
          "name": "commission",
          "type": "uint256"
        },
        {
          "indexed": false,
          "internalType": "uint256",
          "name": "aUsdBalance",
          "type": "uint256"
        }
      ],
      "name": "OrderExecuted",
      "type": "event"
    },
    {
      "anonymous": false,
      "inputs": [
        {
          "indexed": false,
          "internalType": "address",
          "name": "account",
          "type": "address"
        }
      ],
      "name": "Paused",
      "type": "event"
    },
    {
      "anonymous": false,
      "inputs": [
        {
          "indexed": true,
          "internalType": "bytes32",
          "name": "role",
          "type": "bytes32"
        },
        {
          "indexed": true,
          "internalType": "bytes32",
          "name": "previousAdminRole",
          "type": "bytes32"
        },
        {
          "indexed": true,
          "internalType": "bytes32",
          "name": "newAdminRole",
          "type": "bytes32"
        }
      ],
      "name": "RoleAdminChanged",
      "type": "event"
    },
    {
      "anonymous": false,
      "inputs": [
        {
          "indexed": true,
          "internalType": "bytes32",
          "name": "role",
          "type": "bytes32"
        },
        {
          "indexed": true,
          "internalType": "address",
          "name": "account",
          "type": "address"
        },
        {
          "indexed": true,
          "internalType": "address",
          "name": "sender",
          "type": "address"
        }
      ],
      "name": "RoleGranted",
      "type": "event"
    },
    {
      "anonymous": false,
      "inputs": [
        {
          "indexed": true,
          "internalType": "bytes32",
          "name": "role",
          "type": "bytes32"
        },
        {
          "indexed": true,
          "internalType": "address",
          "name": "account",
          "type": "address"
        },
        {
          "indexed": true,
          "internalType": "address",
          "name": "sender",
          "type": "address"
        }
      ],
      "name": "RoleRevoked",
      "type": "event"
    },
    {
      "anonymous": false,
      "inputs": [
        {
          "indexed": false,
          "internalType": "string",
          "name": "accountId",
          "type": "string"
        },
        {
          "indexed": false,
          "internalType": "address",
          "name": "recipient",
          "type": "address"
        },
        {
          "indexed": false,
          "internalType": "address",
          "name": "sender",
          "type": "address"
        },
        {
          "indexed": false,
          "internalType": "string",
          "name": "symbol",
          "type": "string"
        },
        {
          "indexed": false,
          "internalType": "uint256",
          "name": "amount",
          "type": "uint256"
        }
      ],
      "name": "SellSecurityToken",
      "type": "event"
    },
    {
      "anonymous": false,
      "inputs": [
        {
          "indexed": false,
          "internalType": "address",
          "name": "tokenAddress",
          "type": "address"
        },
        {
          "indexed": false,
          "internalType": "string",
          "name": "symbol",
          "type": "string"
        }
      ],
      "name": "TokenCreated",
      "type": "event"
    },
    {
      "anonymous": false,
      "inputs": [
        {
          "indexed": false,
          "internalType": "address",
          "name": "account",
          "type": "address"
        }
      ],
      "name": "Unpaused",
      "type": "event"
    },
    {
      "anonymous": false,
      "inputs": [
        {
          "indexed": true,
          "internalType": "address",
          "name": "implementation",
          "type": "address"
        }
      ],
      "name": "Upgraded",
      "type": "event"
    },
    {
      "inputs": [],
      "name": "ADDRESS_CANNOT_BE_ZERO",
      "outputs": [
        {
          "internalType": "string",
          "name": "",
          "type": "string"
        }
      ],
      "stateMutability": "view",
      "type": "function"
    },
    {
      "inputs": [],
      "name": "DEFAULT_ADMIN_ROLE",
      "outputs": [
        {
          "internalType": "bytes32",
          "name": "",
          "type": "bytes32"
        }
      ],
      "stateMutability": "view",
      "type": "function"
    },
    {
      "inputs": [],
      "name": "MARKET_CLOSED",
      "outputs": [
        {
          "internalType": "string",
          "name": "",
          "type": "string"
        }
      ],
      "stateMutability": "view",
      "type": "function"
    },
    {
      "inputs": [],
      "name": "MINTER_ROLE",
      "outputs": [
        {
          "internalType": "bytes32",
          "name": "",
          "type": "bytes32"
        }
      ],
      "stateMutability": "view",
      "type": "function"
    },
    {
      "inputs": [],
      "name": "NOT_ENOUGH_AUSD",
      "outputs": [
        {
          "internalType": "string",
          "name": "",
          "type": "string"
        }
      ],
      "stateMutability": "view",
      "type": "function"
    },
    {
      "inputs": [],
      "name": "NOT_VALID_TOKEN_ADDRESS",
      "outputs": [
        {
          "internalType": "string",
          "name": "",
          "type": "string"
        }
      ],
      "stateMutability": "view",
      "type": "function"
    },
    {
      "inputs": [],
      "name": "ONLY_AUSD_CAN_CALL_ME",
      "outputs": [
        {
          "internalType": "string",
          "name": "",
          "type": "string"
        }
      ],
      "stateMutability": "view",
      "type": "function"
    },
    {
      "inputs": [],
      "name": "ONLY_SEND_TO_AUSD",
      "outputs": [
        {
          "internalType": "string",
          "name": "",
          "type": "string"
        }
      ],
      "stateMutability": "view",
      "type": "function"
    },
    {
      "inputs": [],
      "name": "PAUSER_ROLE",
      "outputs": [
        {
          "internalType": "bytes32",
          "name": "",
          "type": "bytes32"
        }
      ],
      "stateMutability": "view",
      "type": "function"
    },
    {
      "inputs": [],
      "name": "QUANTITY_MORE_THEN_BALANCE",
      "outputs": [
        {
          "internalType": "string",
          "name": "",
          "type": "string"
        }
      ],
      "stateMutability": "view",
      "type": "function"
    },
    {
      "inputs": [],
      "name": "UPGRADER_ROLE",
      "outputs": [
        {
          "internalType": "bytes32",
          "name": "",
          "type": "bytes32"
        }
      ],
      "stateMutability": "view",
      "type": "function"
    },
    {
      "inputs": [],
      "name": "aUsdContract",
      "outputs": [
        {
          "internalType": "contract aUSD",
          "name": "",
          "type": "address"
        }
      ],
      "stateMutability": "view",
      "type": "function"
    },
    {
      "inputs": [
        {
          "internalType": "address",
          "name": "userAddress",
          "type": "address"
        },
        {
          "internalType": "address",
          "name": "tokenAddress",
          "type": "address"
        },
        {
          "internalType": "uint256",
          "name": "amount",
          "type": "uint256"
        }
      ],
      "name": "buyWithAUsd",
      "outputs": [
        {
          "internalType": "bool",
          "name": "",
          "type": "bool"
        }
      ],
      "stateMutability": "nonpayable",
      "type": "function"
    },
    {
      "inputs": [
        {
          "internalType": "string",
          "name": "symbol",
          "type": "string"
        },
        {
          "internalType": "uint256",
          "name": "salt",
          "type": "uint256"
        }
      ],
      "name": "createToken",
      "outputs": [
        {
          "internalType": "address",
          "name": "",
          "type": "address"
        }
      ],
      "stateMutability": "payable",
      "type": "function"
    },
    {
      "inputs": [
        {
          "internalType": "bytes32",
          "name": "role",
          "type": "bytes32"
        }
      ],
      "name": "getRoleAdmin",
      "outputs": [
        {
          "internalType": "bytes32",
          "name": "",
          "type": "bytes32"
        }
      ],
      "stateMutability": "view",
      "type": "function"
    },
    {
      "inputs": [
        {
          "internalType": "string",
          "name": "symbol",
          "type": "string"
        }
      ],
      "name": "getSecurityToken",
      "outputs": [
        {
          "internalType": "address",
          "name": "",
          "type": "address"
        }
      ],
      "stateMutability": "view",
      "type": "function"
    },
    {
      "inputs": [
        {
          "internalType": "address",
          "name": "recipient",
          "type": "address"
        }
      ],
      "name": "grantMintAndBurnRole",
      "outputs": [],
      "stateMutability": "nonpayable",
      "type": "function"
    },
    {
      "inputs": [
        {
          "internalType": "bytes32",
          "name": "role",
          "type": "bytes32"
        },
        {
          "internalType": "address",
          "name": "account",
          "type": "address"
        }
      ],
      "name": "grantRole",
      "outputs": [],
      "stateMutability": "nonpayable",
      "type": "function"
    },
    {
      "inputs": [
        {
          "internalType": "bytes32",
          "name": "role",
          "type": "bytes32"
        },
        {
          "internalType": "address",
          "name": "account",
          "type": "address"
        }
      ],
      "name": "hasRole",
      "outputs": [
        {
          "internalType": "bool",
          "name": "",
          "type": "bool"
        }
      ],
      "stateMutability": "view",
      "type": "function"
    },
    {
      "inputs": [],
      "name": "initialize",
      "outputs": [],
      "stateMutability": "nonpayable",
      "type": "function"
    },
    {
      "inputs": [],
      "name": "kycContract",
      "outputs": [
        {
          "internalType": "contract KYC",
          "name": "",
          "type": "address"
        }
      ],
      "stateMutability": "view",
      "type": "function"
    },
    {
      "inputs": [],
      "name": "marketCalendarContract",
      "outputs": [
        {
          "internalType": "contract MarketCalendar",
          "name": "",
          "type": "address"
        }
      ],
      "stateMutability": "view",
      "type": "function"
    },
    {
      "inputs": [
        {
          "internalType": "address",
          "name": "recipient",
          "type": "address"
        },
        {
          "internalType": "string",
          "name": "symbol",
          "type": "string"
        },
        {
          "internalType": "uint256",
          "name": "qty",
          "type": "uint256"
        },
        {
          "internalType": "uint256",
          "name": "filledQty",
          "type": "uint256"
        },
        {
          "internalType": "uint256",
          "name": "filledAvgPrice",
          "type": "uint256"
        },
        {
          "internalType": "string",
          "name": "side",
          "type": "string"
        },
        {
          "internalType": "uint256",
          "name": "filledAt",
          "type": "uint256"
        },
        {
          "internalType": "uint256",
          "name": "commission",
          "type": "uint256"
        },
        {
          "internalType": "uint256",
          "name": "aUsdBalance",
          "type": "uint256"
        }
      ],
      "name": "orderExecuted",
      "outputs": [],
      "stateMutability": "nonpayable",
      "type": "function"
    },
    {
      "inputs": [],
      "name": "pause",
      "outputs": [],
      "stateMutability": "nonpayable",
      "type": "function"
    },
    {
      "inputs": [],
      "name": "paused",
      "outputs": [
        {
          "internalType": "bool",
          "name": "",
          "type": "bool"
        }
      ],
      "stateMutability": "view",
      "type": "function"
    },
    {
      "inputs": [],
      "name": "proxiableUUID",
      "outputs": [
        {
          "internalType": "bytes32",
          "name": "",
          "type": "bytes32"
        }
      ],
      "stateMutability": "view",
      "type": "function"
    },
    {
      "inputs": [
        {
          "internalType": "bytes32",
          "name": "role",
          "type": "bytes32"
        },
        {
          "internalType": "address",
          "name": "account",
          "type": "address"
        }
      ],
      "name": "renounceRole",
      "outputs": [],
      "stateMutability": "nonpayable",
      "type": "function"
    },
    {
      "inputs": [
        {
          "internalType": "address",
          "name": "recipient",
          "type": "address"
        }
      ],
      "name": "revokeMintAndBurnRole",
      "outputs": [],
      "stateMutability": "nonpayable",
      "type": "function"
    },
    {
      "inputs": [
        {
          "internalType": "bytes32",
          "name": "role",
          "type": "bytes32"
        },
        {
          "internalType": "address",
          "name": "account",
          "type": "address"
        }
      ],
      "name": "revokeRole",
      "outputs": [],
      "stateMutability": "nonpayable",
      "type": "function"
    },
    {
      "inputs": [
        {
          "internalType": "string",
          "name": "",
          "type": "string"
        }
      ],
      "name": "securityTokens",
      "outputs": [
        {
          "internalType": "address",
          "name": "",
          "type": "address"
        }
      ],
      "stateMutability": "view",
      "type": "function"
    },
    {
      "inputs": [
        {
          "internalType": "address",
          "name": "aUsdAddress",
          "type": "address"
        },
        {
          "internalType": "address",
          "name": "userAddress",
          "type": "address"
        },
        {
          "internalType": "string",
          "name": "symbol",
          "type": "string"
        },
        {
          "internalType": "uint256",
          "name": "quantity",
          "type": "uint256"
        }
      ],
      "name": "sellSecurityToken",
      "outputs": [],
      "stateMutability": "nonpayable",
      "type": "function"
    },
    {
      "inputs": [
        {
          "internalType": "contract aUSD",
          "name": "aUsdAddress",
          "type": "address"
        },
        {
          "internalType": "contract KYC",
          "name": "kycAddress",
          "type": "address"
        },
        {
          "internalType": "contract MarketCalendar",
          "name": "marketCalendarAddress",
          "type": "address"
        }
      ],
      "name": "setAddresses",
      "outputs": [],
      "stateMutability": "nonpayable",
      "type": "function"
    },
    {
      "inputs": [
        {
          "internalType": "bytes4",
          "name": "interfaceId",
          "type": "bytes4"
        }
      ],
      "name": "supportsInterface",
      "outputs": [
        {
          "internalType": "bool",
          "name": "",
          "type": "bool"
        }
      ],
      "stateMutability": "view",
      "type": "function"
    },
    {
      "inputs": [],
      "name": "unpause",
      "outputs": [],
      "stateMutability": "nonpayable",
      "type": "function"
    },
    {
      "inputs": [
        {
          "internalType": "address",
          "name": "newImplementation",
          "type": "address"
        }
      ],
      "name": "upgradeTo",
      "outputs": [],
      "stateMutability": "nonpayable",
      "type": "function"
    },
    {
      "inputs": [
        {
          "internalType": "address",
          "name": "newImplementation",
          "type": "address"
        },
        {
          "internalType": "bytes",
          "name": "data",
          "type": "bytes"
        }
      ],
      "name": "upgradeToAndCall",
      "outputs": [],
      "stateMutability": "payable",
      "type": "function"
    }
  ],
  "bytecode": "0x60a06040523060601b6080523480156200001857600080fd5b5060006200002760016200008e565b9050801562000040576000805461ff0019166101001790555b801562000087576000805461ff0019169055604051600181527f7f26b83ff96e1f2b6a682f133852f6798a09c465da95921460cefb38474024989060200160405180910390a15b50620001af565b60008054610100900460ff161562000127578160ff166001148015620000c75750620000c530620001a060201b62001b731760201c565b155b6200011f5760405162461bcd60e51b815260206004820152602e60248201526000805160206200425583398151915260448201526d191e481a5b9a5d1a585b1a5e995960921b60648201526084015b60405180910390fd5b506000919050565b60005460ff808416911610620001865760405162461bcd60e51b815260206004820152602e60248201526000805160206200425583398151915260448201526d191e481a5b9a5d1a585b1a5e995960921b606482015260840162000116565b506000805460ff191660ff92909216919091179055600190565b6001600160a01b03163b151590565b60805160601c61405d620001f86000396000818161099e015281816109e101528181610a9801528181610adb01528181610b5c01528181611cd60152611d19015261405d6000f3fe6080604052600436106200023b5760003560e01c806372b3b620116200012f5780639d81f9e111620000ad578063d547741f1162000078578063d547741f1462000746578063da48f4ad146200076b578063e63ab1e914620007b1578063f1935fd414620007d6578063f72c0d8b146200082157600080fd5b80639d81f9e114620006c2578063a217fddf14620006e5578063ae1b768d14620006fc578063d5391393146200072157600080fd5b8063822c756311620000fa578063822c75631462000623578063835d9c5814620006485780638456cb59146200066057806385b38eed146200067857806391d14854146200069d57600080fd5b806372b3b62014620005845780637989ad68146200059b5780637cfb3d7114620005e65780638129fc1c146200060b57600080fd5b80633f4ba83a11620001bd5780635c975abb11620001885780635c975abb14620004c15780635ff53fc414620004db578063629bc15514620005175780636cfde491146200053c5780636d3123eb146200056157600080fd5b80633f4ba83a146200042f5780634f1ef28614620004475780634ffcfbe1146200045e57806352d1902d14620004a957600080fd5b80632f2ff15d116200020a5780632f2ff15d1462000355578063363bf964146200037c57806336568abe14620003a15780633659cfe614620003c65780633afea58614620003eb57600080fd5b806301ffc9a7146200024057806307d725da146200027a57806319b4881a14620002c7578063248a9ca31462000312575b600080fd5b3480156200024d57600080fd5b50620002656200025f3660046200298d565b62000857565b60405190151581526020015b60405180910390f35b3480156200028757600080fd5b50620002b86040518060400160405280601081526020016f13585c9ad95d081a5cc818db1bdcd95960821b81525081565b60405162000271919062002cf0565b348015620002d457600080fd5b50620002b86040518060400160405280601a81526020017f596f7520646f6e2774206861766520656e6f756768206155534400000000000081525081565b3480156200031f57600080fd5b50620003466200033136600462002926565b60009081526097602052604090206001015490565b60405190815260200162000271565b3480156200036257600080fd5b506200037a620003743660046200295a565b6200088f565b005b3480156200038957600080fd5b506200037a6200039b366004620029b9565b620008bd565b348015620003ae57600080fd5b506200037a620003c03660046200295a565b6200090d565b348015620003d357600080fd5b506200037a620003e5366004620026e5565b62000993565b348015620003f857600080fd5b50620002b860405180604001604052806016815260200175416464726573732063616e6e6f74206265207a65726f60501b81525081565b3480156200043c57600080fd5b506200037a62000a68565b6200037a62000458366004620027dd565b62000a8d565b3480156200046b57600080fd5b50620002b86040518060400160405280601f81526020017f596f752063616e206f6e6c792073656e6420746f206155534420746f6b656e0081525081565b348015620004b657600080fd5b506200034662000b4f565b348015620004ce57600080fd5b5060335460ff1662000265565b348015620004e857600080fd5b5061012d54620004fe906001600160a01b031681565b6040516001600160a01b03909116815260200162000271565b3480156200052457600080fd5b50620004fe6200053636600462002a0b565b62000c05565b3480156200054957600080fd5b50620002656200055b36600462002797565b62000c39565b3480156200056e57600080fd5b5061012e54620004fe906001600160a01b031681565b620004fe6200059536600462002ac3565b62001136565b348015620005a857600080fd5b50620002b86040518060400160405280601f81526020017f54686973206973206e6f742076616c696420746f6b656e20616464726573730081525081565b348015620005f357600080fd5b506200037a62000605366004620026e5565b6200135c565b3480156200061857600080fd5b506200037a62001384565b3480156200063057600080fd5b506200037a6200064236600462002848565b62001481565b3480156200065557600080fd5b50620002b8620016d1565b3480156200066d57600080fd5b506200037a620016ee565b3480156200068557600080fd5b506200037a62000697366004620026e5565b62001713565b348015620006aa57600080fd5b5062000265620006bc3660046200295a565b6200173b565b348015620006cf57600080fd5b5061013054620004fe906001600160a01b031681565b348015620006f257600080fd5b5062000346600081565b3480156200070957600080fd5b506200037a6200071b36600462002725565b62001766565b3480156200072e57600080fd5b50620003466000805160206200400883398151915281565b3480156200075357600080fd5b506200037a620007653660046200295a565b62001b4a565b3480156200077857600080fd5b50620004fe6200078a36600462002a0b565b805160208183018101805161012f825292820191909301209152546001600160a01b031681565b348015620007be57600080fd5b506200034660008051602062003fc183398151915281565b348015620007e357600080fd5b50620002b86040518060400160405280601e81526020017f4f6e6c79206155534420636f6e74726163742063616e2063616c6c206d65000081525081565b3480156200082e57600080fd5b50620003467f189ab7a9244df0848122154315af71fe140f3db0fe014031783b0946b8c9d2e381565b60006001600160e01b03198216637965db0b60e01b14806200088957506301ffc9a760e01b6001600160e01b03198316145b92915050565b600082815260976020526040902060010154620008ac8162001b82565b620008b8838362001b8e565b505050565b6000620008ca8162001b82565b5061012d80546001600160a01b039485166001600160a01b03199182161790915561012e8054938516938216939093179092556101308054919093169116179055565b6001600160a01b0381163314620009835760405162461bcd60e51b815260206004820152602f60248201527f416363657373436f6e74726f6c3a2063616e206f6e6c792072656e6f756e636560448201526e103937b632b9903337b91039b2b63360891b60648201526084015b60405180910390fd5b6200098f828262001c18565b5050565b306001600160a01b037f0000000000000000000000000000000000000000000000000000000000000000161415620009df5760405162461bcd60e51b81526004016200097a9062002d9a565b7f00000000000000000000000000000000000000000000000000000000000000006001600160a01b031662000a1362001c82565b6001600160a01b03161462000a3c5760405162461bcd60e51b81526004016200097a9062002de6565b62000a478162001c9f565b6040805160008082526020820190925262000a659183919062001d7f565b50565b60008051602062003fc183398151915262000a838162001b82565b62000a6562001f07565b306001600160a01b037f000000000000000000000000000000000000000000000000000000000000000016141562000ad95760405162461bcd60e51b81526004016200097a9062002d9a565b7f00000000000000000000000000000000000000000000000000000000000000006001600160a01b031662000b0d62001c82565b6001600160a01b03161462000b365760405162461bcd60e51b81526004016200097a9062002de6565b62000b418262001c9f565b6200098f8282600162001d7f565b6000306001600160a01b037f0000000000000000000000000000000000000000000000000000000000000000161462000bf15760405162461bcd60e51b815260206004820152603860248201527f555550535570677261646561626c653a206d757374206e6f742062652063616c60448201527f6c6564207468726f7567682064656c656761746563616c6c000000000000000060648201526084016200097a565b5060008051602062003fa183398151915290565b600061012f8260405162000c1a919062002b3a565b908152604051908190036020019020546001600160a01b031692915050565b600062000c4860335460ff1690565b1562000c685760405162461bcd60e51b81526004016200097a9062002e32565b61012d5460408051808201909152601e81527f4f6e6c79206155534420636f6e74726163742063616e2063616c6c206d6500006020820152906001600160a01b0316331462000ccc5760405162461bcd60e51b81526004016200097a919062002cf0565b5061013060009054906101000a90046001600160a01b03166001600160a01b031663d4ce85f36040518163ffffffff1660e01b815260040160206040518083038186803b15801562000d1d57600080fd5b505afa15801562000d32573d6000803e3d6000fd5b505050506040513d601f19601f8201168201806040525081019062000d58919062002902565b6040518060400160405280601081526020016f13585c9ad95d081a5cc818db1bdcd95960821b8152509062000da25760405162461bcd60e51b81526004016200097a919062002cf0565b5061012d546040516370a0823160e01b81526001600160a01b03868116600483015260009216906370a082319060240160206040518083038186803b15801562000deb57600080fd5b505afa15801562000e00573d6000803e3d6000fd5b505050506040513d601f19601f8201168201806040525081019062000e26919062002940565b9050828110156040518060400160405280601a81526020017f596f7520646f6e2774206861766520656e6f75676820615553440000000000008152509062000e835760405162461bcd60e51b81526004016200097a919062002cf0565b5061012e54604051638b1b925f60e01b81526001600160a01b0387811660048301526000921690638b1b925f9060240160006040518083038186803b15801562000ecc57600080fd5b505afa15801562000ee1573d6000803e3d6000fd5b505050506040513d6000823e601f3d908101601f1916820160405262000f0b919081019062002a4c565b90506000859050306001600160a01b0316816001600160a01b0316638da5cb5b6040518163ffffffff1660e01b815260040160206040518083038186803b15801562000f5657600080fd5b505afa15801562000f6b573d6000803e3d6000fd5b505050506040513d601f19601f8201168201806040525081019062000f91919062002705565b6001600160a01b03161462000fe95760405162461bcd60e51b815260206004820152601f60248201527f54686973206973206e6f742076616c696420746f6b656e20616464726573730060448201526064016200097a565b6000816001600160a01b03166395d89b416040518163ffffffff1660e01b815260040160006040518083038186803b1580156200102557600080fd5b505afa1580156200103a573d6000803e3d6000fd5b505050506040513d6000823e601f3d908101601f1916820160405262001064919081019062002a4c565b90507f63b41fc8b78a5a7716886b22e480980188e5b8b0d6a8e29c03c85bd969642589888785848b6040516200109f95949392919062002c9c565b60405180910390a161012d546001600160a01b031663e30443bc89620010c6898862002f91565b6040516001600160e01b031960e085901b1681526001600160a01b0390921660048301526024820152604401600060405180830381600087803b1580156200110d57600080fd5b505af115801562001122573d6000803e3d6000fd5b5050505060019450505050505b9392505050565b60006200114560335460ff1690565b15620011655760405162461bcd60e51b81526004016200097a9062002e32565b8251620011ae5760405162461bcd60e51b815260206004820152601660248201527553796d626f6c2063616e6e6f7420626520656d70747960501b60448201526064016200097a565b60006001600160a01b031661012f84604051620011cc919062002b3a565b908152604051908190036020019020546001600160a01b031614620012345760405162461bcd60e51b815260206004820152601d60248201527f536563757269747920746f6b656e20616c72656164792065786973747300000060448201526064016200097a565b60006200127060405180604001604052806015815260200174131a5b5a5b985b0b9b585c9ad95d081cde5b589bdb605a1b815250853062001f9c565b8051602080830191909120604080516001600160f81b0319818501526bffffffffffffffffffffffff193060601b166021820152603581018890526055808201939093528151808203909301835260750190528051910120909150620012d7828562002019565b8061012f86604051620012eb919062002b3a565b90815260405190819003602001812080546001600160a01b03939093166001600160a01b0319909316929092179091557f7c56d5eff73d004b4d80f35d05a7e9a2429df1bb9544be59c859d049e2f449fb906200134c908390889062002c04565b60405180910390a1949350505050565b6000620013698162001b82565b6200098f60008051602062004008833981519152836200088f565b600062001392600162002079565b90508015620013ab576000805461ff0019166101001790555b620013b562002109565b620013bf6200213f565b620013c96200213f565b620013d660003362001b8e565b620013f160008051602062003fc18339815191523362001b8e565b6200140c600080516020620040088339815191523362001b8e565b620014387f189ab7a9244df0848122154315af71fe140f3db0fe014031783b0946b8c9d2e33362001b8e565b801562000a65576000805461ff0019169055604051600181527f7f26b83ff96e1f2b6a682f133852f6798a09c465da95921460cefb38474024989060200160405180910390a150565b60335460ff1615620014a75760405162461bcd60e51b81526004016200097a9062002e32565b60008051602062004008833981519152620014c28162001b82565b604080518082019091526016815275416464726573732063616e6e6f74206265207a65726f60501b60208201526001600160a01b038b16620015195760405162461bcd60e51b81526004016200097a919062002cf0565b50600061012f8a6040516200152f919062002b3a565b908152604080519182900360209081018320548383019092526016835275416464726573732063616e6e6f74206265207a65726f60501b908301526001600160a01b0316915081620015965760405162461bcd60e51b81526004016200097a919062002cf0565b507f328498d38c3e5b1821b1a9ad3cfd26ac2eaca9e2781ae24e750dbf91a71ccd768b8b8b8b8b8b8b8b8b604051620015d89998979695949392919062002c2a565b60405180910390a160405163add6a68760e01b81526001600160a01b038c81166004830152602482018b905282919082169063add6a68790604401600060405180830381600087803b1580156200162e57600080fd5b505af115801562001643573d6000803e3d6000fd5b505061012d546040516338c110ef60e21b81526001600160a01b03909116925063e30443bc91506200168f908f9088906004016001600160a01b03929092168252602082015260400190565b600060405180830381600087803b158015620016aa57600080fd5b505af1158015620016bf573d6000803e3d6000fd5b50505050505050505050505050505050565b60405180606001604052806026815260200162003f7b6026913981565b60008051602062003fc1833981519152620017098162001b82565b62000a6562002169565b6000620017208162001b82565b6200098f600080516020620040088339815191528362001b4a565b60009182526097602090815260408084206001600160a01b0393909316845291905290205460ff1690565b60335460ff16156200178c5760405162461bcd60e51b81526004016200097a9062002e32565b61012d5460408051808201909152601f81527f596f752063616e206f6e6c792073656e6420746f206155534420746f6b656e006020820152906001600160a01b03868116911614620017f35760405162461bcd60e51b81526004016200097a919062002cf0565b5061013060009054906101000a90046001600160a01b03166001600160a01b031663d4ce85f36040518163ffffffff1660e01b815260040160206040518083038186803b1580156200184457600080fd5b505afa15801562001859573d6000803e3d6000fd5b505050506040513d601f19601f820116820180604052508101906200187f919062002902565b6040518060400160405280601081526020016f13585c9ad95d081a5cc818db1bdcd95960821b81525090620018c95760405162461bcd60e51b81526004016200097a919062002cf0565b5033620018d68362000c05565b6001600160a01b0316146040518060400160405280601f81526020017f54686973206973206e6f742076616c696420746f6b656e20616464726573730081525090620019375760405162461bcd60e51b81526004016200097a919062002cf0565b5061012e54604051638b1b925f60e01b81526001600160a01b0385811660048301526000921690638b1b925f9060240160006040518083038186803b1580156200198057600080fd5b505afa15801562001995573d6000803e3d6000fd5b505050506040513d6000823e601f3d908101601f19168201604052620019bf919081019062002a4c565b6040516370a0823160e01b81526001600160a01b0386166004820152909150339060009082906370a082319060240160206040518083038186803b15801562001a0757600080fd5b505afa15801562001a1c573d6000803e3d6000fd5b505050506040513d601f19601f8201168201806040525081019062001a42919062002940565b90508381101560405180606001604052806026815260200162003f7b602691399062001a835760405162461bcd60e51b81526004016200097a919062002cf0565b507f258a03e755a014272ade3556bbb170a7d4b4777dca0ed898c4968929e2869fd6838888888860405162001abd95949392919062002d05565b60405180910390a16001600160a01b03821663add6a6878762001ae1878562002f91565b6040516001600160e01b031960e085901b1681526001600160a01b0390921660048301526024820152604401600060405180830381600087803b15801562001b2857600080fd5b505af115801562001b3d573d6000803e3d6000fd5b5050505050505050505050565b60008281526097602052604090206001015462001b678162001b82565b620008b8838362001c18565b6001600160a01b03163b151590565b62000a658133620021c5565b62001b9a82826200173b565b6200098f5760008281526097602090815260408083206001600160a01b03851684529091529020805460ff1916600117905562001bd43390565b6001600160a01b0316816001600160a01b0316837f2f8788117e7eff1d82e926ec794901d17c78024a50270940304540a733656f0d60405160405180910390a45050565b62001c2482826200173b565b156200098f5760008281526097602090815260408083206001600160a01b0385168085529252808320805460ff1916905551339285917ff6391f5c32d9c69d2a47ea670b442974b53935d1edc7fd64eb21e047a839171b9190a45050565b60008051602062003fa1833981519152546001600160a01b031690565b7f189ab7a9244df0848122154315af71fe140f3db0fe014031783b0946b8c9d2e362001ccb8162001b82565b306001600160a01b037f000000000000000000000000000000000000000000000000000000000000000016141562001d175760405162461bcd60e51b81526004016200097a9062002d9a565b7f00000000000000000000000000000000000000000000000000000000000000006001600160a01b031662001d4b62001c82565b6001600160a01b03161462001d745760405162461bcd60e51b81526004016200097a9062002de6565b6200098f8262002234565b7f4910fdfa16fed3260ed0e7147f7cc6da11a60208b5b9406d12a635614ffd91435460ff161562001db557620008b88362002276565b826001600160a01b03166352d1902d6040518163ffffffff1660e01b815260040160206040518083038186803b15801562001def57600080fd5b505afa92505050801562001e22575060408051601f3d908101601f1916820190925262001e1f9181019062002940565b60015b62001e875760405162461bcd60e51b815260206004820152602e60248201527f45524331393637557067726164653a206e657720696d706c656d656e7461746960448201526d6f6e206973206e6f74205555505360901b60648201526084016200097a565b60008051602062003fa1833981519152811462001ef95760405162461bcd60e51b815260206004820152602960248201527f45524331393637557067726164653a20756e737570706f727465642070726f786044820152681a58589b195555525160ba1b60648201526084016200097a565b50620008b883838362002315565b60335460ff1662001f525760405162461bcd60e51b815260206004820152601460248201527314185d5cd8589b194e881b9bdd081c185d5cd95960621b60448201526064016200097a565b6033805460ff191690557f5db9ee0a495bf2e6ff9c91a7834c1ba4fdd244a5e8aa4e537bd38aeae4b073aa335b6040516001600160a01b03909116815260200160405180910390a1565b606060006040518060200162001fb29062002671565b6020820181038252601f19601f8201166040525090508085858560405160200162001fe09392919062002d58565b60408051601f198184030181529082905262002000929160200162002b58565b6040516020818303038152906040529150509392505050565b60008183516020850134f59050803b6200203257600080fd5b604080516001600160a01b0383168152602081018490527fb03c53b28e78a88e31607a27e1fa48234dce28d5d9d9ec7b295aeb02e674a1e1910160405180910390a1505050565b60008054610100900460ff1615620020c5578160ff1660011480156200209e5750303b155b620020bd5760405162461bcd60e51b81526004016200097a9062002e5c565b506000919050565b60005460ff808416911610620020ef5760405162461bcd60e51b81526004016200097a9062002e5c565b506000805460ff191660ff92909216919091179055600190565b600054610100900460ff16620021335760405162461bcd60e51b81526004016200097a9062002eaa565b6200213d62002346565b565b600054610100900460ff166200213d5760405162461bcd60e51b81526004016200097a9062002eaa565b60335460ff16156200218f5760405162461bcd60e51b81526004016200097a9062002e32565b6033805460ff191660011790557f62e78cea01bee320cd4e420270b5ea74000d11b0c9f74754ebdbfc544b05a25862001f7f3390565b620021d182826200173b565b6200098f57620021ec816001600160a01b031660146200237c565b620021f98360206200237c565b6040516020016200220c92919062002b8b565b60408051601f198184030181529082905262461bcd60e51b82526200097a9160040162002cf0565b6200223f8162002276565b6040516001600160a01b038216907fbc7cd75a20ee27fd9adebab32041f755214dbc6bffa90cc0225b39da2e5c2d3b90600090a250565b6001600160a01b0381163b620022e55760405162461bcd60e51b815260206004820152602d60248201527f455243313936373a206e657720696d706c656d656e746174696f6e206973206e60448201526c1bdd08184818dbdb9d1c9858dd609a1b60648201526084016200097a565b60008051602062003fa183398151915280546001600160a01b0319166001600160a01b0392909216919091179055565b620023208362002234565b6000825111806200232e5750805b15620008b85762002340838362002536565b50505050565b600054610100900460ff16620023705760405162461bcd60e51b81526004016200097a9062002eaa565b6033805460ff19169055565b606060006200238d83600262002f6f565b6200239a90600262002f54565b67ffffffffffffffff811115620023b557620023b562003020565b6040519080825280601f01601f191660200182016040528015620023e0576020820181803683370190505b509050600360fc1b81600081518110620023fe57620023fe6200300a565b60200101906001600160f81b031916908160001a905350600f60fb1b816001815181106200243057620024306200300a565b60200101906001600160f81b031916908160001a90535060006200245684600262002f6f565b6200246390600162002f54565b90505b6001811115620024e5576f181899199a1a9b1b9c1cb0b131b232b360811b85600f16601081106200249b576200249b6200300a565b1a60f81b828281518110620024b457620024b46200300a565b60200101906001600160f81b031916908160001a90535060049490941c93620024dd8162002fda565b905062002466565b5083156200112f5760405162461bcd60e51b815260206004820181905260248201527f537472696e67733a20686578206c656e67746820696e73756666696369656e7460448201526064016200097a565b60606001600160a01b0383163b620025a05760405162461bcd60e51b815260206004820152602660248201527f416464726573733a2064656c65676174652063616c6c20746f206e6f6e2d636f6044820152651b9d1c9858dd60d21b60648201526084016200097a565b600080846001600160a01b031684604051620025bd919062002b3a565b600060405180830381855af49150503d8060008114620025fa576040519150601f19603f3d011682016040523d82523d6000602084013e620025ff565b606091505b50915091506200262a828260405180606001604052806027815260200162003fe16027913962002633565b95945050505050565b60608315620026445750816200112f565b825115620026555782518084602001fd5b8160405162461bcd60e51b81526004016200097a919062002cf0565b610f2e806200304d83390190565b600062002696620026908462002f29565b62002ef5565b9050828152838383011115620026ab57600080fd5b828260208301376000602084830101529392505050565b600082601f830112620026d457600080fd5b6200112f838335602085016200267f565b600060208284031215620026f857600080fd5b81356200112f8162003036565b6000602082840312156200271857600080fd5b81516200112f8162003036565b600080600080608085870312156200273c57600080fd5b8435620027498162003036565b935060208501356200275b8162003036565b9250604085013567ffffffffffffffff8111156200277857600080fd5b6200278687828801620026c2565b949793965093946060013593505050565b600080600060608486031215620027ad57600080fd5b8335620027ba8162003036565b92506020840135620027cc8162003036565b929592945050506040919091013590565b60008060408385031215620027f157600080fd5b8235620027fe8162003036565b9150602083013567ffffffffffffffff8111156200281b57600080fd5b8301601f810185136200282d57600080fd5b6200283e858235602084016200267f565b9150509250929050565b60008060008060008060008060006101208a8c0312156200286857600080fd5b8935620028758162003036565b985060208a013567ffffffffffffffff808211156200289357600080fd5b620028a18d838e01620026c2565b995060408c0135985060608c0135975060808c0135965060a08c0135915080821115620028cd57600080fd5b50620028dc8c828d01620026c2565b94505060c08a0135925060e08a013591506101008a013590509295985092959850929598565b6000602082840312156200291557600080fd5b815180151581146200112f57600080fd5b6000602082840312156200293957600080fd5b5035919050565b6000602082840312156200295357600080fd5b5051919050565b600080604083850312156200296e57600080fd5b823591506020830135620029828162003036565b809150509250929050565b600060208284031215620029a057600080fd5b81356001600160e01b0319811681146200112f57600080fd5b600080600060608486031215620029cf57600080fd5b8335620029dc8162003036565b92506020840135620029ee8162003036565b9150604084013562002a008162003036565b809150509250925092565b60006020828403121562002a1e57600080fd5b813567ffffffffffffffff81111562002a3657600080fd5b62002a4484828501620026c2565b949350505050565b60006020828403121562002a5f57600080fd5b815167ffffffffffffffff81111562002a7757600080fd5b8201601f8101841362002a8957600080fd5b805162002a9a620026908262002f29565b81815285602083850101111562002ab057600080fd5b6200262a82602083016020860162002fab565b6000806040838503121562002ad757600080fd5b823567ffffffffffffffff81111562002aef57600080fd5b62002afd85828601620026c2565b95602094909401359450505050565b6000815180845262002b2681602086016020860162002fab565b601f01601f19169290920160200192915050565b6000825162002b4e81846020870162002fab565b9190910192915050565b6000835162002b6c81846020880162002fab565b83519083019062002b8281836020880162002fab565b01949350505050565b7f416363657373436f6e74726f6c3a206163636f756e742000000000000000000081526000835162002bc581601785016020880162002fab565b7001034b99036b4b9b9b4b733903937b6329607d1b601791840191820152835162002bf881602884016020880162002fab565b01602801949350505050565b6001600160a01b038316815260406020820181905260009062002a449083018462002b0c565b6001600160a01b038a1681526101206020820181905260009062002c518382018c62002b0c565b905089604084015288606084015287608084015282810360a084015262002c79818862002b0c565b60c0840196909652505060e0810192909252610100909101529695505050505050565b600060018060a01b03808816835286602084015260a0604084015262002cc660a084018762002b0c565b838103606085015262002cda818762002b0c565b9250508084166080840152509695505050505050565b6020815260006200112f602083018462002b0c565b60a08152600062002d1a60a083018862002b0c565b6001600160a01b03878116602085015286166040840152828103606084015262002d45818662002b0c565b9150508260808301529695505050505050565b60608152600062002d6d606083018662002b0c565b828103602084015262002d81818662002b0c565b91505060018060a01b0383166040830152949350505050565b6020808252602c908201527f46756e6374696f6e206d7573742062652063616c6c6564207468726f7567682060408201526b19195b1959d85d1958d85b1b60a21b606082015260800190565b6020808252602c908201527f46756e6374696f6e206d7573742062652063616c6c6564207468726f7567682060408201526b6163746976652070726f787960a01b606082015260800190565b60208082526010908201526f14185d5cd8589b194e881c185d5cd95960821b604082015260600190565b6020808252602e908201527f496e697469616c697a61626c653a20636f6e747261637420697320616c72656160408201526d191e481a5b9a5d1a585b1a5e995960921b606082015260800190565b6020808252602b908201527f496e697469616c697a61626c653a20636f6e7472616374206973206e6f74206960408201526a6e697469616c697a696e6760a81b606082015260800190565b604051601f8201601f1916810167ffffffffffffffff8111828210171562002f215762002f2162003020565b604052919050565b600067ffffffffffffffff82111562002f465762002f4662003020565b50601f01601f191660200190565b6000821982111562002f6a5762002f6a62002ff4565b500190565b600081600019048311821515161562002f8c5762002f8c62002ff4565b500290565b60008282101562002fa65762002fa662002ff4565b500390565b60005b8381101562002fc857818101518382015260200162002fae565b83811115620023405750506000910152565b60008162002fec5762002fec62002ff4565b506000190190565b634e487b7160e01b600052601160045260246000fd5b634e487b7160e01b600052603260045260246000fd5b634e487b7160e01b600052604160045260246000fd5b6001600160a01b038116811462000a6557600080fdfe60806040523480156200001157600080fd5b5060405162000f2e38038062000f2e833981016040819052620000349162000237565b818162000041336200008a565b815162000056906004906020850190620000da565b5080516200006c906005906020840190620000da565b5050600680546001600160a01b0319163317905550620002f4915050565b600080546001600160a01b038381166001600160a01b0319831681178455604051919092169283917f8be0079c531659141344cd1fd0a4f28419497f9722a3daafe3b4186f6b6457e09190a35050565b828054620000e890620002a1565b90600052602060002090601f0160209004810192826200010c576000855562000157565b82601f106200012757805160ff191683800117855562000157565b8280016001018555821562000157579182015b82811115620001575782518255916020019190600101906200013a565b506200016592915062000169565b5090565b5b808211156200016557600081556001016200016a565b600082601f8301126200019257600080fd5b81516001600160401b0380821115620001af57620001af620002de565b604051601f8301601f19908116603f01168101908282118183101715620001da57620001da620002de565b81604052838152602092508683858801011115620001f757600080fd5b600091505b838210156200021b5785820183015181830184015290820190620001fc565b838211156200022d5760008385830101525b9695505050505050565b600080604083850312156200024b57600080fd5b82516001600160401b03808211156200026357600080fd5b620002718683870162000180565b935060208501519150808211156200028857600080fd5b50620002978582860162000180565b9150509250929050565b600181811c90821680620002b657607f821691505b60208210811415620002d857634e487b7160e01b600052602260045260246000fd5b50919050565b634e487b7160e01b600052604160045260246000fd5b610c2a80620003046000396000f3fe608060405234801561001057600080fd5b50600436106100f55760003560e01c8063715018a611610097578063a9059cbb11610066578063a9059cbb146101e6578063add6a687146101f9578063dd62ed3e1461020c578063f2fde38b1461021a57600080fd5b8063715018a6146101a65780638da5cb5b146101b057806395d89b41146101cb578063a457c2d7146101d357600080fd5b806323b872dd116100d357806323b872dd1461014d578063313ce5671461015b578063395093511461016a57806370a082311461017d57600080fd5b806306fdde03146100fa578063095ea7b31461011857806318160ddd1461013b575b600080fd5b61010261022d565b60405161010f9190610b2c565b60405180910390f35b61012b610126366004610a78565b6102bf565b604051901515815260200161010f565b6003545b60405190815260200161010f565b61012b610126366004610a3c565b6040516012815260200161010f565b61012b610178366004610a78565b6102ff565b61013f61018b3660046109e7565b6001600160a01b031660009081526001602052604090205490565b6101ae61032b565b005b6000546040516001600160a01b03909116815260200161010f565b610102610361565b61012b6101e1366004610a78565b610370565b61012b6101f4366004610a78565b6103f6565b6101ae610207366004610a78565b61046f565b61013f610126366004610a09565b6101ae6102283660046109e7565b610596565b60606004805461023c90610ba3565b80601f016020809104026020016040519081016040528092919081815260200182805461026890610ba3565b80156102b55780601f1061028a576101008083540402835291602001916102b5565b820191906000526020600020905b81548152906001019060200180831161029857829003601f168201915b5050505050905090565b60405162461bcd60e51b815260206004820152600d60248201526c139bdd081cdd5c1c1bdc9d1959609a1b60448201526000906064015b60405180910390fd5b60003361032181858561031283836102bf565b61031c9190610b74565b610631565b5060019392505050565b6000546001600160a01b031633146103555760405162461bcd60e51b81526004016102f690610b3f565b61035f6000610756565b565b60606005805461023c90610ba3565b6000338161037e82866102bf565b9050838110156103de5760405162461bcd60e51b815260206004820152602560248201527f45524332303a2064656372656173656420616c6c6f77616e63652062656c6f77604482015264207a65726f60d81b60648201526084016102f6565b6103eb8286868403610631565b506001949350505050565b6006546000906001600160a01b031663ae1b768d8433610414610361565b866040518563ffffffff1660e01b81526004016104349493929190610aef565b600060405180830381600087803b15801561044e57600080fd5b505af1158015610462573d6000803e3d6000fd5b5060019695505050505050565b6000546001600160a01b031633146104995760405162461bcd60e51b81526004016102f690610b3f565b6001600160a01b038216600090815260016020526040902054818114156104bf57505050565b808211156104df576104da836104d58385610b8c565b6107a6565b6104f2565b6104f2836104ed8484610b8c565b610885565b6001600160a01b03831660009081526001602052604090205482811461054e5760405162461bcd60e51b81526020600482015260116024820152702bb937b7339031b0b631bab630ba34b7b760791b60448201526064016102f6565b604080516001600160a01b0386168152602081018590527faca675004c66aff66f6e84aac634806e6c3550b1a6ba29fc8e1c1471ad1babf1910160405180910390a150505050565b6000546001600160a01b031633146105c05760405162461bcd60e51b81526004016102f690610b3f565b6001600160a01b0381166106255760405162461bcd60e51b815260206004820152602660248201527f4f776e61626c653a206e6577206f776e657220697320746865207a65726f206160448201526564647265737360d01b60648201526084016102f6565b61062e81610756565b50565b6001600160a01b0383166106935760405162461bcd60e51b8152602060048201526024808201527f45524332303a20617070726f76652066726f6d20746865207a65726f206164646044820152637265737360e01b60648201526084016102f6565b6001600160a01b0382166106f45760405162461bcd60e51b815260206004820152602260248201527f45524332303a20617070726f766520746f20746865207a65726f206164647265604482015261737360f01b60648201526084016102f6565b6001600160a01b0383811660008181526002602090815260408083209487168084529482529182902085905590518481527f8c5be1e5ebec7d5bd14f71427d1e84f3dd0314c0f7b2291e5b200ac8c7c3b92591015b60405180910390a3505050565b600080546001600160a01b038381166001600160a01b0319831681178455604051919092169283917f8be0079c531659141344cd1fd0a4f28419497f9722a3daafe3b4186f6b6457e09190a35050565b6001600160a01b0382166107fc5760405162461bcd60e51b815260206004820152601f60248201527f45524332303a206d696e7420746f20746865207a65726f20616464726573730060448201526064016102f6565b806003600082825461080e9190610b74565b90915550506001600160a01b0382166000908152600160205260408120805483929061083b908490610b74565b90915550506040518181526001600160a01b038316906000907fddf252ad1be2c89b69c2b068fc378daa952ba7f163c4a11628f55a4df523b3ef9060200160405180910390a35050565b6001600160a01b0382166108e55760405162461bcd60e51b815260206004820152602160248201527f45524332303a206275726e2066726f6d20746865207a65726f206164647265736044820152607360f81b60648201526084016102f6565b6001600160a01b038216600090815260016020526040902054818110156109595760405162461bcd60e51b815260206004820152602260248201527f45524332303a206275726e20616d6f756e7420657863656564732062616c616e604482015261636560f01b60648201526084016102f6565b6001600160a01b0383166000908152600160205260408120838303905560038054849290610988908490610b8c565b90915550506040518281526000906001600160a01b038516907fddf252ad1be2c89b69c2b068fc378daa952ba7f163c4a11628f55a4df523b3ef90602001610749565b80356001600160a01b03811681146109e257600080fd5b919050565b6000602082840312156109f957600080fd5b610a02826109cb565b9392505050565b60008060408385031215610a1c57600080fd5b610a25836109cb565b9150610a33602084016109cb565b90509250929050565b600080600060608486031215610a5157600080fd5b610a5a846109cb565b9250610a68602085016109cb565b9150604084013590509250925092565b60008060408385031215610a8b57600080fd5b610a94836109cb565b946020939093013593505050565b6000815180845260005b81811015610ac857602081850181015186830182015201610aac565b81811115610ada576000602083870101525b50601f01601f19169290920160200192915050565b6001600160a01b03858116825284166020820152608060408201819052600090610b1b90830185610aa2565b905082606083015295945050505050565b602081526000610a026020830184610aa2565b6020808252818101527f4f776e61626c653a2063616c6c6572206973206e6f7420746865206f776e6572604082015260600190565b60008219821115610b8757610b87610bde565b500190565b600082821015610b9e57610b9e610bde565b500390565b600181811c90821680610bb757607f821691505b60208210811415610bd857634e487b7160e01b600052602260045260246000fd5b50919050565b634e487b7160e01b600052601160045260246000fdfea2646970667358221220270b28500c088241b9f93f98f5e6840376768414a04995b3478cb1fb9745540064736f6c634300080700335175616e746974792063616e6e6f74206265206c6172676572207468656e2062616c616e6365360894a13ba1a3210667c828492db98dca3e2076cc3735a920a3ca505d382bbc65d7a28e3265b37a6474929f336521b332c1681b933f6cb9f3376673440d862a416464726573733a206c6f772d6c6576656c2064656c65676174652063616c6c206661696c65649f2df0fed2c77648de5860a4cc508cd0818c85b8b8a1ab4ceeef8d981c8956a6a26469706673582212209f8d6256518db5e475f9099bbf5922ddb426b41b75cd76b53033b806f855b47464736f6c63430008070033496e697469616c697a61626c653a20636f6e747261637420697320616c726561",
  "linkReferences": {},
  "deployedLinkReferences": {}
}