{
  "_format": "hh-sol-artifact-1",
  "contractName": "LiminalMarket",
  "sourceName": "contracts/LiminalMarket.sol",
  "abi": [
    {
      "inputs": [],
      "stateMutability": "nonpayable",
      "type": "constructor"
    },
    {
      "anonymous": false,
      "inputs": [
        {
          "indexed": false,
          "internalType": "address",
          "name": "previousAdmin",
          "type": "address"
        },
        {
          "indexed": false,
          "internalType": "address",
          "name": "newAdmin",
          "type": "address"
        }
      ],
      "name": "AdminChanged",
      "type": "event"
    },
    {
      "anonymous": false,
      "inputs": [
        {
          "indexed": true,
          "internalType": "address",
          "name": "beacon",
          "type": "address"
        }
      ],
      "name": "BeaconUpgraded",
      "type": "event"
    },
    {
      "anonymous": false,
      "inputs": [
        {
          "indexed": false,
          "internalType": "address",
          "name": "userAddress",
          "type": "address"
        },
        {
          "indexed": false,
          "internalType": "uint256",
          "name": "amount",
          "type": "uint256"
        },
        {
          "indexed": false,
          "internalType": "string",
          "name": "accountId",
          "type": "string"
        },
        {
          "indexed": false,
          "internalType": "string",
          "name": "symbol",
          "type": "string"
        },
        {
          "indexed": false,
          "internalType": "address",
          "name": "tokenAddress",
          "type": "address"
        }
      ],
      "name": "BuyWithAUsd",
      "type": "event"
    },
    {
      "anonymous": false,
      "inputs": [
        {
          "indexed": false,
          "internalType": "address",
          "name": "addr",
          "type": "address"
        },
        {
          "indexed": false,
          "internalType": "uint256",
          "name": "salt",
          "type": "uint256"
        }
      ],
      "name": "Deployed",
      "type": "event"
    },
    {
      "anonymous": false,
      "inputs": [
        {
          "indexed": false,
          "internalType": "uint8",
          "name": "version",
          "type": "uint8"
        }
      ],
      "name": "Initialized",
      "type": "event"
    },
    {
      "anonymous": false,
      "inputs": [
        {
          "indexed": false,
          "internalType": "address",
          "name": "recipient",
          "type": "address"
        },
        {
          "indexed": false,
          "internalType": "string",
          "name": "symbol",
          "type": "string"
        },
        {
          "indexed": false,
          "internalType": "uint256",
          "name": "tsl",
          "type": "uint256"
        },
        {
          "indexed": false,
          "internalType": "uint256",
          "name": "filledQty",
          "type": "uint256"
        },
        {
          "indexed": false,
          "internalType": "uint256",
          "name": "filledAvgPrice",
          "type": "uint256"
        },
        {
          "indexed": false,
          "internalType": "string",
          "name": "side",
          "type": "string"
        },
        {
          "indexed": false,
          "internalType": "uint256",
          "name": "filledAt",
          "type": "uint256"
        },
        {
          "indexed": false,
          "internalType": "uint256",
          "name": "commission",
          "type": "uint256"
        },
        {
          "indexed": false,
          "internalType": "uint256",
          "name": "aUsdBalance",
          "type": "uint256"
        }
      ],
      "name": "OrderExecuted",
      "type": "event"
    },
    {
      "anonymous": false,
      "inputs": [
        {
          "indexed": false,
          "internalType": "address",
          "name": "recipient",
          "type": "address"
        },
        {
          "indexed": false,
          "internalType": "string",
          "name": "symbol",
          "type": "string"
        },
        {
          "indexed": false,
          "internalType": "uint256",
          "name": "buyingPower",
          "type": "uint256"
        },
        {
          "indexed": false,
          "internalType": "uint256",
          "name": "cost",
          "type": "uint256"
        },
        {
          "indexed": false,
          "internalType": "string",
          "name": "message",
          "type": "string"
        }
      ],
      "name": "OrderFailed",
      "type": "event"
    },
    {
      "anonymous": false,
      "inputs": [
        {
          "indexed": false,
          "internalType": "address",
          "name": "account",
          "type": "address"
        }
      ],
      "name": "Paused",
      "type": "event"
    },
    {
      "anonymous": false,
      "inputs": [
        {
          "indexed": true,
          "internalType": "bytes32",
          "name": "role",
          "type": "bytes32"
        },
        {
          "indexed": true,
          "internalType": "bytes32",
          "name": "previousAdminRole",
          "type": "bytes32"
        },
        {
          "indexed": true,
          "internalType": "bytes32",
          "name": "newAdminRole",
          "type": "bytes32"
        }
      ],
      "name": "RoleAdminChanged",
      "type": "event"
    },
    {
      "anonymous": false,
      "inputs": [
        {
          "indexed": true,
          "internalType": "bytes32",
          "name": "role",
          "type": "bytes32"
        },
        {
          "indexed": true,
          "internalType": "address",
          "name": "account",
          "type": "address"
        },
        {
          "indexed": true,
          "internalType": "address",
          "name": "sender",
          "type": "address"
        }
      ],
      "name": "RoleGranted",
      "type": "event"
    },
    {
      "anonymous": false,
      "inputs": [
        {
          "indexed": true,
          "internalType": "bytes32",
          "name": "role",
          "type": "bytes32"
        },
        {
          "indexed": true,
          "internalType": "address",
          "name": "account",
          "type": "address"
        },
        {
          "indexed": true,
          "internalType": "address",
          "name": "sender",
          "type": "address"
        }
      ],
      "name": "RoleRevoked",
      "type": "event"
    },
    {
      "anonymous": false,
      "inputs": [
        {
          "indexed": false,
          "internalType": "string",
          "name": "accountId",
          "type": "string"
        },
        {
          "indexed": false,
          "internalType": "address",
          "name": "recipient",
          "type": "address"
        },
        {
          "indexed": false,
          "internalType": "address",
          "name": "sender",
          "type": "address"
        },
        {
          "indexed": false,
          "internalType": "string",
          "name": "symbol",
          "type": "string"
        },
        {
          "indexed": false,
          "internalType": "uint256",
          "name": "amount",
          "type": "uint256"
        }
      ],
      "name": "SellSecurityToken",
      "type": "event"
    },
    {
      "anonymous": false,
      "inputs": [
        {
          "indexed": false,
          "internalType": "address",
          "name": "tokenAddress",
          "type": "address"
        },
        {
          "indexed": false,
          "internalType": "string",
          "name": "symbol",
          "type": "string"
        }
      ],
      "name": "TokenCreated",
      "type": "event"
    },
    {
      "anonymous": false,
      "inputs": [
        {
          "indexed": false,
          "internalType": "address",
          "name": "account",
          "type": "address"
        }
      ],
      "name": "Unpaused",
      "type": "event"
    },
    {
      "anonymous": false,
      "inputs": [
        {
          "indexed": true,
          "internalType": "address",
          "name": "implementation",
          "type": "address"
        }
      ],
      "name": "Upgraded",
      "type": "event"
    },
    {
      "inputs": [],
      "name": "ADDRESS_CANNOT_BE_ZERO",
      "outputs": [
        {
          "internalType": "string",
          "name": "",
          "type": "string"
        }
      ],
      "stateMutability": "view",
      "type": "function"
    },
    {
      "inputs": [],
      "name": "DEFAULT_ADMIN_ROLE",
      "outputs": [
        {
          "internalType": "bytes32",
          "name": "",
          "type": "bytes32"
        }
      ],
      "stateMutability": "view",
      "type": "function"
    },
    {
      "inputs": [],
      "name": "MARKET_CLOSED",
      "outputs": [
        {
          "internalType": "string",
          "name": "",
          "type": "string"
        }
      ],
      "stateMutability": "view",
      "type": "function"
    },
    {
      "inputs": [],
      "name": "MINTER_ROLE",
      "outputs": [
        {
          "internalType": "bytes32",
          "name": "",
          "type": "bytes32"
        }
      ],
      "stateMutability": "view",
      "type": "function"
    },
    {
      "inputs": [],
      "name": "NOT_ENOUGH_AUSD",
      "outputs": [
        {
          "internalType": "string",
          "name": "",
          "type": "string"
        }
      ],
      "stateMutability": "view",
      "type": "function"
    },
    {
      "inputs": [],
      "name": "NOT_VALID_TOKEN_ADDRESS",
      "outputs": [
        {
          "internalType": "string",
          "name": "",
          "type": "string"
        }
      ],
      "stateMutability": "view",
      "type": "function"
    },
    {
      "inputs": [],
      "name": "ONLY_AUSD_CAN_CALL_ME",
      "outputs": [
        {
          "internalType": "string",
          "name": "",
          "type": "string"
        }
      ],
      "stateMutability": "view",
      "type": "function"
    },
    {
      "inputs": [],
      "name": "ONLY_SEND_TO_AUSD",
      "outputs": [
        {
          "internalType": "string",
          "name": "",
          "type": "string"
        }
      ],
      "stateMutability": "view",
      "type": "function"
    },
    {
      "inputs": [],
      "name": "PAUSER_ROLE",
      "outputs": [
        {
          "internalType": "bytes32",
          "name": "",
          "type": "bytes32"
        }
      ],
      "stateMutability": "view",
      "type": "function"
    },
    {
      "inputs": [],
      "name": "QUANTITY_MORE_THEN_BALANCE",
      "outputs": [
        {
          "internalType": "string",
          "name": "",
          "type": "string"
        }
      ],
      "stateMutability": "view",
      "type": "function"
    },
    {
      "inputs": [],
      "name": "UPGRADER_ROLE",
      "outputs": [
        {
          "internalType": "bytes32",
          "name": "",
          "type": "bytes32"
        }
      ],
      "stateMutability": "view",
      "type": "function"
    },
    {
      "inputs": [],
      "name": "aUsdContract",
      "outputs": [
        {
          "internalType": "contract aUSD",
          "name": "",
          "type": "address"
        }
      ],
      "stateMutability": "view",
      "type": "function"
    },
    {
      "inputs": [
        {
          "internalType": "address",
          "name": "userAddress",
          "type": "address"
        },
        {
          "internalType": "address",
          "name": "tokenAddress",
          "type": "address"
        },
        {
          "internalType": "uint256",
          "name": "amount",
          "type": "uint256"
        }
      ],
      "name": "buyWithAUsd",
      "outputs": [
        {
          "internalType": "bool",
          "name": "",
          "type": "bool"
        }
      ],
      "stateMutability": "nonpayable",
      "type": "function"
    },
    {
      "inputs": [
        {
          "internalType": "string",
          "name": "symbol",
          "type": "string"
        },
        {
          "internalType": "uint256",
          "name": "salt",
          "type": "uint256"
        }
      ],
      "name": "createToken",
      "outputs": [
        {
          "internalType": "address",
          "name": "",
          "type": "address"
        }
      ],
      "stateMutability": "payable",
      "type": "function"
    },
    {
      "inputs": [
        {
          "internalType": "bytes32",
          "name": "role",
          "type": "bytes32"
        }
      ],
      "name": "getRoleAdmin",
      "outputs": [
        {
          "internalType": "bytes32",
          "name": "",
          "type": "bytes32"
        }
      ],
      "stateMutability": "view",
      "type": "function"
    },
    {
      "inputs": [
        {
          "internalType": "string",
          "name": "symbol",
          "type": "string"
        }
      ],
      "name": "getSecurityToken",
      "outputs": [
        {
          "internalType": "address",
          "name": "",
          "type": "address"
        }
      ],
      "stateMutability": "view",
      "type": "function"
    },
    {
      "inputs": [
        {
          "internalType": "address",
          "name": "recipient",
          "type": "address"
        }
      ],
      "name": "grantMintAndBurnRole",
      "outputs": [],
      "stateMutability": "nonpayable",
      "type": "function"
    },
    {
      "inputs": [
        {
          "internalType": "bytes32",
          "name": "role",
          "type": "bytes32"
        },
        {
          "internalType": "address",
          "name": "account",
          "type": "address"
        }
      ],
      "name": "grantRole",
      "outputs": [],
      "stateMutability": "nonpayable",
      "type": "function"
    },
    {
      "inputs": [
        {
          "internalType": "bytes32",
          "name": "role",
          "type": "bytes32"
        },
        {
          "internalType": "address",
          "name": "account",
          "type": "address"
        }
      ],
      "name": "hasRole",
      "outputs": [
        {
          "internalType": "bool",
          "name": "",
          "type": "bool"
        }
      ],
      "stateMutability": "view",
      "type": "function"
    },
    {
      "inputs": [],
      "name": "initialize",
      "outputs": [],
      "stateMutability": "nonpayable",
      "type": "function"
    },
    {
      "inputs": [],
      "name": "kycContract",
      "outputs": [
        {
          "internalType": "contract KYC",
          "name": "",
          "type": "address"
        }
      ],
      "stateMutability": "view",
      "type": "function"
    },
    {
      "inputs": [],
      "name": "marketCalendarContract",
      "outputs": [
        {
          "internalType": "contract MarketCalendar",
          "name": "",
          "type": "address"
        }
      ],
      "stateMutability": "view",
      "type": "function"
    },
    {
      "inputs": [
        {
          "internalType": "address",
          "name": "recipient",
          "type": "address"
        },
        {
          "internalType": "string",
          "name": "symbol",
          "type": "string"
        },
        {
          "internalType": "uint256",
          "name": "tsl",
          "type": "uint256"
        },
        {
          "internalType": "uint256",
          "name": "filledQty",
          "type": "uint256"
        },
        {
          "internalType": "uint256",
          "name": "filledAvgPrice",
          "type": "uint256"
        },
        {
          "internalType": "string",
          "name": "side",
          "type": "string"
        },
        {
          "internalType": "uint256",
          "name": "filledAt",
          "type": "uint256"
        },
        {
          "internalType": "uint256",
          "name": "commission",
          "type": "uint256"
        },
        {
          "internalType": "uint256",
          "name": "aUsdBalance",
          "type": "uint256"
        }
      ],
      "name": "orderExecuted",
      "outputs": [],
      "stateMutability": "nonpayable",
      "type": "function"
    },
    {
      "inputs": [
        {
          "internalType": "address",
          "name": "recipient",
          "type": "address"
        },
        {
          "internalType": "string",
          "name": "symbol",
          "type": "string"
        },
        {
          "internalType": "uint256",
          "name": "buyingPower",
          "type": "uint256"
        },
        {
          "internalType": "uint256",
          "name": "cost",
          "type": "uint256"
        },
        {
          "internalType": "string",
          "name": "message",
          "type": "string"
        }
      ],
      "name": "orderFailed",
      "outputs": [],
      "stateMutability": "nonpayable",
      "type": "function"
    },
    {
      "inputs": [],
      "name": "pause",
      "outputs": [],
      "stateMutability": "nonpayable",
      "type": "function"
    },
    {
      "inputs": [],
      "name": "paused",
      "outputs": [
        {
          "internalType": "bool",
          "name": "",
          "type": "bool"
        }
      ],
      "stateMutability": "view",
      "type": "function"
    },
    {
      "inputs": [],
      "name": "proxiableUUID",
      "outputs": [
        {
          "internalType": "bytes32",
          "name": "",
          "type": "bytes32"
        }
      ],
      "stateMutability": "view",
      "type": "function"
    },
    {
      "inputs": [
        {
          "internalType": "bytes32",
          "name": "role",
          "type": "bytes32"
        },
        {
          "internalType": "address",
          "name": "account",
          "type": "address"
        }
      ],
      "name": "renounceRole",
      "outputs": [],
      "stateMutability": "nonpayable",
      "type": "function"
    },
    {
      "inputs": [
        {
          "internalType": "address",
          "name": "recipient",
          "type": "address"
        }
      ],
      "name": "revokeMintAndBurnRole",
      "outputs": [],
      "stateMutability": "nonpayable",
      "type": "function"
    },
    {
      "inputs": [
        {
          "internalType": "bytes32",
          "name": "role",
          "type": "bytes32"
        },
        {
          "internalType": "address",
          "name": "account",
          "type": "address"
        }
      ],
      "name": "revokeRole",
      "outputs": [],
      "stateMutability": "nonpayable",
      "type": "function"
    },
    {
      "inputs": [
        {
          "internalType": "string",
          "name": "",
          "type": "string"
        }
      ],
      "name": "securityTokens",
      "outputs": [
        {
          "internalType": "address",
          "name": "",
          "type": "address"
        }
      ],
      "stateMutability": "view",
      "type": "function"
    },
    {
      "inputs": [
        {
          "internalType": "address",
          "name": "aUsdAddress",
          "type": "address"
        },
        {
          "internalType": "address",
          "name": "userAddress",
          "type": "address"
        },
        {
          "internalType": "string",
          "name": "symbol",
          "type": "string"
        },
        {
          "internalType": "uint256",
          "name": "quantity",
          "type": "uint256"
        }
      ],
      "name": "sellSecurityToken",
      "outputs": [],
      "stateMutability": "nonpayable",
      "type": "function"
    },
    {
      "inputs": [
        {
          "internalType": "contract aUSD",
          "name": "aUsdAddress",
          "type": "address"
        },
        {
          "internalType": "contract KYC",
          "name": "kycAddress",
          "type": "address"
        },
        {
          "internalType": "contract MarketCalendar",
          "name": "marketCalendarAddress",
          "type": "address"
        }
      ],
      "name": "setAddresses",
      "outputs": [],
      "stateMutability": "nonpayable",
      "type": "function"
    },
    {
      "inputs": [
        {
          "internalType": "bytes4",
          "name": "interfaceId",
          "type": "bytes4"
        }
      ],
      "name": "supportsInterface",
      "outputs": [
        {
          "internalType": "bool",
          "name": "",
          "type": "bool"
        }
      ],
      "stateMutability": "view",
      "type": "function"
    },
    {
      "inputs": [],
      "name": "unpause",
      "outputs": [],
      "stateMutability": "nonpayable",
      "type": "function"
    },
    {
      "inputs": [
        {
          "internalType": "address",
          "name": "newImplementation",
          "type": "address"
        }
      ],
      "name": "upgradeTo",
      "outputs": [],
      "stateMutability": "nonpayable",
      "type": "function"
    },
    {
      "inputs": [
        {
          "internalType": "address",
          "name": "newImplementation",
          "type": "address"
        },
        {
          "internalType": "bytes",
          "name": "data",
          "type": "bytes"
        }
      ],
      "name": "upgradeToAndCall",
      "outputs": [],
      "stateMutability": "payable",
      "type": "function"
    }
  ],
  "bytecode": "0x60a06040523060601b6080523480156200001857600080fd5b50600054610100900460ff16158080156200003a5750600054600160ff909116105b806200006a575062000057306200014460201b62001c331760201c565b1580156200006a575060005460ff166001145b620000d25760405162461bcd60e51b815260206004820152602e60248201527f496e697469616c697a61626c653a20636f6e747261637420697320616c72656160448201526d191e481a5b9a5d1a585b1a5e995960921b606482015260840160405180910390fd5b6000805460ff191660011790558015620000f6576000805461ff0019166101001790555b80156200013d576000805461ff0019169055604051600181527f7f26b83ff96e1f2b6a682f133852f6798a09c465da95921460cefb38474024989060200160405180910390a15b5062000153565b6001600160a01b03163b151590565b60805160601c61412f6200019c600039600081816109cf01528181610a1201528181610ac901528181610b0c01528181610b8d01528181611d960152611dd9015261412f6000f3fe608060405260043610620002475760003560e01c80636d3123eb116200013b57806391d1485411620000b9578063d547741f1162000078578063d547741f1462000777578063da48f4ad146200079c578063e63ab1e914620007e2578063f1935fd41462000807578063f72c0d8b146200085257600080fd5b806391d1485414620006ce5780639d81f9e114620006f3578063a217fddf1462000716578063ae1b768d146200072d578063d5391393146200075257600080fd5b80638129fc1c11620001065780638129fc1c146200063c578063822c75631462000654578063835d9c5814620006795780638456cb59146200069157806385b38eed14620006a957600080fd5b80636d3123eb146200059257806372b3b62014620005b55780637989ad6814620005cc5780637cfb3d71146200061757600080fd5b80633f4ba83a11620001c95780635c975abb11620001945780635c975abb14620004cd5780635ff53fc414620004e7578063629bc15514620005235780636aa62b5f14620005485780636cfde491146200056d57600080fd5b80633f4ba83a146200043b5780634f1ef28614620004535780634ffcfbe1146200046a57806352d1902d14620004b557600080fd5b80632f2ff15d11620002165780632f2ff15d1462000361578063363bf964146200038857806336568abe14620003ad5780633659cfe614620003d25780633afea58614620003f757600080fd5b806301ffc9a7146200024c57806307d725da146200028657806319b4881a14620002d3578063248a9ca3146200031e575b600080fd5b3480156200025957600080fd5b50620002716200026b36600462002a86565b62000888565b60405190151581526020015b60405180910390f35b3480156200029357600080fd5b50620002c46040518060400160405280601081526020016f13585c9ad95d081a5cc818db1bdcd95960821b81525081565b6040516200027d919062002e3b565b348015620002e057600080fd5b50620002c46040518060400160405280601a81526020017f596f7520646f6e2774206861766520656e6f756768206155534400000000000081525081565b3480156200032b57600080fd5b50620003526200033d36600462002a1f565b60009081526097602052604090206001015490565b6040519081526020016200027d565b3480156200036e57600080fd5b50620003866200038036600462002a53565b620008c0565b005b3480156200039557600080fd5b5062000386620003a736600462002ab2565b620008ee565b348015620003ba57600080fd5b5062000386620003cc36600462002a53565b6200093e565b348015620003df57600080fd5b5062000386620003f13660046200274b565b620009c4565b3480156200040457600080fd5b50620002c460405180604001604052806016815260200175416464726573732063616e6e6f74206265207a65726f60501b81525081565b3480156200044857600080fd5b506200038662000a99565b620003866200046436600462002843565b62000abe565b3480156200047757600080fd5b50620002c46040518060400160405280601f81526020017f596f752063616e206f6e6c792073656e6420746f206155534420746f6b656e0081525081565b348015620004c257600080fd5b506200035262000b80565b348015620004da57600080fd5b5060335460ff1662000271565b348015620004f457600080fd5b5061012d546200050a906001600160a01b031681565b6040516001600160a01b0390911681526020016200027d565b3480156200053057600080fd5b506200050a6200054236600462002b04565b62000c36565b3480156200055557600080fd5b506200038662000567366004620028ae565b62000c6a565b3480156200057a57600080fd5b50620002716200058c366004620027fd565b62000cd8565b3480156200059f57600080fd5b5061012e546200050a906001600160a01b031681565b6200050a620005c636600462002bbc565b620011b2565b348015620005d957600080fd5b50620002c46040518060400160405280601f81526020017f54686973206973206e6f742076616c696420746f6b656e20616464726573730081525081565b3480156200062457600080fd5b5062000386620006363660046200274b565b620013b5565b3480156200064957600080fd5b5062000386620013dd565b3480156200066157600080fd5b50620003866200067336600462002941565b62001579565b3480156200068657600080fd5b50620002c4620017ad565b3480156200069e57600080fd5b5062000386620017ca565b348015620006b657600080fd5b5062000386620006c83660046200274b565b620017ef565b348015620006db57600080fd5b5062000271620006ed36600462002a53565b62001817565b3480156200070057600080fd5b50610130546200050a906001600160a01b031681565b3480156200072357600080fd5b5062000352600081565b3480156200073a57600080fd5b50620003866200074c3660046200278b565b62001842565b3480156200075f57600080fd5b5062000352600080516020620040da83398151915281565b3480156200078457600080fd5b50620003866200079636600462002a53565b62001c0a565b348015620007a957600080fd5b506200050a620007bb36600462002b04565b805160208183018101805161012f825292820191909301209152546001600160a01b031681565b348015620007ef57600080fd5b50620003526000805160206200409383398151915281565b3480156200081457600080fd5b50620002c46040518060400160405280601e81526020017f4f6e6c79206155534420636f6e74726163742063616e2063616c6c206d65000081525081565b3480156200085f57600080fd5b50620003527f189ab7a9244df0848122154315af71fe140f3db0fe014031783b0946b8c9d2e381565b60006001600160e01b03198216637965db0b60e01b1480620008ba57506301ffc9a760e01b6001600160e01b03198316145b92915050565b600082815260976020526040902060010154620008dd8162001c42565b620008e9838362001c4e565b505050565b6000620008fb8162001c42565b5061012d80546001600160a01b039485166001600160a01b03199182161790915561012e8054938516938216939093179092556101308054919093169116179055565b6001600160a01b0381163314620009b45760405162461bcd60e51b815260206004820152602f60248201527f416363657373436f6e74726f6c3a2063616e206f6e6c792072656e6f756e636560448201526e103937b632b9903337b91039b2b63360891b60648201526084015b60405180910390fd5b620009c0828262001cd8565b5050565b306001600160a01b037f000000000000000000000000000000000000000000000000000000000000000016141562000a105760405162461bcd60e51b8152600401620009ab9062002ee5565b7f00000000000000000000000000000000000000000000000000000000000000006001600160a01b031662000a4462001d42565b6001600160a01b03161462000a6d5760405162461bcd60e51b8152600401620009ab9062002f31565b62000a788162001d5f565b6040805160008082526020820190925262000a969183919062001e3f565b50565b6000805160206200409383398151915262000ab48162001c42565b62000a9662001fc7565b306001600160a01b037f000000000000000000000000000000000000000000000000000000000000000016141562000b0a5760405162461bcd60e51b8152600401620009ab9062002ee5565b7f00000000000000000000000000000000000000000000000000000000000000006001600160a01b031662000b3e62001d42565b6001600160a01b03161462000b675760405162461bcd60e51b8152600401620009ab9062002f31565b62000b728262001d5f565b620009c08282600162001e3f565b6000306001600160a01b037f0000000000000000000000000000000000000000000000000000000000000000161462000c225760405162461bcd60e51b815260206004820152603860248201527f555550535570677261646561626c653a206d757374206e6f742062652063616c60448201527f6c6564207468726f7567682064656c656761746563616c6c00000000000000006064820152608401620009ab565b506000805160206200407383398151915290565b600061012f8260405162000c4b919062002c33565b908152604051908190036020019020546001600160a01b031692915050565b62000c746200201b565b600080516020620040da83398151915262000c8f8162001c42565b7ff2b5ca2f823919f584bd24c922fe00179861c0965e032636f729f3fdaebdf82d868686868660405162000cc895949392919062002d23565b60405180910390a1505050505050565b600062000ce46200201b565b61012d5460408051808201909152601e81527f4f6e6c79206155534420636f6e74726163742063616e2063616c6c206d6500006020820152906001600160a01b0316331462000d485760405162461bcd60e51b8152600401620009ab919062002e3b565b5061013060009054906101000a90046001600160a01b03166001600160a01b031663d4ce85f36040518163ffffffff1660e01b815260040160206040518083038186803b15801562000d9957600080fd5b505afa15801562000dae573d6000803e3d6000fd5b505050506040513d601f19601f8201168201806040525081019062000dd49190620029fb565b6040518060400160405280601081526020016f13585c9ad95d081a5cc818db1bdcd95960821b8152509062000e1e5760405162461bcd60e51b8152600401620009ab919062002e3b565b5061012d546040516370a0823160e01b81526001600160a01b03868116600483015260009216906370a082319060240160206040518083038186803b15801562000e6757600080fd5b505afa15801562000e7c573d6000803e3d6000fd5b505050506040513d601f19601f8201168201806040525081019062000ea2919062002a39565b9050828110156040518060400160405280601a81526020017f596f7520646f6e2774206861766520656e6f75676820615553440000000000008152509062000eff5760405162461bcd60e51b8152600401620009ab919062002e3b565b5061012e54604051638b1b925f60e01b81526001600160a01b0387811660048301526000921690638b1b925f9060240160006040518083038186803b15801562000f4857600080fd5b505afa15801562000f5d573d6000803e3d6000fd5b505050506040513d6000823e601f3d908101601f1916820160405262000f87919081019062002b45565b90506000859050306001600160a01b0316816001600160a01b0316638da5cb5b6040518163ffffffff1660e01b815260040160206040518083038186803b15801562000fd257600080fd5b505afa15801562000fe7573d6000803e3d6000fd5b505050506040513d601f19601f820116820180604052508101906200100d91906200276b565b6001600160a01b031614620010655760405162461bcd60e51b815260206004820152601f60248201527f54686973206973206e6f742076616c696420746f6b656e2061646472657373006044820152606401620009ab565b6000816001600160a01b03166395d89b416040518163ffffffff1660e01b815260040160006040518083038186803b158015620010a157600080fd5b505afa158015620010b6573d6000803e3d6000fd5b505050506040513d6000823e601f3d908101601f19168201604052620010e0919081019062002b45565b90507f63b41fc8b78a5a7716886b22e480980188e5b8b0d6a8e29c03c85bd969642589888785848b6040516200111b95949392919062002de7565b60405180910390a161012d546001600160a01b031663e30443bc8962001142898862003064565b6040516001600160e01b031960e085901b1681526001600160a01b0390921660048301526024820152604401600060405180830381600087803b1580156200118957600080fd5b505af11580156200119e573d6000803e3d6000fd5b5050505060019450505050505b9392505050565b6000620011be6200201b565b8251620012075760405162461bcd60e51b815260206004820152601660248201527553796d626f6c2063616e6e6f7420626520656d70747960501b6044820152606401620009ab565b60006001600160a01b031661012f8460405162001225919062002c33565b908152604051908190036020019020546001600160a01b0316146200128d5760405162461bcd60e51b815260206004820152601d60248201527f536563757269747920746f6b656e20616c7265616479206578697374730000006044820152606401620009ab565b6000620012c960405180604001604052806015815260200174131a5b5a5b985b0b9b585c9ad95d081cde5b589bdb605a1b815250853062002065565b8051602080830191909120604080516001600160f81b0319818501526bffffffffffffffffffffffff193060601b166021820152603581018890526055808201939093528151808203909301835260750190528051910120909150620013308285620020e2565b8061012f8660405162001344919062002c33565b90815260405190819003602001812080546001600160a01b03939093166001600160a01b0319909316929092179091557f7c56d5eff73d004b4d80f35d05a7e9a2429df1bb9544be59c859d049e2f449fb90620013a5908390889062002cfd565b60405180910390a1949350505050565b6000620013c28162001c42565b620009c0600080516020620040da83398151915283620008c0565b600054610100900460ff1615808015620013fe5750600054600160ff909116105b806200141a5750303b1580156200141a575060005460ff166001145b6200147f5760405162461bcd60e51b815260206004820152602e60248201527f496e697469616c697a61626c653a20636f6e747261637420697320616c72656160448201526d191e481a5b9a5d1a585b1a5e995960921b6064820152608401620009ab565b6000805460ff191660011790558015620014a3576000805461ff0019166101001790555b620014ad62002142565b620014b762002176565b620014c162002176565b620014ce60003362001c4e565b620014e9600080516020620040938339815191523362001c4e565b62001504600080516020620040da8339815191523362001c4e565b620015307f189ab7a9244df0848122154315af71fe140f3db0fe014031783b0946b8c9d2e33362001c4e565b801562000a96576000805461ff0019169055604051600181527f7f26b83ff96e1f2b6a682f133852f6798a09c465da95921460cefb38474024989060200160405180910390a150565b620015836200201b565b600080516020620040da8339815191526200159e8162001c42565b604080518082019091526016815275416464726573732063616e6e6f74206265207a65726f60501b60208201526001600160a01b038b16620015f55760405162461bcd60e51b8152600401620009ab919062002e3b565b50600061012f8a6040516200160b919062002c33565b908152604080519182900360209081018320548383019092526016835275416464726573732063616e6e6f74206265207a65726f60501b908301526001600160a01b0316915081620016725760405162461bcd60e51b8152600401620009ab919062002e3b565b5060405163add6a68760e01b81526001600160a01b038c81166004830152602482018b905282919082169063add6a68790604401600060405180830381600087803b158015620016c157600080fd5b505af1158015620016d6573d6000803e3d6000fd5b505061012d546040516338c110ef60e21b81526001600160a01b03909116925063e30443bc915062001722908f9088906004016001600160a01b03929092168252602082015260400190565b600060405180830381600087803b1580156200173d57600080fd5b505af115801562001752573d6000803e3d6000fd5b505050507f328498d38c3e5b1821b1a9ad3cfd26ac2eaca9e2781ae24e750dbf91a71ccd768c8c8c8c8c8c8c8c8c604051620017979998979695949392919062002d75565b60405180910390a1505050505050505050505050565b6040518060600160405280602681526020016200404d6026913981565b60008051602062004093833981519152620017e58162001c42565b62000a96620021a0565b6000620017fc8162001c42565b620009c0600080516020620040da8339815191528362001c0a565b60009182526097602090815260408084206001600160a01b0393909316845291905290205460ff1690565b6200184c6200201b565b61012d5460408051808201909152601f81527f596f752063616e206f6e6c792073656e6420746f206155534420746f6b656e006020820152906001600160a01b03868116911614620018b35760405162461bcd60e51b8152600401620009ab919062002e3b565b5061013060009054906101000a90046001600160a01b03166001600160a01b031663d4ce85f36040518163ffffffff1660e01b815260040160206040518083038186803b1580156200190457600080fd5b505afa15801562001919573d6000803e3d6000fd5b505050506040513d601f19601f820116820180604052508101906200193f9190620029fb565b6040518060400160405280601081526020016f13585c9ad95d081a5cc818db1bdcd95960821b81525090620019895760405162461bcd60e51b8152600401620009ab919062002e3b565b5033620019968362000c36565b6001600160a01b0316146040518060400160405280601f81526020017f54686973206973206e6f742076616c696420746f6b656e20616464726573730081525090620019f75760405162461bcd60e51b8152600401620009ab919062002e3b565b5061012e54604051638b1b925f60e01b81526001600160a01b0385811660048301526000921690638b1b925f9060240160006040518083038186803b15801562001a4057600080fd5b505afa15801562001a55573d6000803e3d6000fd5b505050506040513d6000823e601f3d908101601f1916820160405262001a7f919081019062002b45565b6040516370a0823160e01b81526001600160a01b0386166004820152909150339060009082906370a082319060240160206040518083038186803b15801562001ac757600080fd5b505afa15801562001adc573d6000803e3d6000fd5b505050506040513d601f19601f8201168201806040525081019062001b02919062002a39565b9050838110156040518060600160405280602681526020016200404d602691399062001b435760405162461bcd60e51b8152600401620009ab919062002e3b565b507f258a03e755a014272ade3556bbb170a7d4b4777dca0ed898c4968929e2869fd6838888888860405162001b7d95949392919062002e50565b60405180910390a16001600160a01b03821663add6a6878762001ba1878562003064565b6040516001600160e01b031960e085901b1681526001600160a01b0390921660048301526024820152604401600060405180830381600087803b15801562001be857600080fd5b505af115801562001bfd573d6000803e3d6000fd5b5050505050505050505050565b60008281526097602052604090206001015462001c278162001c42565b620008e9838362001cd8565b6001600160a01b03163b151590565b62000a968133620021e0565b62001c5a828262001817565b620009c05760008281526097602090815260408083206001600160a01b03851684529091529020805460ff1916600117905562001c943390565b6001600160a01b0316816001600160a01b0316837f2f8788117e7eff1d82e926ec794901d17c78024a50270940304540a733656f0d60405160405180910390a45050565b62001ce4828262001817565b15620009c05760008281526097602090815260408083206001600160a01b0385168085529252808320805460ff1916905551339285917ff6391f5c32d9c69d2a47ea670b442974b53935d1edc7fd64eb21e047a839171b9190a45050565b60008051602062004073833981519152546001600160a01b031690565b7f189ab7a9244df0848122154315af71fe140f3db0fe014031783b0946b8c9d2e362001d8b8162001c42565b306001600160a01b037f000000000000000000000000000000000000000000000000000000000000000016141562001dd75760405162461bcd60e51b8152600401620009ab9062002ee5565b7f00000000000000000000000000000000000000000000000000000000000000006001600160a01b031662001e0b62001d42565b6001600160a01b03161462001e345760405162461bcd60e51b8152600401620009ab9062002f31565b620009c0826200224f565b7f4910fdfa16fed3260ed0e7147f7cc6da11a60208b5b9406d12a635614ffd91435460ff161562001e7557620008e98362002291565b826001600160a01b03166352d1902d6040518163ffffffff1660e01b815260040160206040518083038186803b15801562001eaf57600080fd5b505afa92505050801562001ee2575060408051601f3d908101601f1916820190925262001edf9181019062002a39565b60015b62001f475760405162461bcd60e51b815260206004820152602e60248201527f45524331393637557067726164653a206e657720696d706c656d656e7461746960448201526d6f6e206973206e6f74205555505360901b6064820152608401620009ab565b60008051602062004073833981519152811462001fb95760405162461bcd60e51b815260206004820152602960248201527f45524331393637557067726164653a20756e737570706f727465642070726f786044820152681a58589b195555525160ba1b6064820152608401620009ab565b50620008e983838362002330565b62001fd162002361565b6033805460ff191690557f5db9ee0a495bf2e6ff9c91a7834c1ba4fdd244a5e8aa4e537bd38aeae4b073aa335b6040516001600160a01b03909116815260200160405180910390a1565b60335460ff1615620020635760405162461bcd60e51b815260206004820152601060248201526f14185d5cd8589b194e881c185d5cd95960821b6044820152606401620009ab565b565b60606000604051806020016200207b90620026d7565b6020820181038252601f19601f82011660405250905080858585604051602001620020a99392919062002ea3565b60408051601f1981840301815290829052620020c9929160200162002c51565b6040516020818303038152906040529150509392505050565b60008183516020850134f59050803b620020fb57600080fd5b604080516001600160a01b0383168152602081018490527fb03c53b28e78a88e31607a27e1fa48234dce28d5d9d9ec7b295aeb02e674a1e1910160405180910390a1505050565b600054610100900460ff166200216c5760405162461bcd60e51b8152600401620009ab9062002f7d565b62002063620023ac565b600054610100900460ff16620020635760405162461bcd60e51b8152600401620009ab9062002f7d565b620021aa6200201b565b6033805460ff191660011790557f62e78cea01bee320cd4e420270b5ea74000d11b0c9f74754ebdbfc544b05a25862001ffe3390565b620021ec828262001817565b620009c05762002207816001600160a01b03166014620023e2565b62002214836020620023e2565b6040516020016200222792919062002c84565b60408051601f198184030181529082905262461bcd60e51b8252620009ab9160040162002e3b565b6200225a8162002291565b6040516001600160a01b038216907fbc7cd75a20ee27fd9adebab32041f755214dbc6bffa90cc0225b39da2e5c2d3b90600090a250565b6001600160a01b0381163b620023005760405162461bcd60e51b815260206004820152602d60248201527f455243313936373a206e657720696d706c656d656e746174696f6e206973206e60448201526c1bdd08184818dbdb9d1c9858dd609a1b6064820152608401620009ab565b6000805160206200407383398151915280546001600160a01b0319166001600160a01b0392909216919091179055565b6200233b836200224f565b600082511180620023495750805b15620008e9576200235b83836200259c565b50505050565b60335460ff16620020635760405162461bcd60e51b815260206004820152601460248201527314185d5cd8589b194e881b9bdd081c185d5cd95960621b6044820152606401620009ab565b600054610100900460ff16620023d65760405162461bcd60e51b8152600401620009ab9062002f7d565b6033805460ff19169055565b60606000620023f383600262003042565b6200240090600262003027565b67ffffffffffffffff8111156200241b576200241b620030f3565b6040519080825280601f01601f19166020018201604052801562002446576020820181803683370190505b509050600360fc1b81600081518110620024645762002464620030dd565b60200101906001600160f81b031916908160001a905350600f60fb1b81600181518110620024965762002496620030dd565b60200101906001600160f81b031916908160001a9053506000620024bc84600262003042565b620024c990600162003027565b90505b60018111156200254b576f181899199a1a9b1b9c1cb0b131b232b360811b85600f1660108110620025015762002501620030dd565b1a60f81b8282815181106200251a576200251a620030dd565b60200101906001600160f81b031916908160001a90535060049490941c936200254381620030ad565b9050620024cc565b508315620011ab5760405162461bcd60e51b815260206004820181905260248201527f537472696e67733a20686578206c656e67746820696e73756666696369656e746044820152606401620009ab565b60606001600160a01b0383163b620026065760405162461bcd60e51b815260206004820152602660248201527f416464726573733a2064656c65676174652063616c6c20746f206e6f6e2d636f6044820152651b9d1c9858dd60d21b6064820152608401620009ab565b600080846001600160a01b03168460405162002623919062002c33565b600060405180830381855af49150503d806000811462002660576040519150601f19603f3d011682016040523d82523d6000602084013e62002665565b606091505b5091509150620026908282604051806060016040528060278152602001620040b36027913962002699565b95945050505050565b60608315620026aa575081620011ab565b825115620026bb5782518084602001fd5b8160405162461bcd60e51b8152600401620009ab919062002e3b565b610f2d806200312083390190565b6000620026fc620026f68462002ffc565b62002fc8565b90508281528383830111156200271157600080fd5b828260208301376000602084830101529392505050565b600082601f8301126200273a57600080fd5b620011ab83833560208501620026e5565b6000602082840312156200275e57600080fd5b8135620011ab8162003109565b6000602082840312156200277e57600080fd5b8151620011ab8162003109565b60008060008060808587031215620027a257600080fd5b8435620027af8162003109565b93506020850135620027c18162003109565b9250604085013567ffffffffffffffff811115620027de57600080fd5b620027ec8782880162002728565b949793965093946060013593505050565b6000806000606084860312156200281357600080fd5b8335620028208162003109565b92506020840135620028328162003109565b929592945050506040919091013590565b600080604083850312156200285757600080fd5b8235620028648162003109565b9150602083013567ffffffffffffffff8111156200288157600080fd5b8301601f810185136200289357600080fd5b620028a485823560208401620026e5565b9150509250929050565b600080600080600060a08688031215620028c757600080fd5b8535620028d48162003109565b9450602086013567ffffffffffffffff80821115620028f257600080fd5b6200290089838a0162002728565b9550604088013594506060880135935060808801359150808211156200292557600080fd5b50620029348882890162002728565b9150509295509295909350565b60008060008060008060008060006101208a8c0312156200296157600080fd5b89356200296e8162003109565b985060208a013567ffffffffffffffff808211156200298c57600080fd5b6200299a8d838e0162002728565b995060408c0135985060608c0135975060808c0135965060a08c0135915080821115620029c657600080fd5b50620029d58c828d0162002728565b94505060c08a0135925060e08a013591506101008a013590509295985092959850929598565b60006020828403121562002a0e57600080fd5b81518015158114620011ab57600080fd5b60006020828403121562002a3257600080fd5b5035919050565b60006020828403121562002a4c57600080fd5b5051919050565b6000806040838503121562002a6757600080fd5b82359150602083013562002a7b8162003109565b809150509250929050565b60006020828403121562002a9957600080fd5b81356001600160e01b031981168114620011ab57600080fd5b60008060006060848603121562002ac857600080fd5b833562002ad58162003109565b9250602084013562002ae78162003109565b9150604084013562002af98162003109565b809150509250925092565b60006020828403121562002b1757600080fd5b813567ffffffffffffffff81111562002b2f57600080fd5b62002b3d8482850162002728565b949350505050565b60006020828403121562002b5857600080fd5b815167ffffffffffffffff81111562002b7057600080fd5b8201601f8101841362002b8257600080fd5b805162002b93620026f68262002ffc565b81815285602083850101111562002ba957600080fd5b620026908260208301602086016200307e565b6000806040838503121562002bd057600080fd5b823567ffffffffffffffff81111562002be857600080fd5b62002bf68582860162002728565b95602094909401359450505050565b6000815180845262002c1f8160208601602086016200307e565b601f01601f19169290920160200192915050565b6000825162002c478184602087016200307e565b9190910192915050565b6000835162002c658184602088016200307e565b83519083019062002c7b8183602088016200307e565b01949350505050565b7f416363657373436f6e74726f6c3a206163636f756e742000000000000000000081526000835162002cbe8160178501602088016200307e565b7001034b99036b4b9b9b4b733903937b6329607d1b601791840191820152835162002cf18160288401602088016200307e565b01602801949350505050565b6001600160a01b038316815260406020820181905260009062002b3d9083018462002c05565b6001600160a01b038616815260a06020820181905260009062002d499083018762002c05565b856040840152846060840152828103608084015262002d69818562002c05565b98975050505050505050565b6001600160a01b038a1681526101206020820181905260009062002d9c8382018c62002c05565b905089604084015288606084015287608084015282810360a084015262002dc4818862002c05565b60c0840196909652505060e0810192909252610100909101529695505050505050565b600060018060a01b03808816835286602084015260a0604084015262002e1160a084018762002c05565b838103606085015262002e25818762002c05565b9250508084166080840152509695505050505050565b602081526000620011ab602083018462002c05565b60a08152600062002e6560a083018862002c05565b6001600160a01b03878116602085015286166040840152828103606084015262002e90818662002c05565b9150508260808301529695505050505050565b60608152600062002eb8606083018662002c05565b828103602084015262002ecc818662002c05565b91505060018060a01b0383166040830152949350505050565b6020808252602c908201527f46756e6374696f6e206d7573742062652063616c6c6564207468726f7567682060408201526b19195b1959d85d1958d85b1b60a21b606082015260800190565b6020808252602c908201527f46756e6374696f6e206d7573742062652063616c6c6564207468726f7567682060408201526b6163746976652070726f787960a01b606082015260800190565b6020808252602b908201527f496e697469616c697a61626c653a20636f6e7472616374206973206e6f74206960408201526a6e697469616c697a696e6760a81b606082015260800190565b604051601f8201601f1916810167ffffffffffffffff8111828210171562002ff45762002ff4620030f3565b604052919050565b600067ffffffffffffffff821115620030195762003019620030f3565b50601f01601f191660200190565b600082198211156200303d576200303d620030c7565b500190565b60008160001904831182151516156200305f576200305f620030c7565b500290565b600082821015620030795762003079620030c7565b500390565b60005b838110156200309b57818101518382015260200162003081565b838111156200235b5750506000910152565b600081620030bf57620030bf620030c7565b506000190190565b634e487b7160e01b600052601160045260246000fd5b634e487b7160e01b600052603260045260246000fd5b634e487b7160e01b600052604160045260246000fd5b6001600160a01b038116811462000a9657600080fdfe60806040523480156200001157600080fd5b5060405162000f2d38038062000f2d833981016040819052620000349162000237565b818162000041336200008a565b815162000056906004906020850190620000da565b5080516200006c906005906020840190620000da565b5050600680546001600160a01b0319163317905550620002f4915050565b600080546001600160a01b038381166001600160a01b0319831681178455604051919092169283917f8be0079c531659141344cd1fd0a4f28419497f9722a3daafe3b4186f6b6457e09190a35050565b828054620000e890620002a1565b90600052602060002090601f0160209004810192826200010c576000855562000157565b82601f106200012757805160ff191683800117855562000157565b8280016001018555821562000157579182015b82811115620001575782518255916020019190600101906200013a565b506200016592915062000169565b5090565b5b808211156200016557600081556001016200016a565b600082601f8301126200019257600080fd5b81516001600160401b0380821115620001af57620001af620002de565b604051601f8301601f19908116603f01168101908282118183101715620001da57620001da620002de565b81604052838152602092508683858801011115620001f757600080fd5b600091505b838210156200021b5785820183015181830184015290820190620001fc565b838211156200022d5760008385830101525b9695505050505050565b600080604083850312156200024b57600080fd5b82516001600160401b03808211156200026357600080fd5b620002718683870162000180565b935060208501519150808211156200028857600080fd5b50620002978582860162000180565b9150509250929050565b600181811c90821680620002b657607f821691505b60208210811415620002d857634e487b7160e01b600052602260045260246000fd5b50919050565b634e487b7160e01b600052604160045260246000fd5b610c2980620003046000396000f3fe608060405234801561001057600080fd5b50600436106100f55760003560e01c8063715018a611610097578063a9059cbb11610066578063a9059cbb146101e6578063add6a687146101f9578063dd62ed3e1461020c578063f2fde38b1461021a57600080fd5b8063715018a6146101a65780638da5cb5b146101b057806395d89b41146101cb578063a457c2d7146101d357600080fd5b806323b872dd116100d357806323b872dd1461014d578063313ce5671461015b578063395093511461016a57806370a082311461017d57600080fd5b806306fdde03146100fa578063095ea7b31461011857806318160ddd1461013b575b600080fd5b61010261022d565b60405161010f9190610b60565b60405180910390f35b61012b610126366004610aac565b6102bf565b604051901515815260200161010f565b6003545b60405190815260200161010f565b61012b610126366004610a70565b6040516012815260200161010f565b61012b610178366004610aac565b6102ff565b61013f61018b366004610a1b565b6001600160a01b031660009081526001602052604090205490565b6101ae61032b565b005b6000546040516001600160a01b03909116815260200161010f565b61010261033f565b61012b6101e1366004610aac565b61034e565b61012b6101f4366004610aac565b6103d4565b6101ae610207366004610aac565b61048d565b61013f610126366004610a3d565b6101ae610228366004610a1b565b610592565b60606004805461023c90610ba2565b80601f016020809104026020016040519081016040528092919081815260200182805461026890610ba2565b80156102b55780601f1061028a576101008083540402835291602001916102b5565b820191906000526020600020905b81548152906001019060200180831161029857829003601f168201915b5050505050905090565b60405162461bcd60e51b815260206004820152600d60248201526c139bdd081cdd5c1c1bdc9d1959609a1b60448201526000906064015b60405180910390fd5b60003361032181858561031283836102bf565b61031c9190610b73565b61060b565b5060019392505050565b610333610730565b61033d600061078a565b565b60606005805461023c90610ba2565b6000338161035c82866102bf565b9050838110156103bc5760405162461bcd60e51b815260206004820152602560248201527f45524332303a2064656372656173656420616c6c6f77616e63652062656c6f77604482015264207a65726f60d81b60648201526084016102f6565b6103c9828686840361060b565b506001949350505050565b6006546000906001600160a01b031663ae1b768d84336103f261033f565b866040518563ffffffff1660e01b81526004016104129493929190610b23565b600060405180830381600087803b15801561042c57600080fd5b505af1158015610440573d6000803e3d6000fd5b50506040518481526001600160a01b03861692503391507fddf252ad1be2c89b69c2b068fc378daa952ba7f163c4a11628f55a4df523b3ef9060200160405180910390a350600192915050565b610495610730565b6001600160a01b038216600090815260016020526040902054818114156104bb57505050565b808211156104db576104d6836104d18385610b8b565b6107da565b6104ee565b6104ee836104e98484610b8b565b6108b9565b6001600160a01b03831660009081526001602052604090205482811461054a5760405162461bcd60e51b81526020600482015260116024820152702bb937b7339031b0b631bab630ba34b7b760791b60448201526064016102f6565b604080516001600160a01b0386168152602081018590527faca675004c66aff66f6e84aac634806e6c3550b1a6ba29fc8e1c1471ad1babf1910160405180910390a150505050565b61059a610730565b6001600160a01b0381166105ff5760405162461bcd60e51b815260206004820152602660248201527f4f776e61626c653a206e6577206f776e657220697320746865207a65726f206160448201526564647265737360d01b60648201526084016102f6565b6106088161078a565b50565b6001600160a01b03831661066d5760405162461bcd60e51b8152602060048201526024808201527f45524332303a20617070726f76652066726f6d20746865207a65726f206164646044820152637265737360e01b60648201526084016102f6565b6001600160a01b0382166106ce5760405162461bcd60e51b815260206004820152602260248201527f45524332303a20617070726f766520746f20746865207a65726f206164647265604482015261737360f01b60648201526084016102f6565b6001600160a01b0383811660008181526002602090815260408083209487168084529482529182902085905590518481527f8c5be1e5ebec7d5bd14f71427d1e84f3dd0314c0f7b2291e5b200ac8c7c3b92591015b60405180910390a3505050565b6000546001600160a01b0316331461033d5760405162461bcd60e51b815260206004820181905260248201527f4f776e61626c653a2063616c6c6572206973206e6f7420746865206f776e657260448201526064016102f6565b600080546001600160a01b038381166001600160a01b0319831681178455604051919092169283917f8be0079c531659141344cd1fd0a4f28419497f9722a3daafe3b4186f6b6457e09190a35050565b6001600160a01b0382166108305760405162461bcd60e51b815260206004820152601f60248201527f45524332303a206d696e7420746f20746865207a65726f20616464726573730060448201526064016102f6565b80600360008282546108429190610b73565b90915550506001600160a01b0382166000908152600160205260408120805483929061086f908490610b73565b90915550506040518181526001600160a01b038316906000907fddf252ad1be2c89b69c2b068fc378daa952ba7f163c4a11628f55a4df523b3ef9060200160405180910390a35050565b6001600160a01b0382166109195760405162461bcd60e51b815260206004820152602160248201527f45524332303a206275726e2066726f6d20746865207a65726f206164647265736044820152607360f81b60648201526084016102f6565b6001600160a01b0382166000908152600160205260409020548181101561098d5760405162461bcd60e51b815260206004820152602260248201527f45524332303a206275726e20616d6f756e7420657863656564732062616c616e604482015261636560f01b60648201526084016102f6565b6001600160a01b03831660009081526001602052604081208383039055600380548492906109bc908490610b8b565b90915550506040518281526000906001600160a01b038516907fddf252ad1be2c89b69c2b068fc378daa952ba7f163c4a11628f55a4df523b3ef90602001610723565b80356001600160a01b0381168114610a1657600080fd5b919050565b600060208284031215610a2d57600080fd5b610a36826109ff565b9392505050565b60008060408385031215610a5057600080fd5b610a59836109ff565b9150610a67602084016109ff565b90509250929050565b600080600060608486031215610a8557600080fd5b610a8e846109ff565b9250610a9c602085016109ff565b9150604084013590509250925092565b60008060408385031215610abf57600080fd5b610ac8836109ff565b946020939093013593505050565b6000815180845260005b81811015610afc57602081850181015186830182015201610ae0565b81811115610b0e576000602083870101525b50601f01601f19169290920160200192915050565b6001600160a01b03858116825284166020820152608060408201819052600090610b4f90830185610ad6565b905082606083015295945050505050565b602081526000610a366020830184610ad6565b60008219821115610b8657610b86610bdd565b500190565b600082821015610b9d57610b9d610bdd565b500390565b600181811c90821680610bb657607f821691505b60208210811415610bd757634e487b7160e01b600052602260045260246000fd5b50919050565b634e487b7160e01b600052601160045260246000fdfea26469706673582212204093be73eb81a03c22cf649b7583f9e2f8d9412f96efe93bce84c084e188cd0764736f6c634300080700335175616e746974792063616e6e6f74206265206c6172676572207468656e2062616c616e6365360894a13ba1a3210667c828492db98dca3e2076cc3735a920a3ca505d382bbc65d7a28e3265b37a6474929f336521b332c1681b933f6cb9f3376673440d862a416464726573733a206c6f772d6c6576656c2064656c65676174652063616c6c206661696c65649f2df0fed2c77648de5860a4cc508cd0818c85b8b8a1ab4ceeef8d981c8956a6a2646970667358221220b130d373b690e14e3dcfdbdc6d96f872b9f936b7e094d92ff207c22a32f5310164736f6c63430008070033",
  "linkReferences": {},
  "deployedLinkReferences": {}
}