{
  "_format": "hh-sol-artifact-1",
  "contractName": "ServiceSettings",
  "sourceName": "contracts/ServiceSettings.sol",
  "abi": [
    {
      "inputs": [],
      "stateMutability": "nonpayable",
      "type": "constructor"
    },
    {
      "anonymous": false,
      "inputs": [
        {
          "indexed": false,
          "internalType": "address",
          "name": "previousAdmin",
          "type": "address"
        },
        {
          "indexed": false,
          "internalType": "address",
          "name": "newAdmin",
          "type": "address"
        }
      ],
      "name": "AdminChanged",
      "type": "event"
    },
    {
      "anonymous": false,
      "inputs": [
        {
          "indexed": true,
          "internalType": "address",
          "name": "beacon",
          "type": "address"
        }
      ],
      "name": "BeaconUpgraded",
      "type": "event"
    },
    {
      "anonymous": false,
      "inputs": [
        {
          "indexed": false,
          "internalType": "uint8",
          "name": "version",
          "type": "uint8"
        }
      ],
      "name": "Initialized",
      "type": "event"
    },
    {
      "anonymous": false,
      "inputs": [
        {
          "indexed": false,
          "internalType": "address",
          "name": "account",
          "type": "address"
        }
      ],
      "name": "Paused",
      "type": "event"
    },
    {
      "anonymous": false,
      "inputs": [
        {
          "indexed": true,
          "internalType": "bytes32",
          "name": "role",
          "type": "bytes32"
        },
        {
          "indexed": true,
          "internalType": "bytes32",
          "name": "previousAdminRole",
          "type": "bytes32"
        },
        {
          "indexed": true,
          "internalType": "bytes32",
          "name": "newAdminRole",
          "type": "bytes32"
        }
      ],
      "name": "RoleAdminChanged",
      "type": "event"
    },
    {
      "anonymous": false,
      "inputs": [
        {
          "indexed": true,
          "internalType": "bytes32",
          "name": "role",
          "type": "bytes32"
        },
        {
          "indexed": true,
          "internalType": "address",
          "name": "account",
          "type": "address"
        },
        {
          "indexed": true,
          "internalType": "address",
          "name": "sender",
          "type": "address"
        }
      ],
      "name": "RoleGranted",
      "type": "event"
    },
    {
      "anonymous": false,
      "inputs": [
        {
          "indexed": true,
          "internalType": "bytes32",
          "name": "role",
          "type": "bytes32"
        },
        {
          "indexed": true,
          "internalType": "address",
          "name": "account",
          "type": "address"
        },
        {
          "indexed": true,
          "internalType": "address",
          "name": "sender",
          "type": "address"
        }
      ],
      "name": "RoleRevoked",
      "type": "event"
    },
    {
      "anonymous": false,
      "inputs": [
        {
          "indexed": false,
          "internalType": "address",
          "name": "signer",
          "type": "address"
        },
        {
          "indexed": false,
          "internalType": "address",
          "name": "service",
          "type": "address"
        },
        {
          "indexed": false,
          "internalType": "string",
          "name": "name",
          "type": "string"
        },
        {
          "indexed": false,
          "internalType": "string",
          "name": "url",
          "type": "string"
        }
      ],
      "name": "ServiceContractCreated",
      "type": "event"
    },
    {
      "anonymous": false,
      "inputs": [
        {
          "indexed": false,
          "internalType": "address",
          "name": "service",
          "type": "address"
        },
        {
          "indexed": false,
          "internalType": "string",
          "name": "name",
          "type": "string"
        },
        {
          "indexed": false,
          "internalType": "string",
          "name": "url",
          "type": "string"
        }
      ],
      "name": "ServiceContractUpdated",
      "type": "event"
    },
    {
      "anonymous": false,
      "inputs": [
        {
          "indexed": false,
          "internalType": "address",
          "name": "account",
          "type": "address"
        }
      ],
      "name": "Unpaused",
      "type": "event"
    },
    {
      "anonymous": false,
      "inputs": [
        {
          "indexed": true,
          "internalType": "address",
          "name": "implementation",
          "type": "address"
        }
      ],
      "name": "Upgraded",
      "type": "event"
    },
    {
      "inputs": [],
      "name": "ADDRESS_CANNOT_BE_ZERO",
      "outputs": [
        {
          "internalType": "string",
          "name": "",
          "type": "string"
        }
      ],
      "stateMutability": "view",
      "type": "function"
    },
    {
      "inputs": [],
      "name": "DEFAULT_ADMIN_ROLE",
      "outputs": [
        {
          "internalType": "bytes32",
          "name": "",
          "type": "bytes32"
        }
      ],
      "stateMutability": "view",
      "type": "function"
    },
    {
      "inputs": [],
      "name": "MINTER_ROLE",
      "outputs": [
        {
          "internalType": "bytes32",
          "name": "",
          "type": "bytes32"
        }
      ],
      "stateMutability": "view",
      "type": "function"
    },
    {
      "inputs": [],
      "name": "PAUSER_ROLE",
      "outputs": [
        {
          "internalType": "bytes32",
          "name": "",
          "type": "bytes32"
        }
      ],
      "stateMutability": "view",
      "type": "function"
    },
    {
      "inputs": [],
      "name": "UPGRADER_ROLE",
      "outputs": [
        {
          "internalType": "bytes32",
          "name": "",
          "type": "bytes32"
        }
      ],
      "stateMutability": "view",
      "type": "function"
    },
    {
      "inputs": [
        {
          "internalType": "address",
          "name": "serviceAddress",
          "type": "address"
        },
        {
          "internalType": "string",
          "name": "name",
          "type": "string"
        },
        {
          "internalType": "string",
          "name": "url",
          "type": "string"
        }
      ],
      "name": "createContract",
      "outputs": [],
      "stateMutability": "nonpayable",
      "type": "function"
    },
    {
      "inputs": [
        {
          "internalType": "bytes32",
          "name": "role",
          "type": "bytes32"
        }
      ],
      "name": "getRoleAdmin",
      "outputs": [
        {
          "internalType": "bytes32",
          "name": "",
          "type": "bytes32"
        }
      ],
      "stateMutability": "view",
      "type": "function"
    },
    {
      "inputs": [
        {
          "internalType": "address",
          "name": "serviceAddress",
          "type": "address"
        }
      ],
      "name": "getService",
      "outputs": [
        {
          "internalType": "address",
          "name": "",
          "type": "address"
        }
      ],
      "stateMutability": "view",
      "type": "function"
    },
    {
      "inputs": [
        {
          "internalType": "bytes32",
          "name": "role",
          "type": "bytes32"
        },
        {
          "internalType": "address",
          "name": "account",
          "type": "address"
        }
      ],
      "name": "grantRole",
      "outputs": [],
      "stateMutability": "nonpayable",
      "type": "function"
    },
    {
      "inputs": [
        {
          "internalType": "bytes32",
          "name": "role",
          "type": "bytes32"
        },
        {
          "internalType": "address",
          "name": "account",
          "type": "address"
        }
      ],
      "name": "hasRole",
      "outputs": [
        {
          "internalType": "bool",
          "name": "",
          "type": "bool"
        }
      ],
      "stateMutability": "view",
      "type": "function"
    },
    {
      "inputs": [],
      "name": "initialize",
      "outputs": [],
      "stateMutability": "nonpayable",
      "type": "function"
    },
    {
      "inputs": [],
      "name": "pause",
      "outputs": [],
      "stateMutability": "nonpayable",
      "type": "function"
    },
    {
      "inputs": [],
      "name": "paused",
      "outputs": [
        {
          "internalType": "bool",
          "name": "",
          "type": "bool"
        }
      ],
      "stateMutability": "view",
      "type": "function"
    },
    {
      "inputs": [],
      "name": "proxiableUUID",
      "outputs": [
        {
          "internalType": "bytes32",
          "name": "",
          "type": "bytes32"
        }
      ],
      "stateMutability": "view",
      "type": "function"
    },
    {
      "inputs": [
        {
          "internalType": "bytes32",
          "name": "role",
          "type": "bytes32"
        },
        {
          "internalType": "address",
          "name": "account",
          "type": "address"
        }
      ],
      "name": "renounceRole",
      "outputs": [],
      "stateMutability": "nonpayable",
      "type": "function"
    },
    {
      "inputs": [
        {
          "internalType": "bytes32",
          "name": "role",
          "type": "bytes32"
        },
        {
          "internalType": "address",
          "name": "account",
          "type": "address"
        }
      ],
      "name": "revokeRole",
      "outputs": [],
      "stateMutability": "nonpayable",
      "type": "function"
    },
    {
      "inputs": [
        {
          "internalType": "address",
          "name": "",
          "type": "address"
        }
      ],
      "name": "services",
      "outputs": [
        {
          "internalType": "address",
          "name": "signerAddress",
          "type": "address"
        },
        {
          "internalType": "string",
          "name": "name",
          "type": "string"
        },
        {
          "internalType": "string",
          "name": "url",
          "type": "string"
        }
      ],
      "stateMutability": "view",
      "type": "function"
    },
    {
      "inputs": [
        {
          "internalType": "bytes4",
          "name": "interfaceId",
          "type": "bytes4"
        }
      ],
      "name": "supportsInterface",
      "outputs": [
        {
          "internalType": "bool",
          "name": "",
          "type": "bool"
        }
      ],
      "stateMutability": "view",
      "type": "function"
    },
    {
      "inputs": [],
      "name": "unpause",
      "outputs": [],
      "stateMutability": "nonpayable",
      "type": "function"
    },
    {
      "inputs": [
        {
          "internalType": "address",
          "name": "serviceAddress",
          "type": "address"
        },
        {
          "internalType": "string",
          "name": "name",
          "type": "string"
        },
        {
          "internalType": "string",
          "name": "url",
          "type": "string"
        },
        {
          "internalType": "address[]",
          "name": "allowedStaking",
          "type": "address[]"
        },
        {
          "internalType": "address[]",
          "name": "allowedUnstaking",
          "type": "address[]"
        }
      ],
      "name": "updateContract",
      "outputs": [],
      "stateMutability": "nonpayable",
      "type": "function"
    },
    {
      "inputs": [
        {
          "internalType": "address",
          "name": "newImplementation",
          "type": "address"
        }
      ],
      "name": "upgradeTo",
      "outputs": [],
      "stateMutability": "nonpayable",
      "type": "function"
    },
    {
      "inputs": [
        {
          "internalType": "address",
          "name": "newImplementation",
          "type": "address"
        },
        {
          "internalType": "bytes",
          "name": "data",
          "type": "bytes"
        }
      ],
      "name": "upgradeToAndCall",
      "outputs": [],
      "stateMutability": "payable",
      "type": "function"
    }
  ],
  "bytecode": "0x60a0604052306080523480156200001557600080fd5b50600054610100900460ff1615808015620000375750600054600160ff909116105b8062000067575062000054306200014160201b6200122c1760201c565b15801562000067575060005460ff166001145b620000cf5760405162461bcd60e51b815260206004820152602e60248201527f496e697469616c697a61626c653a20636f6e747261637420697320616c72656160448201526d191e481a5b9a5d1a585b1a5e995960921b606482015260840160405180910390fd5b6000805460ff191660011790558015620000f3576000805461ff0019166101001790555b80156200013a576000805461ff0019169055604051600181527f7f26b83ff96e1f2b6a682f133852f6798a09c465da95921460cefb38474024989060200160405180910390a15b5062000150565b6001600160a01b03163b151590565b6080516125b862000196600039600081816107a70152818161083d0152818161097601528181610a0c01528181610b030152818161139e015261143401526125b86000f3fe6080604052600436106101755760003560e01c80636d966d01116100cb578063b5e9ef161161007f578063db3c0fdf11610059578063db3c0fdf1461045a578063e63ab1e91461047a578063f72c0d8b146104ae57600080fd5b8063b5e9ef16146103e6578063d539139314610406578063d547741f1461043a57600080fd5b80638456cb59116100b05780638456cb591461037657806391d148541461038b578063a217fddf146103d157600080fd5b80636d966d01146103325780638129fc1c1461036157600080fd5b80633659cfe61161012d5780634f1ef286116101075780634f1ef286146102f257806352d1902d146103055780635c975abb1461031a57600080fd5b80633659cfe6146102675780633afea586146102875780633f4ba83a146102dd57600080fd5b8063248a9ca31161015e578063248a9ca3146101e75780632f2ff15d1461022557806336568abe1461024757600080fd5b806301ffc9a71461017a57806315a52302146101af575b600080fd5b34801561018657600080fd5b5061019a610195366004611ea8565b6104e2565b60405190151581526020015b60405180910390f35b3480156101bb57600080fd5b506101cf6101ca366004611f06565b61057b565b6040516001600160a01b0390911681526020016101a6565b3480156101f357600080fd5b50610217610202366004611f21565b60009081526097602052604090206001015490565b6040519081526020016101a6565b34801561023157600080fd5b50610245610240366004611f3a565b6106e2565b005b34801561025357600080fd5b50610245610262366004611f3a565b61070c565b34801561027357600080fd5b50610245610282366004611f06565b61079d565b34801561029357600080fd5b506102d06040518060400160405280601681526020017f416464726573732063616e6e6f74206265207a65726f0000000000000000000081525081565b6040516101a69190611fb6565b3480156102e957600080fd5b5061024561093a565b610245610300366004612055565b61096c565b34801561031157600080fd5b50610217610af6565b34801561032657600080fd5b5060335460ff1661019a565b34801561033e57600080fd5b5061035261034d366004611f06565b610bbb565b6040516101a6939291906120b7565b34801561036d57600080fd5b50610245610cf9565b34801561038257600080fd5b50610245610eb1565b34801561039757600080fd5b5061019a6103a6366004611f3a565b60009182526097602090815260408084206001600160a01b0393909316845291905290205460ff1690565b3480156103dd57600080fd5b50610217600081565b3480156103f257600080fd5b50610245610401366004612115565b610ee3565b34801561041257600080fd5b506102177f9f2df0fed2c77648de5860a4cc508cd0818c85b8b8a1ab4ceeef8d981c8956a681565b34801561044657600080fd5b50610245610455366004611f3a565b6111f6565b34801561046657600080fd5b506102456104753660046121d5565b61121b565b34801561048657600080fd5b506102177f65d7a28e3265b37a6474929f336521b332c1681b933f6cb9f3376673440d862a81565b3480156104ba57600080fd5b506102177f189ab7a9244df0848122154315af71fe140f3db0fe014031783b0946b8c9d2e381565b60007fffffffff0000000000000000000000000000000000000000000000000000000082167f7965db0b00000000000000000000000000000000000000000000000000000000148061057557507f01ffc9a7000000000000000000000000000000000000000000000000000000007fffffffff000000000000000000000000000000000000000000000000000000008316145b92915050565b6001600160a01b03808216600090815261012d6020908152604080832081516060810190925280549094168152600184018054939485949293909290840191906105c49061229f565b80601f01602080910402602001604051908101604052809291908181526020018280546105f09061229f565b801561063d5780601f106106125761010080835404028352916020019161063d565b820191906000526020600020905b81548152906001019060200180831161062057829003601f168201915b505050505081526020016002820180546106569061229f565b80601f01602080910402602001604051908101604052809291908181526020018280546106829061229f565b80156106cf5780601f106106a4576101008083540402835291602001916106cf565b820191906000526020600020905b8154815290600101906020018083116106b257829003601f168201915b5050509190925250509051949350505050565b6000828152609760205260409020600101546106fd8161123b565b6107078383611245565b505050565b6001600160a01b038116331461078f5760405162461bcd60e51b815260206004820152602f60248201527f416363657373436f6e74726f6c3a2063616e206f6e6c792072656e6f756e636560448201527f20726f6c657320666f722073656c66000000000000000000000000000000000060648201526084015b60405180910390fd5b61079982826112e7565b5050565b6001600160a01b037f000000000000000000000000000000000000000000000000000000000000000016300361083b5760405162461bcd60e51b815260206004820152602c60248201527f46756e6374696f6e206d7573742062652063616c6c6564207468726f7567682060448201527f64656c656761746563616c6c00000000000000000000000000000000000000006064820152608401610786565b7f00000000000000000000000000000000000000000000000000000000000000006001600160a01b03166108967f360894a13ba1a3210667c828492db98dca3e2076cc3735a920a3ca505d382bbc546001600160a01b031690565b6001600160a01b0316146109125760405162461bcd60e51b815260206004820152602c60248201527f46756e6374696f6e206d7573742062652063616c6c6564207468726f7567682060448201527f6163746976652070726f787900000000000000000000000000000000000000006064820152608401610786565b61091b8161136a565b6040805160008082526020820190925261093791839190611512565b50565b7f65d7a28e3265b37a6474929f336521b332c1681b933f6cb9f3376673440d862a6109648161123b565b6109376116b2565b6001600160a01b037f0000000000000000000000000000000000000000000000000000000000000000163003610a0a5760405162461bcd60e51b815260206004820152602c60248201527f46756e6374696f6e206d7573742062652063616c6c6564207468726f7567682060448201527f64656c656761746563616c6c00000000000000000000000000000000000000006064820152608401610786565b7f00000000000000000000000000000000000000000000000000000000000000006001600160a01b0316610a657f360894a13ba1a3210667c828492db98dca3e2076cc3735a920a3ca505d382bbc546001600160a01b031690565b6001600160a01b031614610ae15760405162461bcd60e51b815260206004820152602c60248201527f46756e6374696f6e206d7573742062652063616c6c6564207468726f7567682060448201527f6163746976652070726f787900000000000000000000000000000000000000006064820152608401610786565b610aea8261136a565b61079982826001611512565b6000306001600160a01b037f00000000000000000000000000000000000000000000000000000000000000001614610b965760405162461bcd60e51b815260206004820152603860248201527f555550535570677261646561626c653a206d757374206e6f742062652063616c60448201527f6c6564207468726f7567682064656c656761746563616c6c00000000000000006064820152608401610786565b507f360894a13ba1a3210667c828492db98dca3e2076cc3735a920a3ca505d382bbc90565b61012d60205260009081526040902080546001820180546001600160a01b039092169291610be89061229f565b80601f0160208091040260200160405190810160405280929190818152602001828054610c149061229f565b8015610c615780601f10610c3657610100808354040283529160200191610c61565b820191906000526020600020905b815481529060010190602001808311610c4457829003601f168201915b505050505090806002018054610c769061229f565b80601f0160208091040260200160405190810160405280929190818152602001828054610ca29061229f565b8015610cef5780601f10610cc457610100808354040283529160200191610cef565b820191906000526020600020905b815481529060010190602001808311610cd257829003601f168201915b5050505050905083565b600054610100900460ff1615808015610d195750600054600160ff909116105b80610d335750303b158015610d33575060005460ff166001145b610da55760405162461bcd60e51b815260206004820152602e60248201527f496e697469616c697a61626c653a20636f6e747261637420697320616c72656160448201527f647920696e697469616c697a65640000000000000000000000000000000000006064820152608401610786565b6000805460ff191660011790558015610dc8576000805461ff0019166101001790555b610dd0611704565b610dd861178b565b610de061178b565b610deb600033611245565b610e157f65d7a28e3265b37a6474929f336521b332c1681b933f6cb9f3376673440d862a33611245565b610e3f7f9f2df0fed2c77648de5860a4cc508cd0818c85b8b8a1ab4ceeef8d981c8956a633611245565b610e697f189ab7a9244df0848122154315af71fe140f3db0fe014031783b0946b8c9d2e333611245565b8015610937576000805461ff0019169055604051600181527f7f26b83ff96e1f2b6a682f133852f6798a09c465da95921460cefb38474024989060200160405180910390a150565b7f65d7a28e3265b37a6474929f336521b332c1681b933f6cb9f3376673440d862a610edb8161123b565b610937611808565b610eeb611845565b60408051808201909152601681527f416464726573732063616e6e6f74206265207a65726f0000000000000000000060208201526001600160a01b038416610f465760405162461bcd60e51b81526004016107869190611fb6565b506001600160a01b03808416600090815261012d6020908152604080832081516060810190925280549094168152600184018054939491939192840191610f8c9061229f565b80601f0160208091040260200160405190810160405280929190818152602001828054610fb89061229f565b80156110055780601f10610fda57610100808354040283529160200191611005565b820191906000526020600020905b815481529060010190602001808311610fe857829003601f168201915b5050505050815260200160028201805461101e9061229f565b80601f016020809104026020016040519081016040528092919081815260200182805461104a9061229f565b80156110975780601f1061106c57610100808354040283529160200191611097565b820191906000526020600020905b81548152906001019060200180831161107a57829003601f168201915b5050509190925250508151919250506001600160a01b0316156111225760405162461bcd60e51b815260206004820152603e60248201527f54686973206164647265737320616c726561647920686173207365727669636560448201527f2061677265656d656e742e2055736520757064617465436f6e747261637400006064820152608401610786565b506040805160608101825233815260208082018581528284018590526001600160a01b03878116600090815261012d90935293909120825181547fffffffffffffffffffffffff00000000000000000000000000000000000000001694169390931783555190918291600182019061119a9082612327565b50604082015160028201906111af9082612327565b509050507f6e5b055832c8d62bae2df6b784286fa2e5493d2f809681c1b701b8a93a14eacd338585856040516111e894939291906123e7565b60405180910390a150505050565b6000828152609760205260409020600101546112118161123b565b61070783836112e7565b611223611845565b50505050505050565b6001600160a01b03163b151590565b6109378133611898565b60008281526097602090815260408083206001600160a01b038516845290915290205460ff166107995760008281526097602090815260408083206001600160a01b03851684529091529020805460ff191660011790556112a33390565b6001600160a01b0316816001600160a01b0316837f2f8788117e7eff1d82e926ec794901d17c78024a50270940304540a733656f0d60405160405180910390a45050565b60008281526097602090815260408083206001600160a01b038516845290915290205460ff16156107995760008281526097602090815260408083206001600160a01b0385168085529252808320805460ff1916905551339285917ff6391f5c32d9c69d2a47ea670b442974b53935d1edc7fd64eb21e047a839171b9190a45050565b7f189ab7a9244df0848122154315af71fe140f3db0fe014031783b0946b8c9d2e36113948161123b565b6001600160a01b037f00000000000000000000000000000000000000000000000000000000000000001630036114325760405162461bcd60e51b815260206004820152602c60248201527f46756e6374696f6e206d7573742062652063616c6c6564207468726f7567682060448201527f64656c656761746563616c6c00000000000000000000000000000000000000006064820152608401610786565b7f00000000000000000000000000000000000000000000000000000000000000006001600160a01b031661148d7f360894a13ba1a3210667c828492db98dca3e2076cc3735a920a3ca505d382bbc546001600160a01b031690565b6001600160a01b0316146115095760405162461bcd60e51b815260206004820152602c60248201527f46756e6374696f6e206d7573742062652063616c6c6564207468726f7567682060448201527f6163746976652070726f787900000000000000000000000000000000000000006064820152608401610786565b61079982611918565b7f4910fdfa16fed3260ed0e7147f7cc6da11a60208b5b9406d12a635614ffd91435460ff16156115455761070783611958565b826001600160a01b03166352d1902d6040518163ffffffff1660e01b8152600401602060405180830381865afa92505050801561159f575060408051601f3d908101601f1916820190925261159c91810190612430565b60015b6116115760405162461bcd60e51b815260206004820152602e60248201527f45524331393637557067726164653a206e657720696d706c656d656e7461746960448201527f6f6e206973206e6f7420555550530000000000000000000000000000000000006064820152608401610786565b7f360894a13ba1a3210667c828492db98dca3e2076cc3735a920a3ca505d382bbc81146116a65760405162461bcd60e51b815260206004820152602960248201527f45524331393637557067726164653a20756e737570706f727465642070726f7860448201527f6961626c655555494400000000000000000000000000000000000000000000006064820152608401610786565b50610707838383611a2e565b6116ba611a59565b6033805460ff191690557f5db9ee0a495bf2e6ff9c91a7834c1ba4fdd244a5e8aa4e537bd38aeae4b073aa335b6040516001600160a01b03909116815260200160405180910390a1565b600054610100900460ff166117815760405162461bcd60e51b815260206004820152602b60248201527f496e697469616c697a61626c653a20636f6e7472616374206973206e6f74206960448201527f6e697469616c697a696e670000000000000000000000000000000000000000006064820152608401610786565b611789611aab565b565b600054610100900460ff166117895760405162461bcd60e51b815260206004820152602b60248201527f496e697469616c697a61626c653a20636f6e7472616374206973206e6f74206960448201527f6e697469616c697a696e670000000000000000000000000000000000000000006064820152608401610786565b611810611845565b6033805460ff191660011790557f62e78cea01bee320cd4e420270b5ea74000d11b0c9f74754ebdbfc544b05a2586116e73390565b60335460ff16156117895760405162461bcd60e51b815260206004820152601060248201527f5061757361626c653a20706175736564000000000000000000000000000000006044820152606401610786565b60008281526097602090815260408083206001600160a01b038516845290915290205460ff16610799576118d6816001600160a01b03166014611b34565b6118e1836020611b34565b6040516020016118f2929190612449565b60408051601f198184030181529082905262461bcd60e51b825261078691600401611fb6565b61192181611958565b6040516001600160a01b038216907fbc7cd75a20ee27fd9adebab32041f755214dbc6bffa90cc0225b39da2e5c2d3b90600090a250565b6001600160a01b0381163b6119d55760405162461bcd60e51b815260206004820152602d60248201527f455243313936373a206e657720696d706c656d656e746174696f6e206973206e60448201527f6f74206120636f6e7472616374000000000000000000000000000000000000006064820152608401610786565b7f360894a13ba1a3210667c828492db98dca3e2076cc3735a920a3ca505d382bbc80547fffffffffffffffffffffffff0000000000000000000000000000000000000000166001600160a01b0392909216919091179055565b611a3783611918565b600082511180611a445750805b1561070757611a538383611d64565b50505050565b60335460ff166117895760405162461bcd60e51b815260206004820152601460248201527f5061757361626c653a206e6f74207061757365640000000000000000000000006044820152606401610786565b600054610100900460ff16611b285760405162461bcd60e51b815260206004820152602b60248201527f496e697469616c697a61626c653a20636f6e7472616374206973206e6f74206960448201527f6e697469616c697a696e670000000000000000000000000000000000000000006064820152608401610786565b6033805460ff19169055565b60606000611b438360026124e0565b611b4e9060026124ff565b67ffffffffffffffff811115611b6657611b66611fc9565b6040519080825280601f01601f191660200182016040528015611b90576020820181803683370190505b5090507f300000000000000000000000000000000000000000000000000000000000000081600081518110611bc757611bc7612512565b60200101907effffffffffffffffffffffffffffffffffffffffffffffffffffffffffffff1916908160001a9053507f780000000000000000000000000000000000000000000000000000000000000081600181518110611c2a57611c2a612512565b60200101907effffffffffffffffffffffffffffffffffffffffffffffffffffffffffffff1916908160001a9053506000611c668460026124e0565b611c719060016124ff565b90505b6001811115611d0e577f303132333435363738396162636465660000000000000000000000000000000085600f1660108110611cb257611cb2612512565b1a60f81b828281518110611cc857611cc8612512565b60200101907effffffffffffffffffffffffffffffffffffffffffffffffffffffffffffff1916908160001a90535060049490941c93611d0781612528565b9050611c74565b508315611d5d5760405162461bcd60e51b815260206004820181905260248201527f537472696e67733a20686578206c656e67746820696e73756666696369656e746044820152606401610786565b9392505050565b60606001600160a01b0383163b611de35760405162461bcd60e51b815260206004820152602660248201527f416464726573733a2064656c65676174652063616c6c20746f206e6f6e2d636f60448201527f6e747261637400000000000000000000000000000000000000000000000000006064820152608401610786565b600080846001600160a01b031684604051611dfe919061253f565b600060405180830381855af49150503d8060008114611e39576040519150601f19603f3d011682016040523d82523d6000602084013e611e3e565b606091505b5091509150611e66828260405180606001604052806027815260200161255c60279139611e6f565b95945050505050565b60608315611e7e575081611d5d565b825115611e8e5782518084602001fd5b8160405162461bcd60e51b81526004016107869190611fb6565b600060208284031215611eba57600080fd5b81357fffffffff0000000000000000000000000000000000000000000000000000000081168114611d5d57600080fd5b80356001600160a01b0381168114611f0157600080fd5b919050565b600060208284031215611f1857600080fd5b611d5d82611eea565b600060208284031215611f3357600080fd5b5035919050565b60008060408385031215611f4d57600080fd5b82359150611f5d60208401611eea565b90509250929050565b60005b83811015611f81578181015183820152602001611f69565b50506000910152565b60008151808452611fa2816020860160208601611f66565b601f01601f19169290920160200192915050565b602081526000611d5d6020830184611f8a565b634e487b7160e01b600052604160045260246000fd5b600067ffffffffffffffff80841115611ffa57611ffa611fc9565b604051601f8501601f19908116603f0116810190828211818310171561202257612022611fc9565b8160405280935085815286868601111561203b57600080fd5b858560208301376000602087830101525050509392505050565b6000806040838503121561206857600080fd5b61207183611eea565b9150602083013567ffffffffffffffff81111561208d57600080fd5b8301601f8101851361209e57600080fd5b6120ad85823560208401611fdf565b9150509250929050565b6001600160a01b03841681526060602082015260006120d96060830185611f8a565b82810360408401526120eb8185611f8a565b9695505050505050565b600082601f83011261210657600080fd5b611d5d83833560208501611fdf565b60008060006060848603121561212a57600080fd5b61213384611eea565b9250602084013567ffffffffffffffff8082111561215057600080fd5b61215c878388016120f5565b9350604086013591508082111561217257600080fd5b5061217f868287016120f5565b9150509250925092565b60008083601f84011261219b57600080fd5b50813567ffffffffffffffff8111156121b357600080fd5b6020830191508360208260051b85010111156121ce57600080fd5b9250929050565b600080600080600080600060a0888a0312156121f057600080fd5b6121f988611eea565b9650602088013567ffffffffffffffff8082111561221657600080fd5b6122228b838c016120f5565b975060408a013591508082111561223857600080fd5b6122448b838c016120f5565b965060608a013591508082111561225a57600080fd5b6122668b838c01612189565b909650945060808a013591508082111561227f57600080fd5b5061228c8a828b01612189565b989b979a50959850939692959293505050565b600181811c908216806122b357607f821691505b6020821081036122d357634e487b7160e01b600052602260045260246000fd5b50919050565b601f82111561070757600081815260208120601f850160051c810160208610156123005750805b601f850160051c820191505b8181101561231f5782815560010161230c565b505050505050565b815167ffffffffffffffff81111561234157612341611fc9565b6123558161234f845461229f565b846122d9565b602080601f83116001811461238a57600084156123725750858301515b600019600386901b1c1916600185901b17855561231f565b600085815260208120601f198616915b828110156123b95788860151825594840194600190910190840161239a565b50858210156123d75787850151600019600388901b60f8161c191681555b5050505050600190811b01905550565b60006001600160a01b038087168352808616602084015250608060408301526124136080830185611f8a565b82810360608401526124258185611f8a565b979650505050505050565b60006020828403121561244257600080fd5b5051919050565b7f416363657373436f6e74726f6c3a206163636f756e7420000000000000000000815260008351612481816017850160208801611f66565b7f206973206d697373696e6720726f6c652000000000000000000000000000000060179184019182015283516124be816028840160208801611f66565b01602801949350505050565b634e487b7160e01b600052601160045260246000fd5b60008160001904831182151516156124fa576124fa6124ca565b500290565b80820180821115610575576105756124ca565b634e487b7160e01b600052603260045260246000fd5b600081612537576125376124ca565b506000190190565b60008251612551818460208701611f66565b919091019291505056fe416464726573733a206c6f772d6c6576656c2064656c65676174652063616c6c206661696c6564a26469706673582212206dcf530d84eaf026fa367f0c140285615e5e563de058cc01cf80fa1c4b911dfb64736f6c63430008100033",
  "linkReferences": {},
  "deployedLinkReferences": {}
}