{
  "_format": "hh-sol-artifact-1",
  "contractName": "StakingPool",
  "sourceName": "contracts/StakingPool.sol",
  "abi": [
    {
      "inputs": [],
      "stateMutability": "nonpayable",
      "type": "constructor"
    },
    {
      "anonymous": false,
      "inputs": [
        {
          "indexed": false,
          "internalType": "address",
          "name": "previousAdmin",
          "type": "address"
        },
        {
          "indexed": false,
          "internalType": "address",
          "name": "newAdmin",
          "type": "address"
        }
      ],
      "name": "AdminChanged",
      "type": "event"
    },
    {
      "anonymous": false,
      "inputs": [
        {
          "indexed": true,
          "internalType": "address",
          "name": "beacon",
          "type": "address"
        }
      ],
      "name": "BeaconUpgraded",
      "type": "event"
    },
    {
      "anonymous": false,
      "inputs": [
        {
          "indexed": false,
          "internalType": "uint8",
          "name": "version",
          "type": "uint8"
        }
      ],
      "name": "Initialized",
      "type": "event"
    },
    {
      "anonymous": false,
      "inputs": [
        {
          "indexed": false,
          "internalType": "address",
          "name": "wallet",
          "type": "address"
        },
        {
          "indexed": false,
          "internalType": "string",
          "name": "symbol",
          "type": "string"
        },
        {
          "indexed": false,
          "internalType": "uint256",
          "name": "quantity",
          "type": "uint256"
        },
        {
          "indexed": false,
          "internalType": "address",
          "name": "service",
          "type": "address"
        }
      ],
      "name": "Liquidate",
      "type": "event"
    },
    {
      "anonymous": false,
      "inputs": [
        {
          "indexed": false,
          "internalType": "address",
          "name": "wallet",
          "type": "address"
        },
        {
          "indexed": false,
          "internalType": "string",
          "name": "symbol",
          "type": "string"
        },
        {
          "indexed": false,
          "internalType": "address",
          "name": "service",
          "type": "address"
        }
      ],
      "name": "Liquidated",
      "type": "event"
    },
    {
      "anonymous": false,
      "inputs": [
        {
          "indexed": false,
          "internalType": "address",
          "name": "account",
          "type": "address"
        }
      ],
      "name": "Paused",
      "type": "event"
    },
    {
      "anonymous": false,
      "inputs": [
        {
          "indexed": true,
          "internalType": "bytes32",
          "name": "role",
          "type": "bytes32"
        },
        {
          "indexed": true,
          "internalType": "bytes32",
          "name": "previousAdminRole",
          "type": "bytes32"
        },
        {
          "indexed": true,
          "internalType": "bytes32",
          "name": "newAdminRole",
          "type": "bytes32"
        }
      ],
      "name": "RoleAdminChanged",
      "type": "event"
    },
    {
      "anonymous": false,
      "inputs": [
        {
          "indexed": true,
          "internalType": "bytes32",
          "name": "role",
          "type": "bytes32"
        },
        {
          "indexed": true,
          "internalType": "address",
          "name": "account",
          "type": "address"
        },
        {
          "indexed": true,
          "internalType": "address",
          "name": "sender",
          "type": "address"
        }
      ],
      "name": "RoleGranted",
      "type": "event"
    },
    {
      "anonymous": false,
      "inputs": [
        {
          "indexed": true,
          "internalType": "bytes32",
          "name": "role",
          "type": "bytes32"
        },
        {
          "indexed": true,
          "internalType": "address",
          "name": "account",
          "type": "address"
        },
        {
          "indexed": true,
          "internalType": "address",
          "name": "sender",
          "type": "address"
        }
      ],
      "name": "RoleRevoked",
      "type": "event"
    },
    {
      "anonymous": false,
      "inputs": [
        {
          "indexed": false,
          "internalType": "address",
          "name": "wallet",
          "type": "address"
        },
        {
          "indexed": false,
          "internalType": "string",
          "name": "symbol",
          "type": "string"
        },
        {
          "indexed": false,
          "internalType": "uint256",
          "name": "quantity",
          "type": "uint256"
        },
        {
          "indexed": false,
          "internalType": "address",
          "name": "service",
          "type": "address"
        }
      ],
      "name": "Staked",
      "type": "event"
    },
    {
      "anonymous": false,
      "inputs": [
        {
          "indexed": false,
          "internalType": "address",
          "name": "account",
          "type": "address"
        }
      ],
      "name": "Unpaused",
      "type": "event"
    },
    {
      "anonymous": false,
      "inputs": [
        {
          "indexed": false,
          "internalType": "address",
          "name": "wallet",
          "type": "address"
        },
        {
          "indexed": false,
          "internalType": "string",
          "name": "symbol",
          "type": "string"
        },
        {
          "indexed": false,
          "internalType": "uint256",
          "name": "quantity",
          "type": "uint256"
        },
        {
          "indexed": false,
          "internalType": "address",
          "name": "service",
          "type": "address"
        }
      ],
      "name": "Unstaked",
      "type": "event"
    },
    {
      "anonymous": false,
      "inputs": [
        {
          "indexed": true,
          "internalType": "address",
          "name": "implementation",
          "type": "address"
        }
      ],
      "name": "Upgraded",
      "type": "event"
    },
    {
      "inputs": [],
      "name": "DEFAULT_ADMIN_ROLE",
      "outputs": [
        {
          "internalType": "bytes32",
          "name": "",
          "type": "bytes32"
        }
      ],
      "stateMutability": "view",
      "type": "function"
    },
    {
      "inputs": [],
      "name": "MINTER_ROLE",
      "outputs": [
        {
          "internalType": "bytes32",
          "name": "",
          "type": "bytes32"
        }
      ],
      "stateMutability": "view",
      "type": "function"
    },
    {
      "inputs": [],
      "name": "PAUSER_ROLE",
      "outputs": [
        {
          "internalType": "bytes32",
          "name": "",
          "type": "bytes32"
        }
      ],
      "stateMutability": "view",
      "type": "function"
    },
    {
      "inputs": [],
      "name": "UPGRADER_ROLE",
      "outputs": [
        {
          "internalType": "bytes32",
          "name": "",
          "type": "bytes32"
        }
      ],
      "stateMutability": "view",
      "type": "function"
    },
    {
      "inputs": [
        {
          "internalType": "address",
          "name": "wallet",
          "type": "address"
        },
        {
          "internalType": "string",
          "name": "symbol",
          "type": "string"
        },
        {
          "internalType": "uint256",
          "name": "balance",
          "type": "uint256"
        },
        {
          "internalType": "uint256",
          "name": "quantityToSell",
          "type": "uint256"
        }
      ],
      "name": "canSellSymbol",
      "outputs": [
        {
          "internalType": "bool",
          "name": "",
          "type": "bool"
        }
      ],
      "stateMutability": "view",
      "type": "function"
    },
    {
      "inputs": [
        {
          "internalType": "bytes32",
          "name": "role",
          "type": "bytes32"
        }
      ],
      "name": "getRoleAdmin",
      "outputs": [
        {
          "internalType": "bytes32",
          "name": "",
          "type": "bytes32"
        }
      ],
      "stateMutability": "view",
      "type": "function"
    },
    {
      "inputs": [
        {
          "internalType": "address",
          "name": "wallet",
          "type": "address"
        },
        {
          "internalType": "string",
          "name": "symbol",
          "type": "string"
        }
      ],
      "name": "getStakingInfo",
      "outputs": [
        {
          "components": [
            {
              "internalType": "address",
              "name": "service",
              "type": "address"
            },
            {
              "internalType": "uint256",
              "name": "quantity",
              "type": "uint256"
            },
            {
              "internalType": "enum StakingPool.Status",
              "name": "status",
              "type": "uint8"
            }
          ],
          "internalType": "struct StakingPool.StakingInfo",
          "name": "",
          "type": "tuple"
        }
      ],
      "stateMutability": "view",
      "type": "function"
    },
    {
      "inputs": [
        {
          "internalType": "address",
          "name": "wallet",
          "type": "address"
        }
      ],
      "name": "getSymbols",
      "outputs": [
        {
          "internalType": "string[]",
          "name": "",
          "type": "string[]"
        }
      ],
      "stateMutability": "view",
      "type": "function"
    },
    {
      "inputs": [
        {
          "internalType": "bytes32",
          "name": "role",
          "type": "bytes32"
        },
        {
          "internalType": "address",
          "name": "account",
          "type": "address"
        }
      ],
      "name": "grantRole",
      "outputs": [],
      "stateMutability": "nonpayable",
      "type": "function"
    },
    {
      "inputs": [
        {
          "internalType": "bytes32",
          "name": "role",
          "type": "bytes32"
        },
        {
          "internalType": "address",
          "name": "account",
          "type": "address"
        }
      ],
      "name": "hasRole",
      "outputs": [
        {
          "internalType": "bool",
          "name": "",
          "type": "bool"
        }
      ],
      "stateMutability": "view",
      "type": "function"
    },
    {
      "inputs": [],
      "name": "initialize",
      "outputs": [],
      "stateMutability": "nonpayable",
      "type": "function"
    },
    {
      "inputs": [
        {
          "internalType": "address",
          "name": "wallet",
          "type": "address"
        }
      ],
      "name": "liquidate",
      "outputs": [],
      "stateMutability": "nonpayable",
      "type": "function"
    },
    {
      "inputs": [
        {
          "internalType": "address",
          "name": "wallet",
          "type": "address"
        },
        {
          "internalType": "string",
          "name": "symbol",
          "type": "string"
        },
        {
          "internalType": "address",
          "name": "service",
          "type": "address"
        }
      ],
      "name": "liquidated",
      "outputs": [],
      "stateMutability": "nonpayable",
      "type": "function"
    },
    {
      "inputs": [],
      "name": "pause",
      "outputs": [],
      "stateMutability": "nonpayable",
      "type": "function"
    },
    {
      "inputs": [],
      "name": "paused",
      "outputs": [
        {
          "internalType": "bool",
          "name": "",
          "type": "bool"
        }
      ],
      "stateMutability": "view",
      "type": "function"
    },
    {
      "inputs": [],
      "name": "proxiableUUID",
      "outputs": [
        {
          "internalType": "bytes32",
          "name": "",
          "type": "bytes32"
        }
      ],
      "stateMutability": "view",
      "type": "function"
    },
    {
      "inputs": [
        {
          "internalType": "bytes32",
          "name": "role",
          "type": "bytes32"
        },
        {
          "internalType": "address",
          "name": "account",
          "type": "address"
        }
      ],
      "name": "renounceRole",
      "outputs": [],
      "stateMutability": "nonpayable",
      "type": "function"
    },
    {
      "inputs": [
        {
          "internalType": "bytes32",
          "name": "role",
          "type": "bytes32"
        },
        {
          "internalType": "address",
          "name": "account",
          "type": "address"
        }
      ],
      "name": "revokeRole",
      "outputs": [],
      "stateMutability": "nonpayable",
      "type": "function"
    },
    {
      "inputs": [
        {
          "internalType": "address",
          "name": "liminalMarketAddress",
          "type": "address"
        },
        {
          "internalType": "address",
          "name": "serviceSettingsAddress",
          "type": "address"
        }
      ],
      "name": "setAddresses",
      "outputs": [],
      "stateMutability": "nonpayable",
      "type": "function"
    },
    {
      "inputs": [
        {
          "internalType": "address",
          "name": "wallet",
          "type": "address"
        },
        {
          "internalType": "string",
          "name": "symbol",
          "type": "string"
        },
        {
          "internalType": "uint256",
          "name": "quantity",
          "type": "uint256"
        }
      ],
      "name": "stake",
      "outputs": [],
      "stateMutability": "nonpayable",
      "type": "function"
    },
    {
      "inputs": [
        {
          "internalType": "address",
          "name": "",
          "type": "address"
        },
        {
          "internalType": "string",
          "name": "",
          "type": "string"
        }
      ],
      "name": "stakings",
      "outputs": [
        {
          "internalType": "address",
          "name": "service",
          "type": "address"
        },
        {
          "internalType": "uint256",
          "name": "quantity",
          "type": "uint256"
        },
        {
          "internalType": "enum StakingPool.Status",
          "name": "status",
          "type": "uint8"
        }
      ],
      "stateMutability": "view",
      "type": "function"
    },
    {
      "inputs": [
        {
          "internalType": "bytes4",
          "name": "interfaceId",
          "type": "bytes4"
        }
      ],
      "name": "supportsInterface",
      "outputs": [
        {
          "internalType": "bool",
          "name": "",
          "type": "bool"
        }
      ],
      "stateMutability": "view",
      "type": "function"
    },
    {
      "inputs": [
        {
          "internalType": "address",
          "name": "",
          "type": "address"
        },
        {
          "internalType": "uint256",
          "name": "",
          "type": "uint256"
        }
      ],
      "name": "symbols",
      "outputs": [
        {
          "internalType": "string",
          "name": "",
          "type": "string"
        }
      ],
      "stateMutability": "view",
      "type": "function"
    },
    {
      "inputs": [],
      "name": "unpause",
      "outputs": [],
      "stateMutability": "nonpayable",
      "type": "function"
    },
    {
      "inputs": [
        {
          "internalType": "address",
          "name": "wallet",
          "type": "address"
        },
        {
          "internalType": "string",
          "name": "symbol",
          "type": "string"
        },
        {
          "internalType": "uint256",
          "name": "quantity",
          "type": "uint256"
        }
      ],
      "name": "unstake",
      "outputs": [],
      "stateMutability": "nonpayable",
      "type": "function"
    },
    {
      "inputs": [
        {
          "internalType": "address",
          "name": "newImplementation",
          "type": "address"
        }
      ],
      "name": "upgradeTo",
      "outputs": [],
      "stateMutability": "nonpayable",
      "type": "function"
    },
    {
      "inputs": [
        {
          "internalType": "address",
          "name": "newImplementation",
          "type": "address"
        },
        {
          "internalType": "bytes",
          "name": "data",
          "type": "bytes"
        }
      ],
      "name": "upgradeToAndCall",
      "outputs": [],
      "stateMutability": "payable",
      "type": "function"
    }
  ],
  "bytecode": "0x60a0604052306080523480156200001557600080fd5b50600054610100900460ff1615808015620000375750600054600160ff909116105b8062000067575062000054306200014160201b62001d4f1760201c565b15801562000067575060005460ff166001145b620000cf5760405162461bcd60e51b815260206004820152602e60248201527f496e697469616c697a61626c653a20636f6e747261637420697320616c72656160448201526d191e481a5b9a5d1a585b1a5e995960921b606482015260840160405180910390fd5b6000805460ff191660011790558015620000f3576000805461ff0019166101001790555b80156200013a576000805461ff0019169055604051600181527f7f26b83ff96e1f2b6a682f133852f6798a09c465da95921460cefb38474024989060200160405180910390a15b5062000150565b6001600160a01b03163b151590565b6080516132476200019660003960008181610abc01528181610b5201528181610c8b01528181610d2101528181610e1801528181611ec10152611f5701526132476000f3fe6080604052600436106101ab5760003560e01c80635c975abb116100ec5780639c45c8291161008a578063d547741f11610064578063d547741f14610522578063d6f31b3114610542578063e63ab1e91461056f578063f72c0d8b146105a357600080fd5b80639c45c829146104b9578063a217fddf146104d9578063d5391393146104ee57600080fd5b80638456cb59116100c65780638456cb591461041e57806390107afe1461043357806390b8436f1461045357806391d148541461047357600080fd5b80635c975abb146103c45780638129fc1c146103dc578063823c9ff9146103f157600080fd5b8063336d6736116101595780633f4ba83a116101335780633f4ba83a146103675780634f1ef2861461037c57806352d1902d1461038f57806357c6ea3e146103a457600080fd5b8063336d6736146102b257806336568abe146103275780633659cfe61461034757600080fd5b8063248a9ca31161018a578063248a9ca3146102345780632f2ff15d146102725780632f8655681461029257600080fd5b80625fc3db146101b057806301ffc9a7146101d25780630bd2b48614610207575b600080fd5b3480156101bc57600080fd5b506101d06101cb366004612a7b565b6105d7565b005b3480156101de57600080fd5b506101f26101ed366004612adf565b610679565b60405190151581526020015b60405180910390f35b34801561021357600080fd5b50610227610222366004612b21565b610712565b6040516101fe9190612ba9565b34801561024057600080fd5b5061026461024f366004612be1565b60009081526097602052604090206001015490565b6040519081526020016101fe565b34801561027e57600080fd5b506101d061028d366004612bfa565b6107c5565b34801561029e57600080fd5b506101d06102ad366004612c2a565b6107ef565b3480156102be57600080fd5b506103186102cd366004612b21565b61012f60209081526000928352604090922081518083018401805192815290840192909301919091209152805460018201546002909201546001600160a01b03909116919060ff1683565b6040516101fe93929190612c47565b34801561033357600080fd5b506101d0610342366004612bfa565b610a26565b34801561035357600080fd5b506101d0610362366004612c2a565b610ab2565b34801561037357600080fd5b506101d0610c4f565b6101d061038a366004612c6b565b610c81565b34801561039b57600080fd5b50610264610e0b565b3480156103b057600080fd5b506101d06103bf366004612cc5565b610ed0565b3480156103d057600080fd5b5060335460ff166101f2565b3480156103e857600080fd5b506101d061120f565b3480156103fd57600080fd5b5061041161040c366004612d1e565b6113c7565b6040516101fe9190612d9a565b34801561042a57600080fd5b506101d0611481565b34801561043f57600080fd5b506101d061044e366004612dad565b6114b3565b34801561045f57600080fd5b506101d061046e366004612cc5565b6114fc565b34801561047f57600080fd5b506101f261048e366004612bfa565b60009182526097602090815260408084206001600160a01b0393909316845291905290205460ff1690565b3480156104c557600080fd5b506101f26104d4366004612ddb565b611b94565b3480156104e557600080fd5b50610264600081565b3480156104fa57600080fd5b506102647f9f2df0fed2c77648de5860a4cc508cd0818c85b8b8a1ab4ceeef8d981c8956a681565b34801561052e57600080fd5b506101d061053d366004612bfa565b611c3a565b34801561054e57600080fd5b5061056261055d366004612c2a565b611c5f565b6040516101fe9190612e3b565b34801561057b57600080fd5b506102647f65d7a28e3265b37a6474929f336521b332c1681b933f6cb9f3376673440d862a81565b3480156105af57600080fd5b506102647f189ab7a9244df0848122154315af71fe140f3db0fe014031783b0946b8c9d2e381565b6001600160a01b038316600090815261012f60205260409081902090516105ff908490612ebb565b908152604051908190036020018120805473ffffffffffffffffffffffffffffffffffffffff1916815560006001820155600201805460ff191690557f9a73ad4ad76ca9e88793ff8075d71d9a0a43d2945c15ed67ef91bfad3c0355cd9061066c90859085908590612ed7565b60405180910390a1505050565b60007fffffffff0000000000000000000000000000000000000000000000000000000082167f7965db0b00000000000000000000000000000000000000000000000000000000148061070c57507f01ffc9a7000000000000000000000000000000000000000000000000000000007fffffffff000000000000000000000000000000000000000000000000000000008316145b92915050565b61073360408051606081018252600080825260208201819052909182015290565b6001600160a01b038316600090815261012f602052604090819020905161075b908490612ebb565b90815260408051918290036020908101832060608401835280546001600160a01b03168452600181015491840191909152600280820154919284019160ff16908111156107aa576107aa612b71565b60028111156107bb576107bb612b71565b9052509392505050565b6000828152609760205260409020600101546107e081611d5e565b6107ea8383611d68565b505050565b61012d54604051630ad2918160e11b81523360048201526000916001600160a01b0316906315a5230290602401602060405180830381865afa158015610839573d6000803e3d6000fd5b505050506040513d601f19601f8201168201806040525081019061085d9190612f0d565b90506001600160a01b0381166108e05760405162461bcd60e51b815260206004820152603060248201527f596f7520646f6e27742068617665207365727669636520636f6e74726163742060448201527f616e642063616e6e6f74207374616b650000000000000000000000000000000060648201526084015b60405180910390fd5b60006108eb83611c5f565b905060005b8151811015610a20576001600160a01b038416600090815261012f60205260409020825133919084908490811061092957610929612f2a565b602002602001015160405161093e9190612ebb565b908152604051908190036020019020546001600160a01b031603610a0e577fbe28fbc5f1192e19f0f5aafbc507aea84fb4c06c0621fb85d2b646b2e30f96838483838151811061099057610990612f2a565b602002602001015161012f6000886001600160a01b03166001600160a01b031681526020019081526020016000208585815181106109d0576109d0612f2a565b60200260200101516040516109e59190612ebb565b90815260405190819003602001812060010154610a059392913390612f40565b60405180910390a15b80610a1881612f92565b9150506108f0565b50505050565b6001600160a01b0381163314610aa45760405162461bcd60e51b815260206004820152602f60248201527f416363657373436f6e74726f6c3a2063616e206f6e6c792072656e6f756e636560448201527f20726f6c657320666f722073656c66000000000000000000000000000000000060648201526084016108d7565b610aae8282611e0a565b5050565b6001600160a01b037f0000000000000000000000000000000000000000000000000000000000000000163003610b505760405162461bcd60e51b815260206004820152602c60248201527f46756e6374696f6e206d7573742062652063616c6c6564207468726f7567682060448201527f64656c656761746563616c6c000000000000000000000000000000000000000060648201526084016108d7565b7f00000000000000000000000000000000000000000000000000000000000000006001600160a01b0316610bab7f360894a13ba1a3210667c828492db98dca3e2076cc3735a920a3ca505d382bbc546001600160a01b031690565b6001600160a01b031614610c275760405162461bcd60e51b815260206004820152602c60248201527f46756e6374696f6e206d7573742062652063616c6c6564207468726f7567682060448201527f6163746976652070726f7879000000000000000000000000000000000000000060648201526084016108d7565b610c3081611e8d565b60408051600080825260208201909252610c4c91839190612035565b50565b7f65d7a28e3265b37a6474929f336521b332c1681b933f6cb9f3376673440d862a610c7981611d5e565b610c4c6121d5565b6001600160a01b037f0000000000000000000000000000000000000000000000000000000000000000163003610d1f5760405162461bcd60e51b815260206004820152602c60248201527f46756e6374696f6e206d7573742062652063616c6c6564207468726f7567682060448201527f64656c656761746563616c6c000000000000000000000000000000000000000060648201526084016108d7565b7f00000000000000000000000000000000000000000000000000000000000000006001600160a01b0316610d7a7f360894a13ba1a3210667c828492db98dca3e2076cc3735a920a3ca505d382bbc546001600160a01b031690565b6001600160a01b031614610df65760405162461bcd60e51b815260206004820152602c60248201527f46756e6374696f6e206d7573742062652063616c6c6564207468726f7567682060448201527f6163746976652070726f7879000000000000000000000000000000000000000060648201526084016108d7565b610dff82611e8d565b610aae82826001612035565b6000306001600160a01b037f00000000000000000000000000000000000000000000000000000000000000001614610eab5760405162461bcd60e51b815260206004820152603860248201527f555550535570677261646561626c653a206d757374206e6f742062652063616c60448201527f6c6564207468726f7567682064656c656761746563616c6c000000000000000060648201526084016108d7565b507f360894a13ba1a3210667c828492db98dca3e2076cc3735a920a3ca505d382bbc90565b61012d54604051630ad2918160e11b81523360048201526000916001600160a01b0316906315a5230290602401602060405180830381865afa158015610f1a573d6000803e3d6000fd5b505050506040513d601f19601f82011682018060405250810190610f3e9190612f0d565b90506001600160a01b038116610fbc5760405162461bcd60e51b815260206004820152603060248201527f596f7520646f6e27742068617665207365727669636520636f6e74726163742060448201527f616e642063616e6e6f74207374616b650000000000000000000000000000000060648201526084016108d7565b6001600160a01b038416600090815261012f6020526040908190209051339190610fe7908690612ebb565b908152604051908190036020019020546001600160a01b0316146110725760405162461bcd60e51b8152602060048201526024808201527f5365727669636520646f65736e2774206861766520616e797468696e6720737460448201527f616b65640000000000000000000000000000000000000000000000000000000060648201526084016108d7565b6001600160a01b038416600090815261012f602052604090819020905183919061109d908690612ebb565b90815260200160405180910390206001015410156110fd5760405162461bcd60e51b815260206004820152601d60248201527f5175616e74697479207374616b6564206973206e6f7420656e6f75676800000060448201526064016108d7565b6001600160a01b038416600090815261012f6020526040908190209051839190611128908690612ebb565b908152602001604051809103902060010160008282546111489190612fac565b90915550506001600160a01b038416600090815261012f6020526040908190209051611175908590612ebb565b9081526020016040518091039020600101546000036111cc576001600160a01b038416600090815261012f60205260409081902090516111b6908590612ebb565b9081526020016040518091039020600101600090555b7fbb8f8bea22c9ed312d531eda2978b692aea7b85ddf098e329b2cba82e01e0c7c848484336040516112019493929190612f40565b60405180910390a150505050565b600054610100900460ff161580801561122f5750600054600160ff909116105b806112495750303b158015611249575060005460ff166001145b6112bb5760405162461bcd60e51b815260206004820152602e60248201527f496e697469616c697a61626c653a20636f6e747261637420697320616c72656160448201527f647920696e697469616c697a656400000000000000000000000000000000000060648201526084016108d7565b6000805460ff1916600117905580156112de576000805461ff0019166101001790555b6112e6612227565b6112ee6122ae565b6112f66122ae565b611301600033611d68565b61132b7f65d7a28e3265b37a6474929f336521b332c1681b933f6cb9f3376673440d862a33611d68565b6113557f9f2df0fed2c77648de5860a4cc508cd0818c85b8b8a1ab4ceeef8d981c8956a633611d68565b61137f7f189ab7a9244df0848122154315af71fe140f3db0fe014031783b0946b8c9d2e333611d68565b8015610c4c576000805461ff0019169055604051600181527f7f26b83ff96e1f2b6a682f133852f6798a09c465da95921460cefb38474024989060200160405180910390a150565b61013060205281600052604060002081815481106113e457600080fd5b9060005260206000200160009150915050805461140090612fbf565b80601f016020809104026020016040519081016040528092919081815260200182805461142c90612fbf565b80156114795780601f1061144e57610100808354040283529160200191611479565b820191906000526020600020905b81548152906001019060200180831161145c57829003601f168201915b505050505081565b7f65d7a28e3265b37a6474929f336521b332c1681b933f6cb9f3376673440d862a6114ab81611d5e565b610c4c61232b565b60006114be81611d5e565b5061012e80546001600160a01b0393841673ffffffffffffffffffffffffffffffffffffffff199182161790915561012d8054929093169116179055565b61012d54604051630ad2918160e11b81523360048201526000916001600160a01b0316906315a5230290602401602060405180830381865afa158015611546573d6000803e3d6000fd5b505050506040513d601f19601f8201168201806040525081019061156a9190612f0d565b90506001600160a01b0381166115e85760405162461bcd60e51b815260206004820152603060248201527f596f7520646f6e27742068617665207365727669636520636f6e74726163742060448201527f616e642063616e6e6f74207374616b650000000000000000000000000000000060648201526084016108d7565b61012e546040517f629bc1550000000000000000000000000000000000000000000000000000000081526000916001600160a01b03169063629bc15590611633908790600401612d9a565b602060405180830381865afa158015611650573d6000803e3d6000fd5b505050506040513d601f19601f820116820180604052508101906116749190612f0d565b90506001600160a01b0381166116cc5760405162461bcd60e51b815260206004820152601860248201527f53796d626f6c20636f756c646e277420626520666f756e64000000000000000060448201526064016108d7565b6040517fdd62ed3e0000000000000000000000000000000000000000000000000000000081526001600160a01b0386811660048301523360248301528291859183169063dd62ed3e90604401602060405180830381865afa158015611735573d6000803e3d6000fd5b505050506040513d601f19601f820116820180604052508101906117599190612ff9565b10156117a75760405162461bcd60e51b815260206004820152601e60248201527f5365727669636520646f65736e2774206861766520616c6c6f77616e6365000060448201526064016108d7565b6001600160a01b038616600090815261012f60205260409081902090513391906117d2908890612ebb565b908152604051908190036020019020546001600160a01b0316148061183457506001600160a01b038616600090815261012f60205260408082209051611819908890612ebb565b908152604051908190036020019020546001600160a01b0316145b6118a65760405162461bcd60e51b815260206004820152602a60248201527f53796d626f6c20616c7265616479207374616b6564207769746820616e6f746860448201527f657220736572766963650000000000000000000000000000000000000000000060648201526084016108d7565b6040517f70a082310000000000000000000000000000000000000000000000000000000081526001600160a01b038781166004830152600091908316906370a0823190602401602060405180830381865afa158015611909573d6000803e3d6000fd5b505050506040513d601f19601f8201168201806040525081019061192d9190612ff9565b6001600160a01b038816600090815261012f602052604080822090519293509091611959908990612ebb565b908152602001604051809103902060010154826119769190612fac565b9050858110156119c85760405162461bcd60e51b815260206004820152601e60248201527f446f6e2774206861766520656e6f7567682071747920746f207374616b65000060448201526064016108d7565b6001600160a01b038816600090815261012f602052604080822090516119ef908a90612ebb565b908152604051908190036020019020546001600160a01b031603611afc576040805160608101825233815260208101889052908101600090526001600160a01b038916600090815261012f6020526040908190209051611a50908a90612ebb565b90815260408051602092819003830190208351815473ffffffffffffffffffffffffffffffffffffffff19166001600160a01b039091161781559183015160018084019190915590830151600280840180549293909260ff1916918490811115611abc57611abc612b71565b021790555050506001600160a01b03881660009081526101306020908152604082208054600181018255908352912001611af68882613060565b50611b4d565b6001600160a01b038816600090815261012f6020526040908190209051879190611b27908a90612ebb565b90815260200160405180910390206001016000828254611b479190613120565b90915550505b7fc0233877ef048f98f703a2aa2bfc894f4249db963d298cde11042ad96aacf31388888833604051611b829493929190612f40565b60405180910390a15050505050505050565b6001600160a01b038416600090815261012f60205260408082209051611bbb908690612ebb565b908152602001604051809103902060010154600003611bdc57506001611c32565b611be68284612fac565b6001600160a01b038616600090815261012f6020526040908190209051611c0e908790612ebb565b9081526020016040518091039020600101541115611c2e57506000611c32565b5060015b949350505050565b600082815260976020526040902060010154611c5581611d5e565b6107ea8383611e0a565b6001600160a01b038116600090815261013060209081526040808320805482518185028101850190935280835260609492939192909184015b82821015611d44578382906000526020600020018054611cb790612fbf565b80601f0160208091040260200160405190810160405280929190818152602001828054611ce390612fbf565b8015611d305780601f10611d0557610100808354040283529160200191611d30565b820191906000526020600020905b815481529060010190602001808311611d1357829003601f168201915b505050505081526020019060010190611c98565b505050509050919050565b6001600160a01b03163b151590565b610c4c8133612368565b60008281526097602090815260408083206001600160a01b038516845290915290205460ff16610aae5760008281526097602090815260408083206001600160a01b03851684529091529020805460ff19166001179055611dc63390565b6001600160a01b0316816001600160a01b0316837f2f8788117e7eff1d82e926ec794901d17c78024a50270940304540a733656f0d60405160405180910390a45050565b60008281526097602090815260408083206001600160a01b038516845290915290205460ff1615610aae5760008281526097602090815260408083206001600160a01b0385168085529252808320805460ff1916905551339285917ff6391f5c32d9c69d2a47ea670b442974b53935d1edc7fd64eb21e047a839171b9190a45050565b7f189ab7a9244df0848122154315af71fe140f3db0fe014031783b0946b8c9d2e3611eb781611d5e565b6001600160a01b037f0000000000000000000000000000000000000000000000000000000000000000163003611f555760405162461bcd60e51b815260206004820152602c60248201527f46756e6374696f6e206d7573742062652063616c6c6564207468726f7567682060448201527f64656c656761746563616c6c000000000000000000000000000000000000000060648201526084016108d7565b7f00000000000000000000000000000000000000000000000000000000000000006001600160a01b0316611fb07f360894a13ba1a3210667c828492db98dca3e2076cc3735a920a3ca505d382bbc546001600160a01b031690565b6001600160a01b03161461202c5760405162461bcd60e51b815260206004820152602c60248201527f46756e6374696f6e206d7573742062652063616c6c6564207468726f7567682060448201527f6163746976652070726f7879000000000000000000000000000000000000000060648201526084016108d7565b610aae826123e8565b7f4910fdfa16fed3260ed0e7147f7cc6da11a60208b5b9406d12a635614ffd91435460ff1615612068576107ea83612428565b826001600160a01b03166352d1902d6040518163ffffffff1660e01b8152600401602060405180830381865afa9250505080156120c2575060408051601f3d908101601f191682019092526120bf91810190612ff9565b60015b6121345760405162461bcd60e51b815260206004820152602e60248201527f45524331393637557067726164653a206e657720696d706c656d656e7461746960448201527f6f6e206973206e6f74205555505300000000000000000000000000000000000060648201526084016108d7565b7f360894a13ba1a3210667c828492db98dca3e2076cc3735a920a3ca505d382bbc81146121c95760405162461bcd60e51b815260206004820152602960248201527f45524331393637557067726164653a20756e737570706f727465642070726f7860448201527f6961626c6555554944000000000000000000000000000000000000000000000060648201526084016108d7565b506107ea8383836124f3565b6121dd612518565b6033805460ff191690557f5db9ee0a495bf2e6ff9c91a7834c1ba4fdd244a5e8aa4e537bd38aeae4b073aa335b6040516001600160a01b03909116815260200160405180910390a1565b600054610100900460ff166122a45760405162461bcd60e51b815260206004820152602b60248201527f496e697469616c697a61626c653a20636f6e7472616374206973206e6f74206960448201527f6e697469616c697a696e6700000000000000000000000000000000000000000060648201526084016108d7565b6122ac61256a565b565b600054610100900460ff166122ac5760405162461bcd60e51b815260206004820152602b60248201527f496e697469616c697a61626c653a20636f6e7472616374206973206e6f74206960448201527f6e697469616c697a696e6700000000000000000000000000000000000000000060648201526084016108d7565b6123336125f3565b6033805460ff191660011790557f62e78cea01bee320cd4e420270b5ea74000d11b0c9f74754ebdbfc544b05a25861220a3390565b60008281526097602090815260408083206001600160a01b038516845290915290205460ff16610aae576123a6816001600160a01b03166014612646565b6123b1836020612646565b6040516020016123c2929190613133565b60408051601f198184030181529082905262461bcd60e51b82526108d791600401612d9a565b6123f181612428565b6040516001600160a01b038216907fbc7cd75a20ee27fd9adebab32041f755214dbc6bffa90cc0225b39da2e5c2d3b90600090a250565b6001600160a01b0381163b6124a55760405162461bcd60e51b815260206004820152602d60248201527f455243313936373a206e657720696d706c656d656e746174696f6e206973206e60448201527f6f74206120636f6e74726163740000000000000000000000000000000000000060648201526084016108d7565b7f360894a13ba1a3210667c828492db98dca3e2076cc3735a920a3ca505d382bbc805473ffffffffffffffffffffffffffffffffffffffff19166001600160a01b0392909216919091179055565b6124fc836123e8565b6000825111806125095750805b156107ea57610a208383612876565b60335460ff166122ac5760405162461bcd60e51b815260206004820152601460248201527f5061757361626c653a206e6f742070617573656400000000000000000000000060448201526064016108d7565b600054610100900460ff166125e75760405162461bcd60e51b815260206004820152602b60248201527f496e697469616c697a61626c653a20636f6e7472616374206973206e6f74206960448201527f6e697469616c697a696e6700000000000000000000000000000000000000000060648201526084016108d7565b6033805460ff19169055565b60335460ff16156122ac5760405162461bcd60e51b815260206004820152601060248201527f5061757361626c653a207061757365640000000000000000000000000000000060448201526064016108d7565b606060006126558360026131b4565b612660906002613120565b67ffffffffffffffff811115612678576126786129cf565b6040519080825280601f01601f1916602001820160405280156126a2576020820181803683370190505b5090507f3000000000000000000000000000000000000000000000000000000000000000816000815181106126d9576126d9612f2a565b60200101907effffffffffffffffffffffffffffffffffffffffffffffffffffffffffffff1916908160001a9053507f78000000000000000000000000000000000000000000000000000000000000008160018151811061273c5761273c612f2a565b60200101907effffffffffffffffffffffffffffffffffffffffffffffffffffffffffffff1916908160001a90535060006127788460026131b4565b612783906001613120565b90505b6001811115612820577f303132333435363738396162636465660000000000000000000000000000000085600f16601081106127c4576127c4612f2a565b1a60f81b8282815181106127da576127da612f2a565b60200101907effffffffffffffffffffffffffffffffffffffffffffffffffffffffffffff1916908160001a90535060049490941c93612819816131d3565b9050612786565b50831561286f5760405162461bcd60e51b815260206004820181905260248201527f537472696e67733a20686578206c656e67746820696e73756666696369656e7460448201526064016108d7565b9392505050565b60606001600160a01b0383163b6128f55760405162461bcd60e51b815260206004820152602660248201527f416464726573733a2064656c65676174652063616c6c20746f206e6f6e2d636f60448201527f6e7472616374000000000000000000000000000000000000000000000000000060648201526084016108d7565b600080846001600160a01b0316846040516129109190612ebb565b600060405180830381855af49150503d806000811461294b576040519150601f19603f3d011682016040523d82523d6000602084013e612950565b606091505b509150915061297882826040518060600160405280602781526020016131eb60279139612981565b95945050505050565b6060831561299057508161286f565b8251156129a05782518084602001fd5b8160405162461bcd60e51b81526004016108d79190612d9a565b6001600160a01b0381168114610c4c57600080fd5b634e487b7160e01b600052604160045260246000fd5b600067ffffffffffffffff80841115612a0057612a006129cf565b604051601f8501601f19908116603f01168101908282118183101715612a2857612a286129cf565b81604052809350858152868686011115612a4157600080fd5b858560208301376000602087830101525050509392505050565b600082601f830112612a6c57600080fd5b61286f838335602085016129e5565b600080600060608486031215612a9057600080fd5b8335612a9b816129ba565b9250602084013567ffffffffffffffff811115612ab757600080fd5b612ac386828701612a5b565b9250506040840135612ad4816129ba565b809150509250925092565b600060208284031215612af157600080fd5b81357fffffffff000000000000000000000000000000000000000000000000000000008116811461286f57600080fd5b60008060408385031215612b3457600080fd5b8235612b3f816129ba565b9150602083013567ffffffffffffffff811115612b5b57600080fd5b612b6785828601612a5b565b9150509250929050565b634e487b7160e01b600052602160045260246000fd5b60038110612ba557634e487b7160e01b600052602160045260246000fd5b9052565b60006060820190506001600160a01b038351168252602083015160208301526040830151612bda6040840182612b87565b5092915050565b600060208284031215612bf357600080fd5b5035919050565b60008060408385031215612c0d57600080fd5b823591506020830135612c1f816129ba565b809150509250929050565b600060208284031215612c3c57600080fd5b813561286f816129ba565b6001600160a01b03841681526020810183905260608101611c326040830184612b87565b60008060408385031215612c7e57600080fd5b8235612c89816129ba565b9150602083013567ffffffffffffffff811115612ca557600080fd5b8301601f81018513612cb657600080fd5b612b67858235602084016129e5565b600080600060608486031215612cda57600080fd5b8335612ce5816129ba565b9250602084013567ffffffffffffffff811115612d0157600080fd5b612d0d86828701612a5b565b925050604084013590509250925092565b60008060408385031215612d3157600080fd5b8235612d3c816129ba565b946020939093013593505050565b60005b83811015612d65578181015183820152602001612d4d565b50506000910152565b60008151808452612d86816020860160208601612d4a565b601f01601f19169290920160200192915050565b60208152600061286f6020830184612d6e565b60008060408385031215612dc057600080fd5b8235612dcb816129ba565b91506020830135612c1f816129ba565b60008060008060808587031215612df157600080fd5b8435612dfc816129ba565b9350602085013567ffffffffffffffff811115612e1857600080fd5b612e2487828801612a5b565b949794965050505060408301359260600135919050565b6000602080830181845280855180835260408601915060408160051b870101925083870160005b82811015612eae577fffffffffffffffffffffffffffffffffffffffffffffffffffffffffffffffc0888603018452612e9c858351612d6e565b94509285019290850190600101612e62565b5092979650505050505050565b60008251612ecd818460208701612d4a565b9190910192915050565b60006001600160a01b03808616835260606020840152612efa6060840186612d6e565b9150808416604084015250949350505050565b600060208284031215612f1f57600080fd5b815161286f816129ba565b634e487b7160e01b600052603260045260246000fd5b60006001600160a01b03808716835260806020840152612f636080840187612d6e565b6040840195909552929092166060909101525092915050565b634e487b7160e01b600052601160045260246000fd5b60006000198203612fa557612fa5612f7c565b5060010190565b8181038181111561070c5761070c612f7c565b600181811c90821680612fd357607f821691505b602082108103612ff357634e487b7160e01b600052602260045260246000fd5b50919050565b60006020828403121561300b57600080fd5b5051919050565b601f8211156107ea57600081815260208120601f850160051c810160208610156130395750805b601f850160051c820191505b8181101561305857828155600101613045565b505050505050565b815167ffffffffffffffff81111561307a5761307a6129cf565b61308e816130888454612fbf565b84613012565b602080601f8311600181146130c357600084156130ab5750858301515b600019600386901b1c1916600185901b178555613058565b600085815260208120601f198616915b828110156130f2578886015182559484019460019091019084016130d3565b50858210156131105787850151600019600388901b60f8161c191681555b5050505050600190811b01905550565b8082018082111561070c5761070c612f7c565b7f416363657373436f6e74726f6c3a206163636f756e742000000000000000000081526000835161316b816017850160208801612d4a565b7f206973206d697373696e6720726f6c652000000000000000000000000000000060179184019182015283516131a8816028840160208801612d4a565b01602801949350505050565b60008160001904831182151516156131ce576131ce612f7c565b500290565b6000816131e2576131e2612f7c565b50600019019056fe416464726573733a206c6f772d6c6576656c2064656c65676174652063616c6c206661696c6564a2646970667358221220b99536155a2667b26f02dad9d71adee7fca0632ce16fa54f6574d1d4be12981f64736f6c63430008100033",
  "linkReferences": {},
  "deployedLinkReferences": {}
}